:100000000C949B000C94B8000C94B8000C94B800AD
:100010000C94B8000C94B8000C94B8000C94B80080
:100020000C94B8000C94B8000C94B8000C94B80070
:100030000C94B8000C94B8000C94B8000C94B80060
:100040000C94B60B0C94B8000C94D0120C94B8001D
:100050000C94A7120C94B8000C94B8000C94B8003F
:100060000C94EC0C0C94B8000C94B8000C94B800F0
:100070000C94C40A0C94B8000C94B8000C94B8000A
:100080000C94B8000C94120C0C942D0C0C94B80029
:100090000C94B8000C94B8000C94B8000C94B80000
:1000A0000C94B8000C94B8000C94C60C0C94B800D6
:1000B0000C94B800190D2D0D490DB90DCF0D0D0E75
:1000C000600E920EE50E084AD73B3BCE016E84BC13
:1000D000BFFDC12F3D6C74319ABD56833DDA3D00A2
:1000E000C77F11BED9E4BB4C3E916BAAAABE0000EB
:1000F00000803F00455200000000000000000000AA
:100100000000000000000000080F45525F5245410A
:1001100044000000000000000000000000000E0F7E
:1001200045525F42554600000000000000000000FC
:1001300000000000660F11241FBECFEFD8E0DEBF25
:10014000CDBF11E0A0E0B1E0E4E5F2E302C005902C
:100150000D92AE3AB107D9F724E0AEEAB1E001C0A2
:100160001D92AF38B207E1F70E9484040C9428195D
:100170000C940000FC019091B101292F30E04081E6
:100180005181220F331FD901AA54BE4F4D935C9366
:1001900042815381D901A052BE4F4D935C9344815B
:1001A0005581F901E156FD4F518340839F5F9531A1
:1001B00019F09093B10102C01092B1018091B10188
:1001C0009091B001891303C08F5F8093B00180913B
:1001D000B001853111F41092B0010895FC019091A5
:1001E000AF01292F30E040815181220F331FD90107
:1001F000AC5CBD4F4D935C9342815381D901AC58A7
:10020000BD4F4D935C9344815581F901E65FFD4FED
:10021000518340839F5F953119F09093AF0102C0E5
:100220001092AF018091AF019091AE01891303C08C
:100230008F5F8093AE018091AE01853111F41092F1
:10024000AE010895DC01E091B001F0E0EE0FFF1F78
:10025000EA54FE4F8081918111969C938E939091E8
:10026000B001292F30E0220F331FF901E052FE4F79
:100270004081518113965C934E931297F901E15698
:10028000FD4F2081318115963C932E9314979F5FEB
:10029000953119F09093B00108951092B00108952E
:1002A000DC01E091AE01F0E0EE0FFF1FEC5CFD4FD2
:1002B0008081918111969C938E939091AE01292F0C
:1002C00030E0220F331FF901EC58FD4F408151817E
:1002D00013965C934E931297F901E65FFD4F2081D0
:1002E000318115963C932E9314979F5F953119F0A9
:1002F0009093AE0108951092AE010895DC01E09153
:10030000B101F0E0EE0FFF1FEC54FE4F80819181B0
:1003100011969C938E932091B10130E021503109C8
:10032000220F331FF901E052FE4F80819181139615
:100330009C938E931297F901E156FD4F8081918134
:1003400015969C938E9314970895DC01E091AF016C
:10035000F0E0EE0FFF1FEE5CFD4F80819181119662
:100360009C938E932091AF0130E021503109220FF0
:10037000331FF901EC58FD4F8081918113969C93B6
:100380008E931297F901E65FFD4F8081918115965A
:100390009C938E93149708958091B1019091B00130
:1003A000891B853108F08B5E08958091AF01909193
:1003B000AE01891B853108F08B5E0895CF92DF92E4
:1003C000EF92FF920F931F93CF93DF9300D000D053
:1003D00000D0CDB7DEB7662329F16C017C018C011A
:1003E000085D1F4F6150262F30E02F5F3F4F220FD7
:1003F000331FC20ED31ECE0101960E9422018981B5
:100400009A81F701819391937F012B813C81F801BF
:10041000219331938F012D813E8137A326A3EC14C4
:10042000FD0449F726960FB6F894DEBF0FBECDBF88
:10043000DF91CF911F910F91FF90EF90DF90CF90C0
:100440000895CF92DF92EF92FF920F931F93CF9375
:10045000DF9300D000D000D0CDB7DEB7662329F1FE
:100460006C017C018C01085D1F4F6150262F30E02C
:100470002F5F3F4F220F331FC20ED31ECE010196B6
:100480000E94500189819A81F701819391937F01A4
:100490002B813C81F801219331938F012D813E8185
:1004A00037A326A3EC14FD0449F726960FB6F8945B
:1004B000DEBF0FBECDBFDF91CF911F910F91FF9097
:1004C000EF90DF90CF9008954F925F926F927F925E
:1004D0008F929F92AF92BF92CF92DF92EF92FF9254
:1004E0000F931F93CF93DF93EA016623B9F1DC01E9
:1004F000FC01B8962FEF260F30E02F5F3F4F220F01
:10050000331F820F931F00E010E09801812C912C83
:100510005401C12CD12C76014D915D912A01550FCA
:1005200066087708040D151D261D371D4191519150
:100530002A01550F66087708840C951CA61CB71C69
:1005400046A157A12A01550F66087708C40CD51C8F
:10055000E61CF71CA817B907F9F609C000E010E07F
:100560009801812C912C5401C12CD12C7601462E5E
:10057000512C612C712CC901B801A30192010E9478
:10058000781539832883C501B401A30192010E9423
:1005900078153B832A83C701B601A30192010E940B
:1005A00078153D832C83DF91CF911F910F91FF90A0
:1005B000EF90DF90CF90BF90AF909F908F907F9003
:1005C0006F905F904F900895EF92FF921F93CF939B
:1005D000DF93CDB7DEB7C857D1090FB6F894DEBFA9
:1005E0000FBECDBF7C010E94CC01182F682FCE0119
:1005F00001960E94DE01A701612FCE0101960E94A3
:100600006402C858DF4F0FB6F894DEBF0FBECDBFEF
:10061000DF91CF911F91FF90EF9008952F923F921D
:100620004F925F926F927F928F929F92AF92BF9202
:10063000CF92DF92EF92FF920F931F93CF93DF93AE
:10064000CDB7DEB727970FB6F894DEBF0FBECDBF8C
:100650005E834D83662309F466C08C01FC01B89665
:100660006150262E312C25E1220E311C220C331C28
:10067000280E391EC12CD12C7601C39419821A82FE
:100680001B821C82412C512C3201812C912C540153
:100690001F824F81CC9C400D11244F83D8018D9136
:1006A0009D918D01DC01A70196010E94C6159B0159
:1006B000AC01C701B6010E94681529813A814B81BE
:1006C0005C81260F371F481F591F29833A834B83AC
:1006D0005C83A191B191A70196010E94C6159B016F
:1006E000AC01C701B6010E946815460E571E681E70
:1006F000791EA6A1B7A1A70196010E94C6159B016C
:10070000AC01C701B6010E946815860E971EA81E8F
:10071000B91E3FEFC31AD30AE30AF30AE215F30541
:1007200009F0B7CF0BC019821A821B821C82412CA0
:10073000512C3201812C912C54011F82FF81CF2E2C
:10074000D12CE12CF12C69817A818B819C81A701CC
:1007500096010E947815AD81BE812D933C93C30113
:10076000B201A70196010E947815ED81FE813383C5
:100770002283C501B401A70196010E947815AD81BD
:10078000BE8115963C932E93149727960FB6F89436
:10079000DEBF0FBECDBFDF91CF911F910F91FF90B4
:1007A000EF90DF90CF90BF90AF909F908F907F9011
:1007B0006F905F904F903F902F900895EF92FF922F
:1007C0001F93CF93DF93CDB7DEB7C857D1090FB6CC
:1007D000F894DEBF0FBECDBF7C010E94D501182F5B
:1007E000682FCE0101960E942102A701612FCE0140
:1007F00001960E940E03C858DF4F0FB6F894DEBF73
:100800000FBECDBFDF91CF911F91FF90EF90089564
:1008100084EA8093BC00ECEBF0E080818823ECF765
:10082000089584E98093BC00ECEBF0E0808184FDC6
:10083000FDCF08958093BB0084E88093BC00ECEB6F
:10084000F0E080818823ECF7089520E4829FC001C6
:10085000112484688093BC00ECEBF0E08081882355
:10086000ECF78091BB0008951F93CF93DF93182F6F
:10087000D62FC42F0E940804812F880F0E941A04CB
:100880008D2F0E941A048C2F0E941A040E941104BA
:10089000DF91CF911F910895EF92FF920F931F93D5
:1008A000CF93DF93162FD42FE22EF32EC82FCC0F29
:1008B0000E9408048C2F0E941A04812F0E941A049F
:1008C0000E94080481E08C0F0E941A04CFEFCD0F24
:1008D000DD2389F00E2D1F2DD1E0F12C8D2FC111BC
:1008E00001C08F2D0E942504F80181938F018C2F68
:1008F000C1508111F3CF0E941104DF91CF911F915C
:100900000F91FF90EF900895109270021092710273
:100910001092720210927302109264021092650299
:10092000109266021092670280E284B91092B900B8
:100930008CE08093B80084E08093BC000E945B1040
:100940000E94B50A0E94960B78948CE091E00E9478
:10095000901088EC90E090936F0280936E026EE5A9
:1009600072E088E692E00E9465068AE020E295B196
:10097000922795B93FEF41EE94E0315040409040CE
:10098000E1F700C00000815091F70E9461080E94C9
:100990008D0B0E94100B0E9455120E94C5080E94E8
:1009A0009B0BF9CFCF92DF92EF92FF92CF93DF9321
:1009B0000097C1F1EC01072E000C880B990B0E94E7
:1009C0003C146B017C01BE010D2E000C880B990BB1
:1009D0000E943C149B01AC01C701B6010E94921316
:1009E0000E9463131C161D064CF49B01AC016BEDB9
:1009F0007FE089EC9FE30E94F61207C02BED3FE0F9
:100A000049EC5FE30E94F712905820E030E044E3A5
:100A100053E40E94F7142BED3FE049E450E40E94B8
:100A2000921303C060E070E0CB01DF91CF91FF90A3
:100A3000EF90DF90CF9008958F929F92AF92BF92E8
:100A4000CF92DF92EF92FF92FC01A081B181E28010
:100A5000F380448155819D010E949D154B015C01ED
:100A60009701D7010E949D1575016401C60ED71E1E
:100A7000E81EF91E9A01DA010E949D156C0D7D1D7C
:100A80008E1D9F1DFF90EF90DF90CF90BF90AF9095
:100A90009F908F9008954F925F926F927F928F9266
:100AA0009F92AF92BF92CF92DF92EF92FF920F93FD
:100AB0001F932B013C01D601C5018C5C9C4CAC4CB6
:100AC000BC4088369646A646B640F8F02E0D3F1D2F
:100AD000401F511FA3E6B0E00E94BB154B015C0113
:100AE000C301B2010E9404146B017C01C501B40171
:100AF00024E630E040E050E00E947815C701B601DE
:100B0000620F731F841F951F24C02E0D3F1D401FB1
:100B1000511FAFE5B0E00E94BB154B015C0120E026
:100B200030E040EA50E4C301B2010E94F7140E9491
:100B300004146B017C01C501B40124E630E040E0FF
:100B400050E00E947815C701B601620F731F841F21
:100B5000951F1F910F91FF90EF90DF90CF90BF9066
:100B6000AF909F908F907F906F905F904F9008957F
:100B70002F923F924F925F926F927F928F929F92AD
:100B8000AF92BF92CF92DF92EF92FF920F931F939B
:100B9000CF93DF93CDB7DEB760970FB6F894DEBF83
:100BA0000FBECDBF3C017A836983FB014480558031
:100BB000B201828193810E94D2046D837E838F83F0
:100BC0009887B201E981FA81808191810E94D204E3
:100BD0001B012C0189819A810E941C0569837A83FB
:100BE0008B839C83F301A081B18124E630E00E94D5
:100BF000B41569877A878B879C87A281B3810E940D
:100C0000B4156D877E878F87988BE0907002F09087
:100C1000710200917202109173020F2EF2EB6F2E8F
:100C2000FCE07F2E812C912CF02D69857A858B85B7
:100C30009C85A40193010E947815A980BA80CB807D
:100C4000DC806D817E818F8198850E944B05609349
:100C50007002709371028093720290937302E0901D
:100C60006402F090650200916602109167026D8542
:100C70007E858F859889A40193010E947815C20111
:100C8000B10190580E944B05609364027093650215
:100C9000809366029093670260960FB6F894DEBF69
:100CA0000FBECDBFDF91CF911F910F91FF90EF90BD
:100CB000DF90CF90BF90AF909F908F907F906F907C
:100CC0005F904F903F902F9008952F923F924F92B8
:100CD0005F926F927F928F929F92AF92BF92CF92CC
:100CE000DF92EF92FF920F931F93CF93DF93CDB7D5
:100CF000DEB7A4970FB6F894DEBF0FBECDBF9AA3A0
:100D000089A37CA36BA340E86BE688E60E943404C9
:100D10002FEF31EE44E0215030404040E1F700C079
:100D2000000041E06BE688E60E94340440E06CE697
:100D300088E60E9434045FEF63EC79E05150604034
:100D40007040E1F700C0000040E068E388E60E94E0
:100D5000340440E063E288E60E94340440E06BE63D
:100D600088E60E94340440E064E288E60E9434048D
:100D700040E06AE688E60E9434044CE06AE688E6D1
:100D80000E9434048FE59AEE0197F1F700C000004D
:100D900041E06AE188E60E94340440E069E188E6C7
:100DA0000E94340440E06BE188E60E94340440E095
:100DB0006CE188E60E94340440E46AE688E60E941A
:100DC000340448E763E288E60E943404AFE1BEE4FD
:100DD0001197F1F700C00000BFEFEFE8F1E0B1506C
:100DE000E040F040E1F700C00000198E1A8E1B8E23
:100DF0001C8E412C512C3201812C912C54011D8AC6
:100E00001E8A1F8A188E198A1A8A1B8A1C8A1D86B6
:100E10001E861F86188AC12CD12C212C312C12C081
:100E20002FEF3FE841E0215030404040E1F700C063
:100E3000000053E12516310429F440E063E288E61E
:100E40000E9434049E012F5F3F4F42E062E788E634
:100E50000E944C04298130E0322F22278A81282BDE
:100E6000ABEABAEA0E94A5157C01F694E794F694E1
:100E7000E794F694E794E114F10409F48CC000E0DF
:100E800010E09E012F5F3F4F4CE064E788E60E9430
:100E90004C04C11464E0D60608F077C07FEFC71A8F
:100EA000D70A898190E0982F88272A81822B092EE2
:100EB000000CAA0BBB0B2D893E894F89588D280F3A
:100EC000391F4A1F5B1F2D8B3E8B4F8B588F8B8199
:100ED00090E0982F88272C81822B092E000CAA0BDA
:100EE000BB0B49895A896B897C89480F591F6A1F36
:100EF0007B1F498B5A8B6B8B7C8B8D8190E0982F5D
:100F000088272E81822B092E000CAA0BBB0B2D8566
:100F10003E854F855889280F391F4A1F5B1F2D8733
:100F20003E874F87588B8F8190E0982F88272885A0
:100F3000822B092E000CAA0BBB0B498D5A8D6B8D91
:100F40007C8D480F591F6A1F7B1F498F5A8F6B8FEB
:100F50007C8F898590E0982F88272A85822B092EFF
:100F6000000CAA0BBB0B480E591E6A1E7B1E8B85FC
:100F700090E0982F88272C85822B092E000CAA0B35
:100F8000BB0B880E991EAA1EBB1E0F5F1F4FE016DB
:100F9000F10609F076CF5FEF251A350A64E12616CF
:100FA000310409F03DCFC601A0E0B0E08D8F9E8FE7
:100FB000AF8FB8A36D897E898F89988D2D8D3E8DD9
:100FC0004F8D58A10E9478152D8B3E8B4F8B588FDB
:100FD00069897A898B899C892D8D3E8D4F8D58A189
:100FE0000E947815298B3A8B4B8B5C8B6D857E85A7
:100FF0008F8598892D8D3E8D4F8D58A10E94781533
:1010000069017A01698D7A8D8B8D9C8D2D8D3E8D38
:101010004F8D58A10E9478152D873E874F87588B9A
:10102000C301B2012D8D3E8D4F8D58A10E947815C0
:1010300029013A01C501B4012D8D3E8D4F8D58A176
:101040000E9478151C141D041E041F0434F4D701DB
:10105000C6019054A109B10905C0D701C601905C31
:10106000AF4FBF4F6D857E85E9A1FAA17183608383
:1010700053824282358324832D893E89EBA1FCA1D2
:101080003183208349895A8953834283958384839A
:10109000A4960FB6F894DEBF0FBECDBFDF91CF91FF
:1010A0001F910F91FF90EF90DF90CF90BF90AF9086
:1010B0009F908F907F906F905F904F903F902F9078
:1010C000089540E86BE688E60E9434042FEF81EE35
:1010D00094E0215080409040E1F700C0000041E0E2
:1010E0006BE688E60E94340440E06CE688E60E94E5
:1010F00034042FEF83EC99E0215080409040E1F7D9
:1011000000C0000040E068E388E60E94340440E04C
:1011100063E288E60E94340440E06BE688E60E94C1
:10112000340440E064E288E60E94340440E06AE669
:1011300088E60E9434044CE06AE688E60E943404A3
:101140008FE59AEE0197F1F700C0000043E06AE1F5
:1011500088E60E94340444E069E188E60E94340491
:1011600048E06BE188E60E94340440E06CE188E6E8
:101170000E94340440E46AE688E60E94340448E7AA
:1011800063E288E60E94340408956F927F929F92F2
:10119000AF92BF92CF92DF92EF92FF920F931F9385
:1011A000CF93DF93CDB7DEB768970FB6F894DEBF65
:1011B0000FBECDBF9E012F5F3F4F42E062E788E642
:1011C0000E944C048A819BEA899FC12C1124C694F9
:1011D000C694C69409F46CC0D12C0F2EFEE5EF2EF8
:1011E000F2E0FF2EF02D08E612E09E012F5F3F4F48
:1011F0004CE064E788E60E944C04EB81F0E0FE2FAF
:10120000EE278C813F01682A6D8170E0762F66277A
:101210008E81682B4F8150E0542F44278885482BBE
:10122000298530E0322F22278A85282B8B8590E074
:10123000982F8827AC858A2BD701AD90BC90A981C7
:10124000B0E0BA2FAA279A80A929AA19BB09BC8B9A
:10125000AB8BF701A281B381F301EA1BFB0BFE8B81
:10126000ED8BD7011496ED91FC9115976E1B7F0BBA
:10127000788F6F8BF80160817181461B570B5E87F9
:101280004D8742815381241B350B388B2F87248156
:101290003581821B930B9A8B898BCE010D960E9410
:1012A000BA00CE0143960E94EE00D394CD109DCF9C
:1012B00068960FB6F894DEBF0FBECDBFDF91CF9119
:1012C0001F910F91FF90EF90DF90CF90BF90AF9064
:1012D0009F907F906F9008958091EC028F3009F07D
:1012E00013C18091040381110FC18091EB028831F9
:1012F00009F00AC1ECEEF2E08181228190E0922BAC
:101300009770A9ECB2E013969C938E93129722816A
:10131000838126952695269530E2839FC00111246E
:10132000822B977015969C938E93149793812481AA
:101330008581929596959695937030E0220F331F94
:10134000220F331F292B90E0982F8827990F990F90
:10135000822B932B977017969C938E9316972581CB
:101360008681269530E8839FC0011124822B9770D7
:1013700019969C938E9318972681878122952F70BA
:1013800030E1839FC0011124822B97701B969C93A0
:101390008E931A97978120858185991F9927991F88
:1013A00030E0220F331F292B90E0982F8827990FC8
:1013B000822B932B97701D969C938E931C9721855F
:1013C00082852695269530E4839FC0011124822BC7
:1013D00097701F969C938E931E97228583852295E6
:1013E0002695277090E0880F991F880F991F880F06
:1013F000991F822B51969C938E93509784852585B7
:1014000090E0922B977053969C938E9352972585DC
:10141000868526952695269530E2839FC001112466
:10142000822B977055969C938E935497968527851B
:101430008089929596959695937030E0220F331F90
:10144000220F331F292B90E0982F8827990F990F8F
:10145000822B932B977057969C938E935697208947
:101460008189269530E8839FC0011124822B9770D3
:1014700059969C938E9358972189828922952F7033
:1014800030E1839FC0011124822B97705B969C935F
:101490008E935A97928923898489991F9927991F36
:1014A00030E0220F331F292B90E0982F8827990FC7
:1014B000822B932B97705D969C938E935C972489D7
:1014C00085892695269530E4839FC0011124822BBF
:1014D00097705F969C938E935E9725898689229557
:1014E0002695277090E0880F991F880F991F880F05
:1014F000991F822B91969C938E939097878990E069
:1015000011969C938E932DC08091EC028F3021F028
:1015100088E191E00E94901080910403882321F0DB
:1015200089E291E00E9490108091EB028831C9F02D
:101530006091EB0270E08AE391E00E94481211C0D2
:10154000FC01E451FD4F208301968A319105C1F7DA
:101550008FEF9FEF90930301809302018093EB0242
:10156000089580E090E02FEFEBCFEAECF0E080818F
:101570008861808389E090E09093CD008093CC00D7
:1015800080E98093C90008951F920F920FB60F92C1
:1015900011248F939F93EF93FF938091CE008F3010
:1015A000A9F490910001943088F01092EB02E09140
:1015B000EB02F0E0E451FD4F808384E090E09093F3
:1015C000030180930201109201011FC09091EB0270
:1015D000983161F4E091EB02F0E0E451FD4F8FEFC0
:1015E000808310920301109202010FC09091EB02D0
:1015F0009F3F59F09091EB029F5F9093EB02E09137
:10160000EB02F0E0E451FD4F808310920001FF9166
:10161000EF919F918F910F900FBE0F901F90189593
:1016200044E050E066E173E08AE293E00E94C9186A
:1016300080912C0390912D03019681F482E491E036
:101640000E94901010922D0310922C0342E050E063
:1016500068E173E08CE293E00E94D91880912A033C
:1016600090912B03019681F483E591E00E94901004
:1016700010922B0310922A0342E050E066E173E0DF
:101680008AE293E00E94D9180895CF93DF93CDB7F3
:10169000DEB72C970FB6F894DEBF0FBECDBF84E146
:1016A00090E090936F0280936E020E94CC01882399
:1016B00021F0CE0101960E94E4020E94D501882308
:1016C00021F0CE0107960E94DE03BE01695F7F4FC5
:1016D000CE0101960E94B8054091700250917102AE
:1016E000609172027091730283E691E00E9486110C
:1016F00040916402509165026091660270916702A8
:1017000088E691E00E9486112C960FB6F894DEBF11
:101710000FBECDBFDF91CF910895EEE6F0E080815E
:101720008160808385B5836085BD08950E94F90B33
:101730000E949C0C0895E0910401F09105018081C4
:101740009181892B29F4E0910601F0910701099517
:10175000E0910801F091090180819181892B29F4A0
:10176000E0910A01F0910B01099508951F920F92E3
:101770000FB60F9211242F938F939F93EF93FF93A4
:10178000E0910401F09105018081918101978E3FE4
:101790002FEF920710F491838083E0910801F0917C
:1017A00009018081918101978E3F2FEF920710F4FC
:1017B00091838083809101018F3F19F08F5F809327
:1017C0000101809115038F3F19F08F5F80931503FE
:1017D000809100018F3F19F08F5F80930001FF918E
:1017E000EF919F918F912F910F900FBE0F901F90AF
:1017F0001895E1E9F0E080818860808380E49CE9CD
:101800009093990080939800C19AA1E7B0E08C91E1
:1018100082608C93C29A8C9184608C938081826068
:10182000808308951F920F920FB60F9211248F9309
:101830009F9380919E02816080939E0288E893E14D
:1018400090939B0080939A0010923E039F918F91FA
:101850000F900FBE0F901F9018951F920F920FB60A
:101860000F9211242F933F934F935F936F937F9326
:101870008F939F93AF93BF93EF93FF9360913E033A
:10188000862F90E0FC01EE0FFF1FE80FF91FE15CCF
:10189000FC4F2181328121304DE7340760F0FC019B
:1018A000EE0FFF1FE80FF91FE15CFC4F20E03DE762
:1018B000328321830EC02836324458F4FC01EE0FE7
:1018C000FF1FE80FF91FE15CFC4F28E632E432838A
:1018D0002183FC01EE0FFF1F8E0F9F1FFC01E15CB7
:1018E000FC4F818192810E94A80C80913E038F5F02
:1018F00080933E03833078F490E0019648E853E10A
:10190000849F9001859F300D949F300D112430935A
:101910009B0020939A00FF91EF91BF91AF919F910F
:101920008F917F916F915F914F913F912F910F9088
:101930000FBE0F901F901895E1EAF0E0808188605B
:101940008083C99AE2E7F0E0808182608083089515
:101950000097D9F060934A031092A5001092A4005A
:101960009093A9008093A80028B181E090E00090B6
:101970004A0302C0880F991F0A94E2F7822B88B9A4
:10198000E1EAF0E080818160808308951F920F92E8
:101990000FB60F9211242F938F939F93EF93FF9382
:1019A00028B181E090E000904A0302C0880F991F9F
:1019B0000A94E2F78095822388B9E1EAF0E0808119
:1019C0008E7F8083FF91EF919F918F912F910F9048
:1019D0000FBE0F901F9018951F920F920FB60F9287
:1019E00011242F933F934F935F938F939F93AF93C4
:1019F000BF93EF93FF93E0914E03E695E695E6954E
:101A0000E7704E2F50E084E1E89FF0011124E15B84
:101A1000FC4F8081282F2E7FE3898E2F90E0FC01E0
:101A20003497E930F10508F0E4C1E65AFF4F0C9411
:101A300097152093BB0085E88093BC00E0914E038E
:101A4000E695E695E695E77084E1E89FF0011124BC
:101A5000E15BFC4F85E0838BCCC184E1849FF00186
:101A6000859FF00D1124E15BFC4F91819093BB00A9
:101A700095E89093BC00E0914E03E695E695E695D7
:101A8000E7708E9FF0011124E15BFC4F86E0838BB1
:101A9000B0C184E1849FF001859FF00D1124E15BCA
:101AA000FC4F808180FF12C085EA8093BC00E091EA
:101AB0004E03E695E695E695E77084E1E89FF00130
:101AC0001124E15BFC4F87E0838B93C184E1849F09
:101AD000F001859FF00D1124E15BFC4F878582307A
:101AE000E8F084E1849FF001859FF00D1124E15B13
:101AF000FC4F92819093BB0095E89093BC00E091DD
:101B00004E03E695E695E695E7708E9FF001112469
:101B1000E15BFC4F8BE0838B14861BC084E1849FC8
:101B2000F001859FF00D1124E15BFC4F92819093B1
:101B3000BB0095E89093BC00E0914E03E695E695D6
:101B4000E695E7708E9FF0011124E15BFC4F8CE07D
:101B5000838BE0914E03E695E695E695E77084E188
:101B6000E89FF0011124E15BFC4F87858150878756
:101B700040C181E0820F8093BB0085E88093BC0068
:101B8000E0914E03E695E695E695E77084E1E89FDF
:101B9000F0011124E15BFC4F88E0838B2AC184E1D2
:101BA000849FF001859FF00D1124E15BFC4F878538
:101BB000823090F085EC8093BC00E0914E03E69576
:101BC000E695E695E77084E1E89FF0011124E15B7A
:101BD000FC4F89E0838B11C085E88093BC00E091C5
:101BE0004E03E695E695E695E77084E1E89FF001FF
:101BF0001124E15BFC4F8AE0838BE0914E03E69574
:101C0000E695E695E77084E1E89FF0011124E15B39
:101C1000FC4F878581508787ECC084E1849FF00169
:101C2000859FF00D1124E15BFC4FA585B6859D01D4
:101C30002F5F3F4F368725879091BB009C93E091A3
:101C40004E03E695E695E695E7708E9FF001112428
:101C5000E15BFC4F8785823090F085EC8093BC007F
:101C6000E0914E03E695E695E695E77084E1E89FFE
:101C7000F0011124E15BFC4F89E0838B11C085E802
:101C80008093BC00E0914E03E695E695E695E770FB
:101C900084E1E89FF0011124E15BFC4F8AE0838B33
:101CA000E0914E03E695E695E695E77084E1E89FBE
:101CB000F0011124E15BFC4F87858150878799C033
:101CC00084E1849FF001859FF00D1124E15BFC4FBE
:101CD000A585B6859D012F5F3F4F3687258790915B
:101CE000BB009C93E0914E03E695E695E695E77080
:101CF0008E9FF0011124E15BFC4FA089B18992898C
:101D00009C9395E99093BC00E0914E03E695E6958F
:101D1000E695E7708E9FF0011124E15BFC4F81E0B6
:101D2000838B67C084E1849FF001859FF00D1124AF
:101D3000E15BFC4F87858230E8F084E1849FF0010D
:101D4000859FF00D1124E15BFC4F92819093BB00C5
:101D500095E89093BC00E0914E03E695E695E695F4
:101D6000E7708E9FF0011124E15BFC4F8BE0838BC9
:101D700014861BC084E1849FF001859FF00D11241F
:101D8000E15BFC4F92819093BB0095E89093BC007F
:101D9000E0914E03E695E695E695E7708E9FF0019B
:101DA0001124E15BFC4F8CE0838BE0914E03E695C0
:101DB000E695E695E77084E1E89FF0011124E15B88
:101DC000FC4F87858150878714C085E98093BC00CC
:101DD000E0914E03E695E695E695E77084E1E89F8D
:101DE000F0011124E15BFC4F81E0838B8FEF809346
:101DF0004B03FF91EF91BF91AF919F918F915F91B5
:101E00004F913F912F910F900FBE0F901F901895FB
:101E10008DE691E00E94901080E00895CF93DF93CB
:101E2000CDB7DEB72C970FB6F894DEBF0FBECDBF8F
:101E3000CE0101960E947E01CE0107960E94A50167
:101E400049815A81052E000C660B770B8DE791E0D6
:101E50000E9486114B815C81052E000C660B770B6E
:101E600082E891E00E9486114D815E81052E000C72
:101E7000660B770B87E891E00E9486114F815885A9
:101E8000052E000C660B770B8CE891E00E94861102
:101E900049855A85052E000C660B770B81E991E088
:101EA0000E9486114B855C85052E000C660B770B16
:101EB00086E991E00E94861180E02C960FB6F89496
:101EC000DEBF0FBECDBFDF91CF910895CF93DF93DB
:101ED00000D000D000D0CDB7DEB70E94CC0188235F
:101EE000C1F0CE0101960E94E40249815A81052E7B
:101EF000000C660B770B8DE791E00E9486114B81F9
:101F00005C81052E000C660B770B82E891E00E9445
:101F100086110E94D501882311F1CE0101960E94FD
:101F2000DE0349815A81052E000C660B770B8CE885
:101F300091E00E9486114B815C81052E000C660B9E
:101F4000770B81E991E00E9486114D815E81052E1B
:101F5000000C660B770B86E991E00E9486110E94C7
:101F6000D501482F50E060E070E08BE991E00E94DD
:101F7000861180E026960FB6F894DEBF0FBECDBF67
:101F8000DF91CF9108954F925F926F928F929F92BF
:101F9000AF92BF92CF92DF92EF92FF920F931F9377
:101FA000CF93DF93CDB7DEB7A2970FB6F894DEBF1D
:101FB0000FBECDBFFE0131969E012F5D3F4F1192A6
:101FC0002E173F07E1F7861799F010E0A1E0B0E087
:101FD000AC0FBD1FA10FB11DE82FF0E0E151FC4F88
:101FE00090819C938F5F8F711F5F6813EFCF01C04B
:101FF00010E0AE014F5D5F4F6CEA71E0CE010196DB
:102000000E9411165C01FC0101900020E9F7319754
:102010006E2E681A0F2EF4EFEF2EF0E0FF2EF02D4B
:10202000C12CD12C00E0812E912CC7010E94F0150B
:10203000681218C0A401B701C5010E94F915892BC7
:1020400089F486E18C9DF0018D9DF00D1124E85FEF
:10205000FE4F2591349189A19AA1F9010995033088
:10206000A1F409C00F5FFFEFCF1ADF0A86E1E80E87
:10207000F11C0330D1F68EE991E00E947310CE017D
:1020800001960E9473100E948910A2960FB6F894D0
:10209000DEBF0FBECDBFDF91CF911F910F91FF909B
:1020A000EF90DF90CF90BF90AF909F908F906F9008
:1020B0005F904F9008950E9483120895882391F0B5
:1020C0008A3081F0E091B401F0E0E151FC4F80836F
:1020D0008091B4018F5F8F718093B4018091B401BE
:1020E0008091B50108950F931F93CF93FC018081D8
:1020F000882359F08F01C0E00E948D12CF5FF80154
:10210000EC0FF11D80818111F7CFCF911F910F91BD
:1021100008958DE00E948D128AE00E948D1208952C
:102120000E9473100E94891008954F925F926F92DF
:102130007F928F929F92AF92BF92CF92DF92EF9257
:10214000FF920F931F93CF93DF93CDB7DEB7A8977E
:102150000FB6F894DEBF0FBECDBF6B017C01FE0150
:1021600075968E010F5F1F4FCE014D96D8011192CB
:102170001D92E817F907D9F7FF200CF05DC081C068
:102180005E0126E1A20EB11C992493940F2EFAE071
:102190004F2E512C612C712CF02D01C0982EC701AF
:1021A000B601A30192010E94781520E3260FD50104
:1021B0002D935D01A7019601261B370B480B590B88
:1021C000CA01B901A30192010E94781569017A013F
:1021D000232B242B252B21F081E0890D8431F1F66E
:1021E00021E0290D882054F402C021E0912CFE0149
:1021F000E20FF11D8DE2858B22E0290D211102C035
:102200000FC021E0E5E1F0E0EC0FFD1FE20FF11D52
:1022100080E09291D8019D938D018F5F8217C8F362
:10222000E1E0F0E0EC0FFD1FE20FF11D1082CE01A6
:1022300001960E94731053C00F2EFAE08F2E912C3E
:10224000A12CB12CF02DC701B601A50194010E946B
:10225000781520E3260F2D8BA7019601261B370B3F
:10226000480B590BCA01B901A50194010E947815C8
:1022700069017A01232B242B252B19F288248394BE
:102280007FCFF094E094D094C094C11CD11CE11C89
:10229000F11C0F2EFAE08F2E912CA12CB12CF02DD9
:1022A000C701B601A50194010E94781520E3260F0D
:1022B0002D8BA7019601261B370B480B590BCA0122
:1022C000B901A50194010E94781569017A01232BB7
:1022D000242B252B09F489CF88248A9451CFA896E2
:1022E0000FB6F894DEBF0FBECDBFDF91CF911F9127
:1022F0000F91FF90EF90DF90CF90BF90AF909F90A5
:102300008F907F906F905F904F900895CF92DF9263
:10231000EF92FF926A017B010E947310C701B60120
:102320000E9495100E948910FF90EF90DF90CF904F
:102330000895EF92FF920F931F93CF93DF93CDB742
:10234000DEB760970FB6F894DEBF0FBECDBFAC010D
:10235000FE0139968E010F5F1F4FCE014196D801C5
:1023600011921D92E817F907D9F79A01ADECBCEC70
:102370000E94A5159695879596958795969587952C
:102380009C01220F331F880F991F880F991F880FF8
:10239000991F820F931F9A01281B390BC90120E353
:1023A000280F29879A01281B390B0E94A515AC011B
:1023B000569547955695479556954795411551051C
:1023C00009F43FC07E013AE0E30EF11CE1E001C0F8
:1023D000E82F9A01ADECBCEC0E94A5159695879567
:1023E00096958795969587959C01220F331F880FA8
:1023F000991F880F991F880F991F820F931FDA0169
:10240000A81BB90BCD0120E32A0FD7012D937D0125
:102410009A01281B390BADECBCEC0E94A515AC0150
:1024200056954795569547955695479541155105AB
:1024300021F081E08E0F883059F691E09E0F11F463
:102440000FC091E0E9E0F0E0EC0FFD1FE90FF11D96
:1024500080E02291D8012D938D018F5F8917C8F3F9
:10246000E1E0F0E0EC0FFD1FE90FF11D1082CE015D
:1024700001960E94731060960FB6F894DEBF0FBEEF
:10248000CDBFDF91CF911F910F91FF90EF900895F5
:10249000CF93DF93EB010E947310CE010E9499113C
:1024A0000E948910DF91CF910895CF939091B4014C
:1024B0008091B501981729F1C091B5018091B401BF
:1024C000C817F9F0EC2FF0E0E151FC4F80818D301E
:1024D00091F407C0EC2FF0E0E151FC4F80818D308A
:1024E00051F48091B5016C2F0E94C30FCF5FCF7163
:1024F000C093B50106C0CF5FCF718091B4018C133A
:10250000E9CFCF91089583E090E09093C500809348
:10251000C40088ED8093C10008959091C00095FF9C
:1025200009C02091B2019091B301291303C0809397
:10253000C6000895E091B201F0E0E15FFB4F8083B7
:102540008091B2018F5F8F778093B20108951F92BF
:102550000F920FB60F9211248F939F93EF93FF93D7
:102560009091B3018091B201981303C08091C6008D
:102570000EC0E091B301F0E0E15FFB4F80818093FA
:10258000C6008091B3018F5F8F778093B301FF9175
:10259000EF919F918F910F900FBE0F901F90189504
:1025A0001F920F920FB60F9211242F933F934F93C8
:1025B0005F936F937F938F939F93AF93BF93EF93AB
:1025C000FF938091C6000E945E10FF91EF91BF9132
:1025D000AF919F918F917F916F915F914F913F91BB
:1025E0002F910F900FBE0F901F9018955058BB273A
:1025F000AA270E940E130C94B5140E94A71438F059
:102600000E94AE1420F039F49F3F19F426F40C9484
:102610007D140EF4E095E7FB0C947714E92F0E94EB
:10262000C61458F3BA17620773078407950720F09A
:1026300079F4A6F50C94E8140EF4E0950B2EBA2F5D
:10264000A02D0B01B90190010C01CA01A0011124B8
:10265000FF27591B99F0593F50F4503E68F11A1664
:10266000F040A22F232F342F4427585FF3CF4695F5
:1026700037952795A795F0405395C9F77EF41F1617
:10268000BA0B620B730B840BBAF09150A1F0FF0FE1
:10269000BB1F661F771F881FC2F70EC0BA0F621FCD
:1026A000731F841F48F4879577956795B795F795BD
:1026B0009E3F08F0B0CF9395880F08F09927EE0F52
:1026C000979587950895DF93DD27B92FBF7740E869
:1026D0005FE31616170648075B0718F4D92F0E9408
:1026E000EF149F938F937F936F930E946415E6EC92
:1026F000F0E00E9480140E94B5142F913F914F91F9
:102700005F910E940A15DD2351F09058A2EA2AED4C
:102710003FE049EC5FE3D0785D270E940E13DF9124
:102720000C94B5140E94A6130C94B5140E94AE1418
:1027300058F00E94A71440F029F45F3F29F00C9450
:10274000771451110C94E9140C947D140E94C61452
:1027500068F39923B1F3552391F3951B550BBB27D0
:10276000AA2762177307840738F09F5F5F4F220F15
:10277000331F441FAA1FA9F335D00E2E3AF0E0E80C
:1027800032D091505040E695001CCAF72BD0FE2F56
:1027900029D0660F771F881FBB1F261737074807EA
:1027A000AB07B0E809F0BB0B802DBF01FF279358A2
:1027B0005F4F3AF09E3F510578F00C9477140C94DB
:1027C000E9145F3FE4F3983ED4F3869577956795D7
:1027D000B795F7959F5FC9F7880F911D96958795D7
:1027E00097F90895E1E0660F771F881FBB1F6217F6
:1027F00073078407BA0720F0621B730B840BBA0BB4
:10280000EE1F88F7E09508950E940B146894B111AB
:102810000C94E91408950E94CE1488F09F5798F004
:10282000B92F9927B751B0F0E1F0660F771F881FD5
:10283000991F1AF0BA95C9F714C0B13091F00E94EF
:10284000E814B1E008950C94E814672F782F8827D6
:10285000B85F39F0B93FCCF3869577956795B39516
:10286000D9F73EF490958095709561957F4F8F4F85
:102870009F4F0895E89409C097FB3EF4909580958A
:10288000709561957F4F8F4F9F4F9923A9F0F92F36
:1028900096E9BB279395F695879577956795B795B4
:1028A000F111F8CFFAF4BB0F11F460FF1BC06F5F9A
:1028B0007F4F8F4F9F4F16C0882311F096E911C0AC
:1028C000772321F09EE8872F762F05C0662371F0CD
:1028D00096E8862F70E060E02AF09A95660F771FE1
:1028E000881FDAF7880F9695879597F9089597F9D5
:1028F0009F6780E870E060E008959FEF80EC0895A6
:10290000DF93CF931F930F93FF92EF92DF927B01A0
:102910008C01689406C0DA2EEF010E940A15FE01B0
:10292000E894A5912591359145915591A6F3EF0134
:102930000E940E13FE019701A801DA9469F7DF9057
:10294000EF90FF900F911F91CF91DF910895002498
:102950000A941616170618060906089500240A9404
:1029600012161306140605060895092E0394000C8A
:1029700011F4882352F0BB0F40F4BF2B11F460FF19
:1029800004C06F5F7F4F8F4F9F4F089557FD905842
:10299000440F551F59F05F3F71F04795880F97FB23
:1029A000991F61F09F3F79F08795089512161306DD
:1029B0001406551FF2CF4695F1DF08C0161617060C
:1029C0001806991FF1CF8695710561050894089541
:1029D000E894BB2766277727CB0197F908959B01D9
:1029E000AC0160E070E080E89FE30C9492130E94D9
:1029F0000A150C94B5140E94A71438F00E94AE1466
:102A000020F0952311F00C9477140C947D1411246C
:102A10000C94E9140E94C61470F3959FC1F3950FAE
:102A200050E0551F629FF001729FBB27F00DB11D52
:102A3000639FAA27F00DB11DAA1F649F6627B00DE2
:102A4000A11D661F829F2227B00DA11D621F739FCB
:102A5000B00DA11D621F839FA00D611D221F749FD9
:102A60003327A00D611D231F849F600D211D822F20
:102A7000762F6A2F11249F5750409AF0F1F0882347
:102A80004AF0EE0FFF1FBB1F661F771F881F915074
:102A90005040A9F79E3F510580F00C9477140C9498
:102AA000E9145F3FE4F3983ED4F3869577956795F4
:102AB000B795F795E7959F5FC1F7FE2B880F911D9E
:102AC0009695879597F908959B01AC010C94F7149E
:102AD000DB018F939F930E94BB15BF91AF91A29F83
:102AE000800D911DA39F900DB29F900D112408950C
:102AF000052E97FB1EF400940E948F1557FD07D0FA
:102B00000E94CE1507FC03D04EF40C948F155095FF
:102B10004095309521953F4F4F4F5F4F08959095C9
:102B20008095709561957F4F8F4F9F4F0895EE0F61
:102B3000FF1F0590F491E02D09940E94A515332301
:102B400012F48A1B9B0B0C94B615A29FB001B39F85
:102B5000C001A39F700D811D1124911DB29F700DA6
:102B6000811D1124911D08950E94A515B7FF089598
:102B7000821B930B08950E94A515A59F900DB49FED
:102B8000900DA49F800D911D11240895B7FF0C9402
:102B9000BB150E94BB15821B930B0895A1E21A2E50
:102BA000AA1BBB1BFD010DC0AA1FBB1FEE1FFF1FF1
:102BB000A217B307E407F50720F0A21BB30BE40B41
:102BC000F50B661F771F881F991F1A9469F7609588
:102BD0007095809590959B01AC01BD01CF01089542
:102BE000FC0105900020E9F7809590958E0F9F1FBE
:102BF0000895FB01DC014150504088F08D918134F3
:102C00001CF08B350CF4805E659161341CF06B35E3
:102C10000CF4605E861B611171F3990B0895881B9B
:102C2000FCCFFA01A191B081009719F41097E1F05F
:102C3000CD01DC01CD010D90002011F4C00113C0C5
:102C4000FB012191222319F02015D9F7F3CFFB01C5
:102C50002191201519F41E92119606C02223C1F766
:102C60000D900020A1F7D001FA01A193B08308953F
:102C7000ABE0B0E0EEE3F6E10C94F1186C017B01FF
:102C80008A01FC0117821682838181FFCCC1CE01AB
:102C900001963C01F6019381F70193FD859193FF25
:102CA00081917F01882309F4BAC1853239F493FDFB
:102CB000859193FF81917F01853229F4B60190E0DF
:102CC0000E942F18E7CF912C212C312CFFE1F31516
:102CD000D8F08B3279F038F4803279F08332A1F475
:102CE000232D20611DC08D3261F0803369F4232DC6
:102CF000216016C0832D8260382EE32DE4603E2EC5
:102D00002AC0F32DF8601DC037FC2DC020ED280F20
:102D10002A3040F08E32B9F436FC81C1232D206474
:102D2000322E19C036FE06C08AE0989E200D11246E
:102D3000922E11C0EAE02E9E200D1124222EF32D9A
:102D4000F0623F2E08C08C3621F4832D8068382E27
:102D500002C0883641F4F70193FD859193FF81917C
:102D60007F018111B3CF982F9F7D9554933028F424
:102D70000C5F1F4F9FE399830DC0833631F083377B
:102D800071F0833509F059C021C0F8018081898331
:102D90000E5F1F4F88248394912C530113C0280188
:102DA000F2E04F0E511CF801A080B18036FE03C046
:102DB000692D70E002C06FEF7FEFC5010E942418FB
:102DC0004C018201F32DFF773F2E16C0280122E02F
:102DD000420E511CF801A080B18036FE03C0692D5F
:102DE00070E002C06FEF7FEFC5010E9419184C011F
:102DF000F32DF0683F2E820133FC1BC0822D90E042
:102E000088169906B0F4B60180E290E00E942F186F
:102E10002A94F4CFF50137FC859137FE81915F014B
:102E2000B60190E00E942F1821102A9421E0821A06
:102E300091088114910471F7E8C0843611F0893645
:102E400041F5F80137FE07C060817181828193816D
:102E50000C5F1F4F08C060817181072E000C880B2A
:102E6000990B0E5F1F4FF32DFF763F2E97FF09C082
:102E700090958095709561957F4F8F4F9F4FF0682B
:102E80003F2E2AE030E0A3010E946B18882E86189E
:102E900045C0853731F4232D2F7EB22E2AE030E055
:102EA00025C0932D997FB92E8F36C1F018F488353F
:102EB00079F0B5C0803719F0883721F0B0C0E92F1C
:102EC000E061BE2EB4FE0DC0FB2DF460BF2E09C024
:102ED00034FE0AC0292F2660B22E06C028E030E05A
:102EE00005C020E130E002C020E132E0F801B7FE89
:102EF00007C060817181828193810C5F1F4F06C082
:102F00006081718180E090E00E5F1F4FA3010E94FD
:102F10006B18882E8618FB2DFF773F2E36FE0DC0CE
:102F2000232D2E7FA22E891458F434FE0BC032FCC0
:102F300009C0832D8E7EA82E05C0B82CA32C03C0FB
:102F4000B82C01C0B92CA4FE0FC0FE01E80DF11D84
:102F50008081803321F49A2D997EA92E09C0A2FE8A
:102F600006C0B394B39404C08A2D867809F0B39454
:102F7000A3FC11C0A0FE06C0B21488F4280C922C49
:102F80009B180EC0B21460F4B60180E290E00E947B
:102F90002F18B394F7CFB21418F42B1802C0982C42
:102FA000212CA4FE10C0B60180E390E00E942F18EF
:102FB000A2FE17C0A1FC03C088E790E002C088E52C
:102FC00090E0B6010CC08A2D867859F0A1FE02C0AF
:102FD0008BE201C080E2A7FC8DE2B60190E00E9486
:102FE0002F18891438F4B60180E390E00E942F185E
:102FF0009A94F7CF8A94F301E80DF11D8081B60110
:1030000090E00E942F188110F5CF222009F442CEC3
:10301000B60180E290E00E942F182A94F6CFF601C4
:103020008681978102C08FEF9FEF2B96E2E10C948F
:103030000D19FC010590615070400110D8F7809582
:1030400090958E0F9F1F0895FC0161507040019074
:103050000110D8F7809590958E0F9F1F08950F93BC
:103060001F93CF93DF93FB01238121FD03C08FEFDB
:103070009FEF2CC022FF16C04681578124813581E5
:103080004217530744F4A081B1819D012F5F3F4F48
:10309000318320838C93268137812F5F3F4F378385
:1030A000268314C08B01EC01FB010084F185E02D27
:1030B0000995892BE1F6D80116968D919C91179769
:1030C000019617969C938E931697CE01DF91CF9120
:1030D0001F910F910895FA01AA27283051F120314C
:1030E00081F1E8946F936E7F6E5F7F4F8F4F9F4F9C
:1030F000AF4FB1E03ED0B4E03CD0670F781F891FDE
:103100009A1FA11D680F791F8A1F911DA11D6A0FAB
:10311000711D811D911DA11D20D009F468943F915E
:103120002AE0269F11243019305D3193DEF6CF015D
:103130000895462F4770405D4193B3E00FD0C9F723
:10314000F6CF462F4F70405D4A3318F0495D31FD90
:103150004052419302D0A9F7EACFB4E0A6959795E3
:10316000879577956795BA95C9F7009761057105B9
:1031700008959B01AC010A2E069457954795379503
:103180002795BA95C9F7620F731F841F951FA01D5D
:103190000895DC01CB01FC01F999FECF06C0F2BD18
:1031A000E1BDF89A319600B40D9241505040B8F705
:1031B0000895DC01CB0103C02D910E94E418415019
:1031C0005040D0F70895262FF999FECF1FBA92BD2F
:1031D00081BD20BD0FB6F894FA9AF99A0FBE0196F8
:1031E00008952F923F924F925F926F927F928F92AB
:1031F0009F92AF92BF92CF92DF92EF92FF920F9386
:103200001F93CF93DF93CDB7DEB7CA1BDB0B0FB68F
:10321000F894DEBF0FBECDBF09942A88398848884C
:103220005F846E847D848C849B84AA84B984C884E2
:10323000DF80EE80FD800C811B81AA81B981CE0FD9
:10324000D11D0FB6F894DEBF0FBECDBFED010895BE
:04325000F894FFCF20
:10325400FFFFFFFF6E02450B02016C09556172749A
:1032640020647A69616C610057726F6E67205362E3
:103274007573206672616D650057726F6E67206C9E
:10328400617374206672616D650073627573203DAD
:1032940020005069746368207472696D20726573CC
:1032A400657400526F6C6C207472696D2072657362
:1032B4006574004220582000422059200055617254
:1032C4007420697320776F726B696E6700472058AA
:1032D4002000472059200047205A20004120582030
:1032E40000412059200041205A20005320005772E9
:0E32F4006F6E6720636F6D6D616E643A20002F
:00000001FF
