S0180000466C6967687420617373697374616E742E73726563B4
S11300000C946E000C948B000C948B000C948B005D
S11300100C948B000C948B000C948B000C948B0030
S11300200C948B000C948B000C948B000C948B0020
S11300300C948B000C948B000C948B000C948B0010
S11300400C948B000C948B000C94D9090C948B00A9
S11300500C94B0090C948B000C948B000C948B00C2
S11300600C9448050C948B000C948B000C948B001E
S11300700C948B000C948B000C948B000C948B00D0
S11300800C948B000C948B000C948B000C948B00C0
S11300900C948B000C948B000C948B000C948B00B0
S11300A00C948B000C948B000C948B000C948B00A0
S11300B00C948B0075058905A50515062B066906A4
S11300C0BC06EE0641074552000000000000000097
S11300D000000000000000000000D20411241FBE34
S11300E0CFEFD8E0DEBFCDBF11E0A0E0B1E0E8E1A2
S11300F0F8E102C005900D92AE3AB107D9F722E0BB
S1130100AEEAB1E001C01D92A73FB207E1F70E9439
S113011026010C940A0C0C94000084EA8093BC0021
S1130120ECEBF0E080818823ECF7089584E9809378
S1130130BC00ECEBF0E0808184FDFDCF089580935A
S1130140BB0084E88093BC00ECEBF0E08081882362
S1130150ECF7089520E4829FC00111248468809301
S1130160BC00ECEBF0E080818823ECF78091BB00CD
S113017008951F93CF93DF93182FD62FC42F0E9477
S11301808D00812F880F0E949F008D2F0E949F0059
S11301908C2F0E949F000E949600DF91CF911F91A7
S11301A00895CF93DF93D62FC82FCC0F0E948D00D4
S11301B08C2F0E949F008D2F0E949F000E948D0013
S11301C081E08C0F0E949F0080E00E94AA00C82F4B
S11301D00E9496008C2FDF91CF910895EF92FF92A9
S11301E00F931F93CF93DF93162FD42FE22EF32E6A
S11301F0C82FCC0F0E948D008C2F0E949F00812F4E
S11302000E949F000E948D0081E08C0F0E949F003D
S1130210CFEFCD0FDD2389F00E2D1F2DD1E0F12C72
S11302208D2FC11101C08F2D0E94AA00F801819366
S11302308F018C2FC1508111F3CF0E949600DF9162
S1130240CF911F910F91FF90EF900895CF93DF937B
S1130250CDB7DEB728970FB6F894DEBF0FBECDBF7B
S113026080E284B91092B9008CE08093B80084E0F5
S11302708093BC0065E788E60E94D1008E77809366
S1130280B2010E946407789480E091E00E9499078B
S11302906091B20170E08CE091E00E945109BE01CE
S11302A06B5F7F4FCE0101960E9459010E945E0947
S11302B0FDCF2F923F924F925F926F927F928F92D7
S11302C09F92AF92BF92CF92DF92EF92FF920F93E1
S11302D01F93CF93DF93CDB7DEB7EB970FB6F894A8
S11302E0DEBF0FBECDBF9DA78CA77FA76EA740E83A
S11302F050E06BE670E088E690E00E94B9002FEFD2
S113030031EE44E0215030404040E1F700C00000AD
S113031041E050E06BE670E088E690E00E94B900AE
S113032040E050E06CE670E088E690E00E94B9009E
S11303305FEF83EC99E0515080409040E1F700C0BA
S1130340000040E050E068E370E088E690E00E943E
S1130350B90040E050E063E270E088E690E00E947B
S1130360B90040E050E06BE670E088E690E00E945F
S1130370B90040E050E064E270E088E690E00E945A
S1130380B90040E050E06AE670E088E690E00E9440
S1130390B9004CE050E06AE670E088E690E00E9424
S11303A0B900AFE5BAEE1197F1F700C0000041E0E3
S11303B050E06AE170E088E690E00E94B90040E015
S11303C050E069E170E088E690E00E94B90040E006
S11303D050E06BE170E088E690E00E94B90040E0F4
S11303E050E06CE170E088E690E00E94B90040E4DF
S11303F050E06AE670E088E690E00E94B90048E7C1
S113040050E063E270E088E690E00E94B900BFEF3C
S1130410E7EEF3E0B150E040F040E1F700C0000047
S113042040E050E063E270E088E690E00E94B900AA
S11304309E012F5F3F4F42E050E062E770E088E6A4
S113044090E00E94EE00698170E0162F00278A81F7
S1130450082B87E191E00E945109798160E085E2EF
S113046091E00E9451096A8170E083E391E00E9467
S113047051099801ABEABAEA0E94910B1C01369427
S113048027943694279436942794B10181E491E01B
S11304900E9451092114310409F495C01C8E1D8E4B
S11304A01E8E1F8E18A219A21AA21BA21CA21DA284
S11304B01EA21FA2412C512C3201812C912C5401DB
S11304C0C12CD12C760100E010E09E012F5F3F4F3C
S11304D04CE050E064E770E088E690E00E94EE00B3
S11304E0898190E0982F88272A81822B092E000C7D
S11304F0AA0BBB0B480E591E6A1E7B1E8B8190E013
S1130500982F88272C81822B092E000CAA0BBB0B59
S1130510880E991EAA1EBB1E8D8190E0982F8827F5
S11305202E81822B092E000CAA0BBB0BC80ED91EE0
S1130530EA1EFB1E8F8190E0982F88272885822B46
S1130540092E000CAA0BBB0B2C8D3D8D4E8D5F8D9F
S1130550280F391F4A1F5B1F2C8F3D8F4E8F5F8FD3
S1130560898590E0982F88272A85822B092E000CF4
S1130570AA0BBB0B28A139A14AA15BA1280F391FE3
S11305804A1F5B1F28A339A34AA35BA38B8590E072
S1130590982F88272C85822B092E000CAA0BBB0BC5
S11305A02CA13DA14EA15FA1280F391F4A1F5B1F3B
S11305B02CA33DA34EA35FA30F5F1F4F201631064C
S11305C009F083CF15C01C8E1D8E1E8E1F8E18A29F
S11305D019A21AA21BA21CA21DA21EA21FA2412C78
S11305E0512C3201812C912C5401C12CD12C760137
S11305F0C101A0E0B0E088A799A7AAA7BBA7C3013F
S1130600B20128A539A54AA55BA50E946C0B28ABAD
S113061039AB4AAB5BABC501B40128A539A54AA5E2
S11306205BA50E946C0B2CAB3DAB4EAB5FABC70123
S1130630B60128A539A54AA55BA50E946C0B6901E2
S11306407A016C8D7D8D8E8D9F8D28A539A54AA547
S11306505BA50E946C0B2C8F3D8F4E8F5F8F68A122
S113066079A18AA19BA128A539A54AA55BA50E94C9
S11306706C0B28A339A34AA35BA36CA17DA18EA113
S11306809FA128A539A54AA55BA50E946C0B290149
S11306903A011C141D041E041F0454F4A7019601FE
S11306A030544109510928AF39AF4AAF5BAF09C093
S11306B0D701C601905CAF4FBF4F88AF99AFAAAFC7
S11306C0BBAF8C8D9D8DAE8DBF8DB095A095909553
S11306D081959F4FAF4FBF4F1AF40396A11DB11DD3
S11306E0B595A79597958795B595A795979587956A
S11306F099838A8388A199A1AAA1BBA1B095A09549
S1130700909581959F4FAF4FBF4F1AF40396A11D4B
S1130710B11DB595A79597958795B595A795979587
S113072087959B838C8388279927DC0184199509F5
S1130730A609B7091AF40396A11DB11DB595A7958D
S113074097958795B595A795979587959D838E835E
S11307506C8D7D8D8E8D9F8D0E94730A20E030E01C
S113076043E053E40E94FF09ACA5BDA56D937D93BE
S11307708D939C93139768A179A18AA19BA10E9450
S1130780730A20E030E043E053E40E94FF09ECA543
S1130790FDA56483758386839783C301B2010E9498
S11307A0730A20E030E043E053E40E94FF09ACA563
S11307B0BDA518966D937D938D939C931B979E0175
S11307C02F5F3F4F42E050E066E070E088E690E043
S11307D00E94EE00898190E0982F88272A81FC01ED
S11307E0E22BFDA3ECA34F01FF0FAA08BB088D86E3
S11307F09E86AF86B88A9E012F5F3F4F42E050E04D
S113080068E070E088E690E00E94EE00898190E064
S1130810982F88272A81AC01422B59A748A76A013F
S1130820550FEE08FF08C98ADA8AEB8AFC8A9E0112
S11308302F5F3F4F42E050E06AE070E088E690E0CE
S11308400E94EE00898190E0982F88272A811C015C
S1130850222A8101330C220B330B0D8B1E8B2F8B21
S1130860388F198E1A8E1B8EFE013D96DE01599625
S1130870CD01419151916191719140FF02C051E0CC
S11308805C931196E817F907A1F79982898D9CA1C9
S1130890892B8A83DB828A8DA8A58A2B8C831D836E
S11308A08B8D82298E8368A979A98AA99BA90E9424
S11308B0730A20E030E040E858E30E94FF0AEEA506
S11308C0FFA560837183828393836CA97DA98EA91C
S11308D09FA90E94730A20E030E040E858E30E9498
S11308E0FF0AAEA5BFA514966D937D938D939C933B
S11308F0179768AD79AD8AAD9BAD0E94730A20E06D
S113090030E040E858E30E94FF0AEEA5FFA56087A7
S11309107187828793874C8D5D8D6E8D7F8D81E588
S113092091E00E948F0848A159A16AA17BA18BE59F
S113093091E00E948F08B301A20185E691E00E9434
S11309408F0848A959A96AA97BA98FE691E00E945A
S11309508F084CA95DA96EA97FA989E791E00E943F
S11309608F0848AD59AD6AAD7BAD83E891E00E9434
S11309708F08EB960FB6F894DEBF0FBECDBFDF91A4
S1130980CF911F910F91FF90EF90DF90CF90BF9088
S1130990AF909F908F907F906F905F904F903F901B
S11309A02F9008958DE891E00E94990780E00895C2
S11309B0CF92DF92EF92FF921F93CF93DF93CDB745
S11309C0DEB7A2970FB6F894DEBF0FBECDBFFE010F
S11309D031969E012F5D3F4F11922E173F07E1F78D
S11309E0861799F010E0A1E0B0E0AC0FBD1FA10F95
S11309F0B11DE82FF0E0E95AFD4F90819C938F5F81
S1130A008F711F5F6813EFCF01C010E0AE014F5D1F
S1130A105F4F6BEA71E0CE0101960E94E30B6C011B
S1130A20FC0101900020E9F731977F01E81AF90AE7
S1130A3086EC90E00E94C20B8E1112C0412F50E050
S1130A4066EC70E0C6010E94CB0B892B49F4EAEDF9
S1130A50F0E02591349189A19AA1F90109950AC080
S1130A608DE991E00E947C07CE0101960E947C07EB
S1130A700E949207A2960FB6F894DEBF0FBECDBFB8
S1130A80DF91CF911F91FF90EF90DF90CF90089569
S1130A901F920F920FB60F9211242F933F934F93EF
S1130AA05F938F939F93AF93BF93EF93FF93E091E3
S1130AB0B601E695E695E695E7704E2F50E084E1A1
S1130AC0E89FF0011124E954FE4F8081282F2E7FE6
S1130AD0E3898E2F90E0FC013497E930F10508F0AA
S1130AE0E4C1E65AFF4F0C948B0B2093BB0085E8BE
S1130AF08093BC00E091B601E695E695E695E77033
S1130B0084E1E89FF0011124E954FE4F85E0838BD2
S1130B10CCC184E1849FF001859FF00D1124E95438
S1130B20FE4F91819093BB0095E89093BC00E091B7
S1130B30B601E695E695E695E7708E9FF0011124DF
S1130B40E954FE4F86E0838BB0C184E1849FF001B9
S1130B50859FF00D1124E954FE4F808180FF12C05F
S1130B6085EA8093BC00E091B601E695E695E695AA
S1130B70E77084E1E89FF0011124E954FE4F87E017
S1130B80838B93C184E1849FF001859FF00D112430
S1130B90E954FE4F87858230E8F084E1849FF001B8
S1130BA0859FF00D1124E954FE4F92819093BB0070
S1130BB095E89093BC00E091B601E695E695E6953C
S1130BC0E7708E9FF0011124E954FE4F8BE0838B74
S1130BD014861BC084E1849FF001859FF00D1124CD
S1130BE0E954FE4F92819093BB0095E89093BC002A
S1130BF0E091B601E695E695E695E7708E9FF001E3
S1130C001124E954FE4F8CE0838BE091B601E69504
S1130C10E695E695E77084E1E89FF0011124E95434
S1130C20FE4F87858150878740C181E0820F809382
S1130C30BB0085E88093BC00E091B601E695E6959B
S1130C40E695E77084E1E89FF0011124E954FE4F32
S1130C5088E0838B2AC184E1849FF001859FF00D95
S1130C601124E954FE4F8785823090F085EC8093FF
S1130C70BC00E091B601E695E695E695E77084E15F
S1130C80E89FF0011124E954FE4F89E0838B11C0E1
S1130C9085E88093BC00E091B601E695E695E6957B
S1130CA0E77084E1E89FF0011124E954FE4F8AE0E3
S1130CB0838BE091B601E695E695E695E77084E1CD
S1130CC0E89FF0011124E954FE4F878581508787FE
S1130CD0ECC084E1849FF001859FF00D1124E95458
S1130CE0FE4FA585B6859D012F5F3F4F368725872B
S1130CF09091BB009C93E091B601E695E695E6954C
S1130D00E7708E9FF0011124E954FE4F87858230ED
S1130D1090F085EC8093BC00E091B601E695E695F1
S1130D20E695E77084E1E89FF0011124E954FE4F51
S1130D3089E0838B11C085E88093BC00E091B60103
S1130D40E695E695E695E77084E1E89FF0011124C5
S1130D50E954FE4F8AE0838BE091B601E695E6956F
S1130D60E695E77084E1E89FF0011124E954FE4F11
S1130D7087858150878799C084E1849FF001859F8E
S1130D80F00D1124E954FE4FA585B6859D012F5F12
S1130D903F4F368725879091BB009C93E091B60125
S1130DA0E695E695E695E7708E9FF0011124E954E7
S1130DB0FE4FA089B18992899C9395E99093BC00D8
S1130DC0E091B601E695E695E695E7708E9FF00111
S1130DD01124E954FE4F81E0838B67C084E1849F32
S1130DE0F001859FF00D1124E954FE4F8785823070
S1130DF0E8F084E1849FF001859FF00D1124E9540B
S1130E00FE4F92819093BB0095E89093BC00E091D3
S1130E10B601E695E695E695E7708E9FF0011124FC
S1130E20E954FE4F8BE0838B14861BC084E1849FBE
S1130E30F001859FF00D1124E954FE4F92819093A7
S1130E40BB0095E89093BC00E091B601E695E69569
S1130E50E695E7708E9FF0011124E954FE4F8CE073
S1130E60838BE091B601E695E695E695E77084E11B
S1130E70E89FF0011124E954FE4F8785815087874C
S1130E8014C085E98093BC00E091B601E695E6952F
S1130E90E695E77084E1E89FF0011124E954FE4FE0
S1130EA081E0838B8FEF8093B301FF91EF91BF912A
S1130EB0AF919F918F915F914F913F912F910F909F
S1130EC00FBE0F901F9018950E948C0908958823D7
S1130ED091F08A3081F0E091B001F0E0E95AFD4FE1
S1130EE080838091B0018F5F8F718093B001809176
S1130EF0B0018091B10108950F931F93CF93FC012A
S1130F008081882359F08F01C0E00E949609CF5F49
S1130F10F801EC0FF11D80818111F7CFCF911F9162
S1130F200F9108958DE00E9496098AE00E94960927
S1130F3008950E947C070E94920708954F925F9241
S1130F406F927F928F929F92AF92BF92CF92DF92D5
S1130F50EF92FF920F931F93CF93DF93CDB7DEB73A
S1130F60A8970FB6F894DEBF0FBECDBF6B017C010E
S1130F70FE0175968E010F5F1F4FCE014D96D8016D
S1130F8011921D92E817F907D9F7FF200CF05DC004
S1130F9081C05E0126E1A20EB11C992493940F2E08
S1130FA0FAE04F2E512C612C712CF02D01C0982E9B
S1130FB0C701B601A30192010E946C0B20E3260F26
S1130FC0D5012D935D01A7019601261B370B480B14
S1130FD0590BCA01B901A30192010E946C0B69016A
S1130FE07A01232B242B252B21F081E0890D8431D8
S1130FF0F1F621E0290D882054F402C021E0912C5F
S1131000FE01E20FF11D8DE2858B22E0290D2111F5
S113101002C00FC021E0E5E1F0E0EC0FFD1FE20F9C
S1131020F11D80E09291D8019D938D018F5F82170D
S1131030C8F3E1E0F0E0EC0FFD1FE20FF11D1082B8
S1131040CE0101960E947C0753C00F2EFAE08F2E2A
S1131050912CA12CB12CF02DC701B601A50194014E
S11310600E946C0B20E3260F2D8BA7019601261BF3
S1131070370B480B590BCA01B901A50194010E9411
S11310806C0B69017A01232B242B252B19F288245C
S113109083947FCFF094E094D094C094C11CD11C6D
S11310A0E11CF11C0F2EFAE08F2E912CA12CB12CF7
S11310B0F02DC701B601A50194010E946C0B20E339
S11310C0260F2D8BA7019601261B370B480B590BB6
S11310D0CA01B901A50194010E946C0B69017A014E
S11310E0232B242B252B09F489CF88248A9451CFD0
S11310F0A8960FB6F894DEBF0FBECDBFDF91CF9197
S11311001F910F91FF90EF90DF90CF90BF90AF9021
S11311109F908F907F906F905F904F900895CF92A3
S1131120DF92EF92FF926A017B010E947C07C70164
S1131130B6010E949E070E949207FF90EF90DF90F5
S1131140CF900895EF92FF920F931F93CF93DF9365
S1131150CDB7DEB760970FB6F894DEBF0FBECDBF34
S1131160AC01FE0139968E010F5F1F4FCE014196EF
S1131170D80111921D92E817F907D9F79A01ADEC3D
S1131180BCEC0E94910B96958795969587959695BC
S113119087959C01220F331F880F991F880F991F71
S11311A0880F991F820F931F9A01281B390BC901BD
S11311B020E3280F29879A01281B390B0E94910BE1
S11311C0AC015695479556954795569547954115C3
S11311D0510509F43FC07E013AE0E30EF11CE1E061
S11311E001C0E82F9A01ADECBCEC0E94910B9695DE
S11311F0879596958795969587959C01220F331F21
S1131200880F991F880F991F880F991F820F931FAA
S1131210DA01A81BB90BCD0120E32A0FD7012D93C6
S11312207D019A01281B390BADECBCEC0E94910B9B
S1131230AC01569547955695479556954795411552
S1131240510521F081E08E0F883059F691E09E0F10
S113125011F40FC091E0E9E0F0E0EC0FFD1FE90F9D
S1131260F11D80E02291D8012D938D018F5F8917A4
S1131270C8F3E1E0F0E0EC0FFD1FE90FF11D10826F
S1131280CE0101960E947C0760960FB6F894DEBFEB
S11312900FBECDBFDF91CF911F910F91FF90EF90C3
S11312A00895CF93DF93EB010E947C07CE010E9447
S11312B0A2080E949207DF91CF910895CF93909155
S11312C0B0018091B101981729F1C091B1018091C9
S11312D0B001C817F9F0EC2FF0E0E95AFD4F808116
S11312E08D3091F407C0EC2FF0E0E95AFD4F808176
S11312F08D3051F48091B1016C2F0E94D804CF5FDE
S1131300CF71C093B10106C0CF5FCF718091B0019E
S11313108C13E9CFCF91089583E090E09093C500BA
S11313208093C40088ED8093C10008959091C0001B
S113133095FF09C02091AE019091AF01291303C01C
S11313408093C6000895E091AE01F0E0E958FD4FA6
S113135080838091AE018F5F8F778093AE01089573
S11313601F920F920FB60F9211248F939F93EF93B6
S1131370FF939091AF018091AE01981303C08091C7
S1131380C6000EC0E091AF01F0E0E958FD4F808146
S11313908093C6008091AF018F5F8F778093AF01F8
S11313A0FF91EF919F918F910F900FBE0F901F901F
S11313B018951F920F920FB60F9211242F933F93FB
S11313C04F935F936F937F938F939F93AF93BF9349
S11313D0EF93FF938091C6000E946707FF91EF91FE
S11313E0BF91AF919F918F917F916F915F914F9139
S11313F03F912F910F900FBE0F901F9018950E9450
S1131400130A0C94C50A0E94BE0A58F00E94B70A37
S113141040F029F45F3F29F00C94AE0A51110C946A
S1131420F90A0C94B40A0E94D60A68F39923B1F31A
S1131430552391F3951B550BBB27AA2762177307F6
S1131440840738F09F5F5F4F220F331F441FAA1F8A
S1131450A9F335D00E2E3AF0E0E832D09150504046
S1131460E695001CCAF72BD0FE2F29D0660F771FF4
S1131470881FBB1F261737074807AB07B0E809F0DA
S1131480BB0B802DBF01FF2793585F4F3AF09E3F5F
S1131490510578F00C94AE0A0C94F90A5F3FE4F31A
S11314A0983ED4F3869577956795B795F7959F5FA2
S11314B0C9F7880F911D9695879597F90895E1E0EE
S11314C0660F771F881FBB1F621773078407BA074D
S11314D020F0621B730B840BBA0BEE1F88F7E095A8
S11314E00895E89409C097FB3EF490958095709513
S11314F061957F4F8F4F9F4F9923A9F0F92F96E95C
S1131500BB279395F695879577956795B795F111D0
S1131510F8CFFAF4BB0F11F460FF1BC06F5F7F4F6D
S11315208F4F9F4F16C0882311F096E911C077237F
S113153021F09EE8872F762F05C0662371F096E888
S1131540862F70E060E02AF09A95660F771F881F57
S1131550DAF7880F9695879597F9089597F99F6715
S113156080E870E060E008959FEF80EC0895002427
S11315700A941616170618060906089500240A94F4
S113158012161306140605060895092E0394000C7A
S113159011F4882352F0BB0F40F4BF2B11F460FF09
S11315A004C06F5F7F4F8F4F9F4F089557FD905832
S11315B0440F551F59F05F3F71F04795880F97FB13
S11315C0991F61F09F3F79F08795089512161306CD
S11315D01406551FF2CF4695F1DF08C016161706FC
S11315E01806991FF1CF8695710561050894089531
S11315F0E894BB2766277727CB0197F908950E94C3
S1131600120B0C94C50A0E94B70A38F00E94BE0A55
S113161020F0952311F00C94AE0A0C94B40A112412
S11316200C94F90A0E94D60A70F3959FC1F3950FA2
S113163050E0551F629FF001729FBB27F00DB11D52
S1131640639FAA27F00DB11DAA1F649F6627B00DE2
S1131650A11D661F829F2227B00DA11D621F739FCB
S1131660B00DA11D621F839FA00D611D221F749FD9
S11316703327A00D611D231F849F600D211D822F20
S1131680762F6A2F11249F5750409AF0F1F0882347
S11316904AF0EE0FFF1FBB1F661F771F881F915074
S11316A05040A9F79E3F510580F00C94AE0A0C946B
S11316B0F90A5F3FE4F3983ED4F3869577956795EE
S11316C0B795F795E7959F5FC1F7FE2B880F911D9E
S11316D09695879597F90895052E97FB1EF4009427
S11316E00E94830B57FD07D00E94A00B07FC03D078
S11316F04EF40C94830B50954095309521953F4FB3
S11317004F4F5F4F089590958095709561957F4FE9
S11317108F4F9F4F0895EE0FFF1F0590F491E02D1A
S11317200994A29FB001B39FC001A39F700D811DB6
S11317301124911DB29F700D811D1124911D0895D6
S1131740A1E21A2EAA1BBB1BFD010DC0AA1FBB1FC1
S1131750EE1FFF1FA217B307E407F50720F0A21B33
S1131760B30BE40BF50B661F771F881F991F1A94A0
S113177069F760957095809590959B01AC01BD01CA
S1131780CF010895FC0105900020E9F7809590951C
S11317908E0F9F1F0895FB01DC014150504088F0DB
S11317A08D9181341CF08B350CF4805E659161342D
S11317B01CF06B350CF4605E861B611171F3990BA0
S11317C00895881BFCCFFA01A191B081009719F408
S11317D01097E1F0CD01DC01CD010D90002011F452
S11317E0C00113C0FB012191222319F02015D9F760
S11317F0F3CFFB012191201519F41E92119606C016
S11318002223C1F70D900020A1F7D001FA01A19382
S10B1810B0830895F894FFCFA2
S11318185561727420647A69616C610057617274ED
S11318286F9CE6203D2000646174615B305D20207C
S113183820203D2000646174615B305D3C3C3820AD
S11318483D2000646174615B315D202020203D20CF
S1131858005061636B657420636F756E74203D205E
S1131868004779726F2058203D20004779726F2015
S113187859203D20004779726F205A203D200041AD
S11318886363202058203D200041636320205920B1
S11318983D200041636320205A203D200055617299
S11318A87420697320776F726B696E670057726F63
S11118B86E6720636F6D6D616E643A200000F0
S9030000FC
