S0180000466C6967687420617373697374616E742E73726563B4
S11300000C9418010C9435010C9435010C943501B1
S11300100C9435010C9435010C9435010C94350184
S11300200C9435010C9435010C9435010C94350174
S11300300C9435010C9435010C9435010C94350164
S11300400C941E0A0C9435010C94140E0C94350176
S11300500C94EB0D0C9435010C9435010C94350182
S11300600C943F0A0C9435010C9435010C94350121
S11300700C9435010C9435010C9435010C94350124
S11300800C9435010C9435010C9435010C94350114
S11300900C9435010C9435010C9435010C94350104
S11300A00C9435010C9435010C9435010C943501F4
S11300B00C9435016C0A800A9C0A0C0B220B600B11
S11300C0B30BE50B380C084AD73B3BCE016E84BC1E
S11300D0BFFDC12F3D6C74319ABD56833DDA3D009E
S11300E0C77F11BED9E4BB4C3E916BAAAABE0000E7
S11300F000803F0000407A10F35A00A0724E1809A5
S11301000010A5D4E80000E87648170000E40B547A
S1130110020000CA9A3B000000E1F5050000809649
S11301209800000040420F000000A086010000007B
S1130130102700000000E803000000006400000035
S113014000000A00000000000100000000002C76FE
S1130150D888DC674F0823DFC1DFAE59E1B1B79619
S1130160E5E3E453C63AE651997696E8E6C2842676
S1130170EB898C9B62ED407C6FFCEFBC9C9F40F252
S1130180BAA56FA5F490055A2AF75C936B6CF967CE
S11301906DC11BFCE0E40D47FEF520E6B500D0ED93
S11301A0902E0300943577050080841E08000020FB
S11301B04E0A000000C80C333333330F986E128399
S11301C01141EF8D2114893BE65516CFFEE6DB186D
S11301D0D1844B381BF77C1D901DA4BBE424203232
S11301E084725E228100C9F124ECA1E53D274552C9
S11301F000000000000000000000000000000000FB
S11302000000490845525F52454144000000000087
S113021000000000000000004F0845525F425546B0
S11302200000000000000000000000000000A7081B
S113023011241FBECFEFD8E0DEBFCDBF11E0A0E098
S1130240B1E0E6EAFCE202C005900D92A435B107E4
S1130250D9F723E0A4E5B1E001C01D92A23BB207A7
S1130260E1F70E94FD040C9451160C940000FC016B
S113027090915701292F30E040815181220F331F83
S1130280D901A45ABE4F4D935C9342815381D90145
S1130290AA57BE4F4D935C9344815581F901EC5BA1
S11302A0FD4F518340839F5F953119F0909357011F
S11302B002C0109257018091570190915601891301
S11302C003C08F5F8093560180915601853111F4EC
S11302D0109256010895FC0190915501292F30E0A8
S11302E040815181220F331FD901A652BE4F4D9335
S11302F05C9342815381D901A65EBD4F4D935C93BB
S113030044815581F901E055FE4F518340839F5F3D
S1130310953119F09093550102C0109255018091C6
S1130320550190915401891303C08F5F8093540148
S113033080915401853111F4109254010895DC0127
S1130340E0915601F0E0EE0FFF1FE45AFE4F80816A
S1130350918111969C938E9390915601292F30E0B0
S1130360220F331FF901EA57FE4F40815181139642
S11303705C934E931297F901EC5BFD4F2081318120
S113038015963C932E9314979F5F953119F0909393
S113039056010895109256010895DC01E09154012C
S11303A0F0E0EE0FFF1FE652FE4F8081918111961F
S11303B09C938E9390915401292F30E0220F331F88
S11303C0F901E65EFD4F4081518113965C934E9393
S11303D01297F901E055FE4F2081318115963C9327
S11303E02E9314979F5F953119F0909354010895BB
S11303F01092540108958091570190915601891BE0
S1130400853108F08B5E08958091550190915401D7
S1130410891B853108F08B5E0895CF92DF92EF92AD
S1130420FF920F931F93CF93DF9300D000D000D09F
S1130430CDB7DEB7662329F16C017C018C01085D20
S11304401F4F6150262F30E02F5F3F4F220F331F85
S1130450C20ED31ECE0101960E949F0189819A810A
S1130460F701819391937F012B813C81F8012193C2
S113047031938F012D813E8137A326A3EC14FD0413
S113048049F726960FB6F894DEBF0FBECDBFDF91B5
S1130490CF911F910F91FF90EF90DF90CF9008952F
S11304A0CF92DF92EF92FF920F931F93CF93DF933C
S11304B000D000D000D0CDB7DEB7662329F16C019F
S11304C07C018C01085D1F4F6150262F30E02F5FA7
S11304D03F4F220F331FC20ED31ECE0101960E943E
S11304E0CD0189819A81F701819391937F012B81B9
S11304F03C81F801219331938F012D813E8137A3F3
S113050026A3EC14FD0449F726960FB6F894DEBF33
S11305100FBECDBFDF91CF911F910F91FF90EF9050
S1130520DF90CF9008954F925F926F927F928F9257
S11305309F92AF92BF92CF92DF92EF92FF920F936E
S11305401F93CF93DF93EA016623B9F1DC01FC0129
S1130550B8962FEF260F30E02F5F3F4F220F331F47
S1130560820F931F00E010E09801812C912C54011C
S1130570C12CD12C76014D915D912A01550F66084D
S11305807708040D151D261D371D419151912A012F
S1130590550F66087708840C951CA61CB71C46A149
S11305A057A12A01550F66087708C40CD51CE61C10
S11305B0F71CA817B907F9F609C000E010E0980184
S11305C0812C912C5401C12CD12C7601462E512C16
S11305D0612C712CC901B801A30192010E948610FB
S11305E039832883C501B401A30192010E948610B6
S11305F03B832A83C701B601A30192010E9486109E
S11306003D832C83DF91CF911F910F91FF90EF9049
S1130610DF90CF90BF90AF909F908F907F906F901E
S11306205F904F900895EF92FF921F93CF93DF93C3
S1130630CDB7DEB7C857D1090FB6F894DEBF0FBEE9
S1130640CDBF7C010E94FB01182F682FCE010196BB
S11306500E940D02A701612FCE0101960E94930210
S1130660C858DF4F0FB6F894DEBF0FBECDBFDF9181
S1130670CF911F91FF90EF9008952F923F924F9248
S11306805F926F927F928F929F92AF92BF92CF921E
S1130690DF92EF92FF920F931F93CF93DF93CDB727
S11306A0DEB727970FB6F894DEBF0FBECDBF5E83CB
S11306B04D83662309F466C08C01FC01B896615031
S11306C0262E312C25E1220E311C220C331C280E3F
S11306D0391EC12CD12C7601C39419821A821B8233
S11306E01C82412C512C3201812C912C54011F82EB
S11306F04F81CC9C400D11244F83D8018D919D9145
S11307008D01DC01A70196010E94C5109B01AC017B
S1130710C701B6010E94761029813A814B815C8120
S1130720260F371F481F591F29833A834B835C8345
S1130730A191B191A70196010E94C5109B01AC0142
S1130740C701B6010E947610460E571E681E791E18
S1130750A6A1B7A1A70196010E94C5109B01AC01F7
S1130760C701B6010E947610860E971EA81EB91EF8
S11307703FEFC31AD30AE30AF30AE215F30509F0BB
S1130780B7CF0BC019821A821B821C82412C512CB8
S11307903201812C912C54011F82FF81CF2ED12C48
S11307A0E12CF12C69817A818B819C81A7019601CE
S11307B00E948610AD81BE812D933C93C301B2018A
S11307C0A70196010E948610ED81FE813383228366
S11307D0C501B401A70196010E948610AD81BE81B6
S11307E015963C932E93149727960FB6F894DEBF74
S11307F00FBECDBFDF91CF911F910F91FF90EF906E
S1130800DF90CF90BF90AF909F908F907F906F902C
S11308105F904F903F902F900895EF92FF921F9317
S1130820CF93DF93CDB7DEB7C857D1090FB6F8948D
S1130830DEBF0FBECDBF7C010E940402182F682FBB
S1130840CE0101960E945002A701612FCE010196AC
S11308500E943D03C858DF4F0FB6F894DEBF0FBEA9
S1130860CDBFDF91CF911F91FF90EF900895CF926C
S1130870DF92EF92FF92CF93DF930097C1F1EC01E7
S1130880072E000C880B990B0E944A0F6B017C0108
S1130890BE010D2E000C880B990B0E944A0F9B0180
S11308A0AC01C701B6010E94D60E0E94A70E1C1609
S11308B01D064CF49B01AC016BED7FE089EC9FE3DA
S11308C00E943A0E07C02BED3FE049EC5FE30E9423
S11308D03B0E905820E030E044E353E40E940510BE
S11308E02BED3FE049E450E40E94D60E03C060E0E3
S11308F070E0CB01DF91CF91FF90EF90DF90CF902C
S1130900089584EA8093BC00ECEBF0E080818823B6
S1130910ECF7089584E98093BC00ECEBF0E080816F
S113092084FDFDCF08958093BB0084E88093BC00D0
S1130930ECEBF0E080818823ECF7089520E4829FBB
S1130940C001112484688093BC00ECEBF0E080814A
S11309508823ECF78091BB0008951F93CF93DF9316
S1130960182FD62FC42F0E948104812F880F0E9434
S113097093048D2F0E9493048C2F0E9493040E9451
S11309808A04DF91CF911F910895EF92FF920F9304
S11309901F93CF93DF93162FD42FE22EF32EC82F5D
S11309A0CC0F0E9481048C2F0E949304812F0E94FB
S11309B093040E94810481E08C0F0E949304CFEF82
S11309C0CD0FDD2389F00E2D1F2DD1E0F12C8D2FBD
S11309D0C11101C08F2D0E949E04F80181938F01E3
S11309E08C2FC1508111F3CF0E948A04DF91CF91E3
S11309F01F910F91FF90EF9008951092160210929C
S1130A001702109218021092190210920402109206
S1130A100502109206021092070280E284B9109235
S1130A20B9008CE08093B80084E08093BC000E94FD
S1130A305B0C789484E091E00E94900C88EC90E048
S1130A40909315028093140268E072E08EE092E0C5
S1130A500E9445058AE020E295B1922795B93FEFBF
S1130A6041EE94E0315040409040E1F700C0000076
S1130A70815091F70E9441070E94070A0E94990D34
S1130A800E94A5070E94100AF9CF2F923F924F921D
S1130A905F926F927F928F929F92AF92BF92CF920A
S1130AA0DF92EF92FF920F931F93CF93DF93CDB713
S1130AB0DEB7A4970FB6F894DEBF0FBECDBF9AA3DE
S1130AC089A37CA36BA340E86BE688E60E94AD048F
S1130AD02FEF31EE44E0215030404040E1F700C0B8
S1130AE0000041E06BE688E60E94AD0440E06CE65D
S1130AF088E60E94AD045FEF63EC79E051506040FA
S1130B007040E1F700C0000040E068E388E60E941E
S1130B10AD0440E063E288E60E94AD0440E06BE689
S1130B2088E60E94AD0440E064E288E60E94AD04D9
S1130B3040E06AE688E60E94AD044CE06AE688E696
S1130B400E94AD048FE59AEE0197F1F700C0000012
S1130B5041E06AE188E60E94AD0440E069E188E68C
S1130B600E94AD0440E06BE188E60E94AD0440E0E1
S1130B706CE188E60E94AD0440E46AE688E60E94DF
S1130B80AD0448E763E288E60E94AD04AFE1BEE449
S1130B901197F1F700C00000BFEFEFE8F1E0B150AA
S1130BA0E040F040E1F700C00000198E1A8E1B8E61
S1130BB01C8E412C512C3201812C912C54011D8A04
S1130BC01E8A1F8A188E198A1A8A1B8A1C8A1D86F5
S1130BD01E861F86188AC12CD12C212C312C12C0C0
S1130BE02FEF3FE841E0215030404040E1F700C0A2
S1130BF0000053E12516310429F440E063E288E65D
S1130C000E94AD049E012F5F3F4F42E062E788E6F9
S1130C100E94C504298130E0322F22278A81282BA3
S1130C20ABEABAEA0E94AB107C01F694E794F6941E
S1130C30E794F694E794E114F10409F48CC000E01D
S1130C4010E09E012F5F3F4F4CE064E788E60E946E
S1130C50C504C11464E0D60608F077C07FEFC71A54
S1130C60D70A898190E0982F88272A81822B092E20
S1130C70000CAA0BBB0B2D893E894F89588D280F78
S1130C80391F4A1F5B1F2D8B3E8B4F8B588F8B81D7
S1130C9090E0982F88272C81822B092E000CAA0B18
S1130CA0BB0B49895A896B897C89480F591F6A1F74
S1130CB07B1F498B5A8B6B8B7C8B8D8190E0982F9B
S1130CC088272E81822B092E000CAA0BBB0B2D85A5
S1130CD03E854F855889280F391F4A1F5B1F2D8772
S1130CE03E874F87588B8F8190E0982F88272885DF
S1130CF0822B092E000CAA0BBB0B498D5A8D6B8DD0
S1130D007C8D480F591F6A1F7B1F498F5A8F6B8F29
S1130D107C8F898590E0982F88272A85822B092E3D
S1130D20000CAA0BBB0B480E591E6A1E7B1E8B853A
S1130D3090E0982F88272C85822B092E000CAA0B73
S1130D40BB0B880E991EAA1EBB1E0F5F1F4FE01619
S1130D50F10609F076CF5FEF251A350A64E126160D
S1130D60310409F03DCFC601A0E0B0E08D8F9E8F25
S1130D70AF8FB8A36D897E898F89988D2D8D3E8D17
S1130D804F8D58A10E9486102D8B3E8B4F8B588F10
S1130D9069897A898B899C892D8D3E8D4F8D58A1C7
S1130DA00E948610298B3A8B4B8B5C8B6D857E85DC
S1130DB08F8598892D8D3E8D4F8D58A10E94861068
S1130DC069017A01698D7A8D8B8D9C8D2D8D3E8D77
S1130DD04F8D58A10E9486102D873E874F87588BD0
S1130DE0C301B2012D8D3E8D4F8D58A10E948610F6
S1130DF029013A01C501B4012D8D3E8D4F8D58A1B5
S1130E000E9486101C141D041E041F0434F4D70110
S1130E10C6019054A109B10905C0D701C601905C6F
S1130E20AF4FBF4F6D857E85E9A1FAA171836083C1
S1130E3053824282358324832D893E89EBA1FCA110
S1130E403183208349895A895383428395838483D8
S1130E50A4960FB6F894DEBF0FBECDBFDF91CF913D
S1130E601F910F91FF90EF90DF90CF90BF90AF90C4
S1130E709F908F907F906F905F904F903F902F90B6
S1130E80089540E86BE688E60E94AD042FEF81EEFA
S1130E9094E0215080409040E1F700C0000041E020
S1130EA06BE688E60E94AD0440E06CE688E60E94AA
S1130EB0AD042FEF83EC99E0215080409040E1F79E
S1130EC000C0000040E068E388E60E94AD0440E012
S1130ED063E288E60E94AD0440E06BE688E60E9487
S1130EE0AD0440E064E288E60E94AD0440E06AE6B6
S1130EF088E60E94AD044CE06AE688E60E94AD04F0
S1130F008FE59AEE0197F1F700C0000043E06AE133
S1130F1088E60E94AD0444E069E188E60E94AD04DD
S1130F2040E06BE188E60E94AD0440E06CE188E6B5
S1130F300E94AD0440E46AE688E60E94AD0448E7F6
S1130F4063E288E60E94AD0408958F929F92AF9267
S1130F50BF92CF92DF92EF92FF920F931F93CF93A2
S1130F60DF93CDB7DEB768970FB6F894DEBF0FBE38
S1130F70CDBF9E012F5F3F4F42E062E788E60E94AB
S1130F80C5048A819BEA899FC12C1124C694C69406
S1130F90C69409F46BC0D12C0F2EF8E0EF2EF2E0CA
S1130FA0FF2EF02D0EE012E09E012F5F3F4F4CE02C
S1130FB064E788E60E94C504EB81F0E0FE2FEE278B
S1130FC08C814F01882A6D8170E0762F66278E818F
S1130FD0682B4F8150E0542F44278885482B29855E
S1130FE030E0322F22278A85282B8B8590E0982F9A
S1130FF08827AC858A2BA981B0E0BA2FAA27BA80AA
S1131000AB29F701A080B180AA19BB09BC8BAB8BBB
S1131010A281B381F401EA1BFB0BFE8BED8BD7019C
S11310201496ED91FC9115976E1B7F0B788F6F8B47
S1131030F80160817181461B570B5E874D874281A1
S11310405381241B350B388B2F8724813581821BD8
S1131050930B9A8B898BCE010D960E943701CE019A
S113106043960E946B01D394CD109ECF68960FB621
S1131070F894DEBF0FBECDBFDF91CF911F910F91CA
S1131080FF90EF90DF90CF90BF90AF909F908F90A4
S1131090089580E191E00E94900C80E00895CF9340
S11310A0DF93CDB7DEB72C970FB6F894DEBF0FBE33
S11310B0CDBFCE0101960E949F01CE0107960E94EA
S11310C0CD0149815A81052E000C660B770B80E215
S11310D091E00E94860D4B815C81052E000C660B0D
S11310E0770B85E291E00E94860D4D815E81052E8D
S11310F0000C660B770B8AE291E00E94860D4F810B
S11311005885052E000C660B770B8FE291E00E9448
S1131110860D49855A85052E000C660B770B84E3F2
S113112091E00E94860D4B855C85052E000C660BB4
S1131130770B89E391E00E94860D80E02C960FB630
S1131140F894DEBF0FBECDBFDF91CF910895CF934A
S1131150DF9300D000D000D0CDB7DEB70E94FB01F2
S11311608823C1F0CE0101960E94130349815A815C
S1131170052E000C660B770B80E291E00E94860D31
S11311804B815C81052E000C660B770B85E291E0A8
S11311900E94860D0E940402882311F1CE0101965B
S11311A00E940D0449815A81052E000C660B770BB1
S11311B08FE291E00E94860D4B815C81052E000C2C
S11311C0660B770B84E391E00E94860D4D815E816E
S11311D0052E000C660B770B89E391E00E94860DC7
S11311E00E940402482F50E060E070E08EE391E03A
S11311F00E94860D80E026960FB6F894DEBF0FBEDF
S1131200CDBFDF91CF9108954F925F926F928F92ED
S11312109F92AF92BF92CF92DF92EF92FF920F9381
S11312201F93CF93DF93CDB7DEB7A2970FB6F89491
S1131230DEBF0FBECDBFFE0131969E012F5D3F4F35
S113124011922E173F07E1F7861799F010E0A1E0FD
S1131250B0E0AC0FBD1FA10FB11DE82FF0E0EE5EB2
S1131260FC4F90819C938F5F8F711F5F6813EFCF4A
S113127001C010E0AE014F5D5F4F6FE471E0CE013D
S113128001960E9430115C01FC0101900020E9F7F5
S113129031976E2E681A0F2EFEEEEF2EF1E0FF2E20
S11312A0F02DC12CD12C00E0812E912CC7010E947D
S11312B00F11681218C0A401B701C5010E941811CA
S11312C0892B89F486E18C9DF0018D9DF00D11240C
S11312D0EE5FFD4F2591349189A19AA1F9010995F9
S11312E00330A1F409C00F5FFFEFCF1ADF0A86E1D4
S11312F0E80EF11C0330D1F681E491E00E94730CF6
S1131300CE0101960E94730C0E94890CA2960FB61E
S1131310F894DEBF0FBECDBFDF91CF911F910F9127
S1131320FF90EF90DF90CF90BF90AF909F908F9001
S11313306F905F904F9008958F929F92AF92BF925B
S1131340CF92DF92EF92FF920F931F93CF93DF938D
S1131350CDB7DEB764970FB6F894DEBF0FBECDBF2E
S113136089E190E090931502809314020E94FB019E
S1131370882321F0CE0101960E9413030E940402E7
S1131380882321F0CE0107960E940D046B857C858D
S113139089859A850E9437044B015C016B857C85A5
S11313A08F8198850E9437046B017C018E01035F55
S11313B01F4F23E040E0C501B4010E94EF1081E516
S11313C091E00E94730CC8010E94730CC701B6011E
S11313D0905823E040E00E94EF108FE491E00E94D7
S11313E0730CC8010E94900C64960FB6F894DEBF8B
S11313F00FBECDBFDF91CF911F910F91FF90EF9062
S1131400DF90CF90BF90AF909F908F900895EEE6BD
S1131410F0E080818160808385B5836085BD089517
S1131420E0910001F091010180819181892B29F4DF
S1131430E0910201F0910301099508951F920F9222
S11314400FB60F9211242F938F939F93EF93FF93D3
S1131450E0910001F09101018081918101978E3F1B
S11314602FEF920710F491838083FF91EF919F9166
S11314708F912F910F900FBE0F901F9018951F9270
S11314800F920FB60F9211242F933F934F935F93B4
S11314908F939F93AF93BF93EF93FF93E091710268
S11314A0E695E695E695E7704E2F50E084E1E89FD7
S11314B0F0011124EE58FD4F8081282F2E7FE389FF
S11314C08E2F90E0FC013497E930F10508F0E4C177
S11314D0E65AFF4F0C94A5102093BB0085E8809337
S11314E0BC00E0917102E695E695E695E77084E12B
S11314F0E89FF0011124EE58FD4F85E0838BCCC1A9
S113150084E1849FF001859FF00D1124EE58FD4F76
S113151091819093BB0095E89093BC00E091710297
S1131520E695E695E695E7708E9FF0011124EE5856
S1131530FD4F86E0838BB0C184E1849FF001859FD9
S1131540F00D1124EE58FD4F808180FF12C085EA12
S11315508093BC00E0917102E695E695E695E7700C
S113156084E1E89FF0011124EE58FD4F87E0838B5E
S113157093C184E1849FF001859FF00D1124EE58FE
S1131580FD4F87858230E8F084E1849FF001859FD8
S1131590F00D1124EE58FD4F92819093BB0095E815
S11315A09093BC00E0917102E695E695E695E770AC
S11315B08E9FF0011124EE58FD4F8BE0838B14862F
S11315C01BC084E1849FF001859FF00D1124EE5827
S11315D0FD4F92819093BB0095E89093BC00E091FD
S11315E07102E695E695E695E7708E9FF001112469
S11315F0EE58FD4F8CE0838BE0917102E695E69501
S1131600E695E77084E1E89FF0011124EE58FD4F60
S113161087858150878740C181E0820F8093BB001A
S113162085E88093BC00E0917102E695E695E69525
S1131630E77084E1E89FF0011124EE58FD4F88E043
S1131640838B2AC184E1849FF001859FF00D1124CE
S1131650EE58FD4F8785823090F085EC8093BC0076
S1131660E0917102E695E695E695E77084E1E89FDE
S1131670F0011124EE58FD4F89E0838B11C085E8F9
S11316808093BC00E0917102E695E695E695E770DB
S113169084E1E89FF0011124EE58FD4F8AE0838B2A
S11316A0E0917102E695E695E695E77084E1E89F9E
S11316B0F0011124EE58FD4F878581508787ECC0D7
S11316C084E1849FF001859FF00D1124EE58FD4FB5
S11316D0A585B6859D012F5F3F4F3687258790915D
S11316E0BB009C93E0917102E695E695E695E77060
S11316F08E9FF0011124EE58FD4F8785823090F0C3
S113170085EC8093BC00E0917102E695E695E69540
S1131710E77084E1E89FF0011124EE58FD4F89E061
S1131720838B11C085E88093BC00E0917102E6953B
S1131730E695E695E77084E1E89FF0011124EE5800
S1131740FD4F8AE0838BE0917102E695E695E6957C
S1131750E77084E1E89FF0011124EE58FD4F87857E
S11317608150878799C084E1849FF001859FF00DA3
S11317701124EE58FD4FA585B6859D012F5F3F4F7F
S1131780368725879091BB009C93E0917102E69582
S1131790E695E695E7708E9FF0011124EE58FD4F13
S11317A0A089B18992899C9395E99093BC00E091BA
S11317B07102E695E695E695E7708E9FF001112497
S11317C0EE58FD4F81E0838B67C084E1849FF00174
S11317D0859FF00D1124EE58FD4F87858230E8F087
S11317E084E1849FF001859FF00D1124EE58FD4F94
S11317F092819093BB0095E89093BC00E0917102B4
S1131800E695E695E695E7708E9FF0011124EE5873
S1131810FD4F8BE0838B14861BC084E1849FF00111
S1131820859FF00D1124EE58FD4F92819093BB00DB
S113183095E89093BC00E0917102E695E695E695F3
S1131840E7708E9FF0011124EE58FD4F8CE0838BDE
S1131850E0917102E695E695E695E77084E1E89FEC
S1131860F0011124EE58FD4F87858150878714C0FD
S113187085E98093BC00E0917102E695E695E695D2
S1131880E77084E1E89FF0011124EE58FD4F81E0F8
S1131890838B8FEF80936E02FF91EF91BF91AF9195
S11318A09F918F915F914F913F912F910F900FBE18
S11318B00F901F9018950E94C70D0895882391F0EA
S11318C08A3081F0E0915A01F0E0EE5EFC4F8083B3
S11318D080915A018F5F8F7180935A0180915A01D0
S11318E080915B0108950F931F93CF93FC01808136
S11318F0882359F08F01C0E00E94D10DCF5FF80119
S1131900EC0FF11D80818111F7CFCF911F910F91C1
S113191008958DE00E94D10D8AE00E94D10D0895B2
S11319200E94730C0E94890C08954F925F926F92EB
S11319307F928F929F92AF92BF92CF92DF92EF925B
S1131940FF920F931F93CF93DF93CDB7DEB7A89782
S11319500FB6F894DEBF0FBECDBF6B017C01FE0154
S113196075968E010F5F1F4FCE014D96D8011192CF
S11319701D92E817F907D9F7FF200CF05DC081C06C
S11319805E0126E1A20EB11C992493940F2EFAE075
S11319904F2E512C612C712CF02D01C0982EC701B3
S11319A0B601A30192010E94861020E3260FD501FF
S11319B02D935D01A7019601261B370B480B590B8C
S11319C0CA01B901A30192010E94861069017A013A
S11319D0232B242B252B21F081E0890D8431F1F672
S11319E021E0290D882054F402C021E0912CFE014D
S11319F0E20FF11D8DE2858B22E0290D211102C039
S1131A000FC021E0E5E1F0E0EC0FFD1FE20FF11D56
S1131A1080E09291D8019D938D018F5F8217C8F366
S1131A20E1E0F0E0EC0FFD1FE20FF11D1082CE01AA
S1131A3001960E94730C53C00F2EFAE08F2E912C46
S1131A40A12CB12CF02DC701B601A50194010E946F
S1131A50861020E3260F2D8BA7019601261B370B3A
S1131A60480B590BCA01B901A50194010E948610C3
S1131A7069017A01232B242B252B19F288248394C2
S1131A807FCFF094E094D094C094C11CD11CE11C8D
S1131A90F11C0F2EFAE08F2E912CA12CB12CF02DDD
S1131AA0C701B601A50194010E94861020E3260F08
S1131AB02D8BA7019601261B370B480B590BCA0126
S1131AC0B901A50194010E94861069017A01232BB2
S1131AD0242B252B09F489CF88248A9451CFA896E6
S1131AE00FB6F894DEBF0FBECDBFDF91CF911F912B
S1131AF00F91FF90EF90DF90CF90BF90AF909F90A9
S1131B008F907F906F905F904F900895CF92DF9267
S1131B10EF92FF926A017B010E94730CC701B60128
S1131B200E94950C0E94890CFF90EF90DF90CF905B
S1131B300895CF9390915A0180915B01981729F1F0
S1131B40C0915B0180915A01C817F9F0EC2FF0E0C5
S1131B50EE5EFC4F80818D3091F407C0EC2FF0E0F5
S1131B60EE5EFC4F80818D3051F480915B016C2FCF
S1131B700E940409CF5FCF71C0935B0106C0CF5FA1
S1131B80CF7180915A018C13E9CFCF91089583E0EE
S1131B9090E09093C5008093C40088ED8093C100C9
S1131BA008959091C00095FF09C02091580190912B
S1131BB05901291303C08093C6000895E091580188
S1131BC0F0E0EE5CFC4F8083809158018F5F8F774B
S1131BD08093580108951F920F920FB60F9211240B
S1131BE08F939F93EF93FF939091590180915801A4
S1131BF0981303C08091C6000EC0E0915901F0E033
S1131C00EE5CFC4F80818093C600809159018F5F08
S1131C108F7780935901FF91EF919F918F910F904E
S1131C200FBE0F901F9018951F920F920FB60F9230
S1131C3011242F933F934F935F936F937F938F93CD
S1131C409F93AF93BF93EF93FF938091C6000E943D
S1131C505E0CFF91EF91BF91AF919F918F917F9116
S1131C606F915F914F913F912F910F900FBE0F9005
S1131C701F9018955058BB27AA270E94520E0C9407
S1131C80C30F0E94B50F38F00E94BC0F20F039F446
S1131C909F3F19F426F40C948B0F0EF4E095E7FBA8
S1131CA00C94850FE92F0E94D40F58F3BA176207DA
S1131CB073078407950720F079F4A6F50C94F60FC2
S1131CC00EF4E0950B2EBA2FA02D0B01B901900153
S1131CD00C01CA01A0011124FF27591B99F0593F97
S1131CE050F4503E68F11A16F040A22F232F342FDF
S1131CF04427585FF3CF469537952795A795F0402D
S1131D005395C9F77EF41F16BA0B620B730B840B41
S1131D10BAF09150A1F0FF0FBB1F661F771F881FF9
S1131D20C2F70EC0BA0F621F731F841F48F4879551
S1131D3077956795B795F7959E3F08F0B0CF939543
S1131D40880F08F09927EE0F979587950895DF93EC
S1131D50DD27B92FBF7740E85FE31616170648075B
S1131D605B0718F4D92F0E94FD0F9F938F937F93E5
S1131D706F930E947210E6ECF0E00E948E0F0E94B6
S1131D80C30F2F913F914F915F910E941810DD2353
S1131D9051F09058A2EA2AED3FE049EC5FE3D07895
S1131DA05D270E94520EDF910C94C30F0E94EA0E2D
S1131DB00C94C30F0E94BC0F58F00E94B50F40F062
S1131DC029F45F3F29F00C94850F51110C94F70FFF
S1131DD00C948B0F0E94D40F68F39923B1F355230D
S1131DE091F3951B550BBB27AA276217730784072A
S1131DF038F09F5F5F4F220F331F441FAA1FA9F3C0
S1131E0035D00E2E3AF0E0E832D091505040E695AD
S1131E10001CCAF72BD0FE2F29D0660F771F881F0E
S1131E20BB1F261737074807AB07B0E809F0BB0B01
S1131E30802DBF01FF2793585F4F3AF09E3F510515
S1131E4078F00C94850F0C94F70F5F3FE4F3983E01
S1131E50D4F3869577956795B795F7959F5FC9F7FE
S1131E60880F911D9695879597F90895E1E0660F7F
S1131E70771F881FBB1F621773078407BA0720F0F8
S1131E80621B730B840BBA0BEE1F88F7E095089561
S1131E90E89409C097FB3EF4909580957095619500
S1131EA07F4F8F4F9F4F9923A9F0F92F96E9BB27B6
S1131EB09395F695879577956795B795F111F8CF32
S1131EC0FAF4BB0F11F460FF1BC06F5F7F4F8F4F9D
S1131ED09F4F16C0882311F096E911C0772321F093
S1131EE09EE8872F762F05C0662371F096E8862F2B
S1131EF070E060E02AF09A95660F771F881FDAF782
S1131F00880F9695879597F9089597F99F6780E8C4
S1131F1070E060E008959FEF80EC0895DF93CF9325
S1131F201F930F93FF92EF92DF927B018C016894D1
S1131F3006C0DA2EEF010E941810FE01E894A59164
S1131F402591359145915591A6F3EF010E94520ECA
S1131F50FE019701A801DA9469F7DF90EF90FF90F2
S1131F600F911F91CF91DF91089500240A941616C2
S1131F70170618060906089500240A941216130673
S1131F80140605060895092E0394000C11F4882301
S1131F9052F0BB0F40F4BF2B11F460FF04C06F5F1D
S1131FA07F4F8F4F9F4F089557FD9058440F551FF3
S1131FB059F05F3F71F04795880F97FB991F61F0C7
S1131FC09F3F79F087950895121613061406551F3E
S1131FD0F2CF4695F1DF08C0161617061806991FAA
S1131FE0F1CF86957105610508940895E894BB279F
S1131FF066277727CB0197F908959B01AC0160E030
S113200070E080E89FE30C94D60E0E9418100C94A4
S1132010C30F0E94B50F38F00E94BC0F20F0952327
S113202011F00C94850F0C948B0F11240C94F70F62
S11320300E94D40F70F3959FC1F3950F50E0551F84
S1132040629FF001729FBB27F00DB11D639FAA2709
S1132050F00DB11DAA1F649F6627B00DA11D661F58
S1132060829F2227B00DA11D621F739FB00DA11D79
S1132070621F839FA00D611D221F749F3327A00D33
S1132080611D231F849F600D211D822F762F6A2FCF
S113209011249F5750409AF0F1F088234AF0EE0F34
S11320A0FF1FBB1F661F771F881F91505040A9F761
S11320B09E3F510580F00C94850F0C94F70F5F3F01
S11320C0E4F3983ED4F3869577956795B795F7959D
S11320D0E7959F5FC1F7FE2B880F911D9695879515
S11320E097F908959B01AC010C940510DB018F93C3
S11320F09F930E94BA10BF91AF91A29F800D911D32
S1132100A39F900DB29F900D11240895052E97FB67
S11321101EF400940E949D1057FD07D00E94CD101C
S113212007FC03D04EF40C949D10509540953095C7
S113213021953F4F4F4F5F4F08959095809570952F
S113214061957F4F8F4F9F4F0895EE0FFF1F0590AE
S1132150F491E02D0994A29FB001B39FC001A39F05
S1132160700D811D1124911DB29F700D811D1124CC
S1132170911D08950E94AB10A59F900DB49F900DE2
S1132180A49F800D911D11240895B7FF0C94BA10DB
S11321900E94BA10821B930B0895A1E21A2EAA1B67
S11321A0BB1BFD010DC0AA1FBB1FEE1FFF1FA21703
S11321B0B307E407F50720F0A21BB30BE40BF50B00
S11321C0661F771F881F991F1A9469F76095709589
S11321D0809590959B01AC01BD01CF010895EF92CC
S11321E00F931F93CF93DF93E80147FD02C034E0C0
S11321F001C034E1042E000C550B57FF03C0519568
S113220041955109E32E022F242FAE010E94381369
S1132210CE01DF91CF911F910F91EF900895FC01B2
S113222005900020E9F7809590958E0F9F1F0895E3
S1132230FB01DC014150504088F08D9181341CF049
S11322408B350CF4805E659161341CF06B350CF4B5
S1132250605E861B611171F3990B0895881BFCCF96
S1132260FA01A191B081009719F41097E1F0CD0122
S1132270DC01CD010D90002011F4C00113C0FB015D
S11322802191222319F02015D9F7F3CFFB012191D5
S1132290201519F41E92119606C02223C1F70D9041
S11322A00020A1F7D001FA01A193B0830895ABE017
S11322B0B0E0EDE5F1E10C941A166C017B018A01A2
S11322C0FC0117821682838181FFCCC1CE01019665
S11322D03C01F6019381F70193FD859193FF819170
S11322E07F01882309F4BAC1853239F493FD8591BD
S11322F093FF81917F01853229F4B60190E00E9419
S11323008015E7CF912C212C312CFFE1F315D8F067
S11323108B3279F038F4803279F08332A1F4232DB2
S113232020611DC08D3261F0803369F4232D21605A
S113233016C0832D8260382EE32DE4603E2E2AC021
S1132340F32DF8601DC037FC2DC020ED280F2A3076
S113235040F08E32B9F436FC81C1232D2064322E34
S113236019C036FE06C08AE0989E200D1124922ED4
S113237011C0EAE02E9E200D1124222EF32DF062CE
S11323803F2E08C08C3621F4832D8068382E02C07D
S1132390883641F4F70193FD859193FF81917F0184
S11323A08111B3CF982F9F7D9554933028F40C5FFF
S11323B01F4F9FE399830DC0833631F0833771F04B
S11323C0833509F059C021C0F801808189830E5FEB
S11323D01F4F88248394912C530113C02801F2E0E9
S11323E04F0E511CF801A080B18036FE03C0692D48
S11323F070E002C06FEF7FEFC5010E9475154C01BC
S11324008201F32DFF773F2E16C0280122E0420EF1
S1132410511CF801A080B18036FE03C0692D70E024
S113242002C06FEF7FEFC5010E946A154C01F32DC6
S1132430F0683F2E820133FC1BC0822D90E0881689
S11324409906B0F4B60180E290E00E9480152A94C7
S1132450F4CFF50137FC859137FE81915F01B60118
S113246090E00E94801521102A9421E0821A91089C
S11324708114910471F7E8C0843611F0893641F56E
S1132480F80137FE07C060817181828193810C5FFE
S11324901F4F08C060817181072E000C880B990BB7
S11324A00E5F1F4FF32DFF763F2E97FF09C09095C7
S11324B08095709561957F4F8F4F9F4FF0683F2EA9
S11324C02AE030E0A3010E94BC15882E861845C07E
S11324D0853731F4232D2F7EB22E2AE030E025C03B
S11324E0932D997FB92E8F36C1F018F4883579F081
S11324F0B5C0803719F0883721F0B0C0E92FE0610A
S1132500BE2EB4FE0DC0FB2DF460BF2E09C034FEF8
S11325100AC0292F2660B22E06C028E030E005C08C
S113252020E130E002C020E132E0F801B7FE07C04C
S113253060817181828193810C5F1F4F06C060812D
S1132540718180E090E00E5F1F4FA3010E94BC15D3
S1132550882E8618FB2DFF773F2E36FE0DC0232DC7
S11325602E7FA22E891458F434FE0BC032FC09C00D
S1132570832D8E7EA82E05C0B82CA32C03C0B82CA6
S113258001C0B92CA4FE0FC0FE01E80DF11D80812D
S1132590803321F49A2D997EA92E09C0A2FE06C08B
S11325A0B394B39404C08A2D867809F0B394A3FC41
S11325B011C0A0FE06C0B21488F4280C922C9B18FB
S11325C00EC0B21460F4B60180E290E00E9480155F
S11325D0B394F7CFB21418F42B1802C0982C212C02
S11325E0A4FE10C0B60180E390E00E948015A2FE14
S11325F017C0A1FC03C088E790E002C088E590E022
S1132600B6010CC08A2D867859F0A1FE02C08BE277
S113261001C080E2A7FC8DE2B60190E00E94801523
S1132620891438F4B60180E390E00E9480159A94EE
S1132630F7CF8A94F301E80DF11D8081B60190E093
S11326400E9480158110F5CF222009F442CEB601F4
S113265080E290E00E9480152A94F6CFF6018681EC
S1132660978102C08FEF9FEF2B96E2E10C94361610
S1132670A9E0B0E0EEE3F3E10C9420166A01122F16
S1132680B02E2BE3201720F0FF24F394F00E02C0A9
S11326902CE3F22E0F2D27E0AE014F5F5F4F0E9417
S11326A09214BC014981842F8970813031F0E1FC9E
S11326B006C0E0FE06C090E205C09DE203C09BE2B6
S11326C001C090E05E2D507143FF3CC0911102C0E7
S11326D083E001C084E0811718F4212F281B01C076
S11326E020E051110BC0F601822F30E2882319F04B
S11326F031938150FBCFC20ED11C20E0992329F0E5
S1132700D6019C93F60131966F01C6010396E2FE51
S11327100AC03EE4D6013C9341E411964C931197D0
S113272012963C9306C03EE6F601308341E64183AF
S11327303283FC01322F40E2332309F442C0419337
S11327403150FACF42FF44C0911102C083E001C06E
S113275084E0811718F4212F281B01C020E05111B7
S11327600BC0F601822F30E2882319F03193815097
S1132770FBCFC20ED11C20E0992329F0D6019C93F3
S1132780F60131966F01C6010396E2FE0BC039E4EF
S1132790D6013C933EE411963C93119736E412968D
S11327A03C9307C039E6F60130833EE6318336E6D2
S11327B03283FC01322F40E2332319F0419331502C
S11327C0FBCFFC01E20FF11D10828EEF9FEFA6C03C
S11327D021E030E0911102C020E030E01616170627
S11327E01CF4FB01319602C0E1E0F0E02E0F3F1F24
S11327F0BB2021F0EB2DF0E0319602C0E0E0F0E0E8
S11328002E0F3F1FE12FF0E02E173F071CF4121B81
S1132810212F01C020E08E2D887159F4F601822FFA
S113282030E2882319F031938150FBCFC20ED11CC2
S113283020E0992329F0D6019C93F60131966F018B
S113284051110BC0F601822F90E3882319F0919364
S11328508150FBCFC20ED11C20E00F2D060F9A81B0
S1132860342F307144FF03C0913309F40150101622
S113287024F4093018F008E001C001E0AB0177FF4F
S113288002C040E050E0FB01E41BF50BA1E0B0E026
S1132890AC0FBD1FEA0FFB1F8EE2A82E4B01801A5E
S11328A091080B2D10E01195019511094F3FBFEFD1
S11328B05B0721F4D601AC9211966D01641775077C
S11328C02CF08416950614F4818101C080E34150F4
S11328D051093196D60111967D014017510724F014
S11328E0D6018C936701E2CF6417750739F49633E8
S11328F020F4953319F4311101C081E3F60180838A
S1132900F701822F90E2882319F091938150FBCF35
S1132910F701E20FF11D108280E090E02996ECE0CF
S11329200C943C16283008F027E03327DA01990F7D
S1132930311D87FD916000966105710539F432609F
S11329402E5F3D9330E32A95E1F708959F3F30F0E1
S113295080387105610509F03C5F3C5F3D9391301F
S113296008F08068911DDF93CF931F930F93FF921C
S1132970EF92192F987F9695E92F96959695E90FE2
S1132980FF27E25BFE4F99273327EE24FF24A7019C
S1132990E70105900894079428F4360FE71EF81E03
S11329A0491F511D660F771F881F991F0694A1F7B1
S11329B00590079428F4E70EF81E491F561FC11D01
S11329C0770F881F991F661F0694A1F70590079437
S11329D028F4F80E491F561FC71FD11D880F991FD1
S11329E0661F771F0694A1F70590079420F4490FFA
S11329F0561FC71FD81F990F661F771F881F06947D
S1132A00A9F784911095177041F0D695C7955795FD
S1132A104795F794E7941A95C1F7E4EFF0E06894CA
S1132A201590159135916591959105907FE2739577
S1132A30E118F10A430B560BC90BD009C0F7E10C9E
S1132A40F11E431F561FC91FD01D7EF4703311F4AD
S1132A508A95E6CFE894015030F0080F0AF4002775
S1132A60021708F4202F2395022F7A3328F079E3F4
S1132A707D932A95E9F710C07D932A9589F60694EB
S1132A8097956795379517951794E118F10A430BB5
S1132A90560BC90BD00998F023957E9173957A3320
S1132AA008F070E37C932013B8F77E9170617D93F6
S1132AB030F0839571E37D9370E32A95E1F7112457
S1132AC0EF90FF900F911F91CF91DF91992787FD90
S1132AD090950895FC010590615070400110D8F75D
S1132AE0809590958E0F9F1F0895FC016150704052
S1132AF001900110D8F7809590958E0F9F1F08952F
S1132B000F931F93CF93DF93FB01238121FD03C018
S1132B108FEF9FEF2CC022FF16C04681578124817E
S1132B2035814217530744F4A081B1819D012F5F81
S1132B303F4F318320838C93268137812F5F3F4F12
S1132B403783268314C08B01EC01FB010084F185DB
S1132B50E02D0995892BE1F6D80116968D919C916B
S1132B601797019617969C938E931697CE01DF9133
S1132B70CF911F910F910895FA01AA27283051F19E
S1132B80203181F1E8946F936E7F6E5F7F4F8F4F9A
S1132B909F4FAF4FB1E03ED0B4E03CD0670F781FF9
S1132BA0891F9A1FA11D680F791F8A1F911DA11DDE
S1132BB06A0F711D811D911DA11D20D009F4689417
S1132BC03F912AE0269F11243019305D3193DEF6BF
S1132BD0CF010895462F4770405D4193B3E00FD075
S1132BE0C9F7F6CF462F4F70405D4A3318F0495D60
S1132BF031FD4052419302D0A9F7EACFB4E0A69543
S1132C009795879577956795BA95C9F70097610564
S1132C10710508959B01AC010A2E069457954795BA
S1132C2037952795BA95C9F7620F731F841F951FAF
S1132C30A01D08952F923F924F925F926F927F92C0
S1132C408F929F92AF92BF92CF92DF92EF92FF92B8
S1132C500F931F93CF93DF93CDB7DEB7CA1BDB0B64
S1132C600FB6F894DEBF0FBECDBF09942A88398809
S1132C7048885F846E847D848C849B84AA84B98410
S1132C80C884DF80EE80FD800C811B81AA81B9811C
S1132C90CE0FD11D0FB6F894DEBF0FBECDBFED0130
S1092CA00895F894FFCF33
S1132CA614029C095561727420647A69616C61002E
S1132CB65561727420697320776F726B696E670051
S1132CC64720582000472059200047205A20004119
S1132CD620582000412059200041205A200053202A
S1132CE60057726F6E6720636F6D6D616E643A2074
S1072CF60050200066
S9030000FC
