:100000000C94B1000C94CE000C94CE000C94CE0055
:100010000C94CE000C94CE000C94CE000C94CE0028
:100020000C94CE000C94CE000C94CE000C94CE0018
:100030000C94CE000C94CE000C94CE000C94CE0008
:100040000C94F9100C94CE000C9429180C94CE004A
:100050000C9401180C94CE000C94CE000C94CE009D
:100060000C9431120C94CE000C94CE000C94CE0063
:100070000C94560F0C94CE000C94CE000C94CE0031
:100080000C94CE000C9457110C9472110C94CE0069
:100090000C94CE000C94CE000C94CE000C94CE00A8
:1000A0000C94CE000C94CE000C940B120C94CE0049
:1000B0000C94CE005E1272128E12FE1214135213A2
:1000C000A513D7132A14084AD73B3BCE016E84BC34
:1000D000BFFDC12F3D6C74319ABD56833DDA3D00A2
:1000E000C77F11BED9E4BB4C3E916BAAAABE0000EB
:1000F00000803F00455200000000000000000000AA
:1001000000000000000000004D1445525F524541C0
:100110004400000000000000000000000000531434
:1001200045525F42554600000000000000000000FC
:1001300000000000AB1445525F444247000000003D
:1001400000000000000000000000FE1445525F5354
:1001500042555300000000000000000000000000B5
:10016000011511241FBECFEFD8E0DEBFCDBF12E0D6
:10017000A0E0B1E0E6EBFCE302C005900D92A631F1
:10018000B107D9F725E0A6E1B2E001C01D92A13B7D
:10019000B207E1F70E9498080C94591E0C940000D5
:1001A000E0E2F2E010861186128613861486158628
:1001B00016861786E7EEF2E0108611861286138601
:1001C000148615861686178688E290E090932E0393
:1001D00080932D0328EC30E030935B0220935A0289
:1001E0009093E6028093E5021092E0028091E00293
:1001F0008E7F8093E0021092FD021092FE02109218
:10020000FF02109200031092E1021092E20210929B
:10021000E3021092E4020895FC0190911902292F43
:1002200030E040815181220F331FD901A05DBD4FC5
:100230004D935C9342815381D901A45ABD4F4D9394
:100240005C9344815581F901E15DFC4F518340830A
:100250009F5F953119F09093190202C01092190214
:100260008091190290911802891303C08F5F8093C7
:10027000180280911802853111F410921802089525
:10028000FC0190911702292F30E040815181220F0B
:10029000331FD901A055BD4F4D935C9342815381CB
:1002A000D901AF5FBC4F4D935C9344815581F901F7
:1002B000EA57FD4F518340839F5F953119F090932A
:1002C000170202C010921702809117029091160235
:1002D000891303C08F5F80931602809116028531C7
:1002E00011F4109216020895DC01E0911802F0E07A
:1002F000EE0FFF1FE05DFD4F8081918111969C9371
:100300008E9390911802292F30E0220F331FF901AC
:10031000E45AFD4F4081518113965C934E9312979E
:10032000F901E15DFC4F2081318115963C932E93BC
:1003300014979F5F953119F09093180208951092C9
:1003400018020895DC01E0911602F0E0EE0FFF1FA5
:10035000E055FD4F8081918111969C938E939091F1
:100360001602292F30E0220F331FF901EF5FFC4FF7
:100370004081518113965C934E931297F901EA578D
:10038000FD4F2081318115963C932E9314979F5FEA
:10039000953119F09093160208951092160208955F
:1003A000FC0120911902215008F424E130E0220FD1
:1003B000331FD901A05DBD4F8D919C9191838083A6
:1003C000D901A45ABD4F8D919C9193838283D90109
:1003D000A15DBC4F8D919C91958384830895FC0110
:1003E00020911702215008F424E130E0220F331F3E
:1003F000D901A055BD4F8D919C9191838083D901E6
:10040000AF5FBC4F8D919C9193838283D901AA5792
:10041000BD4F8D919C91958384830895809119029D
:1004200090911802891B853108F08B5E08958091A8
:10043000170290911602891B853108F08B5E089592
:10044000CF92DF92EF92FF920F931F93CF93DF93A0
:1004500000D000D000D0CDB7DEB7662329F16C0103
:100460007C018C01085D1F4F6150262F30E02F5F0B
:100470003F4F220F331FC20ED31ECE0101960E94A2
:10048000740189819A81F701819391937F012B8176
:100490003C81F801219331938F012D813E8137A357
:1004A00026A3EC14FD0449F726960FB6F894DEBF98
:1004B0000FBECDBFDF91CF911F910F91FF90EF90B5
:1004C000DF90CF900895CF92DF92EF92FF920F933B
:1004D0001F93CF93DF9300D000D000D0CDB7DEB70D
:1004E000662329F16C017C018C01085D1F4F61506E
:1004F000262F30E02F5F3F4F220F331FC20ED31E37
:10050000CE0101960E94A20189819A81F70181930F
:1005100091937F012B813C81F801219331938F01CD
:100520002D813E8137A326A3EC14FD0449F72696BE
:100530000FB6F894DEBF0FBECDBFDF91CF911F91F4
:100540000F91FF90EF90DF90CF9008954F925F92C0
:100550006F927F928F929F92AF92BF92CF92DF92D3
:10056000EF92FF920F931F93CF93DF93EA016623DD
:10057000B9F1DC01FC01B8962FEF260F30E02F5FB8
:100580003F4F220F331F820F931F00E010E09801AE
:10059000812C912C5401C12CD12C76014D915D916F
:1005A0002A01550F66087708040D151D261D371DF5
:1005B000419151912A01550F66087708840C951CCA
:1005C000A61CB71C46A157A12A01550F660877083B
:1005D000C40CD51CE61CF71CA817B907F9F609C00E
:1005E00000E010E09801812C912C5401C12CD12CF9
:1005F0007601462E512C612C712CC901B801A30142
:1006000092010E94F31A39832883C501B401A30122
:1006100092010E94F31A3B832A83C701B601A3010A
:1006200092010E94F31A3D832C83DF91CF911F9199
:100630000F91FF90EF90DF90CF90BF90AF909F9081
:100640008F907F906F905F904F900895EF92FF9200
:100650001F93CF93DF93CDB7DEB7C857D1090FB63D
:10066000F894DEBF0FBECDBF7C010E940E02182F92
:10067000682FCE0101960E942002A701612FCE01B2
:1006800001960E94A602C858DF4F0FB6F894DEBF4D
:100690000FBECDBFDF91CF911F91FF90EF900895D6
:1006A0002F923F924F925F926F927F928F929F9282
:1006B000AF92BF92CF92DF92EF92FF920F931F9370
:1006C000CF93DF93CDB7DEB727970FB6F894DEBF91
:1006D0000FBECDBF5E834D83662309F466C08C01D7
:1006E000FC01B8966150262E312C25E1220E311CDA
:1006F000220C331C280E391EC12CD12C7601C39438
:1007000019821A821B821C82412C512C3201812CAD
:10071000912C54011F824F81CC9C400D11244F839A
:10072000D8018D919D918D01DC01A70196010E9458
:10073000411B9B01AC01C701B6010E94C11A29816E
:100740003A814B815C81260F371F481F591F29832F
:100750003A834B835C83A191B191A70196010E94DA
:10076000411B9B01AC01C701B6010E94C11A460E94
:10077000571E681E791EA6A1B7A1A70196010E9467
:10078000411B9B01AC01C701B6010E94C11A860E34
:10079000971EA81EB91E3FEFC31AD30AE30AF30A35
:1007A000E215F30509F0B7CF0BC019821A821B823C
:1007B0001C82412C512C3201812C912C54011F821E
:1007C000FF81CF2ED12CE12CF12C69817A818B8194
:1007D0009C81A70196010E94F31AAD81BE812D93E1
:1007E0003C93C301B201A70196010E94F31AED8167
:1007F000FE8133832283C501B401A70196010E94C3
:10080000F31AAD81BE8115963C932E9314972796CB
:100810000FB6F894DEBF0FBECDBFDF91CF911F9111
:100820000F91FF90EF90DF90CF90BF90AF909F908F
:100830008F907F906F905F904F903F902F90089592
:10084000EF92FF921F93CF93DF93CDB7DEB7C857D8
:10085000D1090FB6F894DEBF0FBECDBF7C010E9458
:100860001702182F682FCE0101960E946302A7017C
:10087000612FCE0101960E945003C858DF4F0FB67A
:10088000F894DEBF0FBECDBFDF91CF911F91FF90D7
:10089000EF900895FC01A9E5B3E012968D919C912B
:1008A00013978C5A91099283818314968D919C9110
:1008B0001597805E93409483838316968D919C91C7
:1008C0001797805E93409683858318968D919C91AF
:1008D0001997805E9340908787838D919C911197A3
:1008E00080831A968D919C911B97805E934092878E
:1008F00081871C968D919C911D97805E9340948773
:1009000083871E968D919C911F979C01220F331F08
:10091000880F991F880F991F880F991F820F931FA7
:10092000805C96429687858750968D919C915197D1
:100930009C01220F331F880F991F880F991F880F62
:10094000991F820F931F805C9642908B87875296E7
:100950008D919C915397803E934010F4118A02C070
:1009600081E0818B80916D0390916E03803E934076
:1009700018F481E0828B01C0128AA9E5B3E0569693
:100980008D919C915797805E9340948B838B589662
:100990008D919C9159979C01220F331F220F331F79
:1009A000280F391F2B55334136952795AFECB7ECFF
:1009B0000E94201B9C0136952795329522952F7019
:1009C00023273F70232784E690E0821B930B11F4CA
:1009D00081E090E0858B80917303909174038C3A51
:1009E000910529F48CE291E0978B868B0EC0809163
:1009F000730390917403803E934029F486E990E05C
:100A0000978B868B02C0178A168A80917503909106
:100A100076038C3A910529F483E090E0918F808FE2
:100A20000EC08091750390917603803E934029F427
:100A300081E090E0918F808F02C0118E108E8091A6
:100A40007703909178038C3A910529F488EC90E033
:100A5000938F828F0EC08091770390917803803EB0
:100A6000934029F482E390E0938F828F02C0138E2B
:100A7000128E8091790390917A038331974019F413
:100A800081E0848F0895148E08954F925F926F9243
:100A90007F928F929F92AF92BF92CF92DF92EF920E
:100AA000FF920F931F93CF93DF93CDB7DEB72A97B3
:100AB0000FB6F894DEBF0FBECDBF8DE1E6EAF3E0DE
:100AC000A3ECB3E001900D928A95E1F786EA93E0FA
:100AD0000E944A04E6EAF3E046895789A0E2B2E0C0
:100AE00011965C934E93208D318D13963C932E93EB
:100AF0001297828D938D15969C938E931497A7EEE3
:100B0000B2E011965C934E9313963C932E931297FA
:100B100015969C938E931497808183FF11C095B195
:100B200082E0892785B9E1EEF3E08CE29CE49283D0
:100B3000818380EF95E595838483908787834DC279
:100B40008091C203882369F080912B038F5F80938B
:100B50002B038F3F41F4E0911A02F0911B0209959B
:100B600002C010922B03E6EAF3E081819281A0E0BB
:100B7000B0E06C017D01CC0CDD1CEE1CFF1CCC0C2C
:100B8000DD1CEE1CFF1CCC0CDD1CEE1CFF1CC80E7B
:100B9000D91EEA1EFB1EF694E794D794C7942CE264
:100BA000C20E2CE4D21EE11CF11C828981119EC070
:100BB0002091B9033091BA032F5F3F4FA4E6B0E014
:100BC0000E94201B23E333E040E050E00E94D11A52
:100BD00049015A01A091A903B091AA0320E43FE181
:100BE0000E942F1B0F2EF8E64F2EF6E05F2E612C91
:100BF000712CF02DA30192010E94F31A29833A83EC
:100C00004B835C8309811A81A091AB03B091AC0343
:100C100020E43FE10E942F1BA30192010E94F31ADE
:100C20002D833E834F8358874D815E815A87498744
:100C300054E685169104F9F0AA24BB24D801A50135
:100C400094010E94411B0F2EF4E64F2E512C612C73
:100C5000712CF02DA30192010E94F31A8901AD813C
:100C6000BE81A50194010E94411BA30192010E9433
:100C7000F31A3A8729870F2EF6EAAF2EF3E0BF2E3C
:100C8000F02DF501A185B28520E43FE10E942F1BE4
:100C90000F2EF8E64F2EF6E05F2E612C712CF02D12
:100CA000A30192010E94F31A4801820E931EF501DE
:100CB000A385B48520E43FE10E942F1BA30192018C
:100CC0000E94F31A89859A85820F931F9A838983DC
:100CD000F501848D882309F4E8C00F2EF8E6CF2EA5
:100CE000F2E4DF2EE12CF12CF02DDFC08090E10248
:100CF0009090E202A090E302B090E402E6EAF3E012
:100D00006381748185859685680F791F072E000C95
:100D1000880B990B0E94951920E030E040EB50E4DD
:100D20000E94501A0E945D1922273327261B370B79
:100D3000032E000C440B550B00E212E0C501B40178
:100D40000E94710A992324F46D5F7F4F8F4F9F4F4C
:100D5000DC01CB01B595A79597958795B595A79596
:100D6000979587959C01AD0166277727CB01621B7C
:100D7000730B840B950B2091BB0330E040E050E0F7
:100D80000E94F31AA22EB32E642E752E822F932F5B
:100D9000A42FB52F813137E29307A105B1054CF49B
:100DA000803F984DAF4FBF4F5CF00A2D1B2D48017F
:100DB0000DC00F2EF0E18F2EF7E29F2EF02D06C012
:100DC0000F2EF0EF8F2EF8ED9F2EF02DE6EAF3E0D8
:100DD0006581768187859089680F791F072E000CC1
:100DE000880B990B0E94951920E030E040EB50E40D
:100DF0000E94501A0E945D198B019C016091FD02B6
:100E00007091FE028091FF02909100039801245F8F
:100E10003140032E000C440B550B07EE12E00E94EC
:100E2000710A992324F46D5F7F4F8F4F9F4F9595E3
:100E3000879577956795959587957795679520918F
:100E4000BB0330E040E050E00E94F31A022F132F62
:100E5000442E552E822F932FA42FB52F813157E288
:100E60009507A105B10544F4803F984DAF4FBF4FA2
:100E700044F009831A8309C040E157E25A83498349
:100E800004C080EF98ED9A8389834A2D5B2D662DEF
:100E9000772D8AE191E00E94E116402F512F642DB9
:100EA000752D8DE191E00E94E11680EF95E588199E
:100EB0009909AC01E981FA814E1B5F0B052E000CEC
:100EC000660B770B4130FDE75F076105710520F088
:100ED00040E05DE760E070E0483622E452076105DB
:100EE000710520F448E652E460E070E0E981FA819F
:100EF000E80FF91FCF01FF0FAA0BBB0B8130FDE7F5
:100F00009F07A105B10520F080E09DE7A0E0B0E0DB
:100F1000883622E49207A105B10508F44DC041309E
:100F20003DE753076105710538F44836E2E45E0792
:100F30006105710530F009C040E05DE760E070E0F8
:100F400004C048E652E460E070E08130FDE79F07AE
:100F5000A105B10558F4883622E49207A105B10530
:100F6000D8F488E692E4A0E0B0E016C080E09DE707
:100F7000A0E0B0E011C040E05DE760E070E088E62E
:100F800092E4A0E0B0E008C048E652E460E070E01F
:100F900088E692E4A0E0B0E0E1EEF3E0D282C18224
:100FA00055834483908787838091B703882311F00A
:100FB000299813C0299A11C041303DE753076105B4
:100FC0007105C8F6483682E4580761057105E0F2FC
:100FD00088E692E4A0E0B0E0B8CF2A960FB6F89485
:100FE000DEBF0FBECDBFDF91CF911F910F91FF905C
:100FF000EF90DF90CF90BF90AF909F908F907F90B9
:101000006F905F904F90089580912C0380FF07C0F0
:101010000E94450580912C038E7F80932C030895B8
:1010200080E197E290931901809318018091E0028A
:1010300081608093E002089584EA8093BC00ECEB29
:10104000F0E080818823ECF7089584E98093BC0068
:10105000ECEBF0E0808184FDFDCF08958093BB0030
:1010600084E88093BC00ECEBF0E080818823ECF70F
:10107000089520E4829FC001112484688093BC00FD
:10108000ECEBF0E080818823ECF78091BB000895C1
:101090001F93CF93DF93182FD62FC42F0E941C08C5
:1010A000812F880F0E942E088D2F0E942E088C2FD2
:1010B0000E942E080E942508DF91CF911F9108956C
:1010C000EF92FF920F931F93CF93DF93162FD42F9E
:1010D000E22EF32EC82FCC0F0E941C088C2F0E94EA
:1010E0002E08812F0E942E080E941C0881E08C0F80
:1010F0000E942E08CFEFCD0FDD2389F00E2D1F2D7E
:10110000D1E0F12C8D2FC11101C08F2D0E94390823
:10111000F80181938F018C2FC1508111F3CF0E9470
:101120002508DF91CF911F910F91FF90EF900895C7
:101130000E94D00080E284B9219A87B1876087B984
:101140001092B9008CE08093B80084E08093BC00DA
:101150002D98299A8BE030E222E095B1932795B93A
:1011600095B1922795B94FEF53EC99E0415050401B
:101170009040E1F700C00000815079F70E94B61559
:10118000789481E291E00E94EB156AED72E087EFBE
:1011900092E00E94F30A0E94EF0C0E94D1100E947C
:1011A000430F0E94DA102D98299A0E94B0170E94CE
:1011B000530D0E94DF100E940408F7CFCF92DF92F8
:1011C000EF92FF92CF93DF930097C1F1EC01072ECE
:1011D000000C880B990B0E9495196B017C01BE01D4
:1011E0000D2E000C880B990B0E9495199B01AC01E8
:1011F000C701B6010E94EB180E94BC181C161D0600
:101200004CF49B01AC016BED7FE089EC9FE30E9405
:101210004F1807C02BED3FE049EC5FE30E945018E8
:10122000905820E030E044E353E40E94501A2BED44
:101230003FE049E450E40E94EB1803C060E070E036
:10124000CB01DF91CF91FF90EF90DF90CF90089589
:101250008F929F92AF92BF92CF92DF92EF92FF92C6
:10126000FC01A081B181E280F380448155819D0120
:101270000E94181B4B015C019701D7010E94181BAB
:1012800075016401C60ED71EE81EF91E9A01DA0127
:101290000E94181B6C0D7D1D8E1D9F1DFF90EF90F1
:1012A000DF90CF90BF90AF909F908F9008954F9216
:1012B0005F926F927F928F929F92AF92BF92CF92E6
:1012C000DF92EF92FF920F931F932B013C01D60107
:1012D000C5018C5C9C4CAC4CBC4088369646A646FE
:1012E000B640F8F02E0D3F1D401F511FA3E6B0E0A1
:1012F0000E94361B4B015C01C301B2010E945D19C3
:101300006B017C01C501B40124E630E040E050E00F
:101310000E94F31AC701B601620F731F841F951F45
:1013200024C02E0D3F1D401F511FAFE5B0E00E94AD
:10133000361B4B015C0120E030E040EA50E4C30181
:10134000B2010E94501A0E945D196B017C01C50117
:10135000B40124E630E040E050E00E94F31AC701F7
:10136000B601620F731F841F951F1F910F91FF908D
:10137000EF90DF90CF90BF90AF909F908F907F9035
:101380006F905F904F9008952F923F924F925F928F
:101390006F927F928F929F92AF92BF92CF92DF9285
:1013A000EF92FF920F931F93CF93DF93CDB7DEB7EA
:1013B00060970FB6F894DEBF0FBECDBF3C017A83B5
:1013C0006983FB0144805580B201828193810E9430
:1013D000DE086D837E838F839887B201E981FA816D
:1013E000808191810E94DE081B012C0189819A81F4
:1013F0000E94280969837A838B839C83F301A081EF
:10140000B18124E630E00E942F1B69877A878B87A1
:101410009C87A281B3810E942F1B6D877E878F8757
:10142000988BE090FD02F090FE020091FF02109177
:1014300000030F2EF2EB6F2EFCE07F2E812C912CFF
:10144000F02D69857A858B859C85A40193010E9486
:10145000F31AA980BA80CB80DC806D817E818F8178
:1014600098850E9457096093FD027093FE02809355
:10147000FF0290930003E090E102F090E2020091FD
:10148000E3021091E4026D857E858F859889A40121
:1014900093010E94F31AC201B10190580E945709AA
:1014A0006093E1027093E2028093E3029093E4027E
:1014B00060960FB6F894DEBF0FBECDBFDF91CF911F
:1014C0001F910F91FF90EF90DF90CF90BF90AF9062
:1014D0009F908F907F906F905F904F903F902F9054
:1014E00008954F925F926F927F928F929F92AF92E8
:1014F000BF92CF92DF92EF92FF920F931F93F8016A
:1015000069017A01C61AD70AE80AF90AA281B381E9
:101510001097A1F1A70196010E94361B8084918447
:10152000A284B384860E971EA81EB91E808691865B
:10153000A286B38640805180612C712CA4EFB1E06B
:10154000A30192010E94361B681579058A059B0547
:101550002CF4608771878287938714C0ACE0BEEF5C
:10156000A30192010E94441B86169706A806B9069D
:101570004CF4608771878287938704C01086118638
:1015800012861386A081B181A70196010E94361BA5
:1015900080849184A284B384860E971EA81EB91EEF
:1015A00084859585A685B785281B390B4A0B5B0B6F
:1015B000A481B5810E94361B680D791D8A1D9B1D73
:1015C000C486D586E686F7861F910F91FF90EF902F
:1015D000DF90CF90BF90AF909F908F907F906F9053
:1015E0005F904F9008952F923F924F925F926F922B
:1015F0007F928F929F92AF92BF92CF92DF92EF92A3
:10160000FF920F931F93CF93DF93CDB7DEB7A497CD
:101610000FB6F894DEBF0FBECDBF9AA389A37CA3FB
:101620006BA340E86BE688E60E9448082FEF31EE96
:1016300044E0215030404040E1F700C0000041E06C
:101640006BE688E60E94480840E06CE688E60E9467
:1016500048085FEF63EC79E0515060407040E1F77B
:1016600000C0000040E068E388E60E94480840E0CF
:1016700063E288E60E94480840E06BE688E60E9444
:10168000480840E064E288E60E94480840E06AE6D4
:1016900088E60E9448084CE06AE688E60E9448080E
:1016A0008FE59AEE0197F1F700C0000041E06AE192
:1016B00088E60E94480840E069E188E60E94480800
:1016C00048E06BE188E60E94480840E06CE188E66B
:1016D0000E94480840E46AE688E60E94480848E715
:1016E00063E288E60E944808AFE1BEE41197F1F793
:1016F00000C00000BFEFEFE8F1E0B150E040F04083
:10170000E1F700C00000198E1A8E1B8E1C8E412C32
:10171000512C3201812C912C54011D8A1E8A1F8A62
:10172000188E198A1A8A1B8A1C8A1D861E861F8695
:10173000188AC12CD12C212C312C12C02FEF3FE85C
:1017400041E0215030404040E1F700C0000053E14B
:101750002516310429F440E063E288E60E94480837
:101760009E012F5F3F4F42E062E788E60E946008DB
:10177000298130E0322F22278A81282BABEABAEA6E
:101780000E94201B7C01F694E794F694E794F6946B
:10179000E794E114F10409F48CC000E010E09E012C
:1017A0002F5F3F4F4CE064E788E60E946008C11459
:1017B00064E0D60608F077C07FEFC71AD70A8981A0
:1017C00090E0982F88272A81822B092E000CAA0BE3
:1017D000BB0B2D893E894F89588D280F391F4A1F11
:1017E0005B1F2D8B3E8B4F8B588F8B8190E0982FFA
:1017F00088272C81822B092E000CAA0BBB0B498950
:101800005A896B897C89480F591F6A1F7B1F498B36
:101810005A8B6B8B7C8B8D8190E0982F88272E8143
:10182000822B092E000CAA0BBB0B2D853E854F8504
:101830005889280F391F4A1F5B1F2D873E874F8706
:10184000588B8F8190E0982F88272885822B092E2E
:10185000000CAA0BBB0B498D5A8D6B8D7C8D480FEC
:10186000591F6A1F7B1F498F5A8F6B8F7C8F898509
:1018700090E0982F88272A85822B092E000CAA0B2E
:10188000BB0B480E591E6A1E7B1E8B8590E0982F5D
:1018900088272C85822B092E000CAA0BBB0B880EE7
:1018A000991EAA1EBB1E0F5F1F4FE016F10609F01E
:1018B00076CF5FEF251A350A64E12616310409F068
:1018C0003DCFC601A0E0B0E08D8F9E8FAF8FB8A353
:1018D0006D897E898F89988D2D8D3E8D4F8D58A174
:1018E0000E94F31A2D8B3E8B4F8B588F69897A8912
:1018F0008B899C892D8D3E8D4F8D58A10E94F31AA6
:10190000298B3A8B4B8B5C8B6D857E858F85988977
:101910002D8D3E8D4F8D58A10E94F31A69017A01D9
:10192000698D7A8D8B8D9C8D2D8D3E8D4F8D58A11F
:101930000E94F31A2D873E874F87588BC301B2014F
:101940002D8D3E8D4F8D58A10E94F31A29013A0129
:10195000C501B4012D8D3E8D4F8D58A10E94F31A03
:101960001C141D041E041F0434F4D701C601905436
:10197000A109B10905C0D701C601905CAF4FBF4FA7
:101980006D857E85E9A1FAA17183608353824282CD
:10199000358324832D893E89EBA1FCA131832083EB
:1019A00049895A895383428395838483A4960FB6C9
:1019B000F894DEBF0FBECDBFDF91CF911F910F9185
:1019C000FF90EF90DF90CF90BF90AF909F908F905F
:1019D0007F906F905F904F903F902F90089540E8D8
:1019E0006BE688E60E9448082FEF81EE94E02150D4
:1019F00080409040E1F700C0000041E06BE688E6DF
:101A00000E94480840E06CE688E60E9448082FEFF4
:101A100083EC99E0215080409040E1F700C0000045
:101A200040E068E388E60E94480840E063E288E618
:101A30000E94480840E06BE688E60E94480840E0C3
:101A400064E288E60E94480840E06AE688E60E9470
:101A500048084CE06AE688E60E9448088FE59AEE5E
:101A60000197F1F700C0000043E06AE188E60E94B8
:101A7000480844E069E188E60E94480848E06BE1D4
:101A800088E60E94480840E06CE188E60E94480829
:101A900040E46AE688E60E94480848E763E288E690
:101AA0000E94480808956F927F929F92AF92BF92D2
:101AB000CF92DF92EF92FF920F931F93CF93DF931A
:101AC000CDB7DEB768970FB6F894DEBF0FBECDBFB7
:101AD0009E012F5F3F4F42E062E788E60E94600868
:101AE0008A819BEA899FC12C1124C694C694C6940E
:101AF00009F46CC0D12C0F2EFAEDEF2EF2E0FF2E80
:101B0000F02D07EF12E09E012F5F3F4F4CE064E79E
:101B100088E60E946008EB81F0E0FE2FEE278C81C2
:101B20003F01682A6D8170E0762F66278E81682BD1
:101B30004F8150E0542F44278885482B298530E079
:101B4000322F22278A85282B8B8590E0982F882793
:101B5000AC858A2BD701AD90BC90A981B0E0BA2F9B
:101B6000AA279A80A929AA19BB09BC8BAB8BF701BC
:101B7000A281B381F301EA1BFB0BFE8BED8BD70136
:101B80001496ED91FC9115976E1B7F0B788F6F8BE0
:101B9000F80160817181461B570B5E874D8742813A
:101BA0005381241B350B388B2F8724813581821B71
:101BB000930B9A8B898BCE010D960E940C01CE015E
:101BC00043960E944001D394CD109DCF68960FB6E6
:101BD000F894DEBF0FBECDBFDF91CF911F910F9163
:101BE000FF90EF90DF90CF90BF90AF909F907F904D
:101BF0006F90089580917C038F3009F013C180911C
:101C0000940381110FC180917B03883109F00AC1CF
:101C1000ECE7F3E08181228190E0922B9770A9E5B7
:101C2000B3E013969C938E9312972281838126951D
:101C30002695269530E2839FC0011124822B977050
:101C400015969C938E931497938124818581929508
:101C500096959695937030E0220F331F220F331F15
:101C6000292B90E0982F8827990F990F822B932B7F
:101C7000977017969C938E9316972581868126954B
:101C800030E8839FC0011124822B977019969C9392
:101C90008E9318972681878122952F7030E1839F3C
:101CA000C0011124822B97701B969C938E931A97D8
:101CB000978120858185991F9927991F30E0220FF0
:101CC000331F292B90E0982F8827990F822B932B75
:101CD00097701D969C938E931C97218582852695DF
:101CE000269530E4839FC0011124822B97701F96A4
:101CF0009C938E931E972285838522952695277027
:101D000090E0880F991F880F991F880F991F822BC9
:101D100051969C938E9350978485258590E0922BC5
:101D2000977053969C938E9352972585868526951A
:101D30002695269530E2839FC0011124822B97704F
:101D400055969C938E935497968527858089929576
:101D500096959695937030E0220F331F220F331F14
:101D6000292B90E0982F8827990F990F822B932B7E
:101D7000977057969C938E935697208981892695C4
:101D800030E8839FC0011124822B977059969C9351
:101D90008E9358972189828922952F7030E1839FF5
:101DA000C0011124822B97705B969C938E935A9757
:101DB000928923898489991F9927991F30E0220FDE
:101DC000331F292B90E0982F8827990F822B932B74
:101DD00097705D969C938E935C9724898589269550
:101DE000269530E4839FC0011124822B97705F9663
:101DF0009C938E935E9725898689229526952770D8
:101E000090E0880F991F880F991F880F991F822BC8
:101E100091969C938E939097878990E011969C93CE
:101E20008E932DC080917C038F3021F08DE291E064
:101E30000E94EB1580919403882321F08EE391E0BA
:101E40000E94EB1580917B038831C9F060917B0380
:101E500070E08FE491E00E94A31711C0FC01E458E8
:101E6000FC4F208301968A319105C1F78FEF9FEFD8
:101E7000909303018093020180937B03089580E097
:101E800090E02FEFEBCFEAECF0E080818861808377
:101E900089E090E09093CD008093CC0080E980931E
:101EA000C90087E591E00E94EB1508951F920F92FB
:101EB0000FB60F9211248F939F93EF93FF9380910E
:101EC000CE008F30A9F490910001943088F01092E8
:101ED0007B03E0917B03F0E0E458FC4F808384E0D7
:101EE00090E09093030180930201109201011FC0C2
:101EF00090917B03983161F4E0917B03F0E0E4582A
:101F0000FC4F8FEF808310920301109202010FC0EB
:101F100090917B039F3F59F090917B039F5F90933B
:101F20007B03E0917B03F0E0E458FC4F8083109248
:101F30000001FF91EF919F918F910F900FBE0F9035
:101F40001F9018958FEF9FEF9093190180931801C0
:101F50008091E0028E7F8093E0020895CF93DF931B
:101F6000CDB7DEB72C970FB6F894DEBF0FBECDBF4E
:101F700084E190E090935B0280935A020E940E02EB
:101F8000882321F0CE0101960E9426030E941702A9
:101F9000882321F0CE0107960E942004BE01695FCC
:101FA0007F4FCE0101960E94C4092C960FB6F8947B
:101FB000DEBF0FBECDBFDF91CF91089588E290E0E4
:101FC0009093E6028093E5028091E00280FF18C0C2
:101FD0004091FD025091FE026091FF02709100035A
:101FE0008DE691E00E94E1164091E1025091E202FB
:101FF0006091E3027091E40282E791E00E94E116B1
:1020000008950F931F93CF93DF93CDB7DEB72C972F
:102010000FB6F894DEBF0FBECDBF88E290E090937C
:102020002E0380932D038091E00280FFAFC009E56D
:1020300013E0F8016281738187E791E00E94A317A2
:10204000F801648175818DE791E00E94A317F80182
:102050006681778183E891E00E94A317F80160858B
:10206000718589E891E00E94A317F8016285738564
:102070008FE891E00E94A317F8016485758585E9D2
:1020800091E00E94A317F801668577858BE991E0BE
:102090000E94A317F8016089718981EA91E00E948A
:1020A000A317F8016289738987EA91E00E94A31758
:1020B000F801648975898DEA91E00E94A317F801FF
:1020C0006689778984EB91E00E94A317F801608DFF
:1020D000718D8BEB91E00E94A317F801628D738DD7
:1020E00082EC91E00E94A317F801648D758D89EC54
:1020F00091E00E94A317F801668D778D80ED91E045
:102100000E94A317CE0107960E94D001CE0101962E
:102110000E94EF014F815885052E000C660B770B4E
:1021200087ED91E00E94E11649855A85052E000C45
:10213000660B770B8CED91E00E94E1164B855C8578
:10214000052E000C660B770B81EE91E00E94E116E4
:1021500049815A81052E000C660B770B86EE91E0C3
:102160000E94E1164D815E81052E000C660B770BF7
:102170008BEE91E00E94E1164B815C81052E000CF4
:10218000660B770B80EF91E00E94E1162C960FB65C
:10219000F894DEBF0FBECDBFDF91CF911F910F919D
:1021A0000895EEE6F0E080818160808385B58360EC
:1021B00085BD08950E943E110E94E11108950F937C
:1021C0001F93CF93DF93C4E0D1E008E111E0E881F1
:1021D000F98180819181892B19F4EA81FB8109952C
:1021E0002496C017D10799F7DF91CF911F910F91D6
:1021F00008951F920F920FB60F9211242F933F93C1
:102200004F938F939F93AF93BF93EF93FF93E4E02C
:10221000F1E028E131E0A081B1818D919C9111978D
:1022200001978E3F4FEF940710F48D939C93349653
:10223000E217F30781F7809101018F3F19F08F5F5B
:10224000809301018091A5038F3F19F08F5F8093E8
:10225000A503809100018F3F19F08F5F80930001EB
:10226000FF91EF91BF91AF919F918F914F913F91CE
:102270002F910F900FBE0F901F901895E1E9F0E09D
:1022800080818860808380E49CE9909399008093AA
:102290009800C19AA1E7B0E08C9182608C93C29AB9
:1022A0008C9184608C9380818260808308951F92DA
:1022B0000F920FB60F9211248F939F9380912C034E
:1022C000816080932C0388E893E190939B00809336
:1022D0009A001092E0039F918F910F900FBE0F9084
:1022E0001F9018951F920F920FB60F9211242F93E3
:1022F0003F934F935F936F937F938F939F93AF938E
:10230000BF93EF93FF936091E003862F90E0FC0171
:10231000EE0FFF1FE80FF91FEF51FC4F21813281B3
:1023200021304DE7340760F0FC01EE0FFF1FE80F8E
:10233000F91FEF51FC4F20E03DE7328321830EC0AF
:102340002836324458F4FC01EE0FFF1FE80FF91F46
:10235000EF51FC4F28E632E432832183FC01EE0F7B
:10236000FF1F8E0F9F1FFC01EF51FC4F8181928157
:102370000E94ED118091E0038F5F8093E003833032
:1023800078F490E0019648E853E1849F9001859F9E
:10239000300D949F300D112430939B0020939A00B0
:1023A000FF91EF91BF91AF919F918F917F916F912D
:1023B0005F914F913F912F910F900FBE0F901F9003
:1023C0001895E1EAF0E0808188608083C99AE2E7AD
:1023D000F0E080818260808308950097D9F0609357
:1023E000EC031092A5001092A4009093A900809392
:1023F000A80028B181E090E00090EC0302C0880FB3
:10240000991F0A94E2F7822B88B9E1EAF0E0808113
:102410008160808308951F920F920FB60F9211244E
:102420002F938F939F93EF93FF9328B181E090E0D8
:102430000090EC0302C0880F991F0A94E2F7809580
:10244000822388B9E1EAF0E080818E7F8083FF916A
:10245000EF919F918F912F910F900FBE0F901F9032
:1024600018951F920F920FB60F9211242F933F933E
:102470004F935F938F939F93AF93BF93EF93FF938C
:10248000E091F003E695E695E695E7704E2F50E073
:1024900084E1E89FF0011124EF50FC4F8081282F48
:1024A0002E7FE3898E2F90E0FC013497E930F1050F
:1024B00008F0E4C1E65AFF4F0C94121B2093BB00B6
:1024C00085E88093BC00E091F003E695E695E695FB
:1024D000E77084E1E89FF0011124EF50FC4F85E0A4
:1024E000838BCCC184E1849FF001859FF00D112482
:1024F000EF50FC4F91819093BB0095E89093BC0006
:10250000E091F003E695E695E695E7708E9FF00181
:102510001124EF50FC4F86E0838BB0C184E1849F8F
:10252000F001859FF00D1124EF50FC4F808180FF5A
:1025300012C085EA8093BC00E091F003E695E69531
:10254000E695E77084E1E89FF0011124EF50FC4F1D
:1025500087E0838B93C184E1849FF001859FF00D18
:102560001124EF50FC4F87858230E8F084E1849F8E
:10257000F001859FF00D1124EF50FC4F9281909354
:10258000BB0095E89093BC00E091F003E695E695DA
:10259000E695E7708E9FF0011124EF50FC4F8BE021
:1025A000838B14861BC084E1849FF001859FF00D0E
:1025B0001124EF50FC4F92819093BB0095E89093CB
:1025C000BC00E091F003E695E695E695E7708E9FF6
:1025D000F0011124EF50FC4F8CE0838BE091F0036D
:1025E000E695E695E695E77084E1E89FF001112411
:1025F000EF50FC4F87858150878740C181E0820F73
:102600008093BB0085E88093BC00E091F003E695E1
:10261000E695E695E77084E1E89FF0011124EF501C
:10262000FC4F88E0838B2AC184E1849FF001859F61
:10263000F00D1124EF50FC4F8785823090F085EC2F
:102640008093BC00E091F003E695E695E695E7708F
:1026500084E1E89FF0011124EF50FC4F89E0838B67
:1026600011C085E88093BC00E091F003E695E69503
:10267000E695E77084E1E89FF0011124EF50FC4FEC
:102680008AE0838BE091F003E695E695E695E770A6
:1026900084E1E89FF0011124EF50FC4F87858150C1
:1026A0008787ECC084E1849FF001859FF00D1124A1
:1026B000EF50FC4FA585B6859D012F5F3F4F3687B4
:1026C00025879091BB009C93E091F003E695E695F9
:1026D000E695E7708E9FF0011124EF50FC4F87853F
:1026E000823090F085EC8093BC00E091F003E69599
:1026F000E695E695E77084E1E89FF0011124EF503C
:10270000FC4F89E0838B11C085E88093BC00E09189
:10271000F003E695E695E695E77084E1E89FF00121
:102720001124EF50FC4F8AE0838BE091F003E69593
:10273000E695E695E77084E1E89FF0011124EF50FB
:10274000FC4F87858150878799C084E1849FF00181
:10275000859FF00D1124EF50FC4FA585B6859D0196
:102760002F5F3F4F368725879091BB009C93E09168
:10277000F003E695E695E695E7708E9FF00111244B
:10278000EF50FC4FA089B18992899C9395E9909371
:10279000BC00E091F003E695E695E695E7708E9F24
:1027A000F0011124EF50FC4F81E0838B67C084E17E
:1027B000849FF001859FF00D1124EF50FC4F878519
:1027C0008230E8F084E1849FF001859FF00D1124B0
:1027D000EF50FC4F92819093BB0095E89093BC0022
:1027E000E091F003E695E695E695E7708E9FF0019F
:1027F0001124EF50FC4F8BE0838B14861BC084E1C7
:10280000849FF001859FF00D1124EF50FC4F9281C1
:102810009093BB0095E89093BC00E091F003E6959F
:10282000E695E695E7708E9FF0011124EF50FC4F7E
:102830008CE0838BE091F003E695E695E695E770F2
:1028400084E1E89FF0011124EF50FC4F878581500F
:10285000878714C085E98093BC00E091F003E6957A
:10286000E695E695E77084E1E89FF0011124EF50CA
:10287000FC4F81E0838B8FEF8093ED03FF91EF910D
:10288000BF91AF919F918F915F914F913F912F9108
:102890000F900FBE0F901F90189585EF91E00E944A
:1028A000EB1580E00895CF93DF93CDB7DEB72C977B
:1028B0000FB6F894DEBF0FBECDBFCE0101960E94C9
:1028C000D001CE0107960E94EF0149815A81052E61
:1028D000000C660B770B87ED91E00E94E1164B81AF
:1028E0005C81052E000C660B770B8CED91E00E944D
:1028F000E1164D815E81052E000C660B770B81EE93
:1029000091E00E94E1164F815885052E000C660B60
:10291000770B86EE91E00E94E11649855A85052ED7
:10292000000C660B770B80EF91E00E94E1164B855F
:102930005C85052E000C660B770B8BEE91E00E94F8
:10294000E11680E02C960FB6F894DEBF0FBECDBF27
:10295000DF91CF910895CF93DF9300D000D000D0C6
:10296000CDB7DEB70E940E028823C1F0CE010196DA
:102970000E94260349815A81052E000C660B770BB5
:1029800087ED91E00E94E1164B815C81052E000CE1
:10299000660B770B8CED91E00E94E1160E94170206
:1029A000882311F1CE0101960E94200449815A81A9
:1029B000052E000C660B770B86EE91E00E94E11667
:1029C0004B815C81052E000C660B770B80EF91E04C
:1029D0000E94E1164D815E81052E000C660B770B7F
:1029E0008BEE91E00E94E11680E026960FB6F894F7
:1029F000DEBF0FBECDBFDF91CF9108950E941008BA
:102A00000895CF93DF93C9E5D3E06A817B8187E79F
:102A100091E00E94A3176C817D818DE791E00E9477
:102A2000A3176E817F8183E891E00E94A3176885D8
:102A3000798589E891E00E94A31780E0DF91CF912A
:102A400008954F925F926F928F929F92AF92BF9232
:102A5000CF92DF92EF92FF921F93CF93DF93CDB788
:102A6000DEB7A2970FB6F894DEBF0FBECDBFFE0152
:102A700031969E012F5D3F4F11922E173F07E1F7D0
:102A8000861799F0E12CA1E0B0E0AC0FBD1FAE0DB0
:102A9000B11DE82FF0E0EF56FB4F90819C938F5FC4
:102AA0008F71E3946813EFCF01C0E12CAE014F5D4D
:102AB0005F4F62EB71E0CE0101960E946A1B4C01F0
:102AC000FC0101900020E9F731976E2E681A0F2E55
:102AD000F4EFCF2EF0E0DF2EF02DA12CB12C10E082
:102AE000F12CC6010E94491B681218C0A701B6014B
:102AF000C4010E94521B892B89F486E18A9DF00152
:102B00008B9DF00D1124E85FFE4F2591349189A132
:102B10009AA1F90109951530A1F409C01F5FFFEFD3
:102B2000AF1ABF0A86E1C80ED11C1530D1F685E078
:102B300092E00E94CE15CE0101960E94CE150E9411
:102B4000E415A2960FB6F894DEBF0FBECDBFDF919D
:102B5000CF911F91FF90EF90DF90CF90BF90AF90FB
:102B60009F908F906F905F904F9008950E94DE1716
:102B70000895882391F08A3081F0E0911E02F0E000
:102B8000EF56FB4F808380911E028F5F8F71809381
:102B90001E0280911E0280911F0208950F931F93C1
:102BA000CF93FC018081882359F08F01C0E00E94FF
:102BB000E817CF5FF801EC0FF11D80818111F7CF8D
:102BC000CF911F910F9108958DE00E94E8178AE040
:102BD0000E94E81708950E94CE150E94E4150895FA
:102BE0004F925F926F927F928F929F92AF92BF921D
:102BF000CF92DF92EF92FF920F931F93CF93DF93C9
:102C0000CDB7DEB7A8970FB6F894DEBF0FBECDBF25
:102C10006B017C01FE0175968E010F5F1F4FCE0187
:102C20004D96D80111921D92E817F907D9F7FF20A8
:102C30000CF05DC081C05E0126E1A20EB11C99249A
:102C400093940F2EFAE04F2E512C612C712CF02D05
:102C500001C0982EC701B601A30192010E94F31A88
:102C600020E3260FD5012D935D01A7019601261BB8
:102C7000370B480B590BCA01B901A30192010E94FD
:102C8000F31A69017A01232B242B252B21F081E0F3
:102C9000890D8431F1F621E0290D882054F402C019
:102CA00021E0912CFE01E20FF11D8DE2858B22E0E7
:102CB000290D211102C00FC021E0E5E1F0E0EC0F89
:102CC000FD1FE20FF11D80E09291D8019D938D01CF
:102CD0008F5F8217C8F3E1E0F0E0EC0FFD1FE20F19
:102CE000F11D1082CE0101960E94CE1553C00F2E09
:102CF000FAE08F2E912CA12CB12CF02DC701B6013A
:102D0000A50194010E94F31A20E3260F2D8BA70141
:102D10009601261B370B480B590BCA01B901A501B7
:102D200094010E94F31A69017A01232B242B252B8D
:102D300019F2882483947FCFF094E094D094C094C7
:102D4000C11CD11CE11CF11C0F2EFAE08F2E912C1E
:102D5000A12CB12CF02DC701B601A50194010E9450
:102D6000F31A20E3260F2D8BA7019601261B370BA4
:102D7000480B590BCA01B901A50194010E94F31A2D
:102D800069017A01232B242B252B09F489CF882470
:102D90008A9451CFA8960FB6F894DEBF0FBECDBF70
:102DA000DF91CF911F910F91FF90EF90DF90CF9027
:102DB000BF90AF909F908F907F906F905F904F905B
:102DC0000895CF92DF92EF92FF926A017B010E94F9
:102DD000CE15C701B6010E94F0150E94E415FF90C0
:102DE000EF90DF90CF900895EF92FF920F931F9393
:102DF000CF93DF93CDB7DEB760970FB6F894DEBF01
:102E00000FBECDBFAC01FE0139968E010F5F1F4F83
:102E1000CE014196D80111921D92E817F907D9F712
:102E20009A01ADECBCEC0E94201B96958795969577
:102E30008795969587959C01220F331F880F991FC0
:102E4000880F991F880F991F820F931F9A01281BC3
:102E5000390BC90120E3280F29879A01281B390B58
:102E60000E94201BAC01569547955695479556955F
:102E700047954115510509F43FC07E013AE0E30E44
:102E8000F11CE1E001C0E82F9A01ADECBCEC0E941E
:102E9000201B9695879596958795969587959C0185
:102EA000220F331F880F991F880F991F880F991FB2
:102EB000820F931FDA01A81BB90BCD0120E32A0F63
:102EC000D7012D937D019A01281B390BADECBCEC89
:102ED0000E94201BAC0156954795569547955695EF
:102EE00047954115510521F081E08E0F883059F644
:102EF00091E09E0F11F40FC091E0E9E0F0E0EC0FDB
:102F0000FD1FE90FF11D80E02291D8012D938D0165
:102F10008F5F8917C8F3E1E0F0E0EC0FFD1FE90FC8
:102F2000F11D1082CE0101960E94CE1560960FB65B
:102F3000F894DEBF0FBECDBFDF91CF911F910F91EF
:102F4000FF90EF900895CF93DF93EB010E94CE1591
:102F5000CE010E94F4160E94E415DF91CF910895EE
:102F6000CF9390911E0280911F02981729F1C09172
:102F70001F0280911E02C817F9F0EC2FF0E0EF5607
:102F8000FB4F80818D3091F407C0EC2FF0E0EF56BD
:102F9000FB4F80818D3051F480911F026C2F0E9475
:102FA0002115CF5FCF71C0931F0206C0CF5FCF71D5
:102FB00080911E028C13E9CFCF91089583E090E0B9
:102FC0009093C5008093C40088ED8093C10008955C
:102FD0009091C00095FF09C020911C0290911D02A4
:102FE000291303C08093C6000895E0911C02F0E00D
:102FF000EF54FB4F808380911C028F5F80931C02F3
:1030000008951F920F920FB60F9211248F939F93E2
:10301000EF93FF9390911D0280911C02981303C0BF
:103020008091C6000DC0E0911D02F0E0EF54FB4F0F
:1030300080818093C60080911D028F5F80931D0266
:10304000FF91EF919F918F910F900FBE0F901F9066
:1030500018951F920F920FB60F9211242F933F9342
:103060004F935F936F937F938F939F93AF93BF9390
:10307000EF93FF938091C6000E94B915FF91EF91E5
:10308000BF91AF919F918F917F916F915F914F9180
:103090003F912F910F900FBE0F901F901895505891
:1030A000BB27AA270E9467180C940E1A0E94001AC8
:1030B00038F00E94071A20F039F49F3F19F426F4E3
:1030C0000C94D6190EF4E095E7FB0C94D019E92F77
:1030D0000E941F1A58F3BA176207730784079507EF
:1030E00020F079F4A6F50C94411A0EF4E0950B2E1D
:1030F000BA2FA02D0B01B90190010C01CA01A0014A
:103100001124FF27591B99F0593F50F4503E68F1A4
:103110001A16F040A22F232F342F4427585FF3CFE5
:10312000469537952795A795F0405395C9F77EF4B6
:103130001F16BA0B620B730B840BBAF09150A1F0FF
:10314000FF0FBB1F661F771F881FC2F70EC0BA0F85
:10315000621F731F841F48F4879577956795B7950D
:10316000F7959E3F08F0B0CF9395880F08F0992708
:10317000EE0F979587950895DF93DD27B92FBF77D9
:1031800040E85FE31616170648075B0718F4D92FC7
:103190000E94481A9F938F937F936F930E94BD1A4A
:1031A000E6ECF0E00E94D9190E940E1A2F913F918F
:1031B0004F915F910E94631ADD2351F09058A2EA6B
:1031C0002AED3FE049EC5FE3D0785D270E94671865
:1031D000DF910C940E1A0E94FF180C940E1A0E9494
:1031E000071A58F00E94001A40F029F45F3F29F0B6
:1031F0000C94D01951110C94421A0C94D6190E94B7
:103200001F1A68F39923B1F3552391F3951B550BBE
:10321000BB27AA2762177307840738F09F5F5F4FA9
:10322000220F331F441FAA1FA9F335D00E2E3AF0E8
:10323000E0E832D091505040E695001CCAF72BD000
:10324000FE2F29D0660F771F881FBB1F2617370751
:103250004807AB07B0E809F0BB0B802DBF01FF2783
:1032600093585F4F3AF09E3F510578F00C94D01977
:103270000C94421A5F3FE4F3983ED4F38695779519
:103280006795B795F7959F5FC9F7880F911D96953C
:10329000879597F90895E1E0660F771F881FBB1F98
:1032A000621773078407BA0720F0621B730B840B45
:1032B000BA0BEE1F88F7E09508950E946419689490
:1032C000B1110C94421A08950E94271A88F09F5752
:1032D00098F0B92F9927B751B0F0E1F0660F771F3A
:1032E000881F991F1AF0BA95C9F714C0B13091F030
:1032F0000E94411AB1E008950C94411A672F782F6B
:103300008827B85F39F0B93FCCF3869577956795F4
:10331000B395D9F73EF490958095709561957F4F60
:103320008F4F9F4F0895E89409C097FB3EF4909506
:103330008095709561957F4F8F4F9F4F9923A9F08E
:10334000F92F96E9BB279395F6958795779567951D
:10335000B795F111F8CFFAF4BB0F11F460FF1BC061
:103360006F5F7F4F8F4F9F4F16C0882311F096E9F4
:1033700011C0772321F09EE8872F762F05C06623A2
:1033800071F096E8862F70E060E02AF09A95660F5B
:10339000771F881FDAF7880F9695879597F9089514
:1033A00097F99F6780E870E060E008959FEF80ECF8
:1033B0000895DF93CF931F930F93FF92EF92DF92C5
:1033C0007B018C01689406C0DA2EEF010E94631A1B
:1033D000FE01E894A5912591359145915591A6F36B
:1033E000EF010E946718FE019701A801DA9469F7BE
:1033F000DF90EF90FF900F911F91CF91DF91089593
:1034000000240A94161617061806090608950024C3
:103410000A9412161306140605060895092E03943D
:10342000000C11F4882352F0BB0F40F4BF2B11F4B1
:1034300060FF04C06F5F7F4F8F4F9F4F089557FD10
:103440009058440F551F59F05F3F71F04795880F12
:1034500097FB991F61F09F3F79F0879508951216A9
:1034600013061406551FF2CF4695F1DF08C0161655
:1034700017061806991FF1CF869571056105089406
:103480000895E894BB2766277727CB0197F908951D
:103490009B01AC0160E070E080E89FE30C94EB18C6
:1034A0000E94631A0C940E1A0E94001A38F00E94AF
:1034B000071A20F0952311F00C94D0190C94D6190A
:1034C00011240C94421A0E941F1A70F3959FC1F3A5
:1034D000950F50E0551F629FF001729FBB27F00DC2
:1034E000B11D639FAA27F00DB11DAA1F649F662717
:1034F000B00DA11D661F829F2227B00DA11D621F66
:10350000739FB00DA11D621F839FA00D611D221F1F
:10351000749F3327A00D611D231F849F600D211D03
:10352000822F762F6A2F11249F5750409AF0F1F086
:1035300088234AF0EE0FFF1FBB1F661F771F881FEF
:1035400091505040A9F79E3F510580F00C94D0193E
:103550000C94421A5F3FE4F3983ED4F38695779536
:103560006795B795F795E7959F5FC1F7FE2B880F95
:10357000911D9695879597F908959B01AC010C9440
:10358000501ADB018F939F930E94361BBF91AF911E
:10359000A29F800D911DA39F900DB29F900D1124AD
:1035A0000895A1E21A2EAA1BBB1BFD010DC0AA1F84
:1035B000BB1FEE1FFF1FA217B307E407F50720F09C
:1035C000A21BB30BE40BF50B661F771F881F991F17
:1035D0001A9469F760957095809590959B01AC0160
:1035E000BD01CF010895052E97FB1EF400940E94A3
:1035F0000A1B57FD07D00E94D11A07FC03D04EF4D6
:103600000C940A1B50954095309521953F4F4F4F94
:103610005F4F089590958095709561957F4F8F4F7E
:103620009F4F0895EE0FFF1F0590F491E02D099430
:103630000E94201B332312F48A1B9B0B0C94311B1A
:10364000A29FB001B39FC001A39F700D811D1124E3
:10365000911DB29F700D811D1124911D08950E942E
:10366000201BB7FF0895821B930B08950E94201B17
:10367000A59F900DB49F900DA49F800D911D1124C6
:103680000895B7FF0C94361B0E94361B821B930BC8
:103690000895FC0105900020E9F7809590958E0F24
:1036A0009F1F0895FB01DC014150504088F08D912F
:1036B00081341CF08B350CF4805E659161341CF014
:1036C0006B350CF4605E861B611171F3990B0895E4
:1036D000881BFCCFFA01A191B081009719F41097D3
:1036E000E1F0CD01DC01CD010D90002011F4C0010D
:1036F00013C0FB012191222319F02015D9F7F3CF34
:10370000FB012191201519F41E92119606C0222367
:10371000C1F70D900020A1F7D001FA01A193B08369
:103720000895ABE0B0E0E7E9FBE10C94221E6C01E8
:103730007B018A01FC0117821682838181FFCCC143
:10374000CE0101963C01F6019381F70193FD85912D
:1037500093FF81917F01882309F4BAC1853239F43E
:1037600093FD859193FF81917F01853229F4B60104
:1037700090E00E94881DE7CF912C212C312CFFE195
:10378000F315D8F08B3279F038F4803279F0833247
:10379000A1F4232D20611DC08D3261F0803369F4C6
:1037A000232D216016C0832D8260382EE32DE46026
:1037B0003E2E2AC0F32DF8601DC037FC2DC020ED31
:1037C000280F2A3040F08E32B9F436FC81C1232D07
:1037D0002064322E19C036FE06C08AE0989E200D65
:1037E0001124922E11C0EAE02E9E200D1124222ECB
:1037F000F32DF0623F2E08C08C3621F4832D8068B3
:10380000382E02C0883641F4F70193FD859193FF6D
:1038100081917F018111B3CF982F9F7D9554933073
:1038200028F40C5F1F4F9FE399830DC0833631F05E
:10383000833771F0833509F059C021C0F8018081C8
:1038400089830E5F1F4F88248394912C530113C0EA
:103850002801F2E04F0E511CF801A080B18036FE25
:1038600003C0692D70E002C06FEF7FEFC5010E94B9
:103870007D1D4C018201F32DFF773F2E16C02801DC
:1038800022E0420E511CF801A080B18036FE03C038
:10389000692D70E002C06FEF7FEFC5010E94721DBD
:1038A0004C01F32DF0683F2E820133FC1BC0822DAA
:1038B00090E088169906B0F4B60180E290E00E948C
:1038C000881D2A94F4CFF50137FC859137FE81914C
:1038D0005F01B60190E00E94881D21102A9421E02A
:1038E000821A91088114910471F7E8C0843611F0AE
:1038F000893641F5F80137FE07C060817181828108
:1039000093810C5F1F4F08C060817181072E000CEE
:10391000880B990B0E5F1F4FF32DFF763F2E97FFFD
:1039200009C090958095709561957F4F8F4F9F4FFF
:10393000F0683F2E2AE030E0A3010E94C41D882ECB
:10394000861845C0853731F4232D2F7EB22E2AE00C
:1039500030E025C0932D997FB92E8F36C1F018F431
:10396000883579F0B5C0803719F0883721F0B0C0BC
:10397000E92FE061BE2EB4FE0DC0FB2DF460BF2E1A
:1039800009C034FE0AC0292F2660B22E06C028E0E6
:1039900030E005C020E130E002C020E132E0F80173
:1039A000B7FE07C060817181828193810C5F1F4FD8
:1039B00006C06081718180E090E00E5F1F4FA3011F
:1039C0000E94C41D882E8618FB2DFF773F2E36FEE1
:1039D0000DC0232D2E7FA22E891458F434FE0BC067
:1039E00032FC09C0832D8E7EA82E05C0B82CA32CD6
:1039F00003C0B82C01C0B92CA4FE0FC0FE01E80D15
:103A0000F11D8081803321F49A2D997EA92E09C061
:103A1000A2FE06C0B394B39404C08A2D867809F040
:103A2000B394A3FC11C0A0FE06C0B21488F4280C05
:103A3000922C9B180EC0B21460F4B60180E290E0A4
:103A40000E94881DB394F7CFB21418F42B1802C04B
:103A5000982C212CA4FE10C0B60180E390E00E94B7
:103A6000881DA2FE17C0A1FC03C088E790E002C039
:103A700088E590E0B6010CC08A2D867859F0A1FE49
:103A800002C08BE201C080E2A7FC8DE2B60190E0AB
:103A90000E94881D891438F4B60180E390E00E94EA
:103AA000881D9A94F7CF8A94F301E80DF11D808167
:103AB000B60190E00E94881D8110F5CF222009F404
:103AC00042CEB60180E290E00E94881D2A94F6CF93
:103AD000F6018681978102C08FEF9FEF2B96E2E17E
:103AE0000C943E1EFC010590615070400110D8F707
:103AF000809590958E0F9F1F0895FC016150704036
:103B000001900110D8F7809590958E0F9F1F089512
:103B10000F931F93CF93DF93FB01238121FD03C0FC
:103B20008FEF9FEF2CC022FF16C046815781248162
:103B300035814217530744F4A081B1819D012F5F65
:103B40003F4F318320838C93268137812F5F3F4FF6
:103B50003783268314C08B01EC01FB010084F185BF
:103B6000E02D0995892BE1F6D80116968D919C914F
:103B70001797019617969C938E931697CE01DF9117
:103B8000CF911F910F910895FA01AA27283051F182
:103B9000203181F1E8946F936E7F6E5F7F4F8F4F7E
:103BA0009F4FAF4FB1E03ED0B4E03CD0670F781FDD
:103BB000891F9A1FA11D680F791F8A1F911DA11DC2
:103BC0006A0F711D811D911DA11D20D009F46894FB
:103BD0003F912AE0269F11243019305D3193DEF6A3
:103BE000CF010895462F4770405D4193B3E00FD059
:103BF000C9F7F6CF462F4F70405D4A3318F0495D44
:103C000031FD4052419302D0A9F7EACFB4E0A69526
:103C10009795879577956795BA95C9F70097610548
:103C2000710508959B01AC010A2E0694579547959E
:103C300037952795BA95C9F7620F731F841F951F93
:103C4000A01D08952F923F924F925F926F927F92A4
:103C50008F929F92AF92BF92CF92DF92EF92FF929C
:103C60000F931F93CF93DF93CDB7DEB7CA1BDB0B48
:103C70000FB6F894DEBF0FBECDBF09942A883988ED
:103C800048885F846E847D848C849B84AA84B984F4
:103C9000C884DF80EE80FD800C811B81AA81B98100
:103CA000CE0FD11D0FB6F894DEBF0FBECDBFED0114
:063CB0000895F894FFCF17
:103CB600FFFFFFFF5A02AE0F0201FA0DE502DE0F0B
:103CC6002D0301101801A20FFFFF532000505220B0
:103CD600005561727420647A69616C610057726F75
:103CE6006E672053627573206672616D6500577248
:103CF6006F6E67206C617374206672616D65007308
:103D0600627573203D2000536275732055415254ED
:103D160020696E697469616C697A6564004220582D
:103D260020004220592000436820312000436820AB
:103D360032200043682033200043682034200043AB
:103D4600682035200043682036200043682037204D
:103D5600004368203820004368203920004368204B
:103D66003130200043682031312000436820313251
:103D7600200043682031332000436820313420007E
:103D8600436820313520004720582000472059201D
:103D96000047205A2000412058200041205A200088
:103DA60041205920005561727420697320776F7223
:103DB6006B696E670057726F6E6720636F6D6D611A
:063DC6006E643A200000CB
:00000001FF
