:100000000C94B1000C94CE000C94CE000C94CE0055
:100010000C94CE000C94CE000C94CE000C94CE0028
:100020000C94CE000C94CE000C94CE000C94CE0018
:100030000C94CE000C94CE000C94CE000C94CE0008
:100040000C94FC0D0C94CE000C9438150C94CE003E
:100050000C940F150C94CE000C94CE000C94CE0092
:100060000C94340F0C94CE000C94CE000C94CE0063
:100070000C94400C0C94CE000C94CE000C94CE004A
:100080000C94CE000C945A0E0C94750E0C94CE0069
:100090000C94CE000C94CE000C94CE000C94CE00A8
:1000A0000C94CE000C94CE000C940E0F0C94CE0049
:1000B0000C94CE00610F750F910F011017105510A1
:1000C000A810DA102D11084AD73B3BCE016E84BC34
:1000D000BFFDC12F3D6C74319ABD56833DDA3D00A2
:1000E000C77F11BED9E4BB4C3E916BAAAABE0000EB
:1000F00000803F00455200000000000000000000AA
:100100000000000000000000501145525F524541C0
:100110004400000000000000000000000000561134
:1001200045525F42554600000000000000000000FC
:1001300000000000AE1145525F444247000000003D
:10014000000000000000000000000B1245525F5349
:1001500042555300000000000000000000000000B5
:100160000E1211241FBECFEFD8E0DEBFCDBF12E0CC
:10017000A0E0B1E0E4E2F7E302C005900D92A63101
:10018000B107D9F725E0A6E1B2E001C01D92A63083
:10019000B207E1F70E94F0050C94901B0C9400004C
:1001A000FC0190911902292F30E040815181220FEA
:1001B000331FD901A25EBD4F4D935C9342815381A1
:1001C000D901A65BBD4F4D935C9344815581F901E4
:1001D000E45FFC4F518340839F5F953119F090930A
:1001E000190202C01092190280911902909118020E
:1001F000891303C08F5F80931802809118028531A4
:1002000011F4109218020895FC0190911702292F01
:1002100030E040815181220F331FD901A256BD4FDA
:100220004D935C9342815381D901A152BD4F4D93AF
:100230005C9344815581F901EC58FD4F5183408313
:100240009F5F953119F09093170202C01092170228
:100250008091170290911602891303C08F5F8093DB
:10026000160280911602853111F41092160208953B
:10027000DC01E0911802F0E0EE0FFF1FE25EFD4F9F
:100280008081918111969C938E9390911802292FD1
:1002900030E0220F331FF901E65BFD4F40815181B1
:1002A00013965C934E931297F901E45FFC4F208103
:1002B000318115963C932E9314979F5F953119F0D9
:1002C000909318020895109218020895DC01E091AD
:1002D0001602F0E0EE0FFF1FE256FD4F8081918184
:1002E00011969C938E9390911602292F30E0220F45
:1002F000331FF901E152FD4F4081518113965C9308
:100300004E931297F901EC58FD4F208131811596DB
:100310003C932E9314979F5F953119F0909316029A
:100320000895109216020895FC012091190221509F
:1003300008F424E130E0220F331FD901A25EBD4F43
:100340008D919C9191838083D901A65BBD4F8D9146
:100350009C9193838283D901A45FBC4F8D919C9122
:10036000958384830895FC0120911702215008F49D
:1003700024E130E0220F331FD901A256BD4F8D91E9
:100380009C9191838083D901A152BD4F8D919C9105
:1003900093838283D901AC58BD4F8D919C919583F5
:1003A000848308958091190290911802891B8531E8
:1003B00008F08B5E08958091170290911602891BB8
:1003C000853108F08B5E0895CF92DF92EF92FF9215
:1003D0000F931F93CF93DF9300D000D000D0CDB701
:1003E000DEB7662329F16C017C018C01085D1F4F8B
:1003F0006150262F30E02F5F3F4F220F331FC20E78
:10040000D31ECE0101960E94380189819A81F7019D
:10041000819391937F012B813C81F801219331934A
:100420008F012D813E8137A326A3EC14FD0449F7EB
:1004300026960FB6F894DEBF0FBECDBFDF91CF91E9
:100440001F910F91FF90EF90DF90CF900895CF9282
:10045000DF92EF92FF920F931F93CF93DF9300D021
:1004600000D000D0CDB7DEB7662329F16C017C0146
:100470008C01085D1F4F6150262F30E02F5F3F4FEA
:10048000220F331FC20ED31ECE0101960E946601B9
:1004900089819A81F701819391937F012B813C811E
:1004A000F801219331938F012D813E8137A326A33B
:1004B000EC14FD0449F726960FB6F894DEBF0FBE84
:1004C000CDBFDF91CF911F910F91FF90EF90DF9003
:1004D000CF9008954F925F926F927F928F929F92EA
:1004E000AF92BF92CF92DF92EF92FF920F931F9342
:1004F000CF93DF93EA016623B9F1DC01FC01B896E2
:100500002FEF260F30E02F5F3F4F220F331F820F58
:10051000931F00E010E09801812C912C5401C12C14
:10052000D12C76014D915D912A01550F660877080F
:10053000040D151D261D371D419151912A01550F9E
:1005400066087708840C951CA61CB71C46A157A109
:100550002A01550F66087708C40CD51CE61CF71C49
:10056000A817B907F9F609C000E010E09801812C3E
:10057000912C5401C12CD12C7601462E512C612C8A
:10058000712CC901B801A30192010E94021839839C
:100590002883C501B401A30192010E9402183B8384
:1005A0002A83C701B601A30192010E9402183D836C
:1005B0002C83DF91CF911F910F91FF90EF90DF90EF
:1005C000CF90BF90AF909F908F907F906F905F90F3
:1005D0004F900895EF92FF921F93CF93DF93CDB783
:1005E000DEB7C857D1090FB6F894DEBF0FBECDBF36
:1005F0007C010E94D201182F682FCE0101960E9423
:10060000E401A701612FCE0101960E946A02C85839
:10061000DF4F0FB6F894DEBF0FBECDBFDF91CF9195
:100620001F91FF90EF9008952F923F924F925F920B
:100630006F927F928F929F92AF92BF92CF92DF92F2
:10064000EF92FF920F931F93CF93DF93CDB7DEB757
:1006500027970FB6F894DEBF0FBECDBF5E834D83E4
:10066000662309F466C08C01FC01B8966150262E01
:10067000312C25E1220E311C220C331C280E391E90
:10068000C12CD12C7601C39419821A821B821C8240
:10069000412C512C3201812C912C54011F824F810D
:1006A000CC9C400D11244F83D8018D919D918D01DB
:1006B000DC01A70196010E9450189B01AC01C70103
:1006C000B6010E94D01729813A814B815C81260FA7
:1006D000371F481F591F29833A834B835C83A1919D
:1006E000B191A70196010E9450189B01AC01C7016E
:1006F000B6010E94D017460E571E681E791EA6A18D
:10070000B7A1A70196010E9450189B01AC01C70137
:10071000B6010E94D017860E971EA81EB91E3FEF85
:10072000C31AD30AE30AF30AE215F30509F0B7CFB7
:100730000BC019821A821B821C82412C512C32015F
:10074000812C912C54011F82FF81CF2ED12CE12CC2
:10075000F12C69817A818B819C81A70196010E948D
:100760000218AD81BE812D933C93C301B201A70154
:1007700096010E940218ED81FE8133832283C50118
:10078000B401A70196010E940218AD81BE811596A1
:100790003C932E93149727960FB6F894DEBF0FBEA6
:1007A000CDBFDF91CF911F910F91FF90EF90DF9020
:1007B000CF90BF90AF909F908F907F906F905F9001
:1007C0004F903F902F900895EF92FF921F93CF93F9
:1007D000DF93CDB7DEB7C857D1090FB6F894DEBFA7
:1007E0000FBECDBF7C010E94DB01182F682FCE0108
:1007F00001960E942702A701612FCE0101960E9457
:100800001403C858DF4F0FB6F894DEBF0FBECDBF3C
:10081000DF91CF911F91FF90EF900895FC01A6E327
:10082000B3E012968D919C9113978C5A9109928303
:10083000818314968D919C911597805E934094834B
:10084000838316968D919C911797805E9340968333
:10085000858318968D919C911997805E934090871F
:1008600087838D919C91119780831A968D919C918D
:100870001B97805E9340928781871C968D919C91F7
:100880001D97805E9340948783871E968D919C91DF
:100890001F97805E93409687858750968D919C9197
:1008A0005197805E9340908B878752968D919C9153
:1008B0005397803E934010F4118A02C081E0818BEF
:1008C00080914A0390914B03803E934018F481E05D
:1008D000828B01C0128A80914C0390914D03805EFF
:1008E0009340948B838B08954F925F926F927F9287
:1008F0008F929F92AF92BF92CF92DF92EF92FF9230
:100900000F931F93CF93DF9385E1E7E8F3E0A0EA2D
:10091000B3E001900D928A95E1F787E893E00E9499
:100920000E04809199038111A3C0C7E8D3E02B89FD
:100930003C892F5F3F4FA4E6B0E00E942F1823E3CD
:1009400033E040E050E00E94E01769017A01AB819A
:10095000BC8120E43FE10E943E180F2EF8E64F2EA6
:10096000F6E05F2E612C712CF02DA30192010E9404
:10097000021849015A018901AD81BE8120E43FE19D
:100980000E943E18A30192010E94021829013A0117
:10099000E90184E6C816D104E9F0EE24FF24D4016D
:1009A000A70196010E9450180F2EF4E68F2E912C6D
:1009B000A12CB12CF02DA50194010E9402188901EF
:1009C000D201A70196010E945018A50194010E942E
:1009D0000218E9010F2EF7E8EF2EF3E0FF2EF02DBD
:1009E000F701A385B48520E43FE10E943E180F2E55
:1009F000F8E68F2EF6E09F2EA12CB12CF02DA5014C
:100A000094010E940218C20FD31FF701A185B2857D
:100A100020E43FE10E943E18A50194010E940218C3
:100A2000200F311F40EF55E5421B530BE6EBF3E07F
:100A3000D70111962D913C911297220F331F220F4F
:100A4000331FADECBCEC0E942F18969587959695B8
:100A50008795805E914B92838183CA018C1B9D0B8D
:100A6000958384839E01240F351F308727830CC014
:100A7000E6EBF3E080E29EE49283818380EF95E5EC
:100A8000958384839087878380919803882311F0CE
:100A90002D9A01C02D98DF91CF911F910F91FF905A
:100AA000EF90DF90CF90BF90AF909F908F907F900E
:100AB0006F905F904F9008958091090380FF07C069
:100AC0000E947404809109038E7F80930903089526
:100AD00080E197E290931901809318018091CE02F2
:100AE00081608093CE02089584EA8093BC00ECEB91
:100AF000F0E080818823ECF7089584E98093BC00BE
:100B0000ECEBF0E0808184FDFDCF08958093BB0085
:100B100084E88093BC00ECEBF0E080818823ECF764
:100B2000089520E4829FC001112484688093BC0052
:100B3000ECEBF0E080818823ECF78091BB00089516
:100B40001F93CF93DF93182FD62FC42F0E947405C5
:100B5000812F880F0E9486058D2F0E9486058C2F7D
:100B60000E9486050E947D05DF91CF911F91089517
:100B7000EF92FF920F931F93CF93DF93162FD42FF3
:100B8000E22EF32EC82FCC0F0E9474058C2F0E94EA
:100B90008605812F0E9486050E94740581E08C0FD6
:100BA0000E948605CFEFCD0FDD2389F00E2D1F2D7E
:100BB000D1E0F12C8D2FC11101C08F2D0E94910524
:100BC000F80181938F018C2FC1508111F3CF0E94C6
:100BD0007D05DF91CF911F910F91FF90EF900895C8
:100BE0001092CE028091CE0281608093CE0210924C
:100BF000DB021092DC021092DD021092DE021092F3
:100C0000CF021092D0021092D1021092D20280E252
:100C100084B987B1876087B91092B9008CE080935E
:100C2000B80084E08093BC000E94C31278948AE1EB
:100C300091E00E94F81288EC90E090934902809332
:100C4000480268EC72E085ED92E00E94DD078AE0E0
:100C500020E295B1922795B93FEF41EE94E03150F3
:100C600040409040E1F700C00000815091F70E94A1
:100C7000D9090E94D40D0E948C0C0E942D0C0E9458
:100C8000DD0D0E94BD140E943D0A0E94E20D0E94EB
:100C90005C05F7CFCF92DF92EF92FF92CF93DF9375
:100CA0000097C1F1EC01072E000C880B990B0E94F4
:100CB000A4166B017C01BE010D2E000C880B990B54
:100CC0000E94A4169B01AC01C701B6010E94FA154F
:100CD0000E94CB151C161D064CF49B01AC016BED5C
:100CE0007FE089EC9FE30E945E1507C02BED3FE09B
:100CF00049EC5FE30E945F15905820E030E044E348
:100D000053E40E945F172BED3FE049E450E40E945A
:100D1000FA1503C060E070E0CB01DF91CF91FF9046
:100D2000EF90DF90CF9008958F929F92AF92BF92F5
:100D3000CF92DF92EF92FF92FC01A081B181E2801D
:100D4000F380448155819D010E9427184B015C016D
:100D50009701D7010E94271875016401C60ED71E9E
:100D6000E81EF91E9A01DA010E9427186C0D7D1DFC
:100D70008E1D9F1DFF90EF90DF90CF90BF90AF90A2
:100D80009F908F9008954F925F926F927F928F9273
:100D90009F92AF92BF92CF92DF92EF92FF920F930A
:100DA0001F932B013C01D601C5018C5C9C4CAC4CC3
:100DB000BC4088369646A646B640F8F02E0D3F1D3C
:100DC000401F511FA3E6B0E00E9445184B015C0193
:100DD000C301B2010E946C166B017C01C501B40114
:100DE00024E630E040E050E00E940218C701B6015E
:100DF000620F731F841F951F24C02E0D3F1D401FBF
:100E0000511FAFE5B0E00E9445184B015C0120E0A6
:100E100030E040EA50E4C301B2010E945F170E9433
:100E20006C166B017C01C501B40124E630E040E0A2
:100E300050E00E940218C701B601620F731F841FA1
:100E4000951F1F910F91FF90EF90DF90CF90BF9073
:100E5000AF909F908F907F906F905F904F9008958C
:100E60002F923F924F925F926F927F928F929F92BA
:100E7000AF92BF92CF92DF92EF92FF920F931F93A8
:100E8000CF93DF93CDB7DEB760970FB6F894DEBF90
:100E90000FBECDBF3C017A836983FB01448055803E
:100EA000B201828193810E944A066D837E838F8383
:100EB0009887B201E981FA81808191810E944A0676
:100EC0001B012C0189819A810E94940669837A838F
:100ED0008B839C83F301A081B18124E630E00E94E2
:100EE0003E1869877A878B879C87A281B3810E948D
:100EF0003E186D877E878F87988BE090DB02F0909D
:100F0000DC020091DD021091DE020F2EF2EB6F2E5B
:100F1000FCE07F2E812C912CF02D69857A858B85C4
:100F20009C85A40193010E940218A980BA80CB80FD
:100F3000DC806D817E818F8198850E94C3066093DD
:100F4000DB027093DC028093DD029093DE02E0907E
:100F5000CF02F090D0020091D1021091D2026D85A3
:100F60007E858F859889A40193010E940218C20191
:100F7000B10190580E94C3066093CF027093D002D3
:100F80008093D1029093D20260960FB6F894DEBFA0
:100F90000FBECDBFDF91CF911F910F91FF90EF90CA
:100FA000DF90CF90BF90AF909F908F907F906F9089
:100FB0005F904F903F902F9008952F923F924F92C5
:100FC0005F926F927F928F929F92AF92BF92CF92D9
:100FD000DF92EF92FF920F931F93CF93DF93CDB7E2
:100FE000DEB7A4970FB6F894DEBF0FBECDBF9AA3AD
:100FF00089A37CA36BA340E86BE688E60E94A0056A
:101000002FEF31EE44E0215030404040E1F700C086
:10101000000041E06BE688E60E94A00540E06CE637
:1010200088E60E94A0055FEF63EC79E051506040D4
:101030007040E1F700C0000040E068E388E60E94ED
:10104000A00540E063E288E60E94A00540E06BE670
:1010500088E60E94A00540E064E288E60E94A005C0
:1010600040E06AE688E60E94A0054CE06AE688E671
:101070000E94A0058FE59AEE0197F1F700C00000ED
:1010800041E06AE188E60E94A00540E069E188E667
:101090000E94A00540E06BE188E60E94A00540E0C8
:1010A0006CE188E60E94A00540E46AE688E60E94BA
:1010B000A00548E763E288E60E94A005AFE1BEE430
:1010C0001197F1F700C00000BFEFEFE8F1E0B15079
:1010D000E040F040E1F700C00000198E1A8E1B8E30
:1010E0001C8E412C512C3201812C912C54011D8AD3
:1010F0001E8A1F8A188E198A1A8A1B8A1C8A1D86C4
:101100001E861F86188AC12CD12C212C312C12C08E
:101110002FEF3FE841E0215030404040E1F700C070
:10112000000053E12516310429F440E063E288E62B
:101130000E94A0059E012F5F3F4F42E062E788E6D4
:101140000E94B805298130E0322F22278A81282B7E
:10115000ABEABAEA0E942F187C01F694E794F69461
:10116000E794F694E794E114F10409F48CC000E0EC
:1011700010E09E012F5F3F4F4CE064E788E60E943D
:10118000B805C11464E0D60608F077C07FEFC71A2F
:10119000D70A898190E0982F88272A81822B092EEF
:1011A000000CAA0BBB0B2D893E894F89588D280F47
:1011B000391F4A1F5B1F2D8B3E8B4F8B588F8B81A6
:1011C00090E0982F88272C81822B092E000CAA0BE7
:1011D000BB0B49895A896B897C89480F591F6A1F43
:1011E0007B1F498B5A8B6B8B7C8B8D8190E0982F6A
:1011F00088272E81822B092E000CAA0BBB0B2D8574
:101200003E854F855889280F391F4A1F5B1F2D8740
:101210003E874F87588B8F8190E0982F88272885AD
:10122000822B092E000CAA0BBB0B498D5A8D6B8D9E
:101230007C8D480F591F6A1F7B1F498F5A8F6B8FF8
:101240007C8F898590E0982F88272A85822B092E0C
:10125000000CAA0BBB0B480E591E6A1E7B1E8B8509
:1012600090E0982F88272C85822B092E000CAA0B42
:10127000BB0B880E991EAA1EBB1E0F5F1F4FE016E8
:10128000F10609F076CF5FEF251A350A64E12616DC
:10129000310409F03DCFC601A0E0B0E08D8F9E8FF4
:1012A000AF8FB8A36D897E898F89988D2D8D3E8DE6
:1012B0004F8D58A10E9402182D8B3E8B4F8B588F5B
:1012C00069897A898B899C892D8D3E8D4F8D58A196
:1012D0000E940218298B3A8B4B8B5C8B6D857E8527
:1012E0008F8598892D8D3E8D4F8D58A10E940218B3
:1012F00069017A01698D7A8D8B8D9C8D2D8D3E8D46
:101300004F8D58A10E9402182D873E874F87588B1A
:10131000C301B2012D8D3E8D4F8D58A10E94021840
:1013200029013A01C501B4012D8D3E8D4F8D58A183
:101330000E9402181C141D041E041F0434F4D7015B
:10134000C6019054A109B10905C0D701C601905C3E
:10135000AF4FBF4F6D857E85E9A1FAA17183608390
:1013600053824282358324832D893E89EBA1FCA1DF
:101370003183208349895A895383428395838483A7
:10138000A4960FB6F894DEBF0FBECDBFDF91CF910C
:101390001F910F91FF90EF90DF90CF90BF90AF9093
:1013A0009F908F907F906F905F904F903F902F9085
:1013B000089540E86BE688E60E94A0052FEF81EED5
:1013C00094E0215080409040E1F700C0000041E0EF
:1013D0006BE688E60E94A00540E06CE688E60E9485
:1013E000A0052FEF83EC99E0215080409040E1F779
:1013F00000C0000040E068E388E60E94A00540E0ED
:1014000063E288E60E94A00540E06BE688E60E9461
:10141000A00540E064E288E60E94A00540E06AE69C
:1014200088E60E94A0054CE06AE688E60E94A005D6
:101430008FE59AEE0197F1F700C0000043E06AE102
:1014400088E60E94A00544E069E188E60E94A005C4
:1014500048E06BE188E60E94A00540E06CE188E688
:101460000E94A00540E46AE688E60E94A00548E7DD
:1014700063E288E60E94A00508956F927F929F9292
:10148000AF92BF92CF92DF92EF92FF920F931F9392
:10149000CF93DF93CDB7DEB768970FB6F894DEBF72
:1014A0000FBECDBF9E012F5F3F4F42E062E788E64F
:1014B0000E94B8058A819BEA899FC12C1124C69499
:1014C000C694C69409F46CC0D12C0F2EF8ECEF2E04
:1014D000F2E0FF2EF02D05ED12E09E012F5F3F4F51
:1014E0004CE064E788E60E94B805EB81F0E0FE2F4F
:1014F000EE278C813F01682A6D8170E0762F662788
:101500008E81682B4F8150E0542F44278885482BCB
:10151000298530E0322F22278A85282B8B8590E081
:10152000982F8827AC858A2BD701AD90BC90A981D4
:10153000B0E0BA2FAA279A80A929AA19BB09BC8BA7
:10154000AB8BF701A281B381F301EA1BFB0BFE8B8E
:10155000ED8BD7011496ED91FC9115976E1B7F0BC7
:10156000788F6F8BF80160817181461B570B5E8706
:101570004D8742815381241B350B388B2F87248163
:101580003581821B930B9A8B898BCE010D960E941D
:10159000D000CE0143960E940401D394CD109DCF7C
:1015A00068960FB6F894DEBF0FBECDBFDF91CF9126
:1015B0001F910F91FF90EF90DF90CF90BF90AF9071
:1015C0009F907F906F900895809159038F3009F01C
:1015D00013C18091710381110FC18091580388312B
:1015E00009F00AC1E9E5F3E08181228190E0922BC4
:1015F0009770A6E3B3E013969C938E931297228183
:10160000838126952695269530E2839FC00111247B
:10161000822B977015969C938E93149793812481B7
:101620008581929596959695937030E0220F331FA1
:10163000220F331F292B90E0982F8827990F990F9D
:10164000822B932B977017969C938E9316972581D8
:101650008681269530E8839FC0011124822B9770E4
:1016600019969C938E9318972681878122952F70C7
:1016700030E1839FC0011124822B97701B969C93AD
:101680008E931A97978120858185991F9927991F95
:1016900030E0220F331F292B90E0982F8827990FD5
:1016A000822B932B97701D969C938E931C9721856C
:1016B00082852695269530E4839FC0011124822BD4
:1016C00097701F969C938E931E97228583852295F3
:1016D0002695277090E0880F991F880F991F880F13
:1016E000991F822B51969C938E93509784852585C4
:1016F00090E0922B977053969C938E9352972585EA
:10170000868526952695269530E2839FC001112473
:10171000822B977055969C938E9354979685278528
:101720008089929596959695937030E0220F331F9D
:10173000220F331F292B90E0982F8827990F990F9C
:10174000822B932B977057969C938E935697208954
:101750008189269530E8839FC0011124822B9770E0
:1017600059969C938E9358972189828922952F7040
:1017700030E1839FC0011124822B97705B969C936C
:101780008E935A97928923898489991F9927991F43
:1017900030E0220F331F292B90E0982F8827990FD4
:1017A000822B932B97705D969C938E935C972489E4
:1017B00085892695269530E4839FC0011124822BCC
:1017C00097705F969C938E935E9725898689229564
:1017D0002695277090E0880F991F880F991F880F12
:1017E000991F822B91969C938E939097878990E076
:1017F00011969C938E932DC0809159038F3021F0C8
:1018000086E291E00E94F81280917103882321F012
:1018100087E391E00E94F812809158038831C9F063
:101820006091580370E088E491E00E94B01411C008
:10183000FC01E75AFC4F208301968A319105C1F7DC
:101840008FEF9FEF909303018093020180935803E1
:10185000089580E090E02FEFEBCFEAECF0E080819C
:101860008861808389E090E09093CD008093CC00E4
:1018700080E98093C90080E591E00E94F812089504
:101880001F920F920FB60F9211248F939F93EF9395
:10189000FF938091CE008F30A9F490910001943095
:1018A00088F010925803E0915803F0E0E75AFC4F9B
:1018B000808384E090E09093030180930201109272
:1018C00001011FC090915803983161F4E0915803D1
:1018D000F0E0E75AFC4F8FEF8083109203011092E3
:1018E00002010FC0909158039F3F59F09091580307
:1018F0009F5F90935803E0915803F0E0E75AFC4F44
:10190000808310920001FF91EF919F918F910F9032
:101910000FBE0F901F90189544E050E063E873E00D
:101920008CE993E00E94311B80919E0390919F036C
:10193000019681F486E691E00E94F81210929F03CE
:1019400010929E0342E050E065E873E08EE993E078
:101950000E94411B80919C0390919D03019681F40C
:1019600087E791E00E94F81210929D0310929C0369
:1019700042E050E063E873E08CE993E00E94411B91
:1019800008958FEF9FEF9093190180931801809134
:10199000CE028E7F8093CE020895CF93DF93CDB792
:1019A000DEB72C970FB6F894DEBF0FBECDBF84E133
:1019B00090E090934902809348020E94D2018823CC
:1019C00021F0CE0101960E94EA020E94DB018823E9
:1019D00021F0CE0107960E94E403BE01695F7F4FAC
:1019E000CE0101960E9430072C960FB6F894DEBF08
:1019F0000FBECDBFDF91CF91089588E290E0909324
:101A0000D4028093D3028091CE0280FF18C040910F
:101A1000DB025091DC026091DD027091DE0287E80A
:101A200091E00E94EE134091CF025091D00260915C
:101A3000D1027091D2028CE891E00E94EE130895D9
:101A40000F931F93CF93DF93CDB7DEB72C970FB6CD
:101A5000F894DEBF0FBECDBF88E290E090930B03F9
:101A600080930A038091CE0280FF93C006E313E0C7
:101A7000F8016281738181E991E00E94B014F8015C
:101A80006481758187E991E00E94B014F801668154
:101A900077818DE991E00E94B014F801608571852D
:101AA00083EA91E00E94B014F8016285738589EAA7
:101AB00091E00E94B014F801648575858FEA91E089
:101AC0000E94B014F8016685778585EB91E00E944D
:101AD000B014F801608971898BEB91E00E94B01419
:101AE000F8016289738981EC91E00E94B014F801D9
:101AF0006489758987EC91E00E94B014F8016689C9
:101B000077898EEC91E00E94B014CE0107960E9476
:101B10009401CE0101960E94B3014F815885052E94
:101B2000000C660B770B85ED91E00E94EE13498562
:101B30005A85052E000C660B770B8AED91E00E940A
:101B4000EE134B855C85052E000C660B770B8FED35
:101B500091E00E94EE1349815A81052E000C660B1C
:101B6000770B84EE91E00E94EE134B815C81052E91
:101B7000000C660B770B89EE91E00E94EE134D810D
:101B80005E81052E000C660B770B8EEE91E00E94B5
:101B9000EE132C960FB6F894DEBF0FBECDBFDF91CB
:101BA000CF911F910F910895EEE6F0E08081816062
:101BB000808385B5836085BD08950E94410E0E9493
:101BC000E40E08950F931F93CF93DF93C4E0D1E009
:101BD00008E111E0E881F98180819181892B19F474
:101BE000EA81FB8109952496C017D10799F7DF9107
:101BF000CF911F910F9108951F920F920FB60F92E0
:101C000011242F933F934F938F939F93AF93BF9341
:101C1000EF93FF93E4E0F1E028E131E0A081B181AE
:101C20008D919C91119701978E3F4FEF940710F47F
:101C30008D939C933496E217F30781F7809101010D
:101C40008F3F19F08F5F80930101809182038F3F56
:101C500019F08F5F80938203809100018F3F19F00C
:101C60008F5F80930001FF91EF91BF91AF919F91A2
:101C70008F914F913F912F910F900FBE0F901F901A
:101C80001895E1E9F0E080818860808380E49CE938
:101C90009093990080939800C19AA1E7B0E08C914D
:101CA00082608C93C29A8C9184608C9380818260D4
:101CB000808308951F920F920FB60F9211248F9375
:101CC0009F938091090381608093090388E893E1E1
:101CD00090939B0080939A001092B5039F918F91EF
:101CE0000F900FBE0F901F9018951F920F920FB676
:101CF0000F9211242F933F934F935F936F937F9392
:101D00008F939F93AF93BF93EF93FF936091B5032E
:101D1000862F90E0FC01EE0FFF1FE80FF91FEA5439
:101D2000FC4F2181328121304DE7340760F0FC0106
:101D3000EE0FFF1FE80FF91FEA54FC4F20E03DE7CC
:101D4000328321830EC02836324458F4FC01EE0F52
:101D5000FF1FE80FF91FEA54FC4F28E632E43283F4
:101D60002183FC01EE0FFF1F8E0F9F1FFC01EA5421
:101D7000FC4F818192810E94F00E8091B5038F5FAC
:101D80008093B503833078F490E0019648E853E1FE
:101D9000849F9001859F300D949F300D11243093C6
:101DA0009B0020939A00FF91EF91BF91AF919F917B
:101DB0008F917F916F915F914F913F912F910F90F4
:101DC0000FBE0F901F901895E1EAF0E080818860C7
:101DD0008083C99AE2E7F0E0808182608083089581
:101DE0000097D9F06093C1031092A5001092A4004F
:101DF0009093A9008093A80028B181E090E0009022
:101E0000C10302C0880F991F0A94E2F7822B88B998
:101E1000E1EAF0E080818160808308951F920F9253
:101E20000FB60F9211242F938F939F93EF93FF93ED
:101E300028B181E090E00090C10302C0880F991F93
:101E40000A94E2F78095822388B9E1EAF0E0808184
:101E50008E7F8083FF91EF919F918F912F910F90B3
:101E60000FBE0F901F9018951F920F920FB60F92F2
:101E700011242F933F934F935F938F939F93AF932F
:101E8000BF93EF93FF93E091C503E695E695E69542
:101E9000E7704E2F50E084E1E89FF0011124EA53EF
:101EA000FC4F8081282F2E7FE3898E2F90E0FC014C
:101EB0003497E930F10508F0E4C1E65AFF4F0C947D
:101EC00021182093BB0085E88093BC00E091C503F6
:101ED000E695E695E695E77084E1E89FF001112428
:101EE000EA53FC4F85E0838BCCC184E1849FF001F1
:101EF000859FF00D1124EA53FC4F91819093BB0014
:101F000095E89093BC00E091C503E695E695E695CB
:101F1000E7708E9FF0011124EA53FC4F86E0838B1B
:101F2000B0C184E1849FF001859FF00D1124EA5334
:101F3000FC4F808180FF12C085EA8093BC00E09155
:101F4000C503E695E695E695E77084E1E89FF00124
:101F50001124EA53FC4F87E0838B93C184E1849F73
:101F6000F001859FF00D1124EA53FC4F87858230E4
:101F7000E8F084E1849FF001859FF00D1124EA537D
:101F8000FC4F92819093BB0095E89093BC00E09148
:101F9000C503E695E695E695E7708E9FF00111245E
:101FA000EA53FC4F8BE0838B14861BC084E1849F33
:101FB000F001859FF00D1124EA53FC4F928190931C
:101FC000BB0095E89093BC00E091C503E695E695CB
:101FD000E695E7708E9FF0011124EA53FC4F8CE0E8
:101FE000838BE091C503E695E695E695E77084E17D
:101FF000E89FF0011124EA53FC4F878581508787C1
:1020000040C181E0820F8093BB0085E88093BC00D3
:10201000E091C503E695E695E695E77084E1E89FD3
:10202000F0011124EA53FC4F88E0838B2AC184E13C
:10203000849FF001859FF00D1124EA53FC4F8785A2
:10204000823090F085EC8093BC00E091C503E6956A
:10205000E695E695E77084E1E89FF0011124EA53E4
:10206000FC4F89E0838B11C085E88093BC00E09130
:10207000C503E695E695E695E77084E1E89FF001F3
:102080001124EA53FC4F8AE0838BE091C503E69567
:10209000E695E695E77084E1E89FF0011124EA53A4
:1020A000FC4F878581508787ECC084E1849FF001D5
:1020B000859FF00D1124EA53FC4FA585B6859D013F
:1020C0002F5F3F4F368725879091BB009C93E0910F
:1020D000C503E695E695E695E7708E9FF00111241D
:1020E000EA53FC4F8785823090F085EC8093BC00EA
:1020F000E091C503E695E695E695E77084E1E89FF3
:10210000F0011124EA53FC4F89E0838B11C085E86C
:102110008093BC00E091C503E695E695E695E770EF
:1021200084E1E89FF0011124EA53FC4F8AE0838B9D
:10213000E091C503E695E695E695E77084E1E89FB2
:10214000F0011124EA53FC4F87858150878799C09D
:1021500084E1849FF001859FF00D1124EA53FC4F28
:10216000A585B6859D012F5F3F4F368725879091C6
:10217000BB009C93E091C503E695E695E695E77074
:102180008E9FF0011124EA53FC4FA089B1899289F6
:102190009C9395E99093BC00E091C503E695E69584
:1021A000E695E7708E9FF0011124EA53FC4F81E021
:1021B000838B67C084E1849FF001859FF00D11241B
:1021C000EA53FC4F87858230E8F084E1849FF00178
:1021D000859FF00D1124EA53FC4F92819093BB0030
:1021E00095E89093BC00E091C503E695E695E695E9
:1021F000E7708E9FF0011124EA53FC4F8BE0838B34
:1022000014861BC084E1849FF001859FF00D11248A
:10221000EA53FC4F92819093BB0095E89093BC00E9
:10222000E091C503E695E695E695E7708E9FF0018F
:102230001124EA53FC4F8CE0838BE091C503E695B3
:10224000E695E695E77084E1E89FF0011124EA53F2
:10225000FC4F87858150878714C085E98093BC0037
:10226000E091C503E695E695E695E77084E1E89F81
:10227000F0011124EA53FC4F81E0838B8FEF8093B0
:10228000C203FF91EF91BF91AF919F918F915F91A9
:102290004F913F912F910F900FBE0F901F90189567
:1022A00083EF91E00E94F81280E00895CF93DF93CE
:1022B000CDB7DEB72C970FB6F894DEBF0FBECDBFFB
:1022C000CE0101960E949401CE0107960E94B301AF
:1022D00049815A81052E000C660B770B85ED91E044
:1022E0000E94EE134B815C81052E000C660B770B70
:1022F0008AED91E00E94EE134D815E81052E000C67
:10230000660B770B8FED91E00E94EE134F8158859D
:10231000052E000C660B770B84EE91E00E94EE1305
:1023200049855A85052E000C660B770B89EE91E0E6
:102330000E94EE134B855C85052E000C660B770B17
:102340008EEE91E00E94EE1380E02C960FB6F8948A
:10235000DEBF0FBECDBFDF91CF910895CF93DF9346
:1023600000D000D000D0CDB7DEB70E94D2018823C4
:10237000C1F0CE0101960E94EA0249815A81052EE0
:10238000000C660B770B85ED91E00E94EE134B81FC
:102390005C81052E000C660B770B8AED91E00E94A4
:1023A000EE130E94DB01882311F1CE0101960E94F9
:1023B000E40349815A81052E000C660B770B84EEED
:1023C00091E00E94EE134B815C81052E000C660BA0
:1023D000770B89EE91E00E94EE134D815E81052E10
:1023E000000C660B770B8EEE91E00E94EE130E94BC
:1023F000DB01482F50E060E070E083E092E00E9453
:10240000EE1380E026960FB6F894DEBF0FBECDBF68
:10241000DF91CF9108950E9468050895CF93DF93CF
:10242000C6E3D3E06A817B8181E991E00E94B01428
:102430006C817D8187E991E00E94B0146E817F817B
:102440008DE991E00E94B0146885798583EA91E076
:102450000E94B01480E0DF91CF9108954F925F9277
:102460006F928F929F92AF92BF92CF92DF92EF9234
:10247000FF921F93CF93DF93CDB7DEB7A2970FB62E
:10248000F894DEBF0FBECDBFFE0131969E012F5DD9
:102490003F4F11922E173F07E1F7861799F0E12C75
:1024A000A1E0B0E0AC0FBD1FAE0DB11DE82FF0E014
:1024B000EA59FB4F90819C938F5F8F71E39468136F
:1024C000EFCF01C0E12CAE014F5D5F4F6CEC71E0CE
:1024D000CE0101960E9479184C01FC010190002068
:1024E000E9F731976E2E681A0F2EF4EFCF2EF0E039
:1024F000DF2EF02DA12CB12C10E0F12CC6010E9492
:102500005818681218C0A701B601C4010E946118CA
:10251000892B89F486E18A9DF0018B9DF00D1124B1
:10252000E85FFE4F2591349189A19AA1F90109959F
:102530001530A1F409C01F5FFFEFAF1ABF0A86E193
:10254000C80ED11C1530D1F686E092E00E94DB1255
:10255000CE0101960E94DB120E94F112A2960FB6E4
:10256000F894DEBF0FBECDBFDF91CF911F91FF90DA
:10257000EF90DF90CF90BF90AF909F908F906F9033
:102580005F904F9008950E94EB140895882391F076
:102590008A3081F0E0911C02F0E0EA59FB4F808321
:1025A00080911C028F5F8F7180931C0280911C02AE
:1025B00080911D0208950F931F93CF93FC0180819A
:1025C000882359F08F01C0E00E94F514CF5FF80115
:1025D000EC0FF11D80818111F7CFCF911F910F91E9
:1025E00008958DE00E94F5148AE00E94F514089584
:1025F0000E94DB120E94F11208954F925F926F9237
:102600007F928F929F92AF92BF92CF92DF92EF9282
:10261000FF920F931F93CF93DF93CDB7DEB7A897A9
:102620000FB6F894DEBF0FBECDBF6B017C01FE017B
:1026300075968E010F5F1F4FCE014D96D8011192F6
:102640001D92E817F907D9F7FF200CF05DC081C093
:102650005E0126E1A20EB11C992493940F2EFAE09C
:102660004F2E512C612C712CF02D01C0982EC701DA
:10267000B601A30192010E94021820E3260FD501A2
:102680002D935D01A7019601261B370B480B590BB3
:10269000CA01B901A30192010E94021869017A01DD
:1026A000232B242B252B21F081E0890D8431F1F699
:1026B00021E0290D882054F402C021E0912CFE0174
:1026C000E20FF11D8DE2858B22E0290D211102C060
:1026D0000FC021E0E5E1F0E0EC0FFD1FE20FF11D7E
:1026E00080E09291D8019D938D018F5F8217C8F38E
:1026F000E1E0F0E0EC0FFD1FE20FF11D1082CE01D2
:1027000001960E94DB1253C00F2EFAE08F2E912CFF
:10271000A12CB12CF02DC701B601A50194010E9496
:10272000021820E3260F2D8BA7019601261B370BDD
:10273000480B590BCA01B901A50194010E94021866
:1027400069017A01232B242B252B19F288248394E9
:102750007FCFF094E094D094C094C11CD11CE11CB4
:10276000F11C0F2EFAE08F2E912CA12CB12CF02D04
:10277000C701B601A50194010E94021820E3260FAB
:102780002D8BA7019601261B370B480B590BCA014D
:10279000B901A50194010E94021869017A01232B55
:1027A000242B252B09F489CF88248A9451CFA8960D
:1027B0000FB6F894DEBF0FBECDBFDF91CF911F9152
:1027C0000F91FF90EF90DF90CF90BF90AF909F90D0
:1027D0008F907F906F905F904F900895CF92DF928F
:1027E000EF92FF926A017B010E94DB12C701B601E2
:1027F0000E94FD120E94F112FF90EF90DF90CF90A7
:102800000895EF92FF920F931F93CF93DF93CDB76D
:10281000DEB760970FB6F894DEBF0FBECDBFAC0138
:10282000FE0139968E010F5F1F4FCE014196D801F0
:1028300011921D92E817F907D9F79A01ADECBCEC9B
:102840000E942F18969587959695879596958795CA
:102850009C01220F331F880F991F880F991F880F23
:10286000991F820F931F9A01281B390BC90120E37E
:10287000280F29879A01281B390B0E942F18AC01B9
:102880005695479556954795569547954115510547
:1028900009F43FC07E013AE0E30EF11CE1E001C023
:1028A000E82F9A01ADECBCEC0E942F189695879505
:1028B00096958795969587959C01220F331F880FD3
:1028C000991F880F991F880F991F820F931FDA0194
:1028D000A81BB90BCD0120E32A0FD7012D937D0151
:1028E0009A01281B390BADECBCEC0E942F18AC01EF
:1028F00056954795569547955695479541155105D7
:1029000021F081E08E0F883059F691E09E0F11F48E
:102910000FC091E0E9E0F0E0EC0FFD1FE90FF11DC1
:1029200080E02291D8012D938D018F5F8917C8F324
:10293000E1E0F0E0EC0FFD1FE90FF11D1082CE0188
:1029400001960E94DB1260960FB6F894DEBF0FBEB0
:10295000CDBFDF91CF911F910F91FF90EF90089520
:10296000CF93DF93EB010E94DB12CE010E94011492
:102970000E94F112DF91CF910895CF9390911C02A4
:1029800080911D02981729F1C0911D0280911C02AF
:10299000C817F9F0EC2FF0E0EA59FB4F80818D3039
:1029A00091F407C0EC2FF0E0EA59FB4F80818D30A5
:1029B00051F480911D026C2F0E942E12CF5FCF71B7
:1029C000C0931D0206C0CF5FCF7180911C028C1393
:1029D000E9CFCF91089583E090E09093C500809374
:1029E000C40088ED8093C10008959091C00095FFC8
:1029F00009C020911A0290911B02291303C08093F1
:102A0000C6000895E0911A02F0E0EA57FB4F808378
:102A100080911A028F5F8F7780931A0208951F9218
:102A20000F920FB60F9211248F939F93EF93FF9302
:102A300090911B0280911A02981303C08091C600E6
:102A40000EC0E0911B02F0E0EA57FB4F80818093BB
:102A5000C60080911B028F5F8F7780931B02FF91CE
:102A6000EF919F918F910F900FBE0F901F9018952F
:102A70001F920F920FB60F9211242F933F934F93F3
:102A80005F936F937F938F939F93AF93BF93EF93D6
:102A9000FF938091C6000E94C612FF91EF91BF91F3
:102AA000AF919F918F917F916F915F914F913F91E6
:102AB0002F910F900FBE0F901F9018955058BB2765
:102AC000AA270E9476150C941D170E940F1738F044
:102AD0000E94161720F039F49F3F19F426F40C9445
:102AE000E5160EF4E095E7FB0C94DF16E92F0E9443
:102AF0002E1758F3BA17620773078407950720F05B
:102B000079F4A6F50C9450170EF4E0950B2EBA2F1D
:102B1000A02D0B01B90190010C01CA01A0011124E3
:102B2000FF27591B99F0593F50F4503E68F11A168F
:102B3000F040A22F232F342F4427585FF3CF469520
:102B400037952795A795F0405395C9F77EF41F1642
:102B5000BA0B620B730B840BBAF09150A1F0FF0F0C
:102B6000BB1F661F771F881FC2F70EC0BA0F621FF8
:102B7000731F841F48F4879577956795B795F795E8
:102B80009E3F08F0B0CF9395880F08F09927EE0F7D
:102B9000979587950895DF93DD27B92FBF7740E894
:102BA0005FE31616170648075B0718F4D92F0E9433
:102BB00057179F938F937F936F930E94CC17E6ECE8
:102BC000F0E00E94E8160E941D172F913F914F914F
:102BD0005F910E947217DD2351F09058A2EA2AED0E
:102BE0003FE049EC5FE3D0785D270E947615DF91E6
:102BF0000C941D170E940E160C941D170E94161798
:102C000058F00E940F1740F029F45F3F29F00C9410
:102C1000DF1651110C9451170C94E5160E942E17D3
:102C200068F39923B1F3552391F3951B550BBB27FB
:102C3000AA2762177307840738F09F5F5F4F220F40
:102C4000331F441FAA1FA9F335D00E2E3AF0E0E837
:102C500032D091505040E695001CCAF72BD0FE2F81
:102C600029D0660F771F881FBB1F26173707480715
:102C7000AB07B0E809F0BB0B802DBF01FF279358CD
:102C80005F4F3AF09E3F510578F00C94DF160C949C
:102C900051175F3FE4F3983ED4F386957795679597
:102CA000B795F7959F5FC9F7880F911D9695879502
:102CB00097F90895E1E0660F771F881FBB1F621721
:102CC00073078407BA0720F0621B730B840BBA0BDF
:102CD000EE1F88F7E09508950E9473166894B1116D
:102CE0000C94511708950E94361788F09F5798F05A
:102CF000B92F9927B751B0F0E1F0660F771F881F01
:102D0000991F1AF0BA95C9F714C0B13091F00E941A
:102D10005017B1E008950C945017672F782F88272B
:102D2000B85F39F0B93FCCF3869577956795B39541
:102D3000D9F73EF490958095709561957F4F8F4FB0
:102D40009F4F0895E89409C097FB3EF490958095B5
:102D5000709561957F4F8F4F9F4F9923A9F0F92F61
:102D600096E9BB279395F695879577956795B795DF
:102D7000F111F8CFFAF4BB0F11F460FF1BC06F5FC5
:102D80007F4F8F4F9F4F16C0882311F096E911C0D7
:102D9000772321F09EE8872F762F05C0662371F0F8
:102DA00096E8862F70E060E02AF09A95660F771F0C
:102DB000881FDAF7880F9695879597F9089597F900
:102DC0009F6780E870E060E008959FEF80EC0895D1
:102DD000DF93CF931F930F93FF92EF92DF927B01CC
:102DE0008C01689406C0DA2EEF010E947217FE0172
:102DF000E894A5912591359145915591A6F3EF0160
:102E00000E947615FE019701A801DA9469F7DF9018
:102E1000EF90FF900F911F91CF91DF9108950024C3
:102E20000A941616170618060906089500240A942F
:102E300012161306140605060895092E0394000CB5
:102E400011F4882352F0BB0F40F4BF2B11F460FF44
:102E500004C06F5F7F4F8F4F9F4F089557FD90586D
:102E6000440F551F59F05F3F71F04795880F97FB4E
:102E7000991F61F09F3F79F0879508951216130608
:102E80001406551FF2CF4695F1DF08C01616170637
:102E90001806991FF1CF869571056105089408956C
:102EA000E894BB2766277727CB0197F908959B0104
:102EB000AC0160E070E080E89FE30C94FA150E949A
:102EC00072170C941D170E940F1738F00E941617E6
:102ED00020F0952311F00C94DF160C94E5161124C4
:102EE0000C9451170E942E1770F3959FC1F3950F04
:102EF00050E0551F629FF001729FBB27F00DB11D7E
:102F0000639FAA27F00DB11DAA1F649F6627B00D0D
:102F1000A11D661F829F2227B00DA11D621F739FF6
:102F2000B00DA11D621F839FA00D611D221F749F04
:102F30003327A00D611D231F849F600D211D822F4B
:102F4000762F6A2F11249F5750409AF0F1F0882372
:102F50004AF0EE0FFF1FBB1F661F771F881F91509F
:102F60005040A9F79E3F510580F00C94DF160C9459
:102F700051175F3FE4F3983ED4F3869577956795B4
:102F8000B795F795E7959F5FC1F7FE2B880F911DC9
:102F90009695879597F908959B01AC010C945F175E
:102FA000DB018F939F930E944518BF91AF91A29F21
:102FB000800D911DA39F900DB29F900D1124089537
:102FC000A1E21A2EAA1BBB1BFD010DC0AA1FBB1F2D
:102FD000EE1FFF1FA217B307E407F50720F0A21B9F
:102FE000B30BE40BF50B661F771F881F991F1A940C
:102FF00069F760957095809590959B01AC01BD0136
:10300000CF010895052E97FB1EF400940E94191815
:1030100057FD07D00E94E01707FC03D04EF40C9434
:10302000191850954095309521953F4F4F4F5F4F60
:10303000089590958095709561957F4F8F4F9F4F24
:103040000895EE0FFF1F0590F491E02D09940E9462
:103050002F18332312F48A1B9B0B0C944018A29F49
:10306000B001B39FC001A39F700D811D1124911D5C
:10307000B29F700D811D1124911D08950E942F187B
:10308000B7FF0895821B930B08950E942F18A59FE8
:10309000900DB49F900DA49F800D911D1124089553
:1030A000B7FF0C9445180E944518821B930B089596
:1030B000FC0105900020E9F7809590958E0F9F1FE9
:1030C0000895FB01DC014150504088F08D9181341E
:1030D0001CF08B350CF4805E659161341CF06B350F
:1030E0000CF4605E861B611171F3990B0895881BC7
:1030F000FCCFFA01A191B081009719F41097E1F08B
:10310000CD01DC01CD010D90002011F4C00113C0F0
:10311000FB012191222319F02015D9F7F3CFFB01F0
:103120002191201519F41E92119606C02223C1F791
:103130000D900020A1F7D001FA01A193B08308956A
:10314000ABE0B0E0E6EAF8E10C94591B6C017B01BE
:103150008A01FC0117821682838181FFCCC1CE01D6
:1031600001963C01F6019381F70193FD859193FF50
:1031700081917F01882309F4BAC1853239F493FD26
:10318000859193FF81917F01853229F4B60190E00A
:103190000E94971AE7CF912C212C312CFFE1F315D7
:1031A000D8F08B3279F038F4803279F08332A1F4A0
:1031B000232D20611DC08D3261F0803369F4232DF1
:1031C000216016C0832D8260382EE32DE4603E2EF0
:1031D0002AC0F32DF8601DC037FC2DC020ED280F4C
:1031E0002A3040F08E32B9F436FC81C1232D2064A0
:1031F000322E19C036FE06C08AE0989E200D11249A
:10320000922E11C0EAE02E9E200D1124222EF32DC5
:10321000F0623F2E08C08C3621F4832D8068382E52
:1032200002C0883641F4F70193FD859193FF8191A7
:103230007F018111B3CF982F9F7D9554933028F44F
:103240000C5F1F4F9FE399830DC0833631F08337A6
:1032500071F0833509F059C021C0F801808189835C
:103260000E5F1F4F88248394912C530113C02801B3
:10327000F2E04F0E511CF801A080B18036FE03C071
:10328000692D70E002C06FEF7FEFC5010E948C1ABC
:103290004C018201F32DFF773F2E16C0280122E05A
:1032A000420E511CF801A080B18036FE03C0692D8A
:1032B00070E002C06FEF7FEFC5010E94811A4C01E0
:1032C000F32DF0683F2E820133FC1BC0822D90E06D
:1032D00088169906B0F4B60180E290E00E94971A31
:1032E0002A94F4CFF50137FC859137FE81915F0177
:1032F000B60190E00E94971A21102A9421E0821AC8
:1033000091088114910471F7E8C0843611F0893670
:1033100041F5F80137FE07C0608171818281938198
:103320000C5F1F4F08C060817181072E000C880B55
:10333000990B0E5F1F4FF32DFF763F2E97FF09C0AD
:1033400090958095709561957F4F8F4F9F4FF06856
:103350003F2E2AE030E0A3010E94D31A882E86185F
:1033600045C0853731F4232D2F7EB22E2AE030E080
:1033700025C0932D997FB92E8F36C1F018F488356A
:1033800079F0B5C0803719F0883721F0B0C0E92F47
:10339000E061BE2EB4FE0DC0FB2DF460BF2E09C04F
:1033A00034FE0AC0292F2660B22E06C028E030E085
:1033B00005C020E130E002C020E132E0F801B7FEB4
:1033C00007C060817181828193810C5F1F4F06C0AD
:1033D0006081718180E090E00E5F1F4FA3010E9429
:1033E000D31A882E8618FB2DFF773F2E36FE0DC090
:1033F000232D2E7FA22E891458F434FE0BC032FCEC
:1034000009C0832D8E7EA82E05C0B82CA32C03C026
:10341000B82C01C0B92CA4FE0FC0FE01E80DF11DAF
:103420008081803321F49A2D997EA92E09C0A2FEB5
:1034300006C0B394B39404C08A2D867809F0B3947F
:10344000A3FC11C0A0FE06C0B21488F4280C922C74
:103450009B180EC0B21460F4B60180E290E00E94A6
:10346000971AB394F7CFB21418F42B1802C0982C03
:10347000212CA4FE10C0B60180E390E00E94971AB0
:10348000A2FE17C0A1FC03C088E790E002C088E557
:1034900090E0B6010CC08A2D867859F0A1FE02C0DA
:1034A0008BE201C080E2A7FC8DE2B60190E00E94B1
:1034B000971A891438F4B60180E390E00E94971AB5
:1034C0009A94F7CF8A94F301E80DF11D8081B6013B
:1034D00090E00E94971A8110F5CF222009F442CE85
:1034E000B60180E290E00E94971A2A94F6CFF60186
:1034F0008681978102C08FEF9FEF2B96E2E10C94BB
:10350000751BFC010590615070400110D8F7809543
:1035100090958E0F9F1F0895FC016150704001909F
:103520000110D8F7809590958E0F9F1F08950F93E7
:103530001F93CF93DF93FB01238121FD03C08FEF06
:103540009FEF2CC022FF16C0468157812481358110
:103550004217530744F4A081B1819D012F5F3F4F73
:10356000318320838C93268137812F5F3F4F3783B0
:10357000268314C08B01EC01FB010084F185E02D52
:103580000995892BE1F6D80116968D919C91179794
:10359000019617969C938E931697CE01DF91CF914B
:1035A0001F910F910895FA01AA27283051F1203177
:1035B00081F1E8946F936E7F6E5F7F4F8F4F9F4FC7
:1035C000AF4FB1E03ED0B4E03CD0670F781F891F09
:1035D0009A1FA11D680F791F8A1F911DA11D6A0FD7
:1035E000711D811D911DA11D20D009F468943F918A
:1035F0002AE0269F11243019305D3193DEF6CF0189
:103600000895462F4770405D4193B3E00FD0C9F74E
:10361000F6CF462F4F70405D4A3318F0495D31FDBB
:103620004052419302D0A9F7EACFB4E0A69597950E
:10363000879577956795BA95C9F7009761057105E4
:1036400008959B01AC010A2E06945795479537952E
:103650002795BA95C9F7620F731F841F951FA01D88
:103660000895DC01CB01FC01F999FECF06C0F2BD43
:10367000E1BDF89A319600B40D9241505040B8F730
:103680000895DC01CB0103C02D910E944C1B4150D9
:103690005040D0F70895262FF999FECF1FBA92BD5A
:1036A00081BD20BD0FB6F894FA9AF99A0FBE019623
:1036B00008952F923F924F925F926F927F928F92D6
:1036C0009F92AF92BF92CF92DF92EF92FF920F93B1
:1036D0001F93CF93DF93CDB7DEB7CA1BDB0B0FB6BB
:1036E000F894DEBF0FBECDBF09942A883988488878
:1036F0005F846E847D848C849B84AA84B984C8840E
:10370000DF80EE80FD800C811B81AA81B981CE0F04
:10371000D11D0FB6F894DEBF0FBECDBFED010895E9
:04372000F894FFCF4B
:10372400FFFFFFFF4802CD0C0201E40AD302FD0CA7
:103734000A03200D1801C10CFFFF55617274206447
:103744007A69616C610057726F6E6720536275739A
:10375400206672616D650057726F6E67206C6173CD
:1037640074206672616D650073627573203D20007C
:1037740053627573205541525420696E69746961AE
:103784006C697A6564005069746368207472696D49
:1037940020726573657400526F6C6C207472696D6D
:1037A400207265736574004220582000422059201D
:1037B4000043682031200043682032200043682001
:1037C4003320004368203420004368203520004320
:1037D40068203620004368203720004368203820C2
:1037E40000436820392000436820313020004368BA
:1037F400203131200047205820004720592000471D
:10380400205A200041205820004120592000412006
:103814005A20005561727420697320776F726B6946
:103824006E670053200057726F6E6720636F6D6D73
:06383400616E643A200001
:00000001FF
