:100000000C946E000C948B000C948B000C948B0061
:100010000C948B000C948B000C948B000C948B0034
:100020000C948B000C948B000C948B000C948B0024
:100030000C948B000C948B000C948B000C948B0014
:100040000C948B000C948B000C9484090C948B0002
:100050000C945B090C948B000C948B000C948B001B
:100060000C94F3040C948B000C948B000C948B0078
:100070000C948B000C948B000C948B000C948B00D4
:100080000C948B000C948B000C948B000C948B00C4
:100090000C948B000C948B000C948B000C948B00B4
:1000A0000C948B000C948B000C948B000C948B00A4
:1000B0000C948B00200534055005C005D6051406A8
:1000C00067069906EC06455200000000000000009B
:1000D000000000000000000000007D0411241FBE8D
:1000E000CFEFD8E0DEBFCDBF11E0A0E0B1E0E4E9A2
:1000F000F4E102C005900D92A436B107D9F722E0D1
:10010000A4E6B1E001C01D92AD3AB207E1F70E944A
:100110008A010C94480A0C94000084EA8093BC0085
:10012000ECEBF0E080818823ECF7089584E980937C
:10013000BC00ECEBF0E0808184FDFDCF089580935E
:10014000BB0084E88093BC00ECEBF0E08081882366
:10015000ECF7089520E4829FC00111248468809305
:10016000BC00ECEBF0E080818823ECF78091BB00D1
:1001700008951F93CF93DF93182FD62FC42F0E947B
:100180008D00812F880F0E949F008D2F0E949F005D
:100190008C2F0E949F000E949600DF91CF911F91AB
:1001A0000895CF93DF93D62FC82FCC0F0E948D00D8
:1001B0008C2F0E949F008D2F0E949F000E948D0017
:1001C00081E08C0F0E949F0080E00E94AA00C82F4F
:1001D0000E9496008C2FDF91CF910895EF92FF92AD
:1001E0000F931F93CF93DF93162FD42FE22EF32E6E
:1001F000C82FCC0F0E948D008C2F0E949F00812F52
:100200000E949F000E948D0081E08C0F0E949F0041
:10021000CFEFCD0FDD2389F00E2D1F2DD1E0F12C76
:100220008D2FC11101C08F2D0E94AA00F80181936A
:100230008F018C2FC1508111F3CF0E949600DF9166
:10024000CF911F910F91FF90EF90089540E86BE6DA
:1002500088E60E94B9002FEF81EE94E021508040A3
:100260009040E1F700C0000041E06BE688E60E94A4
:10027000B90040E06CE688E60E94B9002FEF83ECFD
:1002800099E0215080409040E1F700C0000040E03C
:1002900068E388E60E94B90040E063E288E60E94D5
:1002A000B90040E06BE688E60E94B90040E064E2F5
:1002B00088E60E94B90040E06AE688E60E94B9003C
:1002C0004CE06AE688E60E94B9008FE59AEE019755
:1002D000F1F700C0000043E06AE188E60E94B9003F
:1002E00044E169E188E60E94B90040E06BE188E6FC
:1002F0000E94B90040E06CE188E60E94B90040E449
:100300006AE688E60E94B90048E763E288E60E9450
:10031000B9000895CF93DF93CDB7DEB768970FB6D6
:10032000F894DEBF0FBECDBF80E284B91092B90051
:100330008CE08093B80084E08093BC0065E788E699
:100340000E94D1008E77809368010E940F077894F5
:1003500080E091E00E9444076091680170E08CE0C9
:1003600091E00E94FC08BE01695F7F4FCE010196BB
:100370000E944B020E9426010F2EFBEA5F2EF02DF9
:100380000E9409099E01235F3F4F42E062E788E631
:100390000E94EE006E84659C612C11246694669424
:1003A000669471F3712C9E01235F3F4F4CE064E72C
:1003B00088E60E94EE00CD84D12CDC2CCC248E85E6
:1003C000C82A8F819885C81AD90AEF84F12CFE2C8F
:1003D000EE248889E82A89859A85E81AF90A098924
:1003E00010E0102F00278A89082B8B859C85081B1D
:1003F000190B8D88912C982C88248E89882A8B81C2
:100400009C81881A990AAF88B12CBA2CAA24888DAD
:10041000A82A8D819E81A81AB90A4B8950E0542FD1
:1004200044278C89482B89819A81481B590B052EBA
:10043000000C660B770B87E191E00E943A08A4015B
:10044000990C660B770B8FE191E00E943A08A501A9
:10045000BB0C660B770B87E291E00E943A08A6017D
:10046000DD0C660B770B8FE291E00E943A08A70142
:10047000FF0C660B770B86E391E00E943A08A80117
:10048000110F660B770B8DE391E00E943A0873948D
:10049000671089CF75CF2F923F924F925F926F92E4
:1004A0007F928F929F92AF92BF92CF92DF92EF9204
:1004B000FF920F931F93CF93DF93CDB7DEB7A4972F
:1004C0000FB6F894DEBF0FBECDBF9AA389A37CA35D
:1004D0006BA340E850E06BE670E088E690E00E9495
:1004E000B9002FEF31EE44E0215030404040E1F7B9
:1004F00000C0000041E050E06BE670E088E690E06C
:100500000E94B90040E050E06CE670E088E690E0C0
:100510000E94B9005FEF63EC79E051506040704099
:10052000E1F700C0000040E050E068E370E088E6DA
:1005300090E00E94B90040E050E063E270E088E69D
:1005400090E00E94B90040E050E06BE670E088E681
:1005500090E00E94B90040E050E064E270E088E67C
:1005600090E00E94B90040E050E06AE670E088E662
:1005700090E00E94B9004CE050E06AE670E088E646
:1005800090E00E94B9008FE59AEE0197F1F700C064
:10059000000041E050E06AE170E088E690E00E94EF
:1005A000B90040E050E069E170E088E690E00E9428
:1005B000B90040E050E06BE170E088E690E00E9416
:1005C000B90040E050E06CE170E088E690E00E9405
:1005D000B90040E450E06AE670E088E690E00E94EE
:1005E000B90048E750E063E270E088E690E00E94DE
:1005F000B900AFE1BEE41197F1F700C00000BFEF12
:10060000EFE8F1E0B150E040F040E1F700C0000059
:10061000198E1A8E1B8E1C8E412C512C3201812C6E
:10062000912C54011D8A1E8A1F8A188E198A1A8AD3
:100630001B8A1C8A1D861E861F86188AC12CD12CF7
:10064000212C312C15C02FEF3FE841E021503040E4
:100650004040E1F700C0000053E12516310441F4A9
:1006600040E050E063E270E088E690E00E94B9006C
:100670009E012F5F3F4F42E050E062E770E088E666
:1006800090E00E94EE00298130E0322F22278A81FB
:10069000282BABEABAEA0E94CF097C01F694E794D2
:1006A000F694E794F694E794E114F10409F48FC00A
:1006B00000E010E09E012F5F3F4F4CE050E064E708
:1006C00070E088E690E00E94EE00C11464E0D60677
:1006D00008F077C07FEFC71AD70A898190E0982F7A
:1006E00088272A81822B092E000CAA0BBB0B2D898F
:1006F0003E894F89588D280F391F4A1F5B1F2D8B4C
:100700003E8B4F8B588F8B8190E0982F88272C81C0
:10071000822B092E000CAA0BBB0B49895A896B89C5
:100720007C89480F591F6A1F7B1F498B5A8B6B8B23
:100730007C8B8D8190E0982F88272E81822B092E2B
:10074000000CAA0BBB0B2D853E854F855889280FC1
:10075000391F4A1F5B1F2D873E874F87588B8F811C
:1007600090E0982F88272885822B092E000CAA0B51
:10077000BB0B498D5A8D6B8D7C8D480F591F6A1F9D
:100780007B1F498F5A8F6B8F7C8F898590E0982FC4
:1007900088272A85822B092E000CAA0BBB0B480E3A
:1007A000591E6A1E7B1E8B8590E0982F88272C850A
:1007B000822B092E000CAA0BBB0B880E991EAA1EB9
:1007C000BB1E0F5F1F4FE016F10609F073CF5FEFFE
:1007D000251A350A64E12616310409F034CFC60122
:1007E000A0E0B0E08D8F9E8FAF8FB8A36D897E891A
:1007F0008F89988D2D8D3E8D4F8D58A10E94AA090D
:100800002D8B3E8B4F8B588F69897A898B899C8978
:100810002D8D3E8D4F8D58A10E94AA09298B3A8BB0
:100820004B8B5C8B6D857E858F8598892D8D3E8D5C
:100830004F8D58A10E94AA0969017A01698D7A8DAC
:100840008B8D9C8D2D8D3E8D4F8D58A10E94AA09B8
:100850002D873E874F87588BC301B2012D8D3E8D6A
:100860004F8D58A10E94AA0929013A01C501B4017E
:100870002D8D3E8D4F8D58A10E94AA091C141D0478
:100880001E041F0434F4D701C6019054A109B10914
:1008900005C0D701C601905CAF4FBF4F6D857E8507
:1008A000E9A1FAA171836083538242823583248354
:1008B0002D893E89EBA1FCA13183208349895A8986
:1008C0005383428395838483A4960FB6F894DEBF46
:1008D0000FBECDBFDF91CF911F910F91FF90EF9091
:1008E000DF90CF90BF90AF909F908F907F906F9050
:1008F0005F904F903F902F90089584E491E00E9484
:10090000440780E00895CF92DF92EF92FF921F9309
:10091000CF93DF93CDB7DEB7A2970FB6F894DEBFC3
:100920000FBECDBFFE0131969E012F5D3F4F11924C
:100930002E173F07E1F7861799F010E0A1E0B0E02D
:10094000AC0FBD1FA10FB11DE82FF0E0E35FFD4F1D
:1009500090819C938F5F8F711F5F6813EFCF01C0F1
:1009600010E0AE014F5D5F4F62E671E0CE0101968F
:100970000E94210A6C01FC0101900020E9F73197E7
:100980007F01E81AF90A86EC90E00E94000A8E11B5
:1009900012C0412F50E066EC70E0C6010E94090AC7
:1009A000892B49F4EAEDF0E02591349189A19AA1CF
:1009B000F90109950AC084E591E00E942707CE015C
:1009C00001960E9427070E943D07A2960FB6F89451
:1009D000DEBF0FBECDBFDF91CF911F91FF90EF9093
:1009E000DF90CF9008951F920F920FB60F921124AF
:1009F0002F933F934F935F938F939F93AF93BF93A7
:100A0000EF93FF93E0916C01E695E695E695E7702C
:100A10004E2F50E084E1E89FF0011124E359FE4F8E
:100A20008081282F2E7FE3898E2F90E0FC01349760
:100A3000E930F10508F0E4C1E65AFF4F0C94C9090A
:100A40002093BB0085E88093BC00E0916C01E695A3
:100A5000E695E695E77084E1E89FF0011124E359FB
:100A6000FE4F85E0838BCCC184E1849FF001859F9C
:100A7000F00D1124E359FE4F91819093BB0095E84E
:100A80009093BC00E0916C01E695E695E695E770E1
:100A90008E9FF0011124E359FE4F86E0838BB0C195
:100AA00084E1849FF001859FF00D1124E359FE4FEE
:100AB000808180FF12C085EA8093BC00E0916C01C8
:100AC000E695E695E695E77084E1E89FF00111244C
:100AD000E359FE4F87E0838B93C184E1849FF0014B
:100AE000859FF00D1124E359FE4F87858230E8F091
:100AF00084E1849FF001859FF00D1124E359FE4F9E
:100B000092819093BB0095E89093BC00E0916C01BA
:100B1000E695E695E695E7708E9FF0011124E3597E
:100B2000FE4F8BE0838B14861BC084E1849FF00111
:100B3000859FF00D1124E359FE4F92819093BB00E5
:100B400095E89093BC00E0916C01E695E695E695FA
:100B5000E7708E9FF0011124E359FE4F8CE0838BE8
:100B6000E0916C01E695E695E695E77084E1E89FF3
:100B7000F0011124E359FE4F87858150878740C1DA
:100B800081E0820F8093BB0085E88093BC00E091F8
:100B90006C01E695E695E695E77084E1E89FF00143
:100BA0001124E359FE4F88E0838B2AC184E1849F9E
:100BB000F001859FF00D1124E359FE4F87858230A7
:100BC00090F085EC8093BC00E0916C01E695E69591
:100BD000E695E77084E1E89FF0011124E359FE4FA8
:100BE00089E0838B11C085E88093BC00E0916C01A3
:100BF000E695E695E695E77084E1E89FF00111241B
:100C0000E359FE4F8AE0838BE0916C01E695E6950F
:100C1000E695E77084E1E89FF0011124E359FE4F67
:100C2000878581508787ECC084E1849FF001859F90
:100C3000F00D1124E359FE4FA585B6859D012F5F68
:100C40003F4F368725879091BB009C93E0916C01C4
:100C5000E695E695E695E7708E9FF0011124E3593D
:100C6000FE4F8785823090F085EC8093BC00E09148
:100C70006C01E695E695E695E77084E1E89FF00162
:100C80001124E359FE4F89E0838B11C085E88093DE
:100C9000BC00E0916C01E695E695E695E77084E18D
:100CA000E89FF0011124E359FE4F8AE0838BE09125
:100CB0006C01E695E695E695E77084E1E89FF00122
:100CC0001124E359FE4F87858150878799C084E1BD
:100CD000849FF001859FF00D1124E359FE4FA585F7
:100CE000B6859D012F5F3F4F368725879091BB00CA
:100CF0009C93E0916C01E695E695E695E7708E9FF2
:100D0000F0011124E359FE4FA089B18992899C9387
:100D100095E99093BC00E0916C01E695E695E69527
:100D2000E7708E9FF0011124E359FE4F81E0838B21
:100D300067C084E1849FF001859FF00D1124E35981
:100D4000FE4F87858230E8F084E1849FF001859F23
:100D5000F00D1124E359FE4F92819093BB0095E86A
:100D60009093BC00E0916C01E695E695E695E770FE
:100D70008E9FF0011124E359FE4F8BE0838B148684
:100D80001BC084E1849FF001859FF00D1124E3597D
:100D9000FE4F92819093BB0095E89093BC00E09148
:100DA0006C01E695E695E695E7708E9FF0011124BB
:100DB000E359FE4F8CE0838BE0916C01E695E6955C
:100DC000E695E77084E1E89FF0011124E359FE4FB6
:100DD00087858150878714C085E98093BC00E091A6
:100DE0006C01E695E695E695E77084E1E89FF001F1
:100DF0001124E359FE4F81E0838B8FEF80936901CB
:100E0000FF91EF91BF91AF919F918F915F914F9122
:100E10003F912F910F900FBE0F901F9018950E9439
:100E200037090895882391F08A3081F0E0916601B6
:100E3000F0E0E35FFD4F8083809166018F5F8F71EB
:100E400080936601809166018091670108950F93F8
:100E50001F93CF93FC018081882359F08F01C0E05C
:100E60000E944109CF5FF801EC0FF11D80818111D3
:100E7000F7CFCF911F910F9108958DE00E94410906
:100E80008AE00E94410908950E9427070E943D07B9
:100E900008954F925F926F927F928F929F92AF923E
:100EA000BF92CF92DF92EF92FF920F931F93CF9357
:100EB000DF93CDB7DEB7A8970FB6F894DEBF0FBEAD
:100EC000CDBF6B017C01FE0175968E010F5F1F4F38
:100ED000CE014D96D80111921D92E817F907D9F766
:100EE000FF200CF05DC081C05E0126E1A20EB11CA6
:100EF000992493940F2EFAE04F2E512C612C712CD3
:100F0000F02D01C0982EC701B601A30192010E94E5
:100F1000AA0920E3260FD5012D935D01A7019601B3
:100F2000261B370B480B590BCA01B901A3019201CB
:100F30000E94AA0969017A01232B242B252B21F079
:100F400081E0890D8431F1F621E0290D882054F4E7
:100F500002C021E0912CFE01E20FF11D8DE2858B94
:100F600022E0290D211102C00FC021E0E5E1F0E0EF
:100F7000EC0FFD1FE20FF11D80E09291D8019D93CF
:100F80008D018F5F8217C8F3E1E0F0E0EC0FFD1FE9
:100F9000E20FF11D1082CE0101960E94270753C077
:100FA0000F2EFAE08F2E912CA12CB12CF02DC70121
:100FB000B601A50194010E94AA0920E3260F2D8BFA
:100FC000A7019601261B370B480B590BCA01B90123
:100FD000A50194010E94AA0969017A01232B242BFF
:100FE000252B19F2882483947FCFF094E094D09439
:100FF000C094C11CD11CE11CF11C0F2EFAE08F2EF5
:10100000912CA12CB12CF02DC701B601A5019401A2
:101010000E94AA0920E3260F2D8BA7019601261B0B
:10102000370B480B590BCA01B901A50194010E9465
:10103000AA0969017A01232B242B252B09F489CFD6
:1010400088248A9451CFA8960FB6F894DEBF0FBEBD
:10105000CDBFDF91CF911F910F91FF90EF90DF9067
:10106000CF90BF90AF909F908F907F906F905F9048
:101070004F900895CF92DF92EF92FF926A017B0129
:101080000E942707C701B6010E9449070E943D0739
:10109000FF90EF90DF90CF900895EF92FF920F9323
:1010A0001F93CF93DF93CDB7DEB760970FB6F89459
:1010B000DEBF0FBECDBFAC01FE0139968E010F5FC2
:1010C0001F4FCE014196D80111921D92E817F907E2
:1010D000D9F79A01ADECBCEC0E94CF0996958795A3
:1010E00096958795969587959C01220F331F880FBB
:1010F000991F880F991F880F991F820F931F9A01BC
:10110000281B390BC90120E3280F29879A01281BC6
:10111000390B0E94CF09AC015695479556954795D6
:10112000569547954115510509F43FC07E013AE0B7
:10113000E30EF11CE1E001C0E82F9A01ADECBCEC3C
:101140000E94CF0996958795969587959695879550
:101150009C01220F331F880F991F880F991F880F3A
:10116000991F820F931FDA01A81BB90BCD0120E351
:101170002A0FD7012D937D019A01281B390BADEC65
:10118000BCEC0E94CF09AC01569547955695479502
:10119000569547954115510521F081E08E0F883015
:1011A00059F691E09E0F11F40FC091E0E9E0F0E0F4
:1011B000EC0FFD1FE90FF11D80E02291D8012D9366
:1011C0008D018F5F8917C8F3E1E0F0E0EC0FFD1FA0
:1011D000E90FF11D1082CE0101960E94270760964B
:1011E0000FB6F894DEBF0FBECDBFDF91CF911F9138
:1011F0000F91FF90EF900895CF93DF93EB010E9442
:101200002707CE010E944D080E943D07DF91CF9134
:101210000895CF939091660180916701981729F105
:10122000C091670180916601C817F9F0EC2FF0E0DA
:10123000E35FFD4F80818D3091F407C0EC2FF0E02B
:10124000E35FFD4F80818D3051F4809167016C2FF9
:101250000E948304CF5FCF71C093670106C0CF5F48
:10126000CF71809166018C13E9CFCF91089583E00F
:1012700090E09093C5008093C40088ED8093C100F6
:1012800008959091C00095FF09C02091640190914C
:101290006501291303C08093C6000895E09164019D
:1012A000F0E0E35DFD4F8083809164018F5F8F7775
:1012B0008093640108951F920F920FB60F9211242C
:1012C0008F939F93EF93FF939091650180916401B9
:1012D000981303C08091C6000EC0E0916501F0E054
:1012E000E35DFD4F80818093C600809165018F5F33
:1012F0008F7780936501FF91EF919F918F910F9070
:101300000FBE0F901F9018951F920F920FB60F925D
:1013100011242F933F934F935F936F937F938F93FA
:101320009F93AF93BF93EF93FF938091C6000E946A
:101330001207FF91EF91BF91AF919F918F917F9194
:101340006F915F914F913F912F910F900FBE0F9032
:101350001F901895052E97FB1EF400940E94C1095A
:1013600057FD07D00E94DE0907FC03D04EF40C9411
:10137000C10950954095309521953F4F4F4F5F4F94
:10138000089590958095709561957F4F8F4F9F4FF1
:101390000895EE0FFF1F0590F491E02D0994A29F90
:1013A000B001B39FC001A39F700D811D1124911D39
:1013B000B29F700D811D1124911D0895A1E21A2E76
:1013C000AA1BBB1BFD010DC0AA1FBB1FEE1FFF1FE9
:1013D000A217B307E407F50720F0A21BB30BE40B39
:1013E000F50B661F771F881F991F1A9469F7609580
:1013F0007095809590959B01AC01BD01CF0108953A
:10140000FC0105900020E9F7809590958E0F9F1FB5
:101410000895FB01DC014150504088F08D918134EA
:101420001CF08B350CF4805E659161341CF06B35DB
:101430000CF4605E861B611171F3990B0895881B93
:10144000FCCFFA01A191B081009719F41097E1F057
:10145000CD01DC01CD010D90002011F4C00113C0BD
:10146000FB012191222319F02015D9F7F3CFFB01BD
:101470002191201519F41E92119606C02223C1F75E
:101480000D900020A1F7D001FA01A193B083089537
:04149000F894FFCFFE
:101494005561727420647A69616C61005761727479
:1014A4006F9CE6203D20004779726F20582000474A
:1014B40079726F205920004779726F205A200041B9
:1014C4006363205820004163632059200041636313
:1014D400205A20005561727420697320776F726BF3
:1014E400696E670057726F6E6720636F6D6D616E12
:0414F400643A200036
:00000001FF
