S0180000466C6967687420617373697374616E742E73726563B4
S11300000C949B000C94B8000C94B8000C94B800A9
S11300100C94B8000C94B8000C94B8000C94B8007C
S11300200C94B8000C94B8000C94B8000C94B8006C
S11300300C94B8000C94B8000C94B8000C94B8005C
S11300400C94150B0C94B8000C940B0F0C94B80082
S11300500C94E20E0C94B8000C94B8000C94B80004
S11300600C94360B0C94B8000C94B8000C94B800A3
S11300700C94B8000C94B8000C94B8000C94B8001C
S11300800C94B8000C94B8000C94B8000C94B8000C
S11300900C94B8000C94B8000C94B8000C94B800FC
S11300A00C94B8000C94B8000C94B8000C94B800EC
S11300B00C94B800630B770B930B030C190C570CBF
S11300C0AA0CDC0C2F0D084AD73B3BCE016E84BC36
S11300D0BFFDC12F3D6C74319ABD56833DDA3D009E
S11300E0C77F11BED9E4BB4C3E916BAAAABE0000E7
S11300F000803F00455200000000000000000000A6
S11301000000000000000000630945525F524541B1
S11301104400000000000000000000000000690925
S113012045525F42554600000000000000000000F8
S113013000000000C10911241FBECFEFD8E0DEBFCC
S1130140CDBF11E0A0E0B1E0EAE7FAE202C0059019
S11301500D92AC35B107D9F723E0ACE5B1E001C0AD
S11301601D92AA3BB207E1F70E9417060C943B15B7
S11301700C940000FC0190915F01292F30E0408134
S11301805181220F331FD901AC59BE4F4D935C935B
S113019042815381D901A257BE4F4D935C93448150
S11301A05581F901E45BFD4F518340839F5F953195
S11301B019F090935F0102C010925F0180915F017A
S11301C090915E01891303C08F5F80935E018091DB
S11301D05E01853111F410925E010895FC01909145
S11301E05D01292F30E040815181220F331FD90155
S11301F0AE51BE4F4D935C9342815381D901AE5DA4
S1130200BD4F4D935C9344815581F901E854FE4FF1
S1130210518340839F5F953119F090935D0102C033
S113022010925D0180915D0190915C01891303C07E
S11302308F5F80935C0180915C01853111F4109291
S11302405C010895DC01E0915E01F0E0EE0FFF1F18
S1130250EC59FE4F8081918111969C938E939091DD
S11302605E01292F30E0220F331FF901E257FE4FC0
S11302704081518113965C934E931297F901E45B8C
S1130280FD4F2081318115963C932E9314979F5FE7
S1130290953119F090935E01089510925E010895CE
S11302A0DC01E0915C01F0E0EE0FFF1FEE51FE4F28
S11302B08081918111969C938E9390915C01292F5A
S11302C030E0220F331FF901EE5DFD4F4081518173
S11302D013965C934E931297F901E854FE4F2081D4
S11302E0318115963C932E9314979F5F953119F0A5
S11302F090935C01089510925C010895DC01E091F3
S11303005F01F0E0EE0FFF1FEE59FE4F80819181F7
S113031011969C938E9320915F0130E02150310916
S1130320220F331FF901E257FE4F8081918113960A
S11303309C938E931297F901E45BFD4F8081918128
S113034015969C938E9314970895DC01E0915D01BA
S1130350F0E0EE0FFF1FE052FE4F80819181119675
S11303609C938E9320915D0130E021503109220F3E
S1130370331FF901EE5DFD4F8081918113969C93AB
S11303808E931297F901E854FE4F8081918115965E
S11303909C938E931497089580915F0190915E01D0
S11303A0891B853108F08B5E089580915D019091E1
S11303B05C01891B853108F08B5E0895CF92DF9232
S11303C0EF92FF920F931F93CF93DF9300D000D04F
S11303D000D0CDB7DEB7662329F16C017C018C0116
S11303E0085D1F4F6150262F30E02F5F3F4F220FD3
S11303F0331FC20ED31ECE0101960E9422018981B1
S11304009A81F701819391937F012B813C81F801BB
S1130410219331938F012D813E8137A326A3EC14C0
S1130420FD0449F726960FB6F894DEBF0FBECDBF84
S1130430DF91CF911F910F91FF90EF90DF90CF90BC
S11304400895CF92DF92EF92FF920F931F93CF9371
S1130450DF9300D000D000D0CDB7DEB7662329F1FA
S11304606C017C018C01085D1F4F6150262F30E028
S11304702F5F3F4F220F331FC20ED31ECE010196B2
S11304800E94500189819A81F701819391937F01A0
S11304902B813C81F801219331938F012D813E8181
S11304A037A326A3EC14FD0449F726960FB6F89457
S11304B0DEBF0FBECDBFDF91CF911F910F91FF9093
S11304C0EF90DF90CF9008954F925F926F927F925A
S11304D08F929F92AF92BF92CF92DF92EF92FF9250
S11304E00F931F93CF93DF93EA016623B9F1DC01E5
S11304F0FC01B8962FEF260F30E02F5F3F4F220FFD
S1130500331F820F931F00E010E09801812C912C7F
S11305105401C12CD12C76014D915D912A01550FC6
S113052066087708040D151D261D371D419151914C
S11305302A01550F66087708840C951CA61CB71C65
S113054046A157A12A01550F66087708C40CD51C8B
S1130550E61CF71CA817B907F9F609C000E010E07B
S11305609801812C912C5401C12CD12C7601462E5A
S1130570512C612C712CC901B801A30192010E9474
S1130580B31139832883C501B401A30192010E94E8
S1130590B3113B832A83C701B601A30192010E94D0
S11305A0B3113D832C83DF91CF911F910F91FF9065
S11305B0EF90DF90CF90BF90AF909F908F907F90FF
S11305C06F905F904F900895EF92FF921F93CF9397
S11305D0DF93CDB7DEB7C857D1090FB6F894DEBFA5
S11305E00FBECDBF7C010E94CC01182F682FCE0115
S11305F001960E94DE01A701612FCE0101960E949F
S11306006402C858DF4F0FB6F894DEBF0FBECDBFEB
S1130610DF91CF911F91FF90EF9008952F923F9219
S11306204F925F926F927F928F929F92AF92BF92FE
S1130630CF92DF92EF92FF920F931F93CF93DF93AA
S1130640CDB7DEB727970FB6F894DEBF0FBECDBF88
S11306505E834D83662309F466C08C01FC01B89661
S11306606150262E312C25E1220E311C220C331C24
S1130670280E391EC12CD12C7601C39419821A82FA
S11306801B821C82412C512C3201812C912C54014F
S11306901F824F81CC9C400D11244F83D8018D9132
S11306A09D918D01DC01A70196010E9401129B011D
S11306B0AC01C701B6010E94A31129813A814B8183
S11306C05C81260F371F481F591F29833A834B83A8
S11306D05C83A191B191A70196010E9401129B0133
S11306E0AC01C701B6010E94A311460E571E681E35
S11306F0791EA6A1B7A1A70196010E9401129B0130
S1130700AC01C701B6010E94A311860E971EA81E54
S1130710B91E3FEFC31AD30AE30AF30AE215F3053D
S113072009F0B7CF0BC019821A821B821C82412C9C
S1130730512C3201812C912C54011F82FF81CF2E28
S1130740D12CE12CF12C69817A818B819C81A701C8
S113075096010E94B311AD81BE812D933C93C301D8
S1130760B201A70196010E94B311ED81FE8133838A
S11307702283C501B401A70196010E94B311AD8182
S1130780BE8115963C932E93149727960FB6F89432
S1130790DEBF0FBECDBFDF91CF911F910F91FF90B0
S11307A0EF90DF90CF90BF90AF909F908F907F900D
S11307B06F905F904F903F902F900895EF92FF922B
S11307C01F93CF93DF93CDB7DEB7C857D1090FB6C8
S11307D0F894DEBF0FBECDBF7C010E94D501182F57
S11307E0682FCE0101960E942102A701612FCE013C
S11307F001960E940E03C858DF4F0FB6F894DEBF6F
S11308000FBECDBFDF91CF911F91FF90EF90089560
S1130810CF92DF92EF92FF92CF93DF930097C1F1D3
S1130820EC01072E000C880B990B0E9477106B01CA
S11308307C01BE010D2E000C880B990B0E947710D1
S11308409B01AC01C701B6010E94CD0F0E949E0F0F
S11308501C161D064CF49B01AC016BED7FE089EC8A
S11308609FE30E94310F07C02BED3FE049EC5FE3AB
S11308700E94320F905820E030E044E353E40E9499
S113088032112BED3FE049E450E40E94CD0F03C048
S113089060E070E0CB01DF91CF91FF90EF90DF90AB
S11308A0CF9008958F929F92AF92BF92CF92DF9292
S11308B0EF92FF92FC01A081B181E280F380448138
S11308C055819D010E94D8114B015C019701D7010C
S11308D00E94D81175016401C60ED71EE81EF91EC8
S11308E09A01DA010E94D8116C0D7D1D8E1D9F1D89
S11308F0FF90EF90DF90CF90BF90AF909F908F903C
S113090008954F925F926F927F928F929F92AF92CF
S1130910BF92CF92DF92EF92FF920F931F932B011E
S11309203C01D601C5018C5C9C4CAC4CBC40883667
S11309309646A646B640F8F02E0D3F1D401F511FA7
S1130940A3E6B0E00E94F6114B015C01C301B201C1
S11309500E943F106B017C01C501B40124E630E024
S113096040E050E00E94B311C701B601620F731F4B
S1130970841F951F24C02E0D3F1D401F511FAFE53E
S1130980B0E00E94F6114B015C0120E030E040EA47
S113099050E4C301B2010E9432110E943F106B0166
S11309A07C01C501B40124E630E040E050E00E943F
S11309B0B311C701B601620F731F841F951F1F91E6
S11309C00F91FF90EF90DF90CF90BF90AF909F90EA
S11309D08F907F906F905F904F9008952F923F92E9
S11309E04F925F926F927F928F929F92AF92BF923B
S11309F0CF92DF92EF92FF920F931F93CF93DF93E7
S1130A00CDB7DEB760970FB6F894DEBF0FBECDBF8B
S1130A103C017A836983FB0144805580B201828161
S1130A2093810E9408046D837E838F839887B2012B
S1130A30E981FA81808191810E9408041B012C01C3
S1130A4089819A810E94520469837A838B839C836F
S1130A50F301A081B18124E630E00E94EF1169879F
S1130A607A878B879C87A281B3810E94EF116D875F
S1130A707E878F87988BE0901E02F0901F02009172
S1130A802002109121020F2EF2EB6F2EFCE07F2E3C
S1130A90812C912CF02D69857A858B859C85A40108
S1130AA093010E94B311A980BA80CB80DC806D8150
S1130AB07E818F8198850E94810460931E027093C9
S1130AC01F028093200290932102E0901202F09082
S1130AD0130200911402109115026D857E858F8595
S1130AE09889A40193010E94B311C201B1019058E5
S1130AF00E94810460931202709313028093140283
S1130B009093150260960FB6F894DEBF0FBECDBF6A
S1130B10DF91CF911F910F91FF90EF90DF90CF90D5
S1130B20BF90AF909F908F907F906F905F904F9009
S1130B303F902F90089584EA8093BC00ECEBF0E0A2
S1130B4080818823ECF7089584E98093BC00ECEB62
S1130B50F0E0808184FDFDCF08958093BB0084E89C
S1130B608093BC00ECEBF0E080818823ECF70895DF
S1130B7020E4829FC001112484688093BC00ECEBC4
S1130B80F0E080818823ECF78091BB0008951F93E7
S1130B90CF93DF93182FD62FC42F0E949B05812F4C
S1130BA0880F0E94AD058D2F0E94AD058C2F0E94E9
S1130BB0AD050E94A405DF91CF911F910895EF9296
S1130BC0FF920F931F93CF93DF93162FD42FE22E10
S1130BD0F32EC82FCC0F0E949B058C2F0E94AD05CD
S1130BE0812F0E94AD050E949B0581E08C0F0E941D
S1130BF0AD05CFEFCD0FDD2389F00E2D1F2DD1E0F4
S1130C00F12C8D2FC11101C08F2D0E94B805F80160
S1130C1081938F018C2FC1508111F3CF0E94A405C1
S1130C20DF91CF911F910F91FF90EF900895109253
S1130C301E0210921F0210922002109221021092A2
S1130C40120210921302109214021092150280E202
S1130C5084B91092B9008CE08093B80084E080934A
S1130C60BC000E94520D789484E091E00E94870DAC
S1130C7088EC90E090931D0280931C026CE072E07B
S1130C8086E192E00E945F068AE020E295B1922715
S1130C9095B93FEF41EE94E0315040409040E1F788
S1130CA000C00000815091F70E945B080E94FE0A78
S1130CB00E94900E0E94BF080E94070BF9CF2F924A
S1130CC03F924F925F926F927F928F929F92AF92D8
S1130CD0BF92CF92DF92EF92FF920F931F93CF9325
S1130CE0DF93CDB7DEB7A4970FB6F894DEBF0FBE7F
S1130CF0CDBF9AA389A37CA36BA340E86BE688E6E7
S1130D000E94C7052FEF31EE44E0215030404040AF
S1130D10E1F700C0000041E06BE688E60E94C705E9
S1130D2040E06CE688E60E94C7055FEF63EC79E07B
S1130D30515060407040E1F700C0000040E068E3BB
S1130D4088E60E94C70540E063E288E60E94C70582
S1130D5040E06BE688E60E94C70540E064E288E66E
S1130D600E94C70540E06AE688E60E94C7054CE099
S1130D706AE688E60E94C7058FE59AEE0197F1F7C7
S1130D8000C0000041E06AE188E60E94C70540E037
S1130D9069E188E60E94C70540E06BE188E60E94AD
S1130DA0C70540E06CE188E60E94C70540E46AE6B6
S1130DB088E60E94C70548E763E288E60E94C70503
S1130DC0AFE1BEE41197F1F700C00000BFEFEFE818
S1130DD0F1E0B150E040F040E1F700C00000198EAE
S1130DE01A8E1B8E1C8E412C512C3201812C912C7D
S1130DF054011D8A1E8A1F8A188E198A1A8A1B8A10
S1130E001C8A1D861E861F86188AC12CD12C212C73
S1130E10312C12C02FEF3FE841E0215030404040D8
S1130E20E1F700C0000053E12516310429F440E045
S1130E3063E288E60E94C7059E012F5F3F4F42E0B0
S1130E4062E788E60E94DF05298130E0322F2227FD
S1130E508A81282BABEABAEA0E94E0117C01F6945D
S1130E60E794F694E794F694E794E114F10409F412
S1130E708CC000E010E09E012F5F3F4F4CE064E720
S1130E8088E60E94DF05C11464E0D60608F077C046
S1130E907FEFC71AD70A898190E0982F88272A8183
S1130EA0822B092E000CAA0BBB0B2D893E894F897E
S1130EB0588D280F391F4A1F5B1F2D8B3E8B4F8B7C
S1130EC0588F8B8190E0982F88272C81822B092EB4
S1130ED0000CAA0BBB0B49895A896B897C89480F82
S1130EE0591F6A1F7B1F498B5A8B6B8B7C8B8D819F
S1130EF090E0982F88272E81822B092E000CAA0BB4
S1130F00BB0B2D853E854F855889280F391F4A1FF5
S1130F105B1F2D873E874F87588B8F8190E0982FDA
S1130F2088272885822B092E000CAA0BBB0B498D20
S1130F305A8D6B8D7C8D480F591F6A1F7B1F498FFB
S1130F405A8F6B8F7C8F898590E0982F88272A850C
S1130F50822B092E000CAA0BBB0B480E591E6A1ECD
S1130F607B1E8B8590E0982F88272C85822B092E59
S1130F70000CAA0BBB0B880E991EAA1EBB1E0F5F8A
S1130F801F4FE016F10609F076CF5FEF251A350AF8
S1130F9064E12616310409F03DCFC601A0E0B0E0BB
S1130FA08D8F9E8FAF8FB8A36D897E898F89988D21
S1130FB02D8D3E8D4F8D58A10E94B3112D8B3E8BEC
S1130FC04F8B588F69897A898B899C892D8D3E8DA9
S1130FD04F8D58A10E94B311298B3A8B4B8B5C8B9C
S1130FE06D857E858F8598892D8D3E8D4F8D58A179
S1130FF00E94B31169017A01698D7A8D8B8D9C8D64
S11310002D8D3E8D4F8D58A10E94B3112D873E87A3
S11310104F87588BC301B2012D8D3E8D4F8D58A142
S11310200E94B31129013A01C501B4012D8D3E8DF1
S11310304F8D58A10E94B3111C141D041E041F04DB
S113104034F4D701C6019054A109B10905C0D701F0
S1131050C601905CAF4FBF4F6D857E85E9A1FAA1B3
S11310607183608353824282358324832D893E8930
S1131070EBA1FCA13183208349895A89538342839C
S113108095838483A4960FB6F894DEBF0FBECDBFBC
S1131090DF91CF911F910F91FF90EF90DF90CF9050
S11310A0BF90AF909F908F907F906F905F904F9084
S11310B03F902F90089540E86BE688E60E94C705AC
S11310C02FEF81EE94E0215080409040E1F700C082
S11310D0000041E06BE688E60E94C70540E06CE64C
S11310E088E60E94C7052FEF83EC99E021508040E9
S11310F09040E1F700C0000040E068E388E60E9409
S1131100C70540E063E288E60E94C70540E06BE65D
S113111088E60E94C70540E064E288E60E94C705AD
S113112040E06AE688E60E94C7054CE06AE688E685
S11311300E94C7058FE59AEE0197F1F700C0000001
S113114043E06AE188E60E94C70544E069E188E675
S11311500E94C70548E06BE188E60E94C70540E0AD
S11311606CE188E60E94C70540E46AE688E60E94CE
S1131170C70548E763E288E60E94C70508958F9291
S11311809F92AF92BF92CF92DF92EF92FF920F9312
S11311901F93CF93DF93CDB7DEB768970FB6F8945C
S11311A0DEBF0FBECDBF9E012F5F3F4F42E062E71F
S11311B088E60E94DF058A819BEA899FC12C11245D
S11311C0C694C694C69409F46BC0D12C0F2EFCE0CF
S11311D0EF2EF2E0FF2EF02D06E112E09E012F5FCC
S11311E03F4F4CE064E788E60E94DF05EB81F0E0C6
S11311F0FE2FEE278C814F01882A6D8170E0762FB7
S113120066278E81682B4F8150E0542F44278885B0
S1131210482B298530E0322F22278A85282B8B857D
S113122090E0982F8827AC858A2BA981B0E0BA2F4B
S1131230AA27BA80AB29F701A080B180AA19BB09FB
S1131240BC8BAB8BA281B381F401EA1BFB0BFE8B3D
S1131250ED8BD7011496ED91FC9115976E1B7F0BC6
S1131260788F6F8BF80160817181461B570B5E8705
S11312704D8742815381241B350B388B2F87248162
S11312803581821B930B9A8B898BCE010D960E941C
S1131290BA00CE0143960E94EE00D394CD109ECFA7
S11312A068960FB6F894DEBF0FBECDBFDF91CF9125
S11312B01F910F91FF90EF90DF90CF90BF90AF9070
S11312C09F908F90089580E191E00E94870D80E0C7
S11312D00895CF93DF93CDB7DEB72C970FB6F8946C
S11312E0DEBF0FBECDBFCE0101960E947E01CE01AE
S11312F007960E94A50149815A81052E000C660BB0
S1131300770B80E291E00E947D0E4B815C81052E7B
S1131310000C660B770B85E291E00E947D0E4D81F7
S11313205E81052E000C660B770B8AE291E00E9429
S11313307D0E4F815885052E000C660B770B8FE2CE
S113134091E00E947D0E49855A85052E000C660B9E
S1131350770B84E391E00E947D0E4B855C85052E1E
S1131360000C660B770B89E391E00E947D0E80E010
S11313702C960FB6F894DEBF0FBECDBFDF91CF9190
S11313800895CF93DF9300D000D000D0CDB7DEB75F
S11313900E94CC018823C1F0CE0101960E94E40290
S11313A049815A81052E000C660B770B80E291E08F
S11313B00E947D0E4B815C81052E000C660B770B21
S11313C085E291E00E947D0E0E94D501882311F1EF
S11313D0CE0101960E94DE0349815A81052E000C3C
S11313E0660B770B8FE291E00E947D0E4B815C814E
S11313F0052E000C660B770B84E391E00E947D0EB2
S11314004D815E81052E000C660B770B89E391E01C
S11314100E947D0E0E94D501482F50E060E070E0EC
S11314208EE391E00E947D0E80E026960FB6F8943C
S1131430DEBF0FBECDBFDF91CF9108954F925F9273
S11314406F928F929F92AF92BF92CF92DF92EF9260
S1131450FF920F931F93CF93DF93CDB7DEB7A2977D
S11314600FB6F894DEBF0FBECDBFFE0131969E01CC
S11314702F5D3F4F11922E173F07E1F7861799F022
S113148010E0A1E0B0E0AC0FBD1FA10FB11DE82F2B
S1131490F0E0E65EFC4F90819C938F5F8F711F5F3D
S11314A06813EFCF01C010E0AE014F5D5F4F6FE4F2
S11314B071E0CE0101960E944C125C01FC01019086
S11314C00020E9F731976E2E681A0F2EF4EFEF2EF5
S11314D0F0E0FF2EF02DC12CD12C00E0812E912CB8
S11314E0C7010E942B12681218C0A401B701C501DC
S11314F00E943412892B89F486E18C9DF0018D9D24
S1131500F00D1124E85FFE4F2591349189A19AA131
S1131510F90109950330A1F409C00F5FFFEFCF1A59
S1131520DF0A86E1E80EF11C0330D1F681E491E094
S11315300E946A0DCE0101960E946A0D0E94800DE0
S1131540A2960FB6F894DEBF0FBECDBFDF91CF9148
S11315501F910F91FF90EF90DF90CF90BF90AF90CD
S11315609F908F906F905F904F900895CF93DF93EB
S1131570CDB7DEB72C970FB6F894DEBF0FBECDBF44
S113158084E190E090931D0280931C020E94CC01A0
S1131590882321F0CE0101960E94E4020E94D50125
S11315A0882321F0CE0107960E94DE03BE01695F05
S11315B07F4FCE0101960E94EE0440911E0250918D
S11315C01F02609120027091210281E591E00E9446
S11315D07D0E409112025091130260911402709199
S11315E0150286E591E00E947D0E2C960FB6F894C4
S11315F0DEBF0FBECDBFDF91CF910895EEE6F0E0E0
S113160080818160808385B5836085BD0895E09184
S11316100001F091010180819181892B29F4E091ED
S11316200201F0910301099508951F920F920FB6DC
S11316300F9211242F938F939F93EF93FF93E09135
S11316400001F09101018081918101978E3F2FEF7C
S1131650920710F491838083FF91EF919F918F9172
S11316602F910F900FBE0F901F9018951F920F92FD
S11316700FB60F9211242F933F934F935F938F9341
S11316809F93AF93BF93EF93FF93E0917902E69515
S1131690E695E695E7704E2F50E084E1E89FF0016F
S11316A01124E658FD4F8081282F2E7FE3898E2F49
S11316B090E0FC013497E930F10508F0E4C1E65A02
S11316C0FF4F0C94D2112093BB0085E88093BC009B
S11316D0E0917902E695E695E695E77084E1E89F66
S11316E0F0011124E658FD4F85E0838BCCC184E1E1
S11316F0849FF001859FF00D1124E658FD4F9181E0
S11317009093BB0095E89093BC00E0917902E69534
S1131710E695E695E7708E9FF0011124E658FD4F9B
S113172086E0838BB0C184E1849FF001859FF00D36
S11317301124E658FD4F808180FF12C085EA809312
S1131740BC00E0917902E695E695E695E77084E1C0
S1131750E89FF0011124E658FD4F87E0838B93C185
S113176084E1849FF001859FF00D1124E658FD4F1C
S113177087858230E8F084E1849FF001859FF00D35
S11317801124E658FD4F92819093BB0095E8909305
S1131790BC00E0917902E695E695E695E7708E9FA8
S11317A0F0011124E658FD4F8BE0838B14861BC097
S11317B084E1849FF001859FF00D1124E658FD4FCC
S11317C092819093BB0095E89093BC00E0917902DC
S11317D0E695E695E695E7708E9FF0011124E658AC
S11317E0FD4F8CE0838BE0917902E695E695E695D2
S11317F0E77084E1E89FF0011124E658FD4F8785E6
S11318008150878740C181E0820F8093BB0085E8C7
S11318108093BC00E0917902E695E695E695E77041
S113182084E1E89FF0011124E658FD4F88E0838BA2
S11318302AC184E1849FF001859FF00D1124E658AC
S1131840FD4F8785823090F085EC8093BC00E09159
S11318507902E695E695E695E77084E1E89FF00164
S11318601124E658FD4F89E0838B11C085E88093ED
S1131870BC00E0917902E695E695E695E77084E18F
S1131880E89FF0011124E658FD4F8AE0838BE09134
S11318907902E695E695E695E77084E1E89FF00124
S11318A01124E658FD4F878581508787ECC084E179
S11318B0849FF001859FF00D1124E658FD4FA58506
S11318C0B6859D012F5F3F4F368725879091BB00DA
S11318D09C93E0917902E695E695E695E7708E9FF4
S11318E0F0011124E658FD4F8785823090F085EC95
S11318F08093BC00E0917902E695E695E695E77061
S113190084E1E89FF0011124E658FD4F89E0838BC0
S113191011C085E88093BC00E0917902E695E695D4
S1131920E695E77084E1E89FF0011124E658FD4F45
S11319308AE0838BE0917902E695E695E695E77077
S113194084E1E89FF0011124E658FD4F878581501A
S1131950878799C084E1849FF001859FF00D11244D
S1131960E658FD4FA585B6859D012F5F3F4F36870D
S113197025879091BB009C93E0917902E695E695CA
S1131980E695E7708E9FF0011124E658FD4FA0897B
S1131990B18992899C9395E99093BC00E091790276
S11319A0E695E695E695E7708E9FF0011124E658DA
S11319B0FD4F81E0838B67C084E1849FF001859FA4
S11319C0F00D1124E658FD4F87858230E8F084E15C
S11319D0849FF001859FF00D1124E658FD4F9281FC
S11319E09093BB0095E89093BC00E0917902E69552
S11319F0E695E695E7708E9FF0011124E658FD4FB9
S1131A008BE0838B14861BC084E1849FF001859F47
S1131A10F00D1124E658FD4F92819093BB0095E898
S1131A209093BC00E0917902E695E695E695E7701F
S1131A308E9FF0011124E658FD4F8CE0838BE091DA
S1131A407902E695E695E695E77084E1E89FF00172
S1131A501124E658FD4F87858150878714C085E996
S1131A608093BC00E0917902E695E695E695E770EF
S1131A7084E1E89FF0011124E658FD4F81E0838B57
S1131A808FEF80937602FF91EF91BF91AF919F9179
S1131A908F915F914F913F912F910F900FBE0F90B7
S1131AA01F9018950E94BE0E0895882391F08A30E5
S1131AB081F0E0916201F0E0E65EFC4F808380916A
S1131AC062018F5F8F7180936201809162018091C6
S1131AD0630108950F931F93CF93FC0180818823A2
S1131AE059F08F01C0E00E94C80ECF5FF801EC0FDF
S1131AF0F11D80818111F7CFCF911F910F9108952E
S1131B008DE00E94C80E8AE00E94C80E08950E94CB
S1131B106A0D0E94800D08954F925F926F927F929A
S1131B208F929F92AF92BF92CF92DF92EF92FF92E9
S1131B300F931F93CF93DF93CDB7DEB7A8970FB65C
S1131B40F894DEBF0FBECDBF6B017C01FE0175961C
S1131B508E010F5F1F4FCE014D96D80111921D9239
S1131B60E817F907D9F7FF200CF05DC081C05E01CA
S1131B7026E1A20EB11C992493940F2EFAE04F2E65
S1131B80512C612C712CF02D01C0982EC701B60187
S1131B90A30192010E94B31120E3260FD5012D93D6
S1131BA05D01A7019601261B370B480B590BCA018F
S1131BB0B901A30192010E94B31169017A01232B97
S1131BC0242B252B21F081E0890D8431F1F621E0CD
S1131BD0290D882054F402C021E0912CFE01E20F6B
S1131BE0F11D8DE2858B22E0290D211102C00FC069
S1131BF021E0E5E1F0E0EC0FFD1FE20FF11D80E0D4
S1131C009291D8019D938D018F5F8217C8F3E1E013
S1131C10F0E0EC0FFD1FE20FF11D1082CE010196E2
S1131C200E946A0D53C00F2EFAE08F2E912CA12C26
S1131C30B12CF02DC701B601A50194010E94B31186
S1131C4020E3260F2D8BA7019601261B370B480B8B
S1131C50590BCA01B901A50194010E94B31169018C
S1131C607A01232B242B252B19F2882483947FCFEC
S1131C70F094E094D094C094C11CD11CE11CF11CDC
S1131C800F2EFAE08F2E912CA12CB12CF02DC70130
S1131C90B601A50194010E94B31120E3260F2D8BF8
S1131CA0A7019601261B370B480B590BCA01B90132
S1131CB0A50194010E94B31169017A01232B242BFD
S1131CC0252B09F489CF88248A9451CFA8960FB67E
S1131CD0F894DEBF0FBECDBFDF91CF911F910F915E
S1131CE0FF90EF90DF90CF90BF90AF909F908F9038
S1131CF07F906F905F904F900895CF92DF92EF9214
S1131D00FF926A017B010E946A0DC701B6010E941D
S1131D108C0D0E94800DFF90EF90DF90CF9008957E
S1131D20CF939091620180916301981729F1C0913A
S1131D30630180916201C817F9F0EC2FF0E0E65ED0
S1131D40FC4F80818D3091F407C0EC2FF0E0E65E0B
S1131D50FC4F80818D3051F4809163016C2F0E947F
S1131D601E0ACF5FCF71C093630106C0CF5FCF71EE
S1131D70809162018C13E9CFCF91089583E090E0C4
S1131D809093C5008093C40088ED8093C1000895AA
S1131D909091C00095FF09C020916001909161016C
S1131DA0291303C08093C6000895E0916001F0E018
S1131DB0E65CFC4F8083809160018F5F8F77809316
S1131DC0600108951F920F920FB60F9211248F9302
S1131DD09F93EF93FF939091610180916001981319
S1131DE003C08091C6000EC0E0916101F0E0E65CA2
S1131DF0FC4F80818093C600809161018F5F8F7753
S1131E0080936101FF91EF919F918F910F900FBE8D
S1131E100F901F9018951F920F920FB60F921124D6
S1131E202F933F934F935F936F937F938F939F93DE
S1131E30AF93BF93EF93FF938091C6000E94550D1B
S1131E40FF91EF91BF91AF919F918F917F916F918E
S1131E505F914F913F912F910F900FBE0F901F9064
S1131E6018955058BB27AA270E94490F0C94F010CC
S1131E700E94E21038F00E94E91020F039F49F3FEC
S1131E8019F426F40C94B8100EF4E095E7FB0C94C6
S1131E90B210E92F0E94011158F3BA1762077307B1
S1131EA08407950720F079F4A6F50C9423110EF419
S1131EB0E0950B2EBA2FA02D0B01B90190010C0156
S1131EC0CA01A0011124FF27591B99F0593F50F46E
S1131ED0503E68F11A16F040A22F232F342F4427C6
S1131EE0585FF3CF469537952795A795F0405395BE
S1131EF0C9F77EF41F16BA0B620B730B840BBAF08E
S1131F009150A1F0FF0FBB1F661F771F881FC2F7F8
S1131F100EC0BA0F621F731F841F48F4879577950C
S1131F206795B795F7959E3F08F0B0CF9395880FC6
S1131F3008F09927EE0F979587950895DF93DD278D
S1131F40B92FBF7740E85FE31616170648075B070B
S1131F5018F4D92F0E942A119F938F937F936F9324
S1131F600E949F11E6ECF0E00E94BB100E94F0106A
S1131F702F913F914F915F910E944511DD2351F0C4
S1131F809058A2EA2AED3FE049EC5FE3D0785D2760
S1131F900E94490FDF910C94F0100E94E10F0C9401
S1131FA0F0100E94E91058F00E94E21040F029F469
S1131FB05F3F29F00C94B21051110C9424110C942D
S1131FC0B8100E94011168F39923B1F3552391F3DA
S1131FD0951B550BBB27AA2762177307840738F094
S1131FE09F5F5F4F220F331F441FAA1FA9F335D0F1
S1131FF00E2E3AF0E0E832D091505040E695001CA5
S1132000CAF72BD0FE2F29D0660F771F881FBB1F5E
S1132010261737074807AB07B0E809F0BB0B802D3C
S1132020BF01FF2793585F4F3AF09E3F510578F068
S11320300C94B2100C9424115F3FE4F3983ED4F353
S1132040869577956795B795F7959F5FC9F7880F3C
S1132050911D9695879597F90895E1E0660F771F8E
S1132060881FBB1F621773078407BA0720F0621B1F
S1132070730B840BBA0BEE1F88F7E09508950E944A
S113208046106894B1110C94241108950E9409110A
S113209088F09F5798F0B92F9927B751B0F0E1F025
S11320A0660F771F881F991F1AF0BA95C9F714C0D5
S11320B0B13091F00E942311B1E008950C942311E2
S11320C0672F782F8827B85F39F0B93FCCF386950E
S11320D077956795B395D9F73EF49095809570956B
S11320E061957F4F8F4F9F4F0895E89409C097FBE8
S11320F03EF490958095709561957F4F8F4F9F4FDB
S11321009923A9F0F92F96E9BB279395F69587951E
S113211077956795B795F111F8CFFAF4BB0F11F4E1
S113212060FF1BC06F5F7F4F8F4F9F4F16C0882388
S113213011F096E911C0772321F09EE8872F762FBE
S113214005C0662371F096E8862F70E060E02AF0FF
S11321509A95660F771F881FDAF7880F96958795EB
S113216097F9089597F99F6780E870E060E0089513
S11321709FEF80EC0895DF93CF931F930F93FF920B
S1132180EF92DF927B018C01689406C0DA2EEF0196
S11321900E944511FE01E894A59125913591459140
S11321A05591A6F3EF010E94490FFE019701A80182
S11321B0DA9469F7DF90EF90FF900F911F91CF9120
S11321C0DF91089500240A941616170618060906C6
S11321D0089500240A941216130614060506089599
S11321E0092E0394000C11F4882352F0BB0F40F421
S11321F0BF2B11F460FF04C06F5F7F4F8F4F9F4F61
S1132200089557FD9058440F551F59F05F3F71F0E2
S11322104795880F97FB991F61F09F3F79F0879549
S11322200895121613061406551FF2CF4695F1DFD2
S113223008C0161617061806991FF1CF8695710562
S1132240610508940895E894BB2766277727CB0196
S113225097F908959B01AC0160E070E080E89FE38A
S11322600C94CD0F0E9445110C94F0100E94E210C2
S113227038F00E94E91020F0952311F00C94B2106C
S11322800C94B81011240C9424110E94011170F3C1
S1132290959FC1F3950F50E0551F629FF001729F07
S11322A0BB27F00DB11D639FAA27F00DB11DAA1F16
S11322B0649F6627B00DA11D661F829F2227B00D63
S11322C0A11D621F739FB00DA11D621F839FA00DEE
S11322D0611D221F749F3327A00D611D231F849F3E
S11322E0600D211D822F762F6A2F11249F57504095
S11322F09AF0F1F088234AF0EE0FFF1FBB1F661F10
S1132300771F881F91505040A9F79E3F510580F0D8
S11323100C94B2100C9424115F3FE4F3983ED4F370
S1132320869577956795B795F795E7959F5FC1F77C
S1132330FE2B880F911D9695879597F908959B011B
S1132340AC010C943211DB018F939F930E94F61120
S1132350BF91AF91A29F800D911DA39F900DB29F3D
S1132360900D11240895052E97FB1EF400940E94ED
S1132370CA1157FD07D00E94091207FC03D04EF47E
S11323800C94CA1150954095309521953F4F4F4F6D
S11323905F4F089590958095709561957F4F8F4F0D
S11323A09F4F0895EE0FFF1F0590F491E02D0994BF
S11323B00E94E011332312F48A1B9B0B0C94F1113D
S11323C0A29FB001B39FC001A39F700D811D112472
S11323D0911DB29F700D811D1124911D08950E94BD
S11323E0E011B7FF0895821B930B08950E94E0113A
S11323F0A59F900DB49F900DA49F800D911D112455
S11324000895B7FF0C94F6110E94F611821B930BEA
S11324100895A1E21A2EAA1BBB1BFD010DC0AA1F21
S1132420BB1FEE1FFF1FA217B307E407F50720F039
S1132430A21BB30BE40BF50B661F771F881F991FB4
S11324401A9469F760957095809590959B01AC01FD
S1132450BD01CF010895FC0105900020E9F78095A6
S113246090958E0F9F1F0895FB01DC014150504051
S113247088F08D9181341CF08B350CF4805E65916D
S113248061341CF06B350CF4605E861B611171F3D2
S1132490990B0895881BFCCFFA01A191B081009794
S11324A019F41097E1F0CD01DC01CD010D9000206D
S11324B011F4C00113C0FB012191222319F020154E
S11324C0D9F7F3CFFB012191201519F41E9211962F
S11324D006C02223C1F70D900020A1F7D001FA0114
S11324E0A193B0830895ABE0B0E0E9E7F2E10C9486
S11324F004156C017B018A01FC0117821682838119
S113250081FFCCC1CE0101963C01F6019381F70114
S113251093FD859193FF81917F01882309F4BAC1CA
S1132520853239F493FD859193FF81917F01853242
S113253029F4B60190E00E946A14E7CF912C212C73
S1132540312CFFE1F315D8F08B3279F038F4803276
S113255079F08332A1F4232D20611DC08D3261F006
S1132560803369F4232D216016C0832D8260382EB8
S1132570E32DE4603E2E2AC0F32DF8601DC037FC25
S11325802DC020ED280F2A3040F08E32B9F436FCED
S113259081C1232D2064322E19C036FE06C08AE084
S11325A0989E200D1124922E11C0EAE02E9E200D3B
S11325B01124222EF32DF0623F2E08C08C3621F414
S11325C0832D8068382E02C0883641F4F70193FDCC
S11325D0859193FF81917F018111B3CF982F9F7DC6
S11325E09554933028F40C5F1F4F9FE399830DC0DB
S11325F0833631F0833771F0833509F059C021C037
S1132600F801808189830E5F1F4F88248394912C65
S1132610530113C02801F2E04F0E511CF801A080B1
S1132620B18036FE03C0692D70E002C06FEF7FEF0A
S1132630C5010E945F144C018201F32DFF773F2EE8
S113264016C0280122E0420E511CF801A080B1807E
S113265036FE03C0692D70E002C06FEF7FEFC50145
S11326600E9454144C01F32DF0683F2E820133FC78
S11326701BC0822D90E088169906B0F4B60180E262
S113268090E00E946A142A94F4CFF50137FC8591F6
S113269037FE81915F01B60190E00E946A14211017
S11326A02A9421E0821A91088114910471F7E8C0F8
S11326B0843611F0893641F5F80137FE07C0608190
S11326C07181828193810C5F1F4F08C06081718189
S11326D0072E000C880B990B0E5F1F4FF32DFF760E
S11326E03F2E97FF09C090958095709561957F4F17
S11326F08F4F9F4FF0683F2E2AE030E0A3010E94E5
S1132700A614882E861845C0853731F4232D2F7ED4
S1132710B22E2AE030E025C0932D997FB92E8F3652
S1132720C1F018F4883579F0B5C0803719F08837CE
S113273021F0B0C0E92FE061BE2EB4FE0DC0FB2D28
S1132740F460BF2E09C034FE0AC0292F2660B22EC1
S113275006C028E030E005C020E130E002C020E1FE
S113276032E0F801B7FE07C06081718182819381F4
S11327700C5F1F4F06C06081718180E090E00E5FA6
S11327801F4FA3010E94A614882E8618FB2DFF77E5
S11327903F2E36FE0DC0232D2E7FA22E891458F411
S11327A034FE0BC032FC09C0832D8E7EA82E05C0DA
S11327B0B82CA32C03C0B82C01C0B92CA4FE0FC0A4
S11327C0FE01E80DF11D8081803321F49A2D997E5C
S11327D0A92E09C0A2FE06C0B394B39404C08A2DE6
S11327E0867809F0B394A3FC11C0A0FE06C0B2140D
S11327F088F4280C922C9B180EC0B21460F4B60115
S113280080E290E00E946A14B394F7CFB21418F4F3
S11328102B1802C0982C212CA4FE10C0B60180E312
S113282090E00E946A14A2FE17C0A1FC03C088E7CE
S113283090E002C088E590E0B6010CC08A2D86784D
S113284059F0A1FE02C08BE201C080E2A7FC8DE238
S1132850B60190E00E946A14891438F4B60180E34A
S113286090E00E946A149A94F7CF8A94F301E80DD9
S1132870F11D8081B60190E00E946A148110F5CFA9
S1132880222009F442CEB60180E290E00E946A144C
S11328902A94F6CFF6018681978102C08FEF9FEFCD
S11328A02B96E2E10C942015FC01059061507040D8
S11328B00110D8F7809590958E0F9F1F0895FC0105
S11328C06150704001900110D8F7809590958E0F5B
S11328D09F1F08950F931F93CF93DF93FB012381D1
S11328E021FD03C08FEF9FEF2CC022FF16C046814D
S11328F05781248135814217530744F4A081B18163
S11329009D012F5F3F4F318320838C932681378134
S11329102F5F3F4F3783268314C08B01EC01FB01EB
S11329200084F185E02D0995892BE1F6D8011696EE
S11329308D919C911797019617969C938E93169759
S1132940CE01DF91CF911F910F910895FA01AA272B
S1132950283051F1203181F1E8946F936E7F6E5FDE
S11329607F4F8F4F9F4FAF4FB1E03ED0B4E03CD08C
S1132970670F781F891F9A1FA11D680F791F8A1F6F
S1132980911DA11D6A0F711D811D911DA11D20D0D6
S113299009F468943F912AE0269F11243019305D90
S11329A03193DEF6CF010895462F4770405D419381
S11329B0B3E00FD0C9F7F6CF462F4F70405D4A33CE
S11329C018F0495D31FD4052419302D0A9F7EACF96
S11329D0B4E0A6959795879577956795BA95C9F7C5
S11329E000976105710508959B01AC010A2E0694B8
S11329F05795479537952795BA95C9F7620F731F71
S1132A00841F951FA01D08952F923F924F925F92AD
S1132A106F927F928F929F92AF92BF92CF92DF92EA
S1132A20EF92FF920F931F93CF93DF93CDB7DEB74F
S1132A30CA1BDB0B0FB6F894DEBF0FBECDBF0994E3
S1132A402A88398848885F846E847D848C849B843A
S1132A50AA84B984C884DF80EE80FD800C811B8148
S1132A60AA81B981CE0FD11D0FB6F894DEBF0FBE77
S10D2A70CDBFED010895F894FFCFE7
S1132A7A1C02B60A5561727420647A69616C610039
S1132A8A5561727420697320776F726B696E67007F
S1132A9A4720582000472059200047205A20004147
S1132AAA20582000412059200041205A2000532058
S1132ABA0057726F6E6720636F6D6D616E643A20A2
S10F2ACA00422058200042205920000047
S9030000FC
