S0180000466C6967687420617373697374616E742E73726563B4
S11300000C9484000C94A1000C94A1000C94A10005
S11300100C94A1000C94A1000C94A1000C94A100D8
S11300200C94A1000C94A1000C94A1000C94A100C8
S11300300C94A1000C94A1000C94A1000C94A100B8
S11300400C94A1000C94A1000C94240C0C94A10019
S11300500C94FB0B0C94A1000C94A1000C94A10033
S11300600C944F080C94A1000C94A1000C94A100D2
S11300700C94A1000C94A1000C94A1000C94A10078
S11300800C94A1000C94A1000C94A1000C94A10068
S11300900C94A1000C94A1000C94A1000C94A10058
S11300A00C94A1000C94A1000C94A1000C94A10048
S11300B00C94A1007C089008AC081C093209700952
S11300C0C309F509480A4552000000000000000079
S11300D000000000000000000000FC0545525F52D3
S11300E04541440000000000000000000000000042
S11300F0020645525F425546000000000000000021
S11301000000000000005A0611241FBECFEFD8E003
S1130110DEBFCDBF11E0A0E0B1E0EAE1FAE102C048
S113012005900D92AE34B107D9F722E0AEE4B1E008
S113013001C01D92AE3EB207E1F70E9471020C9419
S11301400B0D0C940000FC0190915101292F30E01B
S113015040815181220F331FD901AA5ABE4F4D93BA
S11301605C9342815381D901AE59BE4F4D935C9348
S113017044815581F901E256FE4F518340839F5FCC
S1130180963019F09093510102C010925101809160
S1130190510190915001891303C08F5F80935001E6
S11301A080915001863011F4109250010895FC01A1
S11301B090914F01292F30E040815181220F331F4C
S11301C0D901A658BE4F4D935C9342815381D90106
S11301D0AE56BE4F4D935C9344815581F901E2596B
S11301E0FE4F518340839F5F963019F090934F01E7
S11301F002C010924F0180914F0190914E018913DA
S113020003C08F5F80934E0180914E01863011F4BC
S113021010924E010895DC01E0915001F0E0EE0FE0
S1130220FF1FEA5AFE4F8081918111969C938E9311
S113023090915001292F30E0220F331FF901EE591C
S1130240FE4F4081518113965C934E931297F901AE
S1130250E256FE4F2081318115963C932E931497DC
S11302609F5F963019F090935001089510925001B9
S11302700895DC01E0914E01F0E0EE0FFF1FE65817
S1130280FE4F8081918111969C938E9390914E01A3
S1130290292F30E0220F331FF901EE56FE4F408123
S11302A0518113965C934E931297F901E259FE4FD4
S11302B02081318115963C932E9314979F5F96303D
S11302C019F090934E01089510924E010895809173
S11302D0510190915001891B863008F08A5F08957E
S11302E080914F0190914E01891B863008F08A5FFE
S11302F00895DF92EF92FF920F931F93CF93DF93B2
S113030000D000D000D0CDB7DEB77C018B010E94B5
S11303106701F80180838823E1F0D12CCE01019696
S11303200E940B01ED2DF0E0EE0FFF1FEE0DFF1DFF
S113033089819A81918380838B819C819387828731
S11303408D819E81958B848BD394F8018081D816FE
S113035028F326960FB6F894DEBF0FBECDBFDF910B
S1130360CF911F910F91FF90EF90DF900895DF924E
S1130370EF92FF920F931F93CF93DF9300D000D09F
S113038000D0CDB7DEB77C018B010E947001F8016B
S113039080838823E1F0D12CCE0101960E9439019B
S11303A0ED2DF0E0EE0FFF1FEE0DFF1D89819A8108
S11303B0918380838B819C81938782878D819E81A9
S11303C0958B848BD394F8018081D81628F32696D4
S11303D00FB6F894DEBF0FBECDBFDF91CF911F9152
S11303E00F91FF90EF90DF90089584EA8093BC0012
S11303F0ECEBF0E080818823ECF7089584E98093A6
S1130400BC00ECEBF0E0808184FDFDCF0895809387
S1130410BB0084E88093BC00ECEBF0E0808188238F
S1130420ECF7089520E4829FC0011124846880932E
S1130430BC00ECEBF0E080818823ECF78091BB00FA
S113044008951F93CF93DF93182FD62FC42F0E94A4
S1130450F501812F880F0E9407028D2F0E94070249
S11304608C2F0E9407020E94FE01DF91CF911F9101
S11304700895EF92FF920F931F93CF93DF93162F5C
S1130480D42FE22EF32EC82FCC0F0E94F5018C2F0F
S11304900E940702812F0E9407020E94F50181E059
S11304A08C0F0E940702CFEFCD0FDD2389F00E2DB4
S11304B01F2DD1E0F12C8D2FC11101C08F2D0E9471
S11304C01202F80181938F018C2FC1508111F3CF57
S11304D00E94FE01DF91CF911F910F91FF90EF9049
S11304E0089580E284B91092B9008CE08093B8003A
S11304F084E08093BC000E946B0A789480E091E0D1
S11305000E94A00A66E871E08CE891E00E948F02E4
S11305100E94C1040E94A90B0E945205FBCF2F9296
S11305203F924F925F926F927F928F929F92AF927F
S1130530BF92CF92DF92EF92FF920F931F93CF93CC
S1130540DF93CDB7DEB7A4970FB6F894DEBF0FBE26
S1130550CDBF9AA389A37CA36BA340E850E06BE6CC
S113056070E088E690E00E9421022FEF31EE44E033
S1130570215030404040E1F700C0000041E050E02D
S11305806BE670E088E690E00E94210240E050E0D3
S11305906CE670E088E690E00E9421025FEF63EC75
S11305A079E0515060407040E1F700C0000040E045
S11305B050E068E370E088E690E00E94210240E0A9
S11305C050E063E270E088E690E00E94210240E09F
S11305D050E06BE670E088E690E00E94210240E083
S11305E050E064E270E088E690E00E94210240E07E
S11305F050E06AE670E088E690E00E9421024CE058
S113060050E06AE670E088E690E00E9421028FE5FF
S11306109AEE0197F1F700C0000041E050E06AE172
S113062070E088E690E00E94210240E050E069E139
S113063070E088E690E00E94210240E050E06BE127
S113064070E088E690E00E94210240E050E06CE116
S113065070E088E690E00E94210240E450E06AE6FF
S113066070E088E690E00E94210248E750E063E2EF
S113067070E088E690E00E942102AFE1BEE41197A9
S1130680F1F700C00000BFEFEFE8F1E0B150E04047
S1130690F040E1F700C00000198E1A8E1B8E1C8EEC
S11306A0412C512C3201812C912C54011D8A1E8A1B
S11306B01F8A188E198A1A8A1B8A1C8A1D861E860E
S11306C01F86188AC12CD12C212C312C15C02FEF58
S11306D03FE841E0215030404040E1F700C00000D5
S11306E053E12516310441F440E050E063E270E048
S11306F088E690E00E9421029E012F5F3F4F42E076
S113070050E062E770E088E690E00E9439022981B7
S113071030E0322F22278A81282BABEABAEA0E94E2
S11307207F0C7C01F694E794F694E794F694E794AE
S1130730E114F10409F48FC000E010E09E012F5F82
S11307403F4F4CE050E064E770E088E690E00E94A0
S11307503902C11464E0D60608F077C07FEFC71AE7
S1130760D70A898190E0982F88272A81822B092E25
S1130770000CAA0BBB0B2D893E894F89588D280F7D
S1130780391F4A1F5B1F2D8B3E8B4F8B588F8B81DC
S113079090E0982F88272C81822B092E000CAA0B1D
S11307A0BB0B49895A896B897C89480F591F6A1F79
S11307B07B1F498B5A8B6B8B7C8B8D8190E0982FA0
S11307C088272E81822B092E000CAA0BBB0B2D85AA
S11307D03E854F855889280F391F4A1F5B1F2D8777
S11307E03E874F87588B8F8190E0982F88272885E4
S11307F0822B092E000CAA0BBB0B498D5A8D6B8DD5
S11308007C8D480F591F6A1F7B1F498F5A8F6B8F2E
S11308107C8F898590E0982F88272A85822B092E42
S1130820000CAA0BBB0B480E591E6A1E7B1E8B853F
S113083090E0982F88272C85822B092E000CAA0B78
S1130840BB0B880E991EAA1EBB1E0F5F1F4FE0161E
S1130850F10609F073CF5FEF251A350A64E1261615
S1130860310409F034CFC601A0E0B0E08D8F9E8F33
S1130870AF8FB8A36D897E898F89988D2D8D3E8D1C
S11308804F8D58A10E945A0C2D8B3E8B4F8B588F45
S113089069897A898B899C892D8D3E8D4F8D58A1CC
S11308A00E945A0C298B3A8B4B8B5C8B6D857E8511
S11308B08F8598892D8D3E8D4F8D58A10E945A0C9D
S11308C069017A01698D7A8D8B8D9C8D2D8D3E8D7C
S11308D04F8D58A10E945A0C2D873E874F87588B05
S11308E0C301B2012D8D3E8D4F8D58A10E945A0C2B
S11308F029013A01C501B4012D8D3E8D4F8D58A1BA
S11309000E945A0C1C141D041E041F0434F4D70145
S1130910C6019054A109B10905C0D701C601905C74
S1130920AF4FBF4F6D857E85E9A1FAA171836083C6
S113093053824282358324832D893E89EBA1FCA115
S11309403183208349895A895383428395838483DD
S1130950A4960FB6F894DEBF0FBECDBFDF91CF9142
S11309601F910F91FF90EF90DF90CF90BF90AF90C9
S11309709F908F907F906F905F904F903F902F90BB
S1130980089540E850E06BE670E088E690E00E944D
S113099021022FEF81EE94E0215080409040E1F756
S11309A000C0000041E050E06BE670E088E690E0B3
S11309B00E94210240E050E06CE670E088E690E09E
S11309C00E9421022FEF83EC99E021508040904057
S11309D0E1F700C0000040E050E068E370E088E622
S11309E090E00E94210240E050E063E270E088E67B
S11309F090E00E94210240E050E06BE670E088E65F
S1130A0090E00E94210240E050E064E270E088E659
S1130A1090E00E94210240E050E06AE670E088E63F
S1130A2090E00E9421024CE050E06AE670E088E623
S1130A3090E00E9421028FE59AEE0197F1F700C041
S1130A40000043E050E06AE170E088E690E00E9434
S1130A50210244E050E069E170E088E690E00E9401
S1130A60210240E050E06BE170E088E690E00E94F3
S1130A70210240E050E06CE170E088E690E00E94E2
S1130A80210240E450E06AE670E088E690E00E94CB
S1130A90210248E750E063E270E088E690E00E94BB
S1130AA0210208958F929F92AF92BF92CF92DF92CC
S1130AB0EF92FF920F931F93CF93DF93CDB7DEB7DF
S1130AC068970FB6F894DEBF0FBECDBF9E012F5FAF
S1130AD03F4F42E050E062E770E088E690E00E9419
S1130AE039028A819BEA899FC12C1124C694C69439
S1130AF0C69409F46EC0D12C0F2EF6E8EF2EF1E067
S1130B00FF2EF02D0CE811E09E012F5F3F4F4CE0CB
S1130B1050E064E770E088E690E00E943902EB81DF
S1130B20F0E0FE2FEE278C814F01882A6D8170E062
S1130B30762F66278E81682B4F8150E0542F4427EF
S1130B408885482B298530E0322F22278A85282B57
S1130B508B8590E0982F8827AC858A2BA981B0E0FB
S1130B60BA2FAA27BA80AB29F701A080B180AA19AD
S1130B70BB09BC8BAB8BA281B381F401EA1BFB0BD9
S1130B80FE8BED8BD7011496ED91FC9115976E1B9E
S1130B907F0B788F6F8BF80160817181461B570B37
S1130BA05E874D8742815381241B350B388B2F87F9
S1130BB024813581821B930B9A8B898BCE010D96F0
S1130BC00E94A300CE0143960E94D700D394CD1077
S1130BD09BCF68960FB6F894DEBF0FBECDBFDF91F2
S1130BE0CF911F910F91FF90EF90DF90CF90BF9026
S1130BF0AF909F908F9008958CE091E00E94A00A9E
S1130C0080E00895CF93DF93CDB7DEB72C970FB66E
S1130C10F894DEBF0FBECDBFCE0101960E940B013A
S1130C20CE0107960E94390149815A81052E000C94
S1130C30660B770B8CE191E00E94960B4B815C81F3
S1130C40052E000C660B770B81E291E00E94960B57
S1130C504D815E81052E000C660B770B86E291E0D8
S1130C600E94960B4F815885052E000C660B770B5E
S1130C708BE291E00E94960B49855A85052E000C63
S1130C80660B770B80E391E00E94960B4B855C85A5
S1130C90052E000C660B770B85E391E00E94960B02
S1130CA080E02C960FB6F894DEBF0FBECDBFDF9167
S1130CB0CF9108953F924F925F926F927F928F925D
S1130CC09F92AF92BF92CF92DF92EF92FF920F93D7
S1130CD01F93CF93DF93CDB7DEB7A3970FB6F894E6
S1130CE0DEBF0FBECDBF0E9467018F8F882309F43A
S1130CF071C0BE01615E7F4FCE0101960E947901F1
S1130D003F8D332371F1FE013196C12CD12C760134
S1130D1040E050E0BA01812C912C540120E08191F3
S1130D209191092E000CAA0BBB0BC80ED91EEA1E0A
S1130D30FB1E80859185092E000CAA0BBB0B480F66
S1130D40591F6A1F7B1F82899389092E000CAA0BE5
S1130D50BB0B880E991EAA1EBB1E2F5F2313DFCF69
S1130D6009C0C12CD12C760140E050E0BA01812C9D
S1130D70912C5401432E512C612C712CCB01BA01BE
S1130D80A30192010E945A0C28A339A34AA35BA38E
S1130D90C501B401A30192010E945A0C49015A01F0
S1130DA0C701B601A30192010E945A0CBA01A9011C
S1130DB08CE191E00E94960B48A159A16AA17BA104
S1130DC081E291E00E94960BB501A40186E291E0D4
S1130DD00E94960B0E9470018F8F882309F4A6C08D
S1130DE0BE01615E7F4FCE0101960E94B7013F8C28
S1130DF0332009F462C08E010F5F1F4FC12CD12C28
S1130E007601C39418A219A21AA21BA2412C512C38
S1130E103201812C912C5401F0E0E0E0CC9CF00DE7
S1130E201124D8018D919D918D01DC01A7019601BA
S1130E300E94990C9B01AC01C701B6010E944A0CA7
S1130E4028A139A14AA15BA1260F371F481F591FAA
S1130E5028A339A34AA35BA3D80118968D919C912A
S1130E601997DC01A70196010E94990C9B01AC0122
S1130E70C701B6010E944A0C460E571E681E791E11
S1130E80D80152968D919C915397DC01A70196014C
S1130E900E94990C9B01AC01C701B6010E944A0C47
S1130EA0860E971EA81EB91EEF5FBFEFCB1ADB0A92
S1130EB0EB0AFB0AE311B2CF0BC018A219A21AA2C3
S1130EC01BA2412C512C3201812C912C5401F0E0B5
S1130ED0CF2ED12CE12CF12CC301B201A701960134
S1130EE00E945A0C29013A01C501B401A7019601D7
S1130EF00E945A0C49015A0168A179A18AA19BA1B7
S1130F00A70196010E945A0CBA01A9018BE291E053
S1130F100E94960BB301A20180E391E00E94960B1C
S1130F20B501A40185E391E00E94960B4F8D50E03A
S1130F3060E070E08AE391E00E94960B80E0A39663
S1130F400FB6F894DEBF0FBECDBFDF91CF911F91D6
S1130F500F91FF90EF90DF90CF90BF90AF909F9054
S1130F608F907F906F905F904F903F9008954F9235
S1130F705F926F928F929F92AF92BF92CF92DF92C5
S1130F80EF92FF920F931F93CF93DF93CDB7DEB70A
S1130F90A2970FB6F894DEBF0FBECDBFFE01319607
S1130FA09E012F5D3F4F11922E173F07E1F78617E1
S1130FB099F010E0A1E0B0E0AC0FBD1FA10FB11D8E
S1130FC0E82FF0E0E25BFD4F90819C938F5F8F717F
S1130FD01F5F6813EFCF01C010E0AE014F5D5F4F9C
S1130FE06BE471E0CE0101960E94E40C5C01FC010B
S1130FF001900020E9F731976E2E681A0F2EF6EC57
S1131000EF2EF0E0FF2EF02DC12CD12C00E0812E2C
S1131010912CC7010E94C30C681218C0A401B70127
S1131020C5010E94CC0C892B89F486E18C9DF001CA
S11310308D9DF00D1124E652FF4F2591349189A125
S11310409AA1F90109950330A1F409C00F5FFFEFDC
S1131050CF1ADF0A86E1E80EF11C0330D1F68DE3E6
S113106091E00E94830ACE0101960E94830A0E94A5
S1131070990AA2960FB6F894DEBF0FBECDBFDF91DA
S1131080CF911F910F91FF90EF90DF90CF90BF9081
S1131090AF909F908F906F905F904F9008951F92A4
S11310A00F920FB60F9211242F933F934F935F9398
S11310B08F939F93AF93BF93EF93FF93E091AD0111
S11310C0E695E695E695E7704E2F50E084E1E89FBB
S11310D0F0011124E255FE4F8081282F2E7FE389F1
S11310E08E2F90E0FC013497E930F10508F0E4C15B
S11310F0E65AFF4F0C94790C2093BB0085E880934B
S1131100BC00E091AD01E695E695E695E77084E1D3
S1131110E89FF0011124E255FE4F85E0838BCCC19A
S113112084E1849FF001859FF00D1124E255FE4F68
S113113091819093BB0095E89093BC00E091AD0140
S1131140E695E695E695E7708E9FF0011124E25549
S1131150FE4F86E0838BB0C184E1849FF001859FBC
S1131160F00D1124E255FE4F808180FF12C085EA04
S11311708093BC00E091AD01E695E695E695E770B5
S113118084E1E89FF0011124E255FE4F87E0838B50
S113119093C184E1849FF001859FF00D1124E255F1
S11311A0FE4F87858230E8F084E1849FF001859FBB
S11311B0F00D1124E255FE4F92819093BB0095E807
S11311C09093BC00E091AD01E695E695E695E77055
S11311D08E9FF0011124E255FE4F8BE0838B148621
S11311E01BC084E1849FF001859FF00D1124E2551A
S11311F0FE4F92819093BB0095E89093BC00E091E0
S1131200AD01E695E695E695E7708E9FF001112411
S1131210E255FE4F8CE0838BE091AD01E695E695B7
S1131220E695E77084E1E89FF0011124E255FE4F52
S113123087858150878740C181E0820F8093BB00FE
S113124085E88093BC00E091AD01E695E695E695CE
S1131250E77084E1E89FF0011124E255FE4F88E035
S1131260838B2AC184E1849FF001859FF00D1124B2
S1131270E255FE4F8785823090F085EC8093BC0068
S1131280E091AD01E695E695E695E77084E1E89F87
S1131290F0011124E255FE4F89E0838B11C085E8EB
S11312A08093BC00E091AD01E695E695E695E77084
S11312B084E1E89FF0011124E255FE4F8AE0838B1C
S11312C0E091AD01E695E695E695E77084E1E89F47
S11312D0F0011124E255FE4F878581508787ECC0C9
S11312E084E1849FF001859FF00D1124E255FE4FA7
S11312F0A585B6859D012F5F3F4F36872587909141
S1131300BB009C93E091AD01E695E695E695E77008
S11313108E9FF0011124E255FE4F8785823090F0B4
S113132085EC8093BC00E091AD01E695E695E695E9
S1131330E77084E1E89FF0011124E255FE4F89E053
S1131340838B11C085E88093BC00E091AD01E695E4
S1131350E695E695E77084E1E89FF0011124E255F3
S1131360FE4F8AE0838BE091AD01E695E695E69524
S1131370E77084E1E89FF0011124E255FE4F878570
S11313808150878799C084E1849FF001859FF00D87
S11313901124E255FE4FA585B6859D012F5F3F4F71
S11313A0368725879091BB009C93E091AD01E6952B
S11313B0E695E695E7708E9FF0011124E255FE4F05
S11313C0A089B18992899C9395E99093BC00E0919E
S11313D0AD01E695E695E695E7708E9FF001112440
S11313E0E255FE4F81E0838B67C084E1849FF00166
S11313F0859FF00D1124E255FE4F87858230E8F079
S113140084E1849FF001859FF00D1124E255FE4F85
S113141092819093BB0095E89093BC00E091AD015C
S1131420E695E695E695E7708E9FF0011124E25566
S1131430FE4F8BE0838B14861BC084E1849FF001F4
S1131440859FF00D1124E255FE4F92819093BB00CD
S113145095E89093BC00E091AD01E695E695E6959C
S1131460E7708E9FF0011124E255FE4F8CE0838BD0
S1131470E091AD01E695E695E695E77084E1E89F95
S1131480F0011124E255FE4F87858150878714C0EF
S113149085E98093BC00E091AD01E695E695E6957B
S11314A0E77084E1E89FF0011124E255FE4F81E0EA
S11314B0838B8FEF8093AA01FF91EF91BF91AF913E
S11314C09F918F915F914F913F912F910F900FBEFC
S11314D00F901F9018950E94D70B0895882391F0C0
S11314E08A3081F0E0915401F0E0E25BFD4F8083AB
S11314F0809154018F5F8F718093540180915401C6
S11315008091550108950F931F93CF93FC0180811F
S1131510882359F08F01C0E00E94E10BCF5FF801EE
S1131520EC0FF11D80818111F7CFCF911F910F91A5
S113153008958DE00E94E10B8AE00E94E10B08957A
S11315400E94830A0E94990A08954F925F926F92B3
S11315507F928F929F92AF92BF92CF92DF92EF923F
S1131560FF920F931F93CF93DF93CDB7DEB7A89766
S11315700FB6F894DEBF0FBECDBF6B017C01FE0138
S113158075968E010F5F1F4FCE014D96D8011192B3
S11315901D92E817F907D9F7FF200CF05DC081C050
S11315A05E0126E1A20EB11C992493940F2EFAE059
S11315B04F2E512C612C712CF02D01C0982EC70197
S11315C0B601A30192010E945A0C20E3260FD50113
S11315D02D935D01A7019601261B370B480B590B70
S11315E0CA01B901A30192010E945A0C69017A014E
S11315F0232B242B252B21F081E0890D8431F1F656
S113160021E0290D882054F402C021E0912CFE0130
S1131610E20FF11D8DE2858B22E0290D211102C01C
S11316200FC021E0E5E1F0E0EC0FFD1FE20FF11D3A
S113163080E09291D8019D938D018F5F8217C8F34A
S1131640E1E0F0E0EC0FFD1FE20FF11D1082CE018E
S113165001960E94830A53C00F2EFAE08F2E912C1C
S1131660A12CB12CF02DC701B601A50194010E9453
S11316705A0C20E3260F2D8BA7019601261B370B4E
S1131680480B590BCA01B901A50194010E945A0CD7
S113169069017A01232B242B252B19F288248394A6
S11316A07FCFF094E094D094C094C11CD11CE11C71
S11316B0F11C0F2EFAE08F2E912CA12CB12CF02DC1
S11316C0C701B601A50194010E945A0C20E3260F1C
S11316D02D8BA7019601261B370B480B590BCA010A
S11316E0B901A50194010E945A0C69017A01232BC6
S11316F0242B252B09F489CF88248A9451CFA896CA
S11317000FB6F894DEBF0FBECDBFDF91CF911F910E
S11317100F91FF90EF90DF90CF90BF90AF909F908C
S11317208F907F906F905F904F900895CF92DF924B
S1131730EF92FF926A017B010E94830AC701B601FE
S11317400E94A50A0E94990AFF90EF90DF90CF9023
S11317500895CF939091540180915501981729F1E0
S1131760C091550180915401C817F9F0EC2FF0E0B5
S1131770E25BFD4F80818D3091F407C0EC2FF0E0E7
S1131780E25BFD4F80818D3051F4809155016C2FC7
S11317900E94B707CF5FCF71C093550106C0CF5FDA
S11317A0CF71809154018C13E9CFCF91089583E0D8
S11317B090E09093C5008093C40088ED8093C100AD
S11317C008959091C00095FF09C020915201909115
S11317D05301291303C08093C6000895E091520178
S11317E0F0E0E259FD4F8083809152018F5F8F7743
S11317F08093520108951F920F920FB60F921124F5
S11318008F939F93EF93FF93909153018091520193
S1131810981303C08091C6000EC0E0915301F0E01C
S1131820E259FD4F80818093C600809153018F5F00
S11318308F7780935301FF91EF919F918F910F9038
S11318400FBE0F901F9018951F920F920FB60F9214
S113185011242F933F934F935F936F937F938F93B1
S11318609F93AF93BF93EF93FF938091C6000E9421
S11318706E0AFF91EF91BF91AF919F918F917F91EC
S11318806F915F914F913F912F910F900FBE0F90E9
S11318901F901895DB018F939F930E948E0CBF912C
S11318A0AF91A29F800D911DA39F900DB29F900DAB
S11318B011240895052E97FB1EF400940E94710CC8
S11318C057FD07D00E94A10C07FC03D04EF40C94E2
S11318D0710C50954095309521953F4F4F4F5F4F78
S11318E0089590958095709561957F4F8F4F9F4F88
S11318F00895EE0FFF1F0590F491E02D0994A29F27
S1131900B001B39FC001A39F700D811D1124911DCF
S1131910B29F700D811D1124911D08950E947F0CAA
S1131920A59F900DB49F900DA49F800D911D11242F
S11319300895B7FF0C948E0C0E948E0C821B930B9F
S11319400895A1E21A2EAA1BBB1BFD010DC0AA1FFC
S1131950BB1FEE1FFF1FA217B307E407F50720F014
S1131960A21BB30BE40BF50B661F771F881F991F8F
S11319701A9469F760957095809590959B01AC01D8
S1131980BD01CF010895FC0105900020E9F7809581
S113199090958E0F9F1F0895FB01DC01415050402C
S11319A088F08D9181341CF08B350CF4805E659148
S11319B061341CF06B350CF4605E861B611171F3AD
S11319C0990B0895881BFCCFFA01A191B08100976F
S11319D019F41097E1F0CD01DC01CD010D90002048
S11319E011F4C00113C0FB012191222319F0201529
S11319F0D9F7F3CFFB012191201519F41E9211960A
S1131A0006C02223C1F70D900020A1F7D001FA01EE
S10D1A10A193B0830895F894FFCF6A
S1131A1A5561727420647A69616C610055617274EB
S1131A2A20697320776F726B696E670047205820AC
S1131A3A00472059200047205A20004120582000FE
S1131A4A412059200041205A200053200057726F28
S1111A5A6E6720636F6D6D616E643A2000004C
S9030000FC
