S0180000466C6967687420617373697374616E742E73726563B4
S11300000C94B1000C94CE000C94CE000C94CE0051
S11300100C94CE000C94CE000C94CE000C94CE0024
S11300200C94CE000C94CE000C94CE000C94CE0014
S11300300C94CE000C94CE000C94CE000C94CE0004
S11300400C94CF100C94CE000C94FF170C94CE009B
S11300500C94D7170C94CE000C94CE000C94CE00C4
S11300600C9407120C94CE000C94CE000C94CE0089
S11300700C942C0F0C94CE000C94CE000C94CE0057
S11300800C94CE000C942D110C9448110C94CE00B9
S11300900C94CE000C94CE000C94CE000C94CE00A4
S11300A00C94CE000C94CE000C94E1110C94CE0070
S11300B00C94CE00341248126412D412EA1228139B
S11300C07B13AD130014084AD73B3BCE016E84BCAE
S11300D0BFFDC12F3D6C74319ABD56833DDA3D009E
S11300E0C77F11BED9E4BB4C3E916BAAAABE0000E7
S11300F000803F00455200000000000000000000A6
S11301000000000000000000231445525F524541E6
S1130110440000000000000000000000000029145A
S113012045525F42554600000000000000000000F8
S113013000000000811445525F4442470000000063
S113014000000000000000000000D41445525F537A
S113015042555300000000000000000000000000B1
S1130160D71411241FBECFEFD8E0DEBFCDBF12E0FD
S1130170A0E0B1E0E2E6FCE302C005900D92A631F6
S1130180B107D9F725E0A6E1B2E001C01D92A13B79
S1130190B207E1F70E946E080C942F1E0C94000025
S11301A0E0E2F2E010861186128613861486158624
S11301B016861786E7EEF2E01086118612861386FD
S11301C0148615861686178688E290E090932E038F
S11301D080932D0328EC30E030935B0220935A0285
S11301E09093E6028093E5021092E0028091E0028F
S11301F08E7F8093E0021092FD021092FE02109214
S1130200FF02109200031092E1021092E202109297
S1130210E3021092E4020895FC0190911902292F3F
S113022030E040815181220F331FD901A05DBD4FC1
S11302304D935C9342815381D901A45ABD4F4D9390
S11302405C9344815581F901E15DFC4F5183408306
S11302509F5F953119F09093190202C01092190210
S11302608091190290911802891303C08F5F8093C3
S1130270180280911802853111F410921802089521
S1130280FC0190911702292F30E040815181220F07
S1130290331FD901A055BD4F4D935C9342815381C7
S11302A0D901AF5FBC4F4D935C9344815581F901F3
S11302B0EA57FD4F518340839F5F953119F0909326
S11302C0170202C010921702809117029091160231
S11302D0891303C08F5F80931602809116028531C3
S11302E011F4109216020895DC01E0911802F0E076
S11302F0EE0FFF1FE05DFD4F8081918111969C936D
S11303008E9390911802292F30E0220F331FF901A8
S1130310E45AFD4F4081518113965C934E9312979A
S1130320F901E15DFC4F2081318115963C932E93B8
S113033014979F5F953119F09093180208951092C5
S113034018020895DC01E0911602F0E0EE0FFF1FA1
S1130350E055FD4F8081918111969C938E939091ED
S11303601602292F30E0220F331FF901EF5FFC4FF3
S11303704081518113965C934E931297F901EA5789
S1130380FD4F2081318115963C932E9314979F5FE6
S1130390953119F09093160208951092160208955B
S11303A0FC0120911902215008F424E130E0220FCD
S11303B0331FD901A05DBD4F8D919C9191838083A2
S11303C0D901A45ABD4F8D919C9193838283D90105
S11303D0A15DBC4F8D919C91958384830895FC010C
S11303E020911702215008F424E130E0220F331F3A
S11303F0D901A055BD4F8D919C9191838083D901E2
S1130400AF5FBC4F8D919C9193838283D901AA578E
S1130410BD4F8D919C919583848308958091190299
S113042090911802891B853108F08B5E08958091A4
S1130430170290911602891B853108F08B5E08958E
S1130440CF92DF92EF92FF920F931F93CF93DF939C
S113045000D000D000D0CDB7DEB7662329F16C01FF
S11304607C018C01085D1F4F6150262F30E02F5F07
S11304703F4F220F331FC20ED31ECE0101960E949E
S1130480740189819A81F701819391937F012B8172
S11304903C81F801219331938F012D813E8137A353
S11304A026A3EC14FD0449F726960FB6F894DEBF94
S11304B00FBECDBFDF91CF911F910F91FF90EF90B1
S11304C0DF90CF900895CF92DF92EF92FF920F9337
S11304D01F93CF93DF9300D000D000D0CDB7DEB709
S11304E0662329F16C017C018C01085D1F4F61506A
S11304F0262F30E02F5F3F4F220F331FC20ED31E33
S1130500CE0101960E94A20189819A81F70181930B
S113051091937F012B813C81F801219331938F01C9
S11305202D813E8137A326A3EC14FD0449F72696BA
S11305300FB6F894DEBF0FBECDBFDF91CF911F91F0
S11305400F91FF90EF90DF90CF9008954F925F92BC
S11305506F927F928F929F92AF92BF92CF92DF92CF
S1130560EF92FF920F931F93CF93DF93EA016623D9
S1130570B9F1DC01FC01B8962FEF260F30E02F5FB4
S11305803F4F220F331F820F931F00E010E09801AA
S1130590812C912C5401C12CD12C76014D915D916B
S11305A02A01550F66087708040D151D261D371DF1
S11305B0419151912A01550F66087708840C951CC6
S11305C0A61CB71C46A157A12A01550F6608770837
S11305D0C40CD51CE61CF71CA817B907F9F609C00A
S11305E000E010E09801812C912C5401C12CD12CF5
S11305F07601462E512C612C712CC901B801A3013E
S113060092010E94C91A39832883C501B401A30148
S113061092010E94C91A3B832A83C701B601A30130
S113062092010E94C91A3D832C83DF91CF911F91BF
S11306300F91FF90EF90DF90CF90BF90AF909F907D
S11306408F907F906F905F904F900895EF92FF92FC
S11306501F93CF93DF93CDB7DEB7C857D1090FB639
S1130660F894DEBF0FBECDBF7C010E940E02182F8E
S1130670682FCE0101960E942002A701612FCE01AE
S113068001960E94A602C858DF4F0FB6F894DEBF49
S11306900FBECDBFDF91CF911F91FF90EF900895D2
S11306A02F923F924F925F926F927F928F929F927E
S11306B0AF92BF92CF92DF92EF92FF920F931F936C
S11306C0CF93DF93CDB7DEB727970FB6F894DEBF8D
S11306D00FBECDBF5E834D83662309F466C08C01D3
S11306E0FC01B8966150262E312C25E1220E311CD6
S11306F0220C331C280E391EC12CD12C7601C39434
S113070019821A821B821C82412C512C3201812CA9
S1130710912C54011F824F81CC9C400D11244F8396
S1130720D8018D919D918D01DC01A70196010E9454
S1130730171B9B01AC01C701B6010E94971A2981BE
S11307403A814B815C81260F371F481F591F29832B
S11307503A834B835C83A191B191A70196010E94D6
S1130760171B9B01AC01C701B6010E94971A460EE4
S1130770571E681E791EA6A1B7A1A70196010E9463
S1130780171B9B01AC01C701B6010E94971A860E84
S1130790971EA81EB91E3FEFC31AD30AE30AF30A31
S11307A0E215F30509F0B7CF0BC019821A821B8238
S11307B01C82412C512C3201812C912C54011F821A
S11307C0FF81CF2ED12CE12CF12C69817A818B8190
S11307D09C81A70196010E94C91AAD81BE812D9307
S11307E03C93C301B201A70196010E94C91AED818D
S11307F0FE8133832283C501B401A70196010E94BF
S1130800C91AAD81BE8115963C932E9314972796F1
S11308100FB6F894DEBF0FBECDBFDF91CF911F910D
S11308200F91FF90EF90DF90CF90BF90AF909F908B
S11308308F907F906F905F904F903F902F9008958E
S1130840EF92FF921F93CF93DF93CDB7DEB7C857D4
S1130850D1090FB6F894DEBF0FBECDBF7C010E9454
S11308601702182F682FCE0101960E946302A70178
S1130870612FCE0101960E945003C858DF4F0FB676
S1130880F894DEBF0FBECDBFDF91CF911F91FF90D3
S1130890EF900895FC01A9E5B3E012968D919C9127
S11308A013978C5A91099283818314968D919C910C
S11308B01597805E93409483838316968D919C91C3
S11308C01797805E93409683858318968D919C91AB
S11308D01997805E9340908787838D919C9111979F
S11308E080831A968D919C911B97805E934092878A
S11308F081871C968D919C911D97805E934094876F
S113090083871E968D919C911F97805E9340968756
S1130910858750968D919C915197805E9340908BE2
S1130920878752968D919C915397803E934010F403
S1130930118A02C081E0818B80916D0390916E03D6
S1130940803E934018F481E0828B01C0128AA9E5AD
S1130950B3E056968D919C915797805E9340948B0B
S1130960838B58964D915C915997CA01880F991FB2
S1130970880F991F480F591F4B5553419A01ADE9F0
S1130980BFE80E94F61A481B590B56954795840FE9
S1130990951F96958795929582958F7089279F705C
S11309A0892724E630E0A901481B590BCA010097A6
S11309B011F481E090E0858B80917303909174032E
S11309C08C3A910529F482EC91E0978B868B0EC0CA
S11309D08091730390917403803E934029F486E9D7
S11309E090E0978B868B02C0178A168A80917503D4
S11309F0909176038C3A910529F483E090E0918FED
S1130A00808F0EC08091750390917603803E934051
S1130A1029F481E090E0918F808F02C0118E108EB6
S1130A2080917703909178038C3A910529F48BE4B3
S1130A3090E0938F828F0EC080917703909178031A
S1130A40803E934029F489E190E0938F828F02C025
S1130A50138E128E8091790390917A03833197409B
S1130A6019F481E0848F0895148E08952F923F9293
S1130A704F925F926F927F928F929F92AF92BF92AA
S1130A80CF92DF92EF92FF920F931F93CF93DF9356
S1130A90CDB7DEB72A970FB6F894DEBF0FBECDBF31
S1130AA08DE1E6EAF3E0A3ECB3E001900D928A95C0
S1130AB0E1F786EA93E00E944A04E6EAF3E0468915
S1130AC05789A0E2B2E011965C934E93208D318D4C
S1130AD013963C932E931297828D938D15969C9327
S1130AE08E931497A7EEB2E011965C934E931396EF
S1130AF03C932E93129715969C938E931497808112
S1130B0083FF11C095B182E0892785B9E1EEF3E056
S1130B108CE29CE49283818380EF95E595838483C2
S1130B20908787832EC28091C203882369F08091C5
S1130B302B038F5F80932B038F3F41F4E0911A02C4
S1130B40F0911B02099502C010922B03E6EAF3E030
S1130B5081819281A0E0B0E06C017D01CC0CDD1CB0
S1130B60EE1CFF1CCC0CDD1CEE1CFF1CCC0CDD1C95
S1130B70EE1CFF1CC80ED91EEA1EFB1EF694E79459
S1130B80D794C7942CE2C20E2CE4D21EE11CF11CB3
S1130B90828981119EC02091B9033091BA032F5FDD
S1130BA03F4FA4E6B0E00E94F61A23E333E040E0AE
S1130BB050E00E94A71A49015A01A091A903B091DB
S1130BC0AA0320E43FE10E94051B0F2EF8E64F2EF6
S1130BD0F6E05F2E612C712CF02DA30192010E948E
S1130BE0C91A29833A834B835C8309811A81A091B2
S1130BF0AB03B091AC0320E43FE10E94051BA301C9
S1130C0092010E94C91A2D833E834F8358878D8198
S1130C109E819A87898794E689169104F9F0AA241B
S1130C20BB24D801A50194010E94171B0F2EF4E6E2
S1130C304F2E512C612C712CF02DA30192010E9496
S1130C40C91A8901AD81BE81A50194010E94171BB7
S1130C50A30192010E94C91A3A8729870F2EF6EA46
S1130C60AF2EF3E0BF2EF02DF501A185B28520E46F
S1130C703FE10E94051B0F2EF8E64F2EF6E05F2E93
S1130C80612C712CF02DA30192010E94C91A480114
S1130C90820E931EF501A385B48520E43FE10E94F2
S1130CA0051BA30192010E94C91A89859A85820FA6
S1130CB0931F9A838983F501848D882309F4C9C01D
S1130CC00F2EF8E6CF2EF2E4DF2EE12CF12CF02DDE
S1130CD0C0C08090E1029090E202A090E302B09044
S1130CE0E4026091A9037091AA038091B3039091E7
S1130CF0B403680F791F072E000C880B990B0E9410
S1130D006B1920E030E040EB50E40E94261A0E9468
S1130D10331922273327261B370B032E000C440BD1
S1130D20550B00E212E0C501B4010E94470A9095F8
S1130D308095709561957F4F8F4F9F4F2091BB0396
S1130D4030E040E050E00E94C91AA22EB32E342EA7
S1130D50252E822F932FA42FB52F8131F7E29F07E1
S1130D60A105B1054CF4803F984DAF4FBF4F5CF0E7
S1130D700A2D132F48010DC00F2EF0E18F2EF7E23C
S1130D809F2EF02D06C00F2EF0EF8F2EF8ED9F2E24
S1130D90F02D4090FD025090FE026090FF02709092
S1130DA000036091AB037091AC038091B503909103
S1130DB0B603680F791F072E000C880B990B0E944D
S1130DC06B1920E030E040EB50E40E94261A0E94A8
S1130DD033199B01770F440B550B07EE12E0C30147
S1130DE0B2010E94470A2091BB0330E040E050E08A
S1130DF00E94C91A022F132F642E752E822F932F4F
S1130E00A42FB52F813137E29307A105B10544F42E
S1130E10803F984DAF4FBF4F44F009831A8309C0F8
S1130E2080E197E29A83898304C0E0EFF8EDFA83C6
S1130E30E9834A2D5B2D632D722D8AE191E00E9496
S1130E40B716402F512F662D772D8DE191E00E942A
S1130E50B71680EF95E588199909AC0129813A8183
S1130E60421B530B052E000C660B770B41303DE7FC
S1130E7053076105710520F040E05DE760E070E034
S1130E804836E2E45E076105710520F448E652E461
S1130E9060E070E029813A81280F391FC901330FBE
S1130EA0AA0BBB0B81303DE79307A105B10520F0E8
S1130EB080E09DE7A0E0B0E08836E2E49E07A1056B
S1130EC0B10508F44DC04130FDE75F0761057105C8
S1130ED038F4483622E452076105710530F009C040
S1130EE040E05DE760E070E004C048E652E460E0A2
S1130EF070E081303DE79307A105B10558F48836C9
S1130F00E2E49E07A105B105D8F488E692E4A0E0E6
S1130F10B0E016C080E09DE7A0E0B0E011C040E082
S1130F205DE760E070E088E692E4A0E0B0E008C02D
S1130F3048E652E460E070E088E692E4A0E0B0E0C5
S1130F40E1EEF3E0D282C1825583448390878783A4
S1130F508091B703882311F0299813C0299A11C0EE
S1130F604130FDE75F0761057105C8F6483622E4A4
S1130F70520761057105E0F288E692E4A0E0B0E072
S1130F80B8CF2A960FB6F894DEBF0FBECDBFDF915F
S1130F90CF911F910F91FF90EF90DF90CF90BF9072
S1130FA0AF909F908F907F906F905F904F903F9005
S1130FB02F90089580912C0380FF07C00E9436056E
S1130FC080912C038E7F80932C03089580E197E217
S1130FD090931901809318018091E00281608093BD
S1130FE0E002089584EA8093BC00ECEBF0E0808199
S1130FF08823ECF7089584E98093BC00ECEBF0E0DF
S1131000808184FDFDCF08958093BB0084E88093A4
S1131010BC00ECEBF0E080818823ECF7089520E439
S1131020829FC001112484688093BC00ECEBF0E043
S113103080818823ECF78091BB0008951F93CF93A0
S1131040DF93182FD62FC42F0E94F207812F880F09
S11310500E9404088D2F0E9404088C2F0E9404080B
S11310600E94FB07DF91CF911F910895EF92FF92A9
S11310700F931F93CF93DF93162FD42FE22EF32ECB
S1131080C82FCC0F0E94F2078C2F0E940408812FD6
S11310900E9404080E94F20781E08C0F0E94040859
S11310A0CFEFCD0FDD2389F00E2D1F2DD1E0F12CD4
S11310B08D2FC11101C08F2D0E940F08F80181935B
S11310C08F018C2FC1508111F3CF0E94FB07DF9158
S11310D0CF911F910F91FF90EF9008950E94D0003F
S11310E080E284B9219A87B1876087B91092B900E8
S11310F08CE08093B80084E08093BC002D98299AFA
S11311008BE030E222E095B1932795B995B192270F
S113111095B94FEF53EC99E0415050409040E1F7BE
S113112000C00000815079F70E948C15789481E208
S113113091E00E94C1156AED72E087EF92E00E948F
S1131140C90A0E94C50C0E94A7100E94190F0E9490
S1131150B0102D98299A0E9486170E94290D0E948A
S1131160B5100E94DA07F7CFCF92DF92EF92FF9289
S1131170CF93DF930097C1F1EC01072E000C880B8D
S1131180990B0E946B196B017C01BE010D2E000CA2
S1131190880B990B0E946B199B01AC01C701B60126
S11311A00E94C1180E9492181C161D064CF49B0143
S11311B0AC016BED7FE089EC9FE30E94251807C02A
S11311C02BED3FE049EC5FE30E942618905820E0A5
S11311D030E044E353E40E94261A2BED3FE049E457
S11311E050E40E94C11803C060E070E0CB01DF91BD
S11311F0CF91FF90EF90DF90CF9008958F929F92C0
S1131200AF92BF92CF92DF92EF92FF92FC01A08146
S1131210B181E280F380448155819D010E94EE1AE0
S11312204B015C019701D7010E94EE1A750164011C
S1131230C60ED71EE81EF91E9A01DA010E94EE1AA4
S11312406C0D7D1D8E1D9F1DFF90EF90DF90CF9044
S1131250BF90AF909F908F9008954F925F926F923E
S11312607F928F929F92AF92BF92CF92DF92EF9232
S1131270FF920F931F932B013C01D601C5018C5C97
S11312809C4CAC4CBC4088369646A646B640F8F01A
S11312902E0D3F1D401F511FA3E6B0E00E940C1B02
S11312A04B015C01C301B2010E9433196B017C0143
S11312B0C501B40124E630E040E050E00E94C91AC0
S11312C0C701B601620F731F841F951F24C02E0D22
S11312D03F1D401F511FAFE5B0E00E940C1B4B01A6
S11312E05C0120E030E040EA50E4C301B2010E9416
S11312F0261A0E9433196B017C01C501B40124E64E
S113130030E040E050E00E94C91AC701B601620F04
S1131310731F841F951F1F910F91FF90EF90DF9013
S1131320CF90BF90AF909F908F907F906F905F9081
S11313304F9008952F923F924F925F926F927F92B7
S11313408F929F92AF92BF92CF92DF92EF92FF92D1
S11313500F931F93CF93DF93CDB7DEB760970FB68C
S1131360F894DEBF0FBECDBF3C017A836983FB01D5
S113137044805580B201828193810E94B4086D83B8
S11313807E838F839887B201E981FA81808191817C
S11313900E94B4081B012C0189819A810E94FE08D5
S11313A069837A838B839C83F301A081B18124E6D2
S11313B030E00E94051B69877A878B879C87A2810E
S11313C0B3810E94051B6D877E878F87988BE09081
S11313D0FD02F090FE020091FF02109100030F2E17
S11313E0F2EB6F2EFCE07F2E812C912CF02D698581
S11313F07A858B859C85A40193010E94C91AA980D2
S1131400BA80CB80DC806D817E818F8198850E943B
S11314102D096093FD027093FE028093FF02909366
S11314200003E090E102F090E2020091E3021091E7
S1131430E4026D857E858F859889A40193010E94BD
S1131440C91AC201B10190580E942D096093E102AA
S11314507093E2028093E3029093E40260960FB6E5
S1131460F894DEBF0FBECDBFDF91CF911F910F91D6
S1131470FF90EF90DF90CF90BF90AF909F908F90B0
S11314807F906F905F904F903F902F9008954F9270
S11314905F926F927F928F929F92AF92BF92CF9200
S11314A0DF92EF92FF920F931F93F80169017A0183
S11314B0C61AD70AE80AF90AA281B3811097A1F1E2
S11314C0A70196010E940C1B80849184A284B3849A
S11314D0860E971EA81EB91E80869186A286B386A4
S11314E040805180612C712CA4EFB1E0A3019201E2
S11314F00E940C1B681579058A059B052CF46087EE
S113150071878287938714C0ACE0BEEFA301920178
S11315100E941A1B86169706A806B9064CF4608723
S113152071878287938704C010861186128613867A
S1131530A081B181A70196010E940C1B8084918433
S1131540A284B384860E971EA81EB91E8485958531
S1131550A685B785281B390B4A0B5B0BA481B58183
S11315600E940C1B680D791D8A1D9B1DC486D5869F
S1131570E686F7861F910F91FF90EF90DF90CF9052
S1131580BF90AF909F908F907F906F905F904F909F
S113159008952F923F924F925F926F927F928F9213
S11315A09F92AF92BF92CF92DF92EF92FF920F93EE
S11315B01F93CF93DF93CDB7DEB7A4970FB6F894FC
S11315C0DEBF0FBECDBF9AA389A37CA36BA340E863
S11315D06BE688E60E941E082FEF31EE44E02150AE
S11315E030404040E1F700C0000041E06BE688E68F
S11315F00E941E0840E06CE688E60E941E085FEF29
S113160063EC79E0515060407040E1F700C00000A5
S113161040E068E388E60E941E0840E063E288E652
S11316200E941E0840E06BE688E60E941E0840E027
S113163064E288E60E941E0840E06AE688E60E94AA
S11316401E084CE06AE688E60E941E088FE59AEEC2
S11316500197F1F700C0000041E06AE188E60E94CA
S11316601E0840E069E188E60E941E0848E06BE13C
S113167088E60E941E0840E06CE188E60E941E088D
S113168040E46AE688E60E941E0848E763E288E6CA
S11316900E941E08AFE1BEE41197F1F700C00000FC
S11316A0BFEFEFE8F1E0B150E040F040E1F700C0F7
S11316B00000198E1A8E1B8E1C8E412C512C320167
S11316C0812C912C54011D8A1E8A1F8A188E198A16
S11316D01A8A1B8A1C8A1D861E861F86188AC12C9C
S11316E0D12C212C312C12C02FEF3FE841E02150A6
S11316F030404040E1F700C0000053E125163104BA
S113170029F440E063E288E60E941E089E012F5FF0
S11317103F4F42E062E788E60E943608298130E0C4
S1131720322F22278A81282BABEABAEA0E94F61AC2
S11317307C01F694E794F694E794F694E794E11424
S1131740F10409F48CC000E010E09E012F5F3F4FCC
S11317504CE064E788E60E943608C11464E0D606CB
S113176008F077C07FEFC71AD70A898190E0982FD5
S113177088272A81822B092E000CAA0BBB0B2D89EA
S11317803E894F89588D280F391F4A1F5B1F2D8BA7
S11317903E8B4F8B588F8B8190E0982F88272C811C
S11317A0822B092E000CAA0BBB0B49895A896B8921
S11317B07C89480F591F6A1F7B1F498B5A8B6B8B7F
S11317C07C8B8D8190E0982F88272E81822B092E87
S11317D0000CAA0BBB0B2D853E854F855889280F1D
S11317E0391F4A1F5B1F2D873E874F87588B8F8178
S11317F090E0982F88272885822B092E000CAA0BAD
S1131800BB0B498D5A8D6B8D7C8D480F591F6A1FF8
S11318107B1F498F5A8F6B8F7C8F898590E0982F1F
S113182088272A85822B092E000CAA0BBB0B480E95
S1131830591E6A1E7B1E8B8590E0982F88272C8565
S1131840822B092E000CAA0BBB0B880E991EAA1E14
S1131850BB1E0F5F1F4FE016F10609F076CF5FEF56
S1131860251A350A64E12616310409F03DCFC60174
S1131870A0E0B0E08D8F9E8FAF8FB8A36D897E8975
S11318808F89988D2D8D3E8D4F8D58A10E94C91A38
S11318902D8B3E8B4F8B588F69897A898B899C89D4
S11318A02D8D3E8D4F8D58A10E94C91A298B3A8BDC
S11318B04B8B5C8B6D857E858F8598892D8D3E8DB8
S11318C04F8D58A10E94C91A69017A01698D7A8DD8
S11318D08B8D9C8D2D8D3E8D4F8D58A10E94C91AE4
S11318E02D873E874F87588BC301B2012D8D3E8DC6
S11318F04F8D58A10E94C91A29013A01C501B401AA
S11319002D8D3E8D4F8D58A10E94C91A1C141D04A3
S11319101E041F0434F4D701C6019054A109B1096F
S113192005C0D701C601905CAF4FBF4F6D857E8562
S1131930E9A1FAA1718360835382428235832483AF
S11319402D893E89EBA1FCA13183208349895A89E1
S11319505383428395838483A4960FB6F894DEBFA1
S11319600FBECDBFDF91CF911F910F91FF90EF90EC
S1131970DF90CF90BF90AF909F908F907F906F90AB
S11319805F904F903F902F90089540E86BE688E673
S11319900E941E082FEF81EE94E021508040904079
S11319A0E1F700C0000041E06BE688E60E941E08F3
S11319B040E06CE688E60E941E082FEF83EC99E075
S11319C0215080409040E1F700C0000040E068E30F
S11319D088E60E941E0840E063E288E60E941E0832
S11319E040E06BE688E60E941E0840E064E288E678
S11319F00E941E0840E06AE688E60E941E084CE049
S1131A006AE688E60E941E088FE59AEE0197F1F7D0
S1131A1000C0000043E06AE188E60E941E0844E03A
S1131A2069E188E60E941E0848E06BE188E60E94AE
S1131A301E0840E06CE188E60E941E0840E46AE665
S1131A4088E60E941E0848E763E288E60E941E08B2
S1131A5008956F927F929F92AF92BF92CF92DF923E
S1131A60EF92FF920F931F93CF93DF93CDB7DEB71F
S1131A7068970FB6F894DEBF0FBECDBF9E012F5FEF
S1131A803F4F42E062E788E60E9436088A819BEA7B
S1131A90899FC12C1124C694C694C69409F46CC0C1
S1131AA0D12C0F2EFAEDEF2EF2E0FF2EF02D07EFE2
S1131AB012E09E012F5F3F4F4CE064E788E60E94EE
S1131AC03608EB81F0E0FE2FEE278C813F01682A77
S1131AD06D8170E0762F66278E81682B4F8150E0F0
S1131AE0542F44278885482B298530E0322F22271C
S1131AF08A85282B8B8590E0982F8827AC858A2BA4
S1131B00D701AD90BC90A981B0E0BA2FAA279A80E2
S1131B10A929AA19BB09BC8BAB8BF701A281B3819C
S1131B20F301EA1BFB0BFE8BED8BD7011496ED91B1
S1131B30FC9115976E1B7F0B788F6F8BF80160817A
S1131B407181461B570B5E874D8742815381241B4D
S1131B50350B388B2F8724813581821B930B9A8B0D
S1131B60898BCE010D960E940C01CE0143960E94F2
S1131B704001D394CD109DCF68960FB6F894DEBF84
S1131B800FBECDBFDF91CF911F910F91FF90EF90CA
S1131B90DF90CF90BF90AF909F907F906F9008950B
S1131BA080917C038F3009F013C1809194038111DB
S1131BB00FC180917B03883109F00AC1ECE7F3E09F
S1131BC08181228190E0922B9770A9E5B3E013966E
S1131BD09C938E9312972281838126952695269530
S1131BE030E2839FC0011124822B977015969C9339
S1131BF08E931497938124818581929596959695D9
S1131C00937030E0220F331F220F331F292B90E0F3
S1131C10982F8827990F990F822B932B97701796DB
S1131C209C938E93169725818681269530E8839F11
S1131C30C0011124822B977019969C938E93189748
S1131C402681878122952F7030E1839FC001112462
S1131C50822B97701B969C938E931A97978120855D
S1131C608185991F9927991F30E0220F331F292B53
S1131C7090E0982F8827990F822B932B97701D96AD
S1131C809C938E931C97218582852695269530E416
S1131C90839FC0011124822B97701F969C938E936F
S1131CA01E972285838522952695277090E0880FBC
S1131CB0991F880F991F880F991F822B51969C9307
S1131CC08E9350978485258590E0922B9770539638
S1131CD09C938E93529725858685269526952695E1
S1131CE030E2839FC0011124822B977055969C93F8
S1131CF08E93549796852785808992959695969587
S1131D00937030E0220F331F220F331F292B90E0F2
S1131D10982F8827990F990F822B932B977057969A
S1131D209C938E93569720898189269530E8839FCA
S1131D30C0011124822B977059969C938E935897C7
S1131D402189828922952F7030E1839FC00111245B
S1131D50822B97705B969C938E935A9792892389D2
S1131D608489991F9927991F30E0220F331F292B4B
S1131D7090E0982F8827990F822B932B97705D966C
S1131D809C938E935C97248985892695269530E4C7
S1131D90839FC0011124822B97705F969C938E932E
S1131DA05E972589868922952695277090E0880F6D
S1131DB0991F880F991F880F991F822B91969C93C6
S1131DC08E939097878990E011969C938E932DC063
S1131DD080917C038F3021F08DE291E00E94C11547
S1131DE080919403882321F08EE391E00E94C11531
S1131DF080917B038831C9F060917B0370E08FE4AC
S1131E0091E00E94791711C0FC01E458FC4F208333
S1131E1001968A319105C1F78FEF9FEF90930301EB
S1131E208093020180937B03089580E090E02FEF7C
S1131E30EBCFEAECF0E080818861808389E090E078
S1131E409093CD008093CC0080E98093C90087E50E
S1131E5091E00E94C11508951F920F920FB60F9240
S1131E6011248F939F93EF93FF938091CE008F3033
S1131E70A9F490910001943088F010927B03E091D2
S1131E807B03F0E0E458FC4F808384E090E090937F
S1131E90030180930201109201011FC090917B0302
S1131EA0983161F4E0917B03F0E0E458FC4F8FEF4C
S1131EB0808310920301109202010FC090917B0362
S1131EC09F3F59F090917B039F5F90937B03E09138
S1131ED07B03F0E0E458FC4F808310920001FF91F3
S1131EE0EF919F918F910F900FBE0F901F901895B7
S1131EF08FEF9FEF90931901809318018091E00276
S1131F008E7F8093E0020895CF93DF93CDB7DEB741
S1131F102C970FB6F894DEBF0FBECDBF84E190E0DE
S1131F2090935B0280935A020E940E02882321F050
S1131F30CE0101960E9426030E941702882321F0F5
S1131F40CE0107960E942004BE01695F7F4FCE0137
S1131F5001960E949A092C960FB6F894DEBF0FBE24
S1131F60CDBFDF91CF91089588E290E09093E6028F
S1131F708093E5028091E00280FF18C04091FD0249
S1131F805091FE026091FF02709100038DE691E092
S1131F900E94B7164091E1025091E2026091E3027F
S1131FA07091E40282E791E00E94B71608950F93BE
S1131FB01F93CF93DF93CDB7DEB72C970FB6F8946A
S1131FC0DEBF0FBECDBF88E290E090932E038093D6
S1131FD02D038091E00280FFAFC009E513E0F80112
S1131FE06281738187E791E00E947917F801648127
S1131FF075818DE791E00E947917F80166817781F8
S113200083E891E00E947917F8016085718589E879
S113201091E00E947917F801628573858FE891E059
S11320200E947917F8016485758585E991E00E941D
S11320307917F801668577858BE991E00E94791715
S1132040F8016089718981EA91E00E947917F801A9
S11320506289738987EA91E00E947917F80164899B
S113206075898DEA91E00E947917F801668977896C
S113207084EB91E00E947917F801608D718D8BEBF0
S113208091E00E947917F801628D738D82EC91E0E2
S11320900E947917F801648D758D89EC91E00E9496
S11320A07917F801668D778D80ED91E00E9479179C
S11320B0CE0107960E94D001CE0101960E94EF0145
S11320C04F815885052E000C660B770B87ED91E048
S11320D00E94B71649855A85052E000C660B770BAE
S11320E08CED91E00E94B7164B855C85052E000CA3
S11320F0660B770B81EE91E00E94B71649815A81F5
S1132100052E000C660B770B86EE91E00E94B71645
S11321104D815E81052E000C660B770B8BEE91E0F2
S11321200E94B7164B815C81052E000C660B770B61
S113213080EF91E00E94B7162C960FB6F894DEBF9C
S11321400FBECDBFDF91CF911F910F910895EEE6A1
S1132150F0E080818160808385B5836085BD0895CA
S11321600E9414110E94B71108950F931F93CF93E7
S1132170DF93C4E0D1E008E111E0E881F9818081D6
S11321809181892B19F4EA81FB8109952496C01762
S1132190D10799F7DF91CF911F910F9108951F9265
S11321A00F920FB60F9211242F933F934F938F9357
S11321B09F93AF93BF93EF93FF93E4E0F1E028E1A3
S11321C031E0A081B1818D919C91119701978E3F4F
S11321D04FEF940710F48D939C933496E217F30712
S11321E081F7809101018F3F19F08F5F8093010186
S11321F08091A5038F3F19F08F5F8093A503809191
S113220000018F3F19F08F5F80930001FF91EF91E0
S1132210BF91AF919F918F914F913F912F910F90CB
S11322200FBE0F901F901895E1E9F0E0808188605F
S1132230808380E49CE99093990080939800C19AEC
S1132240A1E7B0E08C9182608C93C29A8C918460F7
S11322508C9380818260808308951F920F920FB6C1
S11322600F9211248F939F9380912C03816080930C
S11322702C0388E893E190939B0080939A0010923A
S1132280E0039F918F910F900FBE0F901F901895B0
S11322901F920F920FB60F9211242F933F934F93D7
S11322A05F936F937F938F939F93AF93BF93EF93BA
S11322B0FF936091E003862F90E0FC01EE0FFF1F77
S11322C0E80FF91FEF51FC4F2181328121304DE796
S11322D0340760F0FC01EE0FFF1FE80FF91FEF5108
S11322E0FC4F20E03DE7328321830EC02836324480
S11322F058F4FC01EE0FFF1FE80FF91FEF51FC4FDC
S113230028E632E432832183FC01EE0FFF1F8E0F97
S11323109F1FFC01EF51FC4F818192810E94C311E8
S11323208091E0038F5F8093E003833078F490E042
S1132330019648E853E1849F9001859F300D949F56
S1132340300D112430939B0020939A00FF91EF915C
S1132350BF91AF919F918F917F916F915F914F91B9
S11323603F912F910F900FBE0F901F901895E1EAA7
S1132370F0E0808188608083C99AE2E7F0E08081A0
S11323808260808308950097D9F06093EC031092E3
S1132390A5001092A4009093A9008093A80028B1EE
S11323A081E090E00090EC0302C0880F991F0A942A
S11323B0E2F7822B88B9E1EAF0E0808181608083D2
S11323C008951F920F920FB60F9211242F938F939B
S11323D09F93EF93FF9328B181E090E00090EC038A
S11323E002C0880F991F0A94E2F78095822388B966
S11323F0E1EAF0E080818E7F8083FF91EF919F91ED
S11324008F912F910F900FBE0F901F9018951F92D0
S11324100F920FB60F9211242F933F934F935F9314
S11324208F939F93AF93BF93EF93FF93E091F00348
S1132430E695E695E695E7704E2F50E084E1E89F37
S1132440F0011124EF50FC4F8081282F2E7FE38967
S11324508E2F90E0FC013497E930F10508F0E4C1D7
S1132460E65AFF4F0C94E81A2093BB0085E880934A
S1132470BC00E091F003E695E695E695E77084E10B
S1132480E89FF0011124EF50FC4F85E0838BCCC111
S113249084E1849FF001859FF00D1124EF50FC4FDF
S11324A091819093BB0095E89093BC00E091F00378
S11324B0E695E695E695E7708E9FF0011124EF50BE
S11324C0FC4F86E0838BB0C184E1849FF001859F3B
S11324D0F00D1124EF50FC4F808180FF12C085EA7B
S11324E08093BC00E091F003E695E695E695E770ED
S11324F084E1E89FF0011124EF50FC4F87E0838BC7
S113250093C184E1849FF001859FF00D1124EF5065
S1132510FC4F87858230E8F084E1849FF001859F39
S1132520F00D1124EF50FC4F92819093BB0095E87D
S11325309093BC00E091F003E695E695E695E7708C
S11325408E9FF0011124EF50FC4F8BE0838B148697
S11325501BC084E1849FF001859FF00D1124EF508E
S1132560FC4F92819093BB0095E89093BC00E0915E
S1132570F003E695E695E695E7708E9FF001112449
S1132580EF50FC4F8CE0838BE091F003E695E695E9
S1132590E695E77084E1E89FF0011124EF50FC4FC9
S11325A087858150878740C181E0820F8093BB007B
S11325B085E88093BC00E091F003E695E695E69506
S11325C0E77084E1E89FF0011124EF50FC4F88E0AC
S11325D0838B2AC184E1849FF001859FF00D11242F
S11325E0EF50FC4F8785823090F085EC8093BC00DF
S11325F0E091F003E695E695E695E77084E1E89FBF
S1132600F0011124EF50FC4F89E0838B11C085E861
S11326108093BC00E091F003E695E695E695E770BB
S113262084E1E89FF0011124EF50FC4F8AE0838B92
S1132630E091F003E695E695E695E77084E1E89F7E
S1132640F0011124EF50FC4F878581508787ECC03F
S113265084E1849FF001859FF00D1124EF50FC4F1D
S1132660A585B6859D012F5F3F4F368725879091BD
S1132670BB009C93E091F003E695E695E695E77040
S11326808E9FF0011124EF50FC4F8785823090F02B
S113269085EC8093BC00E091F003E695E695E69521
S11326A0E77084E1E89FF0011124EF50FC4F89E0CA
S11326B0838B11C085E88093BC00E091F003E6951C
S11326C0E695E695E77084E1E89FF0011124EF5068
S11326D0FC4F8AE0838BE091F003E695E695E6955E
S11326E0E77084E1E89FF0011124EF50FC4F8785E7
S11326F08150878799C084E1849FF001859FF00D04
S11327001124EF50FC4FA585B6859D012F5F3F4FE7
S1132710368725879091BB009C93E091F003E69562
S1132720E695E695E7708E9FF0011124EF50FC4F7B
S1132730A089B18992899C9395E99093BC00E0911A
S1132740F003E695E695E695E7708E9FF001112477
S1132750EF50FC4F81E0838B67C084E1849FF001DC
S1132760859FF00D1124EF50FC4F87858230E8F0EF
S113277084E1849FF001859FF00D1124EF50FC4FFC
S113278092819093BB0095E89093BC00E091F00394
S1132790E695E695E695E7708E9FF0011124EF50DB
S11327A0FC4F8BE0838B14861BC084E1849FF00173
S11327B0859FF00D1124EF50FC4F92819093BB0044
S11327C095E89093BC00E091F003E695E695E695D4
S11327D0E7708E9FF0011124EF50FC4F8CE0838B47
S11327E0E091F003E695E695E695E77084E1E89FCD
S11327F0F0011124EF50FC4F87858150878714C066
S113280085E98093BC00E091F003E695E695E695B2
S1132810E77084E1E89FF0011124EF50FC4F81E060
S1132820838B8FEF8093ED03FF91EF91BF91AF9175
S11328309F918F915F914F913F912F910F900FBE78
S11328400F901F90189585EF91E00E94C11580E0CC
S11328500895CF93DF93CDB7DEB72C970FB6F894D6
S1132860DEBF0FBECDBFCE0101960E94D001CE01C6
S113287007960E94EF0149815A81052E000C660BD0
S1132880770B87ED91E00E94B7164B815C81052E92
S1132890000C660B770B8CED91E00E94B7164D810E
S11328A05E81052E000C660B770B81EE91E00E9491
S11328B0B7164F815885052E000C660B770B86EEF4
S11328C091E00E94B71649855A85052E000C660BC7
S11328D0770B80EF91E00E94B7164B855C85052E3F
S11328E0000C660B770B8BEE91E00E94B71680E02C
S11328F02C960FB6F894DEBF0FBECDBFDF91CF91FB
S11329000895CF93DF9300D000D000D0CDB7DEB7C9
S11329100E940E028823C1F0CE0101960E94260374
S113292049815A81052E000C660B770B87ED91E0E7
S11329300E94B7164B815C81052E000C660B770B49
S11329408CED91E00E94B7160E941702882311F1C2
S1132950CE0101960E94200449815A81052E000C63
S1132960660B770B86EE91E00E94B7164B815C8173
S1132970052E000C660B770B80EF91E00E94B716D2
S11329804D815E81052E000C660B770B8BEE91E07A
S11329900E94B71680E026960FB6F894DEBF0FBEED
S11329A0CDBFDF91CF9108950E94E6070895CF939C
S11329B0DF93C9E5D3E06A817B8187E791E00E94D8
S11329C079176C817D818DE791E00E9479176E8182
S11329D07F8183E891E00E9479176885798589E889
S11329E091E00E94791780E0DF91CF9108954F9292
S11329F05F926F928F929F92AF92BF92CF92DF922B
S1132A00EF92FF921F93CF93DF93CDB7DEB7A297D8
S1132A100FB6F894DEBF0FBECDBFFE0131969E0106
S1132A202F5D3F4F11922E173F07E1F7861799F05C
S1132A30E12CA1E0B0E0AC0FBD1FAE0DB11DE82F3D
S1132A40F0E0EF56FB4F90819C938F5F8F71E3947E
S1132A506813EFCF01C0E12CAE014F5D5F4F62EB15
S1132A6071E0CE0101960E94401B4C01FC010190D3
S1132A700020E9F731976E2E681A0F2EF4EFCF2E4F
S1132A80F0E0DF2EF02DA12CB12C10E0F12CC601CA
S1132A900E941F1B681218C0A701B601C4010E943E
S1132AA0281B892B89F486E18A9DF0018B9DF00D0A
S1132AB01124E85FFE4F2591349189A19AA1F9016F
S1132AC009951530A1F409C01F5FFFEFAF1ABF0AC3
S1132AD086E1C80ED11C1530D1F685E092E00E9443
S1132AE0A415CE0101960E94A4150E94BA15A296BF
S1132AF00FB6F894DEBF0FBECDBFDF91CF911F910B
S1132B00FF90EF90DF90CF90BF90AF909F908F9009
S1132B106F905F904F9008950E94B4170895882392
S1132B2091F08A3081F0E0911E02F0E0EF56FB4F05
S1132B30808380911E028F5F8F7180931E0280912B
S1132B401E0280911F0208950F931F93CF93FC01DF
S1132B508081882359F08F01C0E00E94BE17CF5FA7
S1132B60F801EC0FF11D80818111F7CFCF911F91F6
S1132B700F9108958DE00E94BE178AE00E94BE174F
S1132B8008950E94A4150E94BA1508954F925F9269
S1132B906F927F928F929F92AF92BF92CF92DF9269
S1132BA0EF92FF920F931F93CF93DF93CDB7DEB7CE
S1132BB0A8970FB6F894DEBF0FBECDBF6B017C01A2
S1132BC0FE0175968E010F5F1F4FCE014D96D80101
S1132BD011921D92E817F907D9F7FF200CF05DC098
S1132BE081C05E0126E1A20EB11C992493940F2E9C
S1132BF0FAE04F2E512C612C712CF02D01C0982E2F
S1132C00C701B601A30192010E94C91A20E3260F4D
S1132C10D5012D935D01A7019601261B370B480BA7
S1132C20590BCA01B901A30192010E94C91A690191
S1132C307A01232B242B252B21F081E0890D84316B
S1132C40F1F621E0290D882054F402C021E0912CF2
S1132C50FE01E20FF11D8DE2858B22E0290D211189
S1132C6002C00FC021E0E5E1F0E0EC0FFD1FE20F30
S1132C70F11D80E09291D8019D938D018F5F8217A1
S1132C80C8F3E1E0F0E0EC0FFD1FE20FF11D10824C
S1132C90CE0101960E94A41553C00F2EFAE08F2E88
S1132CA0912CA12CB12CF02DC701B601A5019401E2
S1132CB00E94C91A20E3260F2D8BA7019601261B1B
S1132CC0370B480B590BCA01B901A50194010E94A5
S1132CD0C91A69017A01232B242B252B19F2882484
S1132CE083947FCFF094E094D094C094C11CD11C01
S1132CF0E11CF11C0F2EFAE08F2E912CA12CB12C8B
S1132D00F02DC701B601A50194010E94C91A20E360
S1132D10260F2D8BA7019601261B370B480B590B49
S1132D20CA01B901A50194010E94C91A69017A0175
S1132D30232B242B252B09F489CF88248A9451CF63
S1132D40A8960FB6F894DEBF0FBECDBFDF91CF912A
S1132D501F910F91FF90EF90DF90CF90BF90AF90B5
S1132D609F908F907F906F905F904F900895CF9237
S1132D70DF92EF92FF926A017B010E94A415C701C2
S1132D80B6010E94C6150E94BA15FF90EF90DF901D
S1132D90CF900895EF92FF920F931F93CF93DF93F9
S1132DA0CDB7DEB760970FB6F894DEBF0FBECDBFC8
S1132DB0AC01FE0139968E010F5F1F4FCE01419683
S1132DC0D80111921D92E817F907D9F79A01ADECD1
S1132DD0BCEC0E94F61A96958795969587959695DC
S1132DE087959C01220F331F880F991F880F991F05
S1132DF0880F991F820F931F9A01281B390BC90151
S1132E0020E3280F29879A01281B390B0E94F61A00
S1132E10AC01569547955695479556954795411556
S1132E20510509F43FC07E013AE0E30EF11CE1E0F4
S1132E3001C0E82F9A01ADECBCEC0E94F61A9695FD
S1132E40879596958795969587959C01220F331FB4
S1132E50880F991F880F991F880F991F820F931F3E
S1132E60DA01A81BB90BCD0120E32A0FD7012D935A
S1132E707D019A01281B390BADECBCEC0E94F61ABB
S1132E80AC015695479556954795569547954115E6
S1132E90510521F081E08E0F883059F691E09E0FA4
S1132EA011F40FC091E0E9E0F0E0EC0FFD1FE90F31
S1132EB0F11D80E02291D8012D938D018F5F891738
S1132EC0C8F3E1E0F0E0EC0FFD1FE90FF11D108203
S1132ED0CE0101960E94A41560960FB6F894DEBF49
S1132EE00FBECDBFDF91CF911F910F91FF90EF9057
S1132EF00895CF93DF93EB010E94A415CE010E94A5
S1132F00CA160E94BA15DF91CF910895CF9390917C
S1132F101E0280911F02981729F1C0911F0280910F
S1132F201E02C817F9F0EC2FF0E0EF56FB4F80813A
S1132F308D3091F407C0EC2FF0E0EF56FB4F808109
S1132F408D3051F480911F026C2F0E94F714CF5FD3
S1132F50CF71C0931F0206C0CF5FCF7180911E0254
S1132F608C13E9CFCF91089583E090E09093C5004E
S1132F708093C40088ED8093C10008959091C000AF
S1132F8095FF09C020911C0290911D02291303C0D2
S1132F908093C6000895E0911C02F0E0EF54FB4FCB
S1132FA0808380911C028F5F80931C0208951F927E
S1132FB00F920FB60F9211248F939F93EF93FF9369
S1132FC090911D0280911C02981303C08091C60049
S1132FD00DC0E0911D02F0E0EF54FB4F808180931F
S1132FE0C60080911D028F5F80931D02FF91EF91B7
S1132FF09F918F910F900FBE0F901F9018951F9265
S11330000F920FB60F9211242F933F934F935F9318
S11330106F937F938F939F93AF93BF93EF93FF939C
S11330208091C6000E948F15FF91EF91BF91AF91DF
S11330309F918F917F916F915F914F913F912F91CC
S11330400F900FBE0F901F9018955058BB27AA27BA
S11330500E943D180C94E4190E94D61938F00E947D
S1133060DD1920F039F49F3F19F426F40C94AC19BF
S11330700EF4E095E7FB0C94A619E92F0E94F519CC
S113308058F3BA17620773078407950720F079F499
S1133090A6F50C94171A0EF4E0950B2EBA2FA02D5A
S11330A00B01B90190010C01CA01A0011124FF27F1
S11330B0591B99F0593F50F4503E68F11A16F040EC
S11330C0A22F232F342F4427585FF3CF46953795EB
S11330D02795A795F0405395C9F77EF41F16BA0BB0
S11330E0620B730B840BBAF09150A1F0FF0FBB1F5E
S11330F0661F771F881FC2F70EC0BA0F621F731FA7
S1133100841F48F4879577956795B795F7959E3F03
S113311008F0B0CF9395880F08F09927EE0F979594
S113312087950895DF93DD27B92FBF7740E85FE3E4
S11331301616170648075B0718F4D92F0E941E1AA3
S11331409F938F937F936F930E94931AE6ECF0E022
S11331500E94AF190E94E4192F913F914F915F9102
S11331600E94391ADD2351F09058A2EA2AED3FE07B
S113317049EC5FE3D0785D270E943D18DF910C9401
S1133180E4190E94D5180C94E4190E94DD1958F032
S11331900E94D61940F029F45F3F29F00C94A61937
S11331A051110C94181A0C94AC190E94F51968F377
S11331B09923B1F3552391F3951B550BBB27AA27EC
S11331C062177307840738F09F5F5F4F220F331F26
S11331D0441FAA1FA9F335D00E2E3AF0E0E832D0EE
S11331E091505040E695001CCAF72BD0FE2F29D0F1
S11331F0660F771F881FBB1F261737074807AB07C3
S1133200B0E809F0BB0B802DBF01FF2793585F4F37
S11332103AF09E3F510578F00C94A6190C94181AB4
S11332205F3FE4F3983ED4F3869577956795B79519
S1133230F7959F5FC9F7880F911D9695879597F924
S11332400895E1E0660F771F881FBB1F621773079D
S11332508407BA0720F0621B730B840BBA0BEE1FB2
S113326088F7E09508950E943A196894B1110C9476
S1133270181A08950E94FD1988F09F5798F0B92FE5
S11332809927B751B0F0E1F0660F771F881F991F97
S11332901AF0BA95C9F714C0B13091F00E94171A08
S11332A0B1E008950C94171A672F782F8827B85F18
S11332B039F0B93FCCF3869577956795B395D9F7EF
S11332C03EF490958095709561957F4F8F4F9F4FF9
S11332D00895E89409C097FB3EF490958095709505
S11332E061957F4F8F4F9F4F9923A9F0F92F96E94E
S11332F0BB279395F695879577956795B795F111C3
S1133300F8CFFAF4BB0F11F460FF1BC06F5F7F4F5F
S11333108F4F9F4F16C0882311F096E911C0772371
S113332021F09EE8872F762F05C0662371F096E87A
S1133330862F70E060E02AF09A95660F771F881F49
S1133340DAF7880F9695879597F9089597F99F6707
S113335080E870E060E008959FEF80EC0895DF93CB
S1133360CF931F930F93FF92EF92DF927B018C0117
S1133370689406C0DA2EEF010E94391AFE01E8941F
S1133380A5912591359145915591A6F3EF010E94A0
S11333903D18FE019701A801DA9469F7DF90EF90D8
S11333A0FF900F911F91CF91DF91089500240A940B
S11333B01616170618060906089500240A9412160C
S11333C01306140605060895092E0394000C11F43F
S11333D0882352F0BB0F40F4BF2B11F460FF04C0EC
S11333E06F5F7F4F8F4F9F4F089557FD9058440F45
S11333F0551F59F05F3F71F04795880F97FB991F50
S113340061F09F3F79F0879508951216130614060C
S1133410551FF2CF4695F1DF08C016161706180699
S1133420991FF1CF86957105610508940895E89474
S1133430BB2766277727CB0197F908959B01AC0139
S113344060E070E080E89FE30C94C1180E94391A90
S11334500C94E4190E94D61938F00E94DD1920F06A
S1133460952311F00C94A6190C94AC1911240C9406
S1133470181A0E94F51970F3959FC1F3950F50E047
S1133480551F629FF001729FBB27F00DB11D639F12
S1133490AA27F00DB11DAA1F649F6627B00DA11DB8
S11334A0661F829F2227B00DA11D621F739FB00D5E
S11334B0A11D621F839FA00D611D221F749F3327CE
S11334C0A00D611D231F849F600D211D822F762F67
S11334D06A2F11249F5750409AF0F1F088234AF044
S11334E0EE0FFF1FBB1F661F771F881F91505040B0
S11334F0A9F79E3F510580F00C94A6190C94181A54
S11335005F3FE4F3983ED4F3869577956795B79536
S1133510F795E7959F5FC1F7FE2B880F911D969550
S1133520879597F908959B01AC010C94261ADB0149
S11335308F939F930E940C1BBF91AF91A29F800D0C
S1133540911DA39F900DB29F900D11240895A1E2A7
S11335501A2EAA1BBB1BFD010DC0AA1FBB1FEE1F09
S1133560FF1FA217B307E407F50720F0A21BB30B54
S1133570E40BF50B661F771F881F991F1A9469F7D0
S113358060957095809590959B01AC01BD01CF012C
S11335900895052E97FB1EF400940E94E01A57FD2F
S11335A007D00E94A71A07FC03D04EF40C94E01A2B
S11335B050954095309521953F4F4F4F5F4F08955B
S11335C090958095709561957F4F8F4F9F4F08958B
S11335D0EE0FFF1F0590F491E02D09940E94F61A56
S11335E0332312F48A1B9B0B0C94071BA29FB0017C
S11335F0B39FC001A39F700D811D1124911DB29F23
S1133600700D811D1124911D08950E94F61AB7FFB3
S11336100895821B930B08950E94F61AA59F900D9E
S1133620B49F900DA49F800D911D11240895B7FFA0
S11336300C940C1B0E940C1B821B930B0895FC0121
S113364005900020E9F7809590958E0F9F1F0895AF
S1133650FB01DC014150504088F08D9181341CF015
S11336608B350CF4805E659161341CF06B350CF481
S1133670605E861B611171F3990B0895881BFCCF62
S1133680FA01A191B081009719F41097E1F0CD01EE
S1133690DC01CD010D90002011F4C00113C0FB0129
S11336A02191222319F02015D9F7F3CFFB012191A1
S11336B0201519F41E92119606C02223C1F70D900D
S11336C00020A1F7D001FA01A193B0830895ABE0E3
S11336D0B0E0EDE6FBE10C94F81D6C017B018A017E
S11336E0FC0117821682838181FFCCC1CE01019631
S11336F03C01F6019381F70193FD859193FF81913C
S11337007F01882309F4BAC1853239F493FD859188
S113371093FF81917F01853229F4B60190E00E94E4
S11337205E1DE7CF912C212C312CFFE1F315D8F04D
S11337308B3279F038F4803279F08332A1F4232D7E
S113374020611DC08D3261F0803369F4232D216026
S113375016C0832D8260382EE32DE4603E2E2AC0ED
S1133760F32DF8601DC037FC2DC020ED280F2A3042
S113377040F08E32B9F436FC81C1232D2064322E00
S113378019C036FE06C08AE0989E200D1124922EA0
S113379011C0EAE02E9E200D1124222EF32DF0629A
S11337A03F2E08C08C3621F4832D8068382E02C049
S11337B0883641F4F70193FD859193FF81917F0150
S11337C08111B3CF982F9F7D9554933028F40C5FCB
S11337D01F4F9FE399830DC0833631F0833771F017
S11337E0833509F059C021C0F801808189830E5FB7
S11337F01F4F88248394912C530113C02801F2E0B5
S11338004F0E511CF801A080B18036FE03C0692D13
S113381070E002C06FEF7FEFC5010E94531D4C01A1
S11338208201F32DFF773F2E16C0280122E0420EBD
S1133830511CF801A080B18036FE03C0692D70E0F0
S113384002C06FEF7FEFC5010E94481D4C01F32DAC
S1133850F0683F2E820133FC1BC0822D90E0881655
S11338609906B0F4B60180E290E00E945E1D2A94AD
S1133870F4CFF50137FC859137FE81915F01B601E4
S113388090E00E945E1D21102A9421E0821A910882
S11338908114910471F7E8C0843611F0893641F53A
S11338A0F80137FE07C060817181828193810C5FCA
S11338B01F4F08C060817181072E000C880B990B83
S11338C00E5F1F4FF32DFF763F2E97FF09C0909593
S11338D08095709561957F4F8F4F9F4FF0683F2E75
S11338E02AE030E0A3010E949A1D882E861845C064
S11338F0853731F4232D2F7EB22E2AE030E025C007
S1133900932D997FB92E8F36C1F018F4883579F04C
S1133910B5C0803719F0883721F0B0C0E92FE061D5
S1133920BE2EB4FE0DC0FB2DF460BF2E09C034FEC4
S11339300AC0292F2660B22E06C028E030E005C058
S113394020E130E002C020E132E0F801B7FE07C018
S113395060817181828193810C5F1F4F06C06081F9
S1133960718180E090E00E5F1F4FA3010E949A1DB9
S1133970882E8618FB2DFF773F2E36FE0DC0232D93
S11339802E7FA22E891458F434FE0BC032FC09C0D9
S1133990832D8E7EA82E05C0B82CA32C03C0B82C72
S11339A001C0B92CA4FE0FC0FE01E80DF11D8081F9
S11339B0803321F49A2D997EA92E09C0A2FE06C057
S11339C0B394B39404C08A2D867809F0B394A3FC0D
S11339D011C0A0FE06C0B21488F4280C922C9B18C7
S11339E00EC0B21460F4B60180E290E00E945E1D45
S11339F0B394F7CFB21418F42B1802C0982C212CCE
S1133A00A4FE10C0B60180E390E00E945E1DA2FEF9
S1133A1017C0A1FC03C088E790E002C088E590E0ED
S1133A20B6010CC08A2D867859F0A1FE02C08BE243
S1133A3001C080E2A7FC8DE2B60190E00E945E1D09
S1133A40891438F4B60180E390E00E945E1D9A94D4
S1133A50F7CF8A94F301E80DF11D8081B60190E05F
S1133A600E945E1D8110F5CF222009F442CEB601DA
S1133A7080E290E00E945E1D2A94F6CFF6018681D2
S1133A80978102C08FEF9FEF2B96E2E10C94141EF6
S1133A90FC010590615070400110D8F78095909515
S1133AA08E0F9F1F0895FC0161507040019001101A
S1133AB0D8F7809590958E0F9F1F08950F931F93AD
S1133AC0CF93DF93FB01238121FD03C08FEF9FEF91
S1133AD02CC022FF16C046815781248135814217AC
S1133AE0530744F4A081B1819D012F5F3F4F31837F
S1133AF020838C93268137812F5F3F4F3783268322
S1133B0014C08B01EC01FB010084F185E02D0995C3
S1133B10892BE1F6D80116968D919C911797019601
S1133B2017969C938E931697CE01DF91CF911F9198
S1133B300F910895FA01AA27283051F1203181F11B
S1133B40E8946F936E7F6E5F7F4F8F4F9F4FAF4FA1
S1133B50B1E03ED0B4E03CD0670F781F891F9A1FB4
S1133B60A11D680F791F8A1F911DA11D6A0F711D68
S1133B70811D911DA11D20D009F468943F912AE074
S1133B80269F11243019305D3193DEF6CF0108955C
S1133B90462F4770405D4193B3E00FD0C9F7F6CF8D
S1133BA0462F4F70405D4A3318F0495D31FD405255
S1133BB0419302D0A9F7EACFB4E0A69597958795EB
S1133BC077956795BA95C9F70097610571050895CA
S1133BD09B01AC010A2E0694579547953795279576
S1133BE0BA95C9F7620F731F841F951FA01D08950E
S1133BF02F923F924F925F926F927F928F929F92F9
S1133C00AF92BF92CF92DF92EF92FF920F931F93E6
S1133C10CF93DF93CDB7DEB7CA1BDB0B0FB6F89497
S1133C20DEBF0FBECDBF09942A88398848885F84D7
S1133C306E847D848C849B84AA84B984C884DF8048
S1133C40EE80FD800C811B81AA81B981CE0FD11D2C
S1133C500FB6F894DEBF0FBECDBFED010895F89402
S1053C60FFCF90
S1133C62FFFFFFFF5A02840F0201D00DE502B40FD9
S1133C722D03D70F1801780FFFFF53200050522055
S1133C82005561727420647A69616C610057726FC5
S1133C926E672053627573206672616D6500577298
S1133CA26F6E67206C617374206672616D65007358
S1133CB2627573203D20005362757320554152543E
S1133CC220696E697469616C697A6564004220587E
S1133CD220004220592000436820312000436820FC
S1133CE232200043682033200043682034200043FC
S1133CF2682035200043682036200043682037209E
S1133D02004368203820004368203920004368209B
S1133D1231302000436820313120004368203132A1
S1133D2220004368203133200043682031342000CE
S1133D32436820313520004720582000472059206D
S1133D420047205A2000412058200041205A2000D8
S1133D5241205920005561727420697320776F7273
S1133D626B696E670057726F6E6720636F6D6D616A
S1093D726E643A2000001B
S9030000FC
