S0180000466C6967687420617373697374616E742E73726563B4
S11300000C946E000C948B000C948B000C948B005D
S11300100C948B000C948B000C948B000C948B0030
S11300200C948B000C948B000C948B000C948B0020
S11300300C948B000C948B000C948B000C948B0010
S11300400C948B000C948B000C94FD090C948B0085
S11300500C94D4090C948B000C948B000C948B009E
S11300600C946C050C948B000C948B000C948B00FA
S11300700C948B000C948B000C948B000C948B00D0
S11300800C948B000C948B000C948B000C948B00C0
S11300900C948B000C948B000C948B000C948B00B0
S11300A00C948B000C948B000C948B000C948B00A0
S11300B00C948B009905AD05C90539064F068D06CC
S11300C0E00612076507455200000000000000002A
S11300D000000000000000000000F60411241FBE10
S11300E0CFEFD8E0DEBFCDBF11E0A0E0B1E0E6E89D
S11300F0F5E102C005900D92A436B107D9F722E0CC
S1130100A4E6B1E001C01D92A53CB207E1F70E944C
S113011009010C94C10A0C94000084EA8093BC0089
S1130120ECEBF0E080818823ECF7089584E9809378
S1130130BC00ECEBF0E0808184FDFDCF089580935A
S1130140BB0084E88093BC00ECEBF0E08081882362
S1130150ECF7089520E4829FC00111248468809301
S1130160BC00ECEBF0E080818823ECF78091BB00CD
S113017008951F93CF93DF93182FD62FC42F0E9477
S11301808D00812F880F0E949F008D2F0E949F0059
S11301908C2F0E949F000E949600DF91CF911F91A7
S11301A00895EF92FF920F931F93CF93DF93162F2F
S11301B0D42FE22EF32EC82FCC0F0E948D008C2F4B
S11301C00E949F00812F0E949F000E948D0081E069
S11301D08C0F0E949F00CFEFCD0FDD2389F00E2DF1
S11301E01F2DD1E0F12C8D2FC11101C08F2D0E9444
S11301F0AA00F80181938F018C2FC1508111F3CF94
S11302000E949600DF91CF911F910F91FF90EF9084
S1130210089580E284B91092B9008CE08093B8000C
S113022084E08093BC000E948807789480E091E089
S11302300E94BD076091740170E08CE091E00E941F
S1130240750965E771E08BE791E00E942E010E9439
S113025060030E9482090E94F103FBCF2F923F9218
S11302604F925F926F927F928F929F92AF92BF92C2
S1130270CF92DF92EF92FF920F931F93CF93DF936E
S1130280CDB7DEB7A4970FB6F894DEBF0FBECDBFCF
S11302909AA389A37CA36BA340E850E06BE670E0CB
S11302A088E690E00E94B9002FEF31EE44E021503F
S11302B030404040E1F700C0000041E050E06BE610
S11302C070E088E690E00E94B90040E050E06CE6FF
S11302D070E088E690E00E94B9005FEF63EC79E09B
S11302E0515060407040E1F700C0000040E050E031
S11302F068E370E088E690E00E94B90040E050E0D6
S113030063E270E088E690E00E94B90040E050E0CB
S11303106BE670E088E690E00E94B90040E050E0AF
S113032064E270E088E690E00E94B90040E050E0AA
S11303306AE670E088E690E00E94B9004CE050E084
S11303406AE670E088E690E00E94B9008FE59AEED4
S11303500197F1F700C0000041E050E06AE170E06D
S113036088E690E00E94B90040E050E069E170E066
S113037088E690E00E94B90040E050E06BE170E054
S113038088E690E00E94B90040E050E06CE170E043
S113039088E690E00E94B90040E450E06AE670E02C
S11303A088E690E00E94B90048E750E063E270E01C
S11303B088E690E00E94B900AFE1BEE41197F1F73E
S11303C000C00000BFEFEFE8F1E0B150E040F040C2
S11303D0E1F700C00000198E1A8E1B8E1C8E412C72
S11303E0512C3201812C912C54011D8A1E8A1F8AA2
S11303F0188E198A1A8A1B8A1C8A1D861E861F86D5
S1130400188AC12CD12C212C312C15C02FEF3FE898
S113041041E0215030404040E1F700C0000053E18A
S11304202516310441F440E050E063E270E088E6D0
S113043090E00E94B9009E012F5F3F4F42E050E0E0
S113044062E770E088E690E00E94D100298130E004
S1130450322F22278A81282BABEABAEA0E94480A63
S11304607C01F694E794F694E794F694E794E11407
S1130470F10409F48FC000E010E09E012F5F3F4FAC
S11304804CE050E064E770E088E690E00E94D10020
S1130490C11464E0D60608F077C07FEFC71AD70A04
S11304A0898190E0982F88272A81822B092E000CBD
S11304B0AA0BBB0B2D893E894F89588D280F391FF4
S11304C04A1F5B1F2D8B3E8B4F8B588F8B8190E087
S11304D0982F88272C81822B092E000CAA0BBB0B8A
S11304E049895A896B897C89480F591F6A1F7B1F68
S11304F0498B5A8B6B8B7C8B8D8190E0982F88274E
S11305002E81822B092E000CAA0BBB0B2D853E8558
S11305104F855889280F391F4A1F5B1F2D873E8737
S11305204F87588B8F8190E0982F88272885822BBE
S1130530092E000CAA0BBB0B498D5A8D6B8D7C8D3B
S1130540480F591F6A1F7B1F498F5A8F6B8F7C8FEF
S1130550898590E0982F88272A85822B092E000C04
S1130560AA0BBB0B480E591E6A1E7B1E8B8590E09E
S1130570982F88272C85822B092E000CAA0BBB0BE5
S1130580880E991EAA1EBB1E0F5F1F4FE016F106B0
S113059009F073CF5FEF251A350A64E1261631049A
S11305A009F034CFC601A0E0B0E08D8F9E8FAF8FED
S11305B0B8A36D897E898F89988D2D8D3E8D4F8D41
S11305C058A10E94230A2D8B3E8B4F8B588F69892B
S11305D07A898B899C892D8D3E8D4F8D58A10E94DF
S11305E0230A298B3A8B4B8B5C8B6D857E858F859B
S11305F098892D8D3E8D4F8D58A10E94230A690143
S11306007A01698D7A8D8B8D9C8D2D8D3E8D4F8DCC
S113061058A10E94230A2D873E874F87588BC30118
S1130620B2012D8D3E8D4F8D58A10E94230A2901C0
S11306303A01C501B4012D8D3E8D4F8D58A10E9404
S1130640230A1C141D041E041F0434F4D701C6011C
S11306509054A109B10905C0D701C601905CAF4F00
S1130660BF4F6D857E85E9A1FAA1718360835382B2
S11306704282358324832D893E89EBA1FCA13183F9
S1130680208349895A895383428395838483A4961A
S11306900FB6F894DEBF0FBECDBFDF91CF911F918F
S11306A00F91FF90EF90DF90CF90BF90AF909F900D
S11306B08F907F906F905F904F903F902F90089510
S11306C040E850E06BE670E088E690E00E94B900F4
S11306D02FEF81EE94E0215080409040E1F700C07C
S11306E0000041E050E06BE670E088E690E00E9494
S11306F0B90040E050E06CE670E088E690E00E94CB
S1130700B9002FEF83EC99E0215080409040E1F74D
S113071000C0000040E050E068E370E088E690E04C
S11307200E94B90040E050E063E270E088E690E0A7
S11307300E94B90040E050E06BE670E088E690E08B
S11307400E94B90040E050E064E270E088E690E086
S11307500E94B90040E050E06AE670E088E690E06C
S11307600E94B9004CE050E06AE670E088E690E050
S11307700E94B9008FE59AEE0197F1F700C00000DE
S113078043E050E06AE170E088E690E00E94B9003E
S113079044E150E069E170E088E690E00E94B9002D
S11307A040E050E06BE170E088E690E00E94B90020
S11307B040E050E06CE170E088E690E00E94B9000F
S11307C040E450E06AE670E088E690E00E94B900F8
S11307D048E750E063E270E088E690E00E94B900E8
S11307E008954F925F926F927F928F929F92AF92F1
S11307F0BF92CF92DF92EF92FF920F931F93CF930A
S1130800DF93CDB7DEB72C970FB6F894DEBF0FBEDB
S1130810CDBF9E012F5F3F4F42E050E062E770E0A2
S113082088E690E00E94D1008A819BEA899F612C2E
S1130830112466946694669409F4C1C0712C08E688
S113084011E00F2EF5E7AF2EF1E0BF2EF02D0F2EA5
S1130850FBE78F2EF1E09F2EF02D0F2EFEE6EF2EFC
S1130860F1E0FF2EF02D9E012F5F3F4F4CE050E052
S113087064E770E088E690E00E94D100EB81F0E04C
S1130880FE2FEE278C812F01482A6D8170E0762F90
S113089066278E81682B4F8150E0542F442788852A
S11308A0482B298530E0322F22278A85282B8B85F7
S11308B090E0982F8827AC858A2BA981B0E0BA2FC5
S11308C0AA27DA80AD29F501C080D180AC19BD0911
S11308D0F801B183A083F501A281B381F201EA1B7F
S11308E0FB0BD8011396FC93EE931297D501149643
S11308F0ED91FC9115976E1B7F0BF8017583648352
S1130900D4016D917C911197461B570BF7015183CC
S1130910408312966D917C911397261B370B33837A
S1130920228314962D913C911597821B930B9583EA
S11309308483052E000C660B770B87E191E00E94FF
S1130940B308D70112964D915C911397052E000CB4
S1130950660B770B8FE191E00E94B308F7014481A5
S11309605581052E000C660B770B87E291E00E94FF
S1130970B308D8014D915C91052E000C660B770BE2
S11309808FE291E00E94B308F80142815381052E61
S1130990000C660B770B86E391E00E94B308D80144
S11309A014964D915C911597052E000C660B770BF0
S11309B08DE391E00E94B3087394671054CF2C9692
S11309C00FB6F894DEBF0FBECDBFDF91CF911F915C
S11309D00F91FF90EF90DF90CF90BF90AF909F90DA
S11309E08F907F906F905F904F90089584E491E092
S11309F00E94BD0780E00895CF92DF92EF92FF92AC
S1130A001F93CF93DF93CDB7DEB7A2970FB6F894B9
S1130A10DEBF0FBECDBFFE0131969E012F5D3F4F5D
S1130A2011922E173F07E1F7861799F010E0A1E025
S1130A30B0E0AC0FBD1FA10FB11DE82FF0E0EB5DDE
S1130A40FD4F90819C938F5F8F711F5F6813EFCF71
S1130A5001C010E0AE014F5D5F4F62E671E0CE0170
S1130A6001960E949A0A6C01FC0101900020E9F7AA
S1130A7031977F01E81AF90A86EC90E00E94790A1E
S1130A808E1112C0412F50E066EC70E0C6010E9446
S1130A90820A892B49F4EAEDF0E02591349189A189
S1130AA09AA1F90109950AC084E591E00E94A00782
S1130AB0CE0101960E94A0070E94B607A2960FB627
S1130AC0F894DEBF0FBECDBFDF91CF911F91FF9091
S1130AD0EF90DF90CF9008951F920F920FB60F9270
S1130AE011242F933F934F935F938F939F93AF93CF
S1130AF0BF93EF93FF93E0918401E695E695E69525
S1130B00E7704E2F50E084E1E89FF0011124EB5789
S1130B10FE4F8081282F2E7FE3898E2F90E0FC01E9
S1130B203497E930F10508F0E4C1E65AFF4F0C941C
S1130B30420A2093BB0085E88093BC00E0918401C5
S1130B40E695E695E695E77084E1E89FF0011124C7
S1130B50EB57FE4F85E0838BCCC184E1849FF00189
S1130B60859FF00D1124EB57FE4F91819093BB00AC
S1130B7095E89093BC00E0918401E695E695E695AE
S1130B80E7708E9FF0011124EB57FE4F86E0838BB4
S1130B90B0C184E1849FF001859FF00D1124EB57CF
S1130BA0FE4F808180FF12C085EA8093BC00E091F3
S1130BB08401E695E695E695E77084E1E89FF00107
S1130BC01124EB57FE4F87E0838B93C184E1849F0C
S1130BD0F001859FF00D1124EB57FE4F878582307D
S1130BE0E8F084E1849FF001859FF00D1124EB5718
S1130BF0FE4F92819093BB0095E89093BC00E091E6
S1130C008401E695E695E695E7708E9FF001112440
S1130C10EB57FE4F8BE0838B14861BC084E1849FCB
S1130C20F001859FF00D1124EB57FE4F92819093B4
S1130C30BB0095E89093BC00E0918401E695E695AD
S1130C40E695E7708E9FF0011124EB57FE4F8CE080
S1130C50838BE0918401E695E695E695E77084E15F
S1130C60E89FF0011124EB57FE4F87858150878759
S1130C7040C181E0820F8093BB0085E88093BC0073
S1130C80E0918401E695E695E695E77084E1E89FB6
S1130C90F0011124EB57FE4F88E0838B2AC184E1D5
S1130CA0849FF001859FF00D1124EB57FE4F87853B
S1130CB0823090F085EC8093BC00E0918401E6954D
S1130CC0E695E695E77084E1E89FF0011124EB577F
S1130CD0FE4F89E0838B11C085E88093BC00E091CE
S1130CE08401E695E695E695E77084E1E89FF001D6
S1130CF01124EB57FE4F8AE0838BE0918401E69543
S1130D00E695E695E77084E1E89FF0011124EB573E
S1130D10FE4F878581508787ECC084E1849FF00172
S1130D20859FF00D1124EB57FE4FA585B6859D01D7
S1130D302F5F3F4F368725879091BB009C93E091AE
S1130D408401E695E695E695E7708E9FF0011124FF
S1130D50EB57FE4F8785823090F085EC8093BC0082
S1130D60E0918401E695E695E695E77084E1E89FD5
S1130D70F0011124EB57FE4F89E0838B11C085E805
S1130D808093BC00E0918401E695E695E695E770D2
S1130D9084E1E89FF0011124EB57FE4F8AE0838B36
S1130DA0E0918401E695E695E695E77084E1E89F95
S1130DB0F0011124EB57FE4F87858150878799C036
S1130DC084E1849FF001859FF00D1124EB57FE4FC1
S1130DD0A585B6859D012F5F3F4F36872587909166
S1130DE0BB009C93E0918401E695E695E695E77057
S1130DF08E9FF0011124EB57FE4FA089B18992898F
S1130E009C9395E99093BC00E0918401E695E69566
S1130E10E695E7708E9FF0011124EB57FE4F81E0B9
S1130E20838B67C084E1849FF001859FF00D1124BA
S1130E30EB57FE4F87858230E8F084E1849FF00110
S1130E40859FF00D1124EB57FE4F92819093BB00C8
S1130E5095E89093BC00E0918401E695E695E695CB
S1130E60E7708E9FF0011124EB57FE4F8BE0838BCC
S1130E7014861BC084E1849FF001859FF00D11242A
S1130E80EB57FE4F92819093BB0095E89093BC0082
S1130E90E0918401E695E695E695E7708E9FF00172
S1130EA01124EB57FE4F8CE0838BE0918401E6958F
S1130EB0E695E695E77084E1E89FF0011124EB578D
S1130EC0FE4F87858150878714C085E98093BC00D5
S1130ED0E0918401E695E695E695E77084E1E89F64
S1130EE0F0011124EB57FE4F81E0838B8FEF809349
S1130EF08101FF91EF91BF91AF919F918F915F918C
S1130F004F913F912F910F900FBE0F901F90189506
S1130F100E94B0090895882391F08A3081F0E0910D
S1130F206601F0E0EB5DFD4F8083809166018F5F89
S1130F308F718093660180916601809167010895A5
S1130F400F931F93CF93FC018081882359F08F0165
S1130F50C0E00E94BA09CF5FF801EC0FF11D808157
S1130F608111F7CFCF911F910F9108958DE00E94C9
S1130F70BA098AE00E94BA0908950E94A0070E9453
S1130F80B60708954F925F926F927F928F929F92CD
S1130F90AF92BF92CF92DF92EF92FF920F931F9383
S1130FA0CF93DF93CDB7DEB7A8970FB6F894DEBF23
S1130FB00FBECDBF6B017C01FE0175968E010F5FE4
S1130FC01F4FCE014D96D80111921D92E817F907D3
S1130FD0D9F7FF200CF05DC081C05E0126E1A20EAE
S1130FE0B11C992493940F2EFAE04F2E512C612CAE
S1130FF0712CF02D01C0982EC701B601A3019201F6
S11310000E94230A20E3260FD5012D935D01A70139
S11310109601261B370B480B590BCA01B901A301D2
S113102092010E94230A69017A01232B242B252B88
S113103021F081E0890D8431F1F621E0290D882029
S113104054F402C021E0912CFE01E20FF11D8DE267
S1131050858B22E0290D211102C00FC021E0E5E1BA
S1131060F0E0EC0FFD1FE20FF11D80E09291D8013A
S11310709D938D018F5F8217C8F3E1E0F0E0EC0FE0
S1131080FD1FE20FF11D1082CE0101960E94A00700
S113109053C00F2EFAE08F2E912CA12CB12CF02DE1
S11310A0C701B601A50194010E94230A20E3260F7B
S11310B02D8BA7019601261B370B480B590BCA0130
S11310C0B901A50194010E94230A69017A01232B25
S11310D0242B252B19F2882483947FCFF094E09459
S11310E0D094C094C11CD11CE11CF11C0F2EFAE059
S11310F08F2E912CA12CB12CF02DC701B601A50186
S113110094010E94230A20E3260F2D8BA701960148
S1131110261B370B480B590BCA01B901A5019401D1
S11311200E94230A69017A01232B242B252B09F41D
S113113089CF88248A9451CFA8960FB6F894DEBF3D
S11311400FBECDBFDF91CF911F910F91FF90EF9014
S1131150DF90CF90BF90AF909F908F907F906F90D3
S11311605F904F900895CF92DF92EF92FF926A01C1
S11311707B010E94A007C701B6010E94C2070E941A
S1131180B607FF90EF90DF90CF900895EF92FF9213
S11311900F931F93CF93DF93CDB7DEB760970FB64E
S11311A0F894DEBF0FBECDBFAC01FE0139968E01AF
S11311B00F5F1F4FCE014196D80111921D92E8177F
S11311C0F907D9F79A01ADECBCEC0E94480A969550
S11311D0879596958795969587959C01220F331F41
S11311E0880F991F880F991F880F991F820F931FCB
S11311F09A01281B390BC90120E3280F29879A017A
S1131200281B390B0E94480AAC0156954795569500
S11312104795569547954115510509F43FC07E0100
S11312203AE0E30EF11CE1E001C0E82F9A01ADECD5
S1131230BCEC0E94480A9695879596958795969555
S113124087959C01220F331F880F991F880F991FC0
S1131250880F991F820F931FDA01A81BB90BCD01C8
S113126020E32A0FD7012D937D019A01281B390B06
S1131270ADECBCEC0E94480AAC01569547955695D6
S11312804795569547954115510521F081E08E0FFC
S1131290883059F691E09E0F11F40FC091E0E9E017
S11312A0F0E0EC0FFD1FE90FF11D80E02291D80161
S11312B02D938D018F5F8917C8F3E1E0F0E0EC0F07
S11312C0FD1FE90FF11D1082CE0101960E94A007B7
S11312D060960FB6F894DEBF0FBECDBFDF91CF91FD
S11312E01F910F91FF90EF900895CF93DF93EB013F
S11312F00E94A007CE010E94C6080E94B607DF9193
S1131300CF910895CF9390916601809167019817CA
S113131029F1C091670180916601C817F9F0EC2F9B
S1131320F0E0EB5DFD4F80818D3091F407C0EC2F30
S1131330F0E0EB5DFD4F80818D3051F480916701C9
S11313406C2F0E94FC04CF5FCF71C093670106C06D
S1131350CF5FCF71809166018C13E9CFCF9108954F
S113136083E090E09093C5008093C40088ED80935F
S1131370C10008959091C00095FF09C020916401B7
S113138090916501291303C08093C6000895E091EC
S11313906401F0E0EB5BFD4F8083809164018F5F1B
S11313A08F778093640108951F920F920FB60F9266
S11313B011248F939F93EF93FF93909165018091F4
S11313C06401981303C08091C6000EC0E0916501CA
S11313D0F0E0EB5BFD4F80818093C6008091650156
S11313E08F5F8F7780936501FF91EF919F918F912C
S11313F00F900FBE0F901F9018951F920F920FB66B
S11314000F9211242F933F934F935F936F937F9386
S11314108F939F93AF93BF93EF93FF938091C600F5
S11314200E948B07FF91EF91BF91AF919F918F9194
S11314307F916F915F914F913F912F910F900FBECC
S11314400F901F901895052E97FB1EF400940E9490
S11314503A0A57FD07D00E94570A07FC03D04EF4FE
S11314600C943A0A50954095309521953F4F4F4F33
S11314705F4F089590958095709561957F4F8F4F3C
S11314809F4F0895EE0FFF1F0590F491E02D0994EE
S1131490A29FB001B39FC001A39F700D811D1124B1
S11314A0911DB29F700D811D1124911D0895A1E21B
S11314B01A2EAA1BBB1BFD010DC0AA1FBB1FEE1FCA
S11314C0FF1FA217B307E407F50720F0A21BB30B15
S11314D0E40BF50B661F771F881F991F1A9469F791
S11314E060957095809590959B01AC01BD01CF01ED
S11314F00895FC0105900020E9F7809590958E0FE2
S11315009F1F0895FB01DC014150504088F08D91EC
S113151081341CF08B350CF4805E659161341CF0D1
S11315206B350CF4605E861B611171F3990B0895A1
S1131530881BFCCFFA01A191B081009719F4109790
S1131540E1F0CD01DC01CD010D90002011F4C001CA
S113155013C0FB012191222319F02015D9F7F3CFF1
S1131560FB012191201519F41E92119606C0222325
S1131570C1F70D900020A1F7D001FA01A193B08327
S10915800895F894FFCF6A
S11315865561727420647A69616C61005761727482
S11315966F9CE6203D20004779726F205820004753
S11315A679726F205920004779726F205A200041C2
S11315B6636320582000416363205920004163631C
S11315C6205A20005561727420697320776F726BFC
S11315D6696E670057726F6E6720636F6D6D616E1B
S10715E6643A20003F
S9030000FC
