:100000000C9484000C94A1000C94A1000C94A10009
:100010000C94A1000C94A1000C94A1000C94A100DC
:100020000C94A1000C94A1000C94A1000C94A100CC
:100030000C94A1000C94A1000C94A1000C94A100BC
:100040000C94A1000C94A1000C94CB0B0C94A10077
:100050000C94A20B0C94A1000C94A1000C94A10090
:100060000C943A070C94A1000C94A1000C94A100EC
:100070000C94A1000C94A1000C94A1000C94A1007C
:100080000C94A1000C94A1000C94A1000C94A1006C
:100090000C94A1000C94A1000C94A1000C94A1005C
:1000A0000C94A1000C94A1000C94A1000C94A1004C
:1000B0000C94A10067077B07970707081D085B08DA
:1000C000AE08E008330945520000000000000000BF
:1000D00000000000000000000000FC0545525F52D7
:1000E0004541440000000000000000000000000046
:1000F000020645525F425546000000000000000025
:100100000000000000005A0611241FBECFEFD8E007
:10011000DEBFCDBF11E0A0E0B1E0E2E2F9E102C054
:1001200005900D92A836B107D9F723E0A8E6B1E013
:1001300001C01D92A830B207E1F70E9471020C9431
:100140008F0C0C940000FC0190916B01292F30E082
:1001500040815181220F331FD901A059BE4F4D93C9
:100160005C9342815381D901A458BE4F4D935C9357
:1001700044815581F901E854FE4F518340839F5FCC
:10018000963019F090936B0102C010926B01809130
:100190006B0190916A01891303C08F5F80936A019C
:1001A00080916A01863011F410926A010895FC0171
:1001B00090916901292F30E040815181220F331F36
:1001C000D901AC56BE4F4D935C9342815381D90106
:1001D000A455BE4F4D935C9344815581F901E85776
:1001E000FE4F518340839F5F963019F090936901D1
:1001F00002C0109269018091690190916801891390
:1002000003C08F5F8093680180916801863011F48C
:10021000109268010895DC01E0916A01F0E0EE0FB0
:10022000FF1FE059FE4F8081918111969C938E9320
:1002300090916A01292F30E0220F331FF901E45811
:10024000FE4F4081518113965C934E931297F901B2
:10025000E854FE4F2081318115963C932E931497DC
:100260009F5F963019F090936A01089510926A0189
:100270000895DC01E0916801F0E0EE0FFF1FEC56FD
:10028000FE4F8081918111969C938E93909168018D
:10029000292F30E0220F331FF901E455FE4F408132
:1002A000518113965C934E931297F901E857FE4FD4
:1002B0002081318115963C932E9314979F5F963041
:1002C00019F0909368010895109268010895809143
:1002D0006B0190916A01891B863008F08A5F08954E
:1002E0008091690190916801891B863008F08A5FCE
:1002F0000895DF92EF92FF920F931F93CF93DF93B6
:1003000000D000D000D0CDB7DEB77C018B010E94B9
:100310006701F80180838823E1F0D12CCE0101969A
:100320000E940B01ED2DF0E0EE0FFF1FEE0DFF1D03
:1003300089819A81918380838B819C819387828735
:100340008D819E81958B848BD394F8018081D81602
:1003500028F326960FB6F894DEBF0FBECDBFDF910F
:10036000CF911F910F91FF90EF90DF900895DF9252
:10037000EF92FF920F931F93CF93DF9300D000D0A3
:1003800000D0CDB7DEB77C018B010E947001F8016F
:1003900080838823E1F0D12CCE0101960E9439019F
:1003A000ED2DF0E0EE0FFF1FEE0DFF1D89819A810C
:1003B000918380838B819C81938782878D819E81AD
:1003C000958B848BD394F8018081D81628F32696D8
:1003D0000FB6F894DEBF0FBECDBFDF91CF911F9156
:1003E0000F91FF90EF90DF90089584EA8093BC0016
:1003F000ECEBF0E080818823ECF7089584E98093AA
:10040000BC00ECEBF0E0808184FDFDCF089580938B
:10041000BB0084E88093BC00ECEBF0E08081882393
:10042000ECF7089520E4829FC00111248468809332
:10043000BC00ECEBF0E080818823ECF78091BB00FE
:1004400008951F93CF93DF93182FD62FC42F0E94A8
:10045000F501812F880F0E9407028D2F0E9407024D
:100460008C2F0E9407020E94FE01DF91CF911F9105
:100470000895EF92FF920F931F93CF93DF93162F60
:10048000D42FE22EF32EC82FCC0F0E94F5018C2F13
:100490000E940702812F0E9407020E94F50181E05D
:1004A0008C0F0E940702CFEFCD0FDD2389F00E2DB8
:1004B0001F2DD1E0F12C8D2FC11101C08F2D0E9475
:1004C0001202F80181938F018C2FC1508111F3CF5B
:1004D0000E94FE01DF91CF911F910F91FF90EF904D
:1004E000089580E284B91092B9008CE08093B8003E
:1004F00084E08093BC000E945609789480E091E0EB
:100500000E948B0960EA71E086EA91E00E948F0206
:100510000E94C1040E94500B0E945205FBCF2F92F3
:100520003F924F925F926F927F928F929F92AF9283
:10053000BF92CF92DF92EF92FF920F931F93CF93D0
:10054000DF93CDB7DEB7A4970FB6F894DEBF0FBE2A
:10055000CDBF9AA389A37CA36BA340E850E06BE6D0
:1005600070E088E690E00E9421022FEF31EE44E037
:10057000215030404040E1F700C0000041E050E031
:100580006BE670E088E690E00E94210240E050E0D7
:100590006CE670E088E690E00E9421025FEF63EC79
:1005A00079E0515060407040E1F700C0000040E049
:1005B00050E068E370E088E690E00E94210240E0AD
:1005C00050E063E270E088E690E00E94210240E0A3
:1005D00050E06BE670E088E690E00E94210240E087
:1005E00050E064E270E088E690E00E94210240E082
:1005F00050E06AE670E088E690E00E9421024CE05C
:1006000050E06AE670E088E690E00E9421028FE503
:100610009AEE0197F1F700C0000041E050E06AE176
:1006200070E088E690E00E94210240E050E069E13D
:1006300070E088E690E00E94210240E050E06BE12B
:1006400070E088E690E00E94210240E050E06CE11A
:1006500070E088E690E00E94210240E450E06AE603
:1006600070E088E690E00E94210248E750E063E2F3
:1006700070E088E690E00E942102AFE1BEE41197AD
:10068000F1F700C00000BFEFEFE8F1E0B150E0404B
:10069000F040E1F700C00000198E1A8E1B8E1C8EF0
:1006A000412C512C3201812C912C54011D8A1E8A1F
:1006B0001F8A188E198A1A8A1B8A1C8A1D861E8612
:1006C0001F86188AC12CD12C212C312C15C02FEF5C
:1006D0003FE841E0215030404040E1F700C00000D9
:1006E00053E12516310441F440E050E063E270E04C
:1006F00088E690E00E9421029E012F5F3F4F42E07A
:1007000050E062E770E088E690E00E9439022981BB
:1007100030E0322F22278A81282BABEABAEA0E94E6
:10072000160C7C01F694E794F694E794F694E7941B
:10073000E114F10409F48FC000E010E09E012F5F86
:100740003F4F4CE050E064E770E088E690E00E94A4
:100750003902C11464E0D60608F077C07FEFC71AEB
:10076000D70A898190E0982F88272A81822B092E29
:10077000000CAA0BBB0B2D893E894F89588D280F81
:10078000391F4A1F5B1F2D8B3E8B4F8B588F8B81E0
:1007900090E0982F88272C81822B092E000CAA0B21
:1007A000BB0B49895A896B897C89480F591F6A1F7D
:1007B0007B1F498B5A8B6B8B7C8B8D8190E0982FA4
:1007C00088272E81822B092E000CAA0BBB0B2D85AE
:1007D0003E854F855889280F391F4A1F5B1F2D877B
:1007E0003E874F87588B8F8190E0982F88272885E8
:1007F000822B092E000CAA0BBB0B498D5A8D6B8DD9
:100800007C8D480F591F6A1F7B1F498F5A8F6B8F32
:100810007C8F898590E0982F88272A85822B092E46
:10082000000CAA0BBB0B480E591E6A1E7B1E8B8543
:1008300090E0982F88272C85822B092E000CAA0B7C
:10084000BB0B880E991EAA1EBB1E0F5F1F4FE01622
:10085000F10609F073CF5FEF251A350A64E1261619
:10086000310409F034CFC601A0E0B0E08D8F9E8F37
:10087000AF8FB8A36D897E898F89988D2D8D3E8D20
:100880004F8D58A10E94F10B2D8B3E8B4F8B588FB3
:1008900069897A898B899C892D8D3E8D4F8D58A1D0
:1008A0000E94F10B298B3A8B4B8B5C8B6D857E857F
:1008B0008F8598892D8D3E8D4F8D58A10E94F10B0B
:1008C00069017A01698D7A8D8B8D9C8D2D8D3E8D80
:1008D0004F8D58A10E94F10B2D873E874F87588B73
:1008E000C301B2012D8D3E8D4F8D58A10E94F10B99
:1008F00029013A01C501B4012D8D3E8D4F8D58A1BE
:100900000E94F10B1C141D041E041F0434F4D701B3
:10091000C6019054A109B10905C0D701C601905C78
:10092000AF4FBF4F6D857E85E9A1FAA171836083CA
:1009300053824282358324832D893E89EBA1FCA119
:100940003183208349895A895383428395838483E1
:10095000A4960FB6F894DEBF0FBECDBFDF91CF9146
:100960001F910F91FF90EF90DF90CF90BF90AF90CD
:100970009F908F907F906F905F904F903F902F90BF
:10098000089540E850E06BE670E088E690E00E9451
:1009900021022FEF81EE94E0215080409040E1F75A
:1009A00000C0000041E050E06BE670E088E690E0B7
:1009B0000E94210240E050E06CE670E088E690E0A2
:1009C0000E9421022FEF83EC99E02150804090405B
:1009D000E1F700C0000040E050E068E370E088E626
:1009E00090E00E94210240E050E063E270E088E67F
:1009F00090E00E94210240E050E06BE670E088E663
:100A000090E00E94210240E050E064E270E088E65D
:100A100090E00E94210240E050E06AE670E088E643
:100A200090E00E9421024CE050E06AE670E088E627
:100A300090E00E9421028FE59AEE0197F1F700C045
:100A4000000043E050E06AE170E088E690E00E9438
:100A500021024AEF50E069E170E088E690E00E94F0
:100A6000210240E050E06BE170E088E690E00E94F7
:100A7000210240E050E06CE170E088E690E00E94E6
:100A8000210240E450E06AE670E088E690E00E94CF
:100A9000210248E750E063E270E088E690E00E94BF
:100AA000210208958F929F92AF92BF92CF92DF92D0
:100AB000EF92FF920F931F93CF93DF93CDB7DEB7E3
:100AC00068970FB6F894DEBF0FBECDBF9E012F5FB3
:100AD0003F4F42E050E062E770E088E690E00E941D
:100AE00039028A819BEA899FC12C1124C694C6943D
:100AF000C69409F46EC0D12C0F2EF0EAEF2EF1E06F
:100B0000FF2EF02D06EA11E09E012F5F3F4F4CE0D3
:100B100050E064E770E088E690E00E943902EB81E3
:100B2000F0E0FE2FEE278C814F01882A6D8170E066
:100B3000762F66278E81682B4F8150E0542F4427F3
:100B40008885482B298530E0322F22278A85282B5B
:100B50008B8590E0982F8827AC858A2BA981B0E0FF
:100B6000BA2FAA27BA80AB29F701A080B180AA19B1
:100B7000BB09BC8BAB8BA281B381F401EA1BFB0BDD
:100B8000FE8BED8BD7011496ED91FC9115976E1BA2
:100B90007F0B788F6F8BF80160817181461B570B3B
:100BA0005E874D8742815381241B350B388B2F87FD
:100BB00024813581821B930B9A8B898BCE010D96F4
:100BC0000E94A300CE0143960E94D700D394CD107B
:100BD0009BCF68960FB6F894DEBF0FBECDBFDF91F6
:100BE000CF911F910F91FF90EF90DF90CF90BF902A
:100BF000AF909F908F9008958CE091E00E948B09B8
:100C000080E00895CF93DF93CDB7DEB72C970FB672
:100C1000F894DEBF0FBECDBFCE0101960E940B013E
:100C2000CE0107960E94390149815A81052E000C98
:100C3000660B770B8CE191E00E94810A4B815C810D
:100C4000052E000C660B770B81E291E00E94810A71
:100C50004D815E81052E000C660B770B86E291E0DC
:100C60000E94810A4F815885052E000C660B770B78
:100C70008BE291E00E94810A49855A85052E000C7D
:100C8000660B770B80E391E00E94810A4B855C85BF
:100C9000052E000C660B770B85E391E00E94810A1C
:100CA00080E02C960FB6F894DEBF0FBECDBFDF916B
:100CB000CF910895CF93DF93CDB7DEB76F970FB67F
:100CC000F894DEBF0FBECDBF0E9467018F8F8823CF
:100CD00071F0BE01615E7F4FCE0101960E947901E5
:100CE0009F8D992321F080E08F5F8913FDCF0E94B3
:100CF00084096F8D70E08AE391E00E94430B0E94AB
:100D000070018F8F882371F0BE01615E7F4FCE012D
:100D100001960E94B7019F8D992321F080E08F5F9B
:100D20008913FDCF6F8D70E089E491E00E94430B41
:100D300080E06F960FB6F894DEBF0FBECDBFDF9197
:100D4000CF9108954F925F926F928F929F92AF9240
:100D5000BF92CF92DF92EF92FF920F931F93CF93A8
:100D6000DF93CDB7DEB7A2970FB6F894DEBF0FBE04
:100D7000CDBFFE0131969E012F5D3F4F11922E1780
:100D80003F07E1F7861799F010E0A1E0B0E0AC0F63
:100D9000BD1FA10FB11DE82FF0E0E859FD4F908174
:100DA0009C938F5F8F711F5F6813EFCF01C010E0BE
:100DB000AE014F5D5F4F66E671E0CE0101960E9485
:100DC000680C5C01FC0101900020E9F731976E2E60
:100DD000681A0F2EF6ECEF2EF0E0FF2EF02DC12C4E
:100DE000D12C00E0812E912CC7010E94470C681283
:100DF00018C0A401B701C5010E94500C892B89F4C9
:100E000086E18C9DF0018D9DF00D1124E652FF4F7F
:100E10002591349189A19AA1F90109950330A1F492
:100E200009C00F5FFFEFCF1ADF0A86E1E80EF11C61
:100E30000330D1F688E591E00E946E09CE0101965B
:100E40000E946E090E948409A2960FB6F894DEBF34
:100E50000FBECDBFDF91CF911F910F91FF90EF900B
:100E6000DF90CF90BF90AF909F908F906F905F90EA
:100E70004F9008951F920F920FB60F9211242F9347
:100E80003F934F935F938F939F93AF93BF93EF9352
:100E9000FF93E091C701E695E695E695E7704E2F42
:100EA00050E084E1E89FF0011124E853FE4F808177
:100EB000282F2E7FE3898E2F90E0FC013497E930B4
:100EC000F10508F0E4C1E65AFF4F0C94100C209392
:100ED000BB0085E88093BC00E091C701E695E695EC
:100EE000E695E77084E1E89FF0011124E853FE4F96
:100EF00085E0838BCCC184E1849FF001859FF00D58
:100F00001124E853FE4F91819093BB0095E8909394
:100F1000BC00E091C701E695E695E695E7708E9FE7
:100F2000F0011124E853FE4F86E0838BB0C184E1C9
:100F3000849FF001859FF00D1124E853FE4F8081BE
:100F400080FF12C085EA8093BC00E091C701E6955E
:100F5000E695E695E77084E1E89FF0011124E853F7
:100F6000FE4F87E0838B93C184E1849FF001859FCE
:100F7000F00D1124E853FE4F87858230E8F084E1BC
:100F8000849FF001859FF00D1124E853FE4F92815C
:100F90009093BB0095E89093BC00E091C701E69563
:100FA000E695E695E7708E9FF0011124E853FE4F19
:100FB0008BE0838B14861BC084E1849FF001859FA6
:100FC000F00D1124E853FE4F92819093BB0095E8F9
:100FD0009093BC00E091C701E695E695E695E77031
:100FE0008E9FF0011124E853FE4F8CE0838BE0913B
:100FF000C701E695E695E695E77084E1E89FF00184
:101000001124E853FE4F87858150878740C181E0D6
:10101000820F8093BB0085E88093BC00E091C701FC
:10102000E695E695E695E77084E1E89FF0011124E6
:10103000E853FE4F88E0838B2AC184E1849FF0014E
:10104000859FF00D1124E853FE4F8785823090F084
:1010500085EC8093BC00E091C701E695E695E695A6
:10106000E77084E1E89FF0011124E853FE4F89E026
:10107000838B11C085E88093BC00E091C701E695A1
:10108000E695E695E77084E1E89FF0011124E853C6
:10109000FE4F8AE0838BE091C701E695E695E695E1
:1010A000E77084E1E89FF0011124E853FE4F878543
:1010B00081508787ECC084E1849FF001859FF00D0B
:1010C0001124E853FE4FA585B6859D012F5F3F4F44
:1010D000368725879091BB009C93E091C701E695E8
:1010E000E695E695E7708E9FF0011124E853FE4FD8
:1010F0008785823090F085EC8093BC00E091C70139
:10110000E695E695E695E77084E1E89FF001112405
:10111000E853FE4F89E0838B11C085E88093BC00C3
:10112000E091C701E695E695E695E77084E1E89FD2
:10113000F0011124E853FE4F8AE0838BE091C70150
:10114000E695E695E695E77084E1E89FF0011124C5
:10115000E853FE4F87858150878799C084E1849F3B
:10116000F001859FF00D1124E853FE4FA585B6854B
:101170009D012F5F3F4F368725879091BB009C9341
:10118000E091C701E695E695E695E7708E9FF00140
:101190001124E853FE4FA089B18992899C9395E967
:1011A0009093BC00E091C701E695E695E695E7705F
:1011B0008E9FF0011124E853FE4F81E0838B67C0BE
:1011C00084E1849FF001859FF00D1124E853FE4FC8
:1011D00087858230E8F084E1849FF001859FF00DDF
:1011E0001124E853FE4F92819093BB0095E89093B1
:1011F000BC00E091C701E695E695E695E7708E9F05
:10120000F0011124E853FE4F8BE0838B14861BC042
:1012100084E1849FF001859FF00D1124E853FE4F77
:1012200092819093BB0095E89093BC00E091C70138
:10123000E695E695E695E7708E9FF0011124E85358
:10124000FE4F8CE0838BE091C701E695E695E6952D
:10125000E77084E1E89FF0011124E853FE4F878591
:101260008150878714C085E98093BC00E091C70155
:10127000E695E695E695E77084E1E89FF001112494
:10128000E853FE4F81E0838B8FEF8093C401FF9181
:10129000EF91BF91AF919F918F915F914F913F914E
:1012A0002F910F900FBE0F901F9018950E947E0BEC
:1012B0000895882391F08A3081F0E0916E01F0E08A
:1012C000E859FD4F808380916E018F5F8F7180930D
:1012D0006E0180916E0180916F0108950F931F93AD
:1012E000CF93FC018081882359F08F01C0E00E94D8
:1012F000880BCF5FF801EC0FF11D80818111F7CFD2
:10130000CF911F910F9108958DE00E94880B8AE084
:101310000E94880B08950E946E090E948409089516
:101320004F925F926F927F928F929F92AF92BF92F5
:10133000CF92DF92EF92FF920F931F93CF93DF93A1
:10134000CDB7DEB7A8970FB6F894DEBF0FBECDBFFE
:101350006B017C01FE0175968E010F5F1F4FCE0160
:101360004D96D80111921D92E817F907D9F7FF2081
:101370000CF05DC081C05E0126E1A20EB11C992473
:1013800093940F2EFAE04F2E512C612C712CF02DDE
:1013900001C0982EC701B601A30192010E94F10B72
:1013A00020E3260FD5012D935D01A7019601261B91
:1013B000370B480B590BCA01B901A30192010E94D6
:1013C000F10B69017A01232B242B252B21F081E0DD
:1013D000890D8431F1F621E0290D882054F402C0F2
:1013E00021E0912CFE01E20FF11D8DE2858B22E0C0
:1013F000290D211102C00FC021E0E5E1F0E0EC0F62
:10140000FD1FE20FF11D80E09291D8019D938D01A7
:101410008F5F8217C8F3E1E0F0E0EC0FFD1FE20FF1
:10142000F11D1082CE0101960E946E0953C00F2E4D
:10143000FAE08F2E912CA12CB12CF02DC701B60112
:10144000A50194010E94F10B20E3260F2D8BA7012B
:101450009601261B370B480B590BCA01B901A50190
:1014600094010E94F10B69017A01232B242B252B77
:1014700019F2882483947FCFF094E094D094C094A0
:10148000C11CD11CE11CF11C0F2EFAE08F2E912CF7
:10149000A12CB12CF02DC701B601A50194010E9429
:1014A000F10B20E3260F2D8BA7019601261B370B8E
:1014B000480B590BCA01B901A50194010E94F10B17
:1014C00069017A01232B242B252B09F489CF882449
:1014D0008A9451CFA8960FB6F894DEBF0FBECDBF49
:1014E000DF91CF911F910F91FF90EF90DF90CF9000
:1014F000BF90AF909F908F907F906F905F904F9034
:101500000895CF92DF92EF92FF926A017B010E94D1
:101510006E09C701B6010E9490090E948409FF90DC
:10152000EF90DF90CF900895EF92FF920F931F936B
:10153000CF93DF93CDB7DEB760970FB6F894DEBFD9
:101540000FBECDBFAC01FE0139968E010F5F1F4F5C
:10155000CE014196D80111921D92E817F907D9F7EB
:101560009A01ADECBCEC0E94160C96958795969569
:101570008795969587959C01220F331F880F991F99
:10158000880F991F880F991F820F931F9A01281B9C
:10159000390BC90120E3280F29879A01281B390B31
:1015A0000E94160CAC015695479556954795569551
:1015B00047954115510509F43FC07E013AE0E30E1D
:1015C000F11CE1E001C0E82F9A01ADECBCEC0E94F7
:1015D000160C9695879596958795969587959C0177
:1015E000220F331F880F991F880F991F880F991F8B
:1015F000820F931FDA01A81BB90BCD0120E32A0F3C
:10160000D7012D937D019A01281B390BADECBCEC61
:101610000E94160CAC0156954795569547955695E0
:1016200047954115510521F081E08E0F883059F61C
:1016300091E09E0F11F40FC091E0E9E0F0E0EC0FB3
:10164000FD1FE90FF11D80E02291D8012D938D013E
:101650008F5F8917C8F3E1E0F0E0EC0FFD1FE90FA1
:10166000F11D1082CE0101960E946E0960960FB6A0
:10167000F894DEBF0FBECDBFDF91CF911F910F91C8
:10168000FF90EF900895CF93DF93EB010E946E09D6
:10169000CE010E94940A0E948409DF91CF9108959F
:1016A000CF9390916E0180916F01981729F1C091AD
:1016B0006F0180916E01C817F9F0EC2FF0E0E85946
:1016C000FD4F80818D3091F407C0EC2FF0E0E85998
:1016D000FD4F80818D3051F480916F016C2F0E94FD
:1016E000A206CF5FCF71C0936F0106C0CF5FCF71ED
:1016F00080916E018C13E9CFCF91089583E090E043
:101700009093C5008093C40088ED8093C100089534
:101710009091C00095FF09C020916C0190916D01DE
:10172000291303C08093C6000895E0916C01F0E096
:10173000E857FD4F808380916C018F5F8F77809396
:101740006C0108951F920F920FB60F9211248F9380
:101750009F93EF93FF9390916D0180916C0198138B
:1017600003C08091C6000EC0E0916D01F0E0E85723
:10177000FD4F80818093C60080916D018F5F8F77D0
:1017800080936D01FF91EF919F918F910F900FBE0C
:101790000F901F9018951F920F920FB60F92112461
:1017A0002F933F934F935F936F937F938F939F9369
:1017B000AF93BF93EF93FF938091C6000E945909A6
:1017C000FF91EF91BF91AF919F918F917F916F9119
:1017D0005F914F913F912F910F900FBE0F901F90EF
:1017E0001895052E97FB1EF400940E94080C57FDD7
:1017F00007D00E94250C07FC03D04EF40C94080C73
:1018000050954095309521953F4F4F4F5F4F08952C
:1018100090958095709561957F4F8F4F9F4F08955C
:10182000EE0FFF1F0590F491E02D0994A29FB001E7
:10183000B39FC001A39F700D811D1124911DB29F04
:10184000700D811D1124911D0895A1E21A2EAA1B6D
:10185000BB1BFD010DC0AA1FBB1FEE1FFF1FA21760
:10186000B307E407F50720F0A21BB30BE40BF50B5D
:10187000661F771F881F991F1A9469F760957095E6
:10188000809590959B01AC01BD01CF010895FC01AD
:1018900005900020E9F7809590958E0F9F1F089581
:1018A000FB01DC014150504088F08D9181341CF0E7
:1018B0008B350CF4805E659161341CF06B350CF453
:1018C000605E861B611171F3990B0895881BFCCF34
:1018D000FA01A191B081009719F41097E1F0CD01C0
:1018E000DC01CD010D90002011F4C00113C0FB01FB
:1018F0002191222319F02015D9F7F3CFFB01219173
:10190000201519F41E92119606C02223C1F70D90DE
:101910000020A1F7D001FA01A193B0830895F894B3
:02192000FFCFF7
:101922005561727420647A69616C610055617274E8
:1019320020697320776F726B696E670047205820A9
:1019420000472059200047205A20004120582000FB
:10195200412059200041205A200053616D706C656E
:1019620073206779726F3D200053616D706C6573EF
:1019720020616363203D200057726F6E6720636FA2
:081982006D6D616E643A2000F6
:00000001FF
