:100000000C949B000C94B8000C94B8000C94B800AD
:100010000C94B8000C94B8000C94B8000C94B80080
:100020000C94B8000C94B8000C94B8000C94B80070
:100030000C94B8000C94B8000C94B8000C94B80060
:100040000C947F0B0C94B8000C9488120C94B8009C
:100050000C945F120C94B8000C94B8000C94B80087
:100060000C94A40C0C94B8000C94B8000C94B80038
:100070000C94C20A0C94B8000C94B8000C94B8000C
:100080000C94B8000C94DB0B0C94E50B0C94B800AA
:100090000C94B8000C94B8000C94B8000C94B80000
:1000A0000C94B8000C94B8000C947E0C0C94B8001E
:1000B0000C94B800D10CE50C010D710D870DC50D28
:1000C000180E4A0E9D0E084AD73B3BCE016E84BCEB
:1000D000BFFDC12F3D6C74319ABD56833DDA3D00A2
:1000E000C77F11BED9E4BB4C3E916BAAAABE0000EB
:1000F00000803F00455200000000000000000000AA
:100100000000000000000000C00E45525F52454153
:100110004400000000000000000000000000C60EC7
:1001200045525F42554600000000000000000000FC
:10013000000000001E0F11241FBECFEFD8E0DEBF6D
:10014000CDBF11E0A0E0B1E0E4E7F1E302C005902B
:100150000D92AE38B107D9F724E0AEE8B1E001C0A6
:100160001D92AE36B207E1F70E9484040C94B818D1
:100170000C940000FC0190919101292F30E0408106
:100180005181220F331FD901AA56BE4F4D935C9364
:1001900042815381D901A054BE4F4D935C93448159
:1001A0005581F901E258FD4F518340839F5F95319E
:1001B00019F09093910102C01092910180919101E8
:1001C00090919001891303C08F5F8093900180917B
:1001D0009001853111F4109290010895FC019091E5
:1001E0008F01292F30E040815181220F331FD90127
:1001F000AC5EBD4F4D935C9342815381D901AC5AA3
:10020000BD4F4D935C9344815581F901E651FE4FFA
:10021000518340839F5F953119F090938F0102C005
:1002200010928F0180918F0190918E01891303C0EC
:100230008F5F80938E0180918E01853111F4109231
:100240008E010895DC01E0919001F0E0EE0FFF1FB8
:10025000EA56FE4F8081918111969C938E939091E6
:100260009001292F30E0220F331FF901E054FE4F97
:100270004081518113965C934E931297F901E25895
:10028000FD4F2081318115963C932E9314979F5FEB
:10029000953119F09093900108951092900108956E
:1002A000DC01E0918E01F0E0EE0FFF1FEC5EFD4FF0
:1002B0008081918111969C938E9390918E01292F2C
:1002C00030E0220F331FF901EC5AFD4F408151817C
:1002D00013965C934E931297F901E651FE4F2081DD
:1002E000318115963C932E9314979F5F953119F0A9
:1002F00090938E01089510928E010895DC01E09193
:100300009101F0E0EE0FFF1FEC56FE4F80819181CE
:1003100011969C938E932091910130E021503109E8
:10032000220F331FF901E054FE4F80819181139613
:100330009C938E931297F901E258FD4F8081918131
:1003400015969C938E9314970895DC01E0918F018C
:10035000F0E0EE0FFF1FEE5EFD4F80819181119660
:100360009C938E9320918F0130E021503109220F10
:10037000331FF901EC5AFD4F8081918113969C93B4
:100380008E931297F901E651FE4F80819181159667
:100390009C938E9314970895809191019091900170
:1003A000891B853108F08B5E089580918F019091B3
:1003B0008E01891B853108F08B5E0895CF92DF9204
:1003C000EF92FF920F931F93CF93DF9300D000D053
:1003D00000D0CDB7DEB7662329F16C017C018C011A
:1003E000085D1F4F6150262F30E02F5F3F4F220FD7
:1003F000331FC20ED31ECE0101960E9422018981B5
:100400009A81F701819391937F012B813C81F801BF
:10041000219331938F012D813E8137A326A3EC14C4
:10042000FD0449F726960FB6F894DEBF0FBECDBF88
:10043000DF91CF911F910F91FF90EF90DF90CF90C0
:100440000895CF92DF92EF92FF920F931F93CF9375
:10045000DF9300D000D000D0CDB7DEB7662329F1FE
:100460006C017C018C01085D1F4F6150262F30E02C
:100470002F5F3F4F220F331FC20ED31ECE010196B6
:100480000E94500189819A81F701819391937F01A4
:100490002B813C81F801219331938F012D813E8185
:1004A00037A326A3EC14FD0449F726960FB6F8945B
:1004B000DEBF0FBECDBFDF91CF911F910F91FF9097
:1004C000EF90DF90CF9008954F925F926F927F925E
:1004D0008F929F92AF92BF92CF92DF92EF92FF9254
:1004E0000F931F93CF93DF93EA016623B9F1DC01E9
:1004F000FC01B8962FEF260F30E02F5F3F4F220F01
:10050000331F820F931F00E010E09801812C912C83
:100510005401C12CD12C76014D915D912A01550FCA
:1005200066087708040D151D261D371D4191519150
:100530002A01550F66087708840C951CA61CB71C69
:1005400046A157A12A01550F66087708C40CD51C8F
:10055000E61CF71CA817B907F9F609C000E010E07F
:100560009801812C912C5401C12CD12C7601462E5E
:10057000512C612C712CC901B801A30192010E9478
:10058000301539832883C501B401A30192010E946B
:1005900030153B832A83C701B601A30192010E9453
:1005A00030153D832C83DF91CF911F910F91FF90E8
:1005B000EF90DF90CF90BF90AF909F908F907F9003
:1005C0006F905F904F900895EF92FF921F93CF939B
:1005D000DF93CDB7DEB7C857D1090FB6F894DEBFA9
:1005E0000FBECDBF7C010E94CC01182F682FCE0119
:1005F00001960E94DE01A701612FCE0101960E94A3
:100600006402C858DF4F0FB6F894DEBF0FBECDBFEF
:10061000DF91CF911F91FF90EF9008952F923F921D
:100620004F925F926F927F928F929F92AF92BF9202
:10063000CF92DF92EF92FF920F931F93CF93DF93AE
:10064000CDB7DEB727970FB6F894DEBF0FBECDBF8C
:100650005E834D83662309F466C08C01FC01B89665
:100660006150262E312C25E1220E311C220C331C28
:10067000280E391EC12CD12C7601C39419821A82FE
:100680001B821C82412C512C3201812C912C540153
:100690001F824F81CC9C400D11244F83D8018D9136
:1006A0009D918D01DC01A70196010E947E159B01A1
:1006B000AC01C701B6010E94201529813A814B8106
:1006C0005C81260F371F481F591F29833A834B83AC
:1006D0005C83A191B191A70196010E947E159B01B7
:1006E000AC01C701B6010E942015460E571E681EB8
:1006F000791EA6A1B7A1A70196010E947E159B01B4
:10070000AC01C701B6010E942015860E971EA81ED7
:10071000B91E3FEFC31AD30AE30AF30AE215F30541
:1007200009F0B7CF0BC019821A821B821C82412CA0
:10073000512C3201812C912C54011F82FF81CF2E2C
:10074000D12CE12CF12C69817A818B819C81A701CC
:1007500096010E943015AD81BE812D933C93C3015B
:10076000B201A70196010E943015ED81FE8133830D
:100770002283C501B401A70196010E943015AD8105
:10078000BE8115963C932E93149727960FB6F89436
:10079000DEBF0FBECDBFDF91CF911F910F91FF90B4
:1007A000EF90DF90CF90BF90AF909F908F907F9011
:1007B0006F905F904F903F902F900895EF92FF922F
:1007C0001F93CF93DF93CDB7DEB7C857D1090FB6CC
:1007D000F894DEBF0FBECDBF7C010E94D501182F5B
:1007E000682FCE0101960E942102A701612FCE0140
:1007F00001960E940E03C858DF4F0FB6F894DEBF73
:100800000FBECDBFDF91CF911F91FF90EF90089564
:1008100084EA8093BC00ECEBF0E080818823ECF765
:10082000089584E98093BC00ECEBF0E0808184FDC6
:10083000FDCF08958093BB0084E88093BC00ECEB6F
:10084000F0E080818823ECF7089520E4829FC001C6
:10085000112484688093BC00ECEBF0E08081882355
:10086000ECF78091BB0008951F93CF93DF93182F6F
:10087000D62FC42F0E940804812F880F0E941A04CB
:100880008D2F0E941A048C2F0E941A040E941104BA
:10089000DF91CF911F910895EF92FF920F931F93D5
:1008A000CF93DF93162FD42FE22EF32EC82FCC0F29
:1008B0000E9408048C2F0E941A04812F0E941A049F
:1008C0000E94080481E08C0F0E941A04CFEFCD0F24
:1008D000DD2389F00E2D1F2DD1E0F12C8D2FC111BC
:1008E00001C08F2D0E942504F80181938F018C2F68
:1008F000C1508111F3CF0E941104DF91CF911F915C
:100900000F91FF90EF9008951092500210925102B3
:100910001092520210925302109244021092450219
:10092000109246021092470280E284B91092B900F8
:100930008CE08093B80084E08093BC000E94131088
:100940000E94B30A0E945F0B78948CE091E00E94B1
:10095000481088EC90E090934F0280934E026EE333
:1009600072E088E492E00E9463068AE020E295B19A
:10097000922795B93FEF41EE94E0315040409040CE
:10098000E1F700C00000815091F70E945F080E94CB
:10099000560B0E940D120E94C3080E94640BF9CFEF
:1009A000CF92DF92EF92FF92CF93DF930097C1F146
:1009B000EC01072E000C880B990B0E94F4136B01BD
:1009C0007C01BE010D2E000C880B990B0E94F413C4
:1009D0009B01AC01C701B6010E944A130E941B1380
:1009E0001C161D064CF49B01AC016BED7FE089ECFD
:1009F0009FE30E94AE1207C02BED3FE049EC5FE39E
:100A00000E94AF12905820E030E044E353E40E948B
:100A1000AF142BED3FE049E450E40E944A1303C0B9
:100A200060E070E0CB01DF91CF91FF90EF90DF901D
:100A3000CF9008958F929F92AF92BF92CF92DF9204
:100A4000EF92FF92FC01A081B181E280F3804481AA
:100A500055819D010E9455154B015C019701D701FD
:100A60000E94551575016401C60ED71EE81EF91EB9
:100A70009A01DA010E9455156C0D7D1D8E1D9F1D7A
:100A8000FF90EF90DF90CF90BF90AF909F908F90AE
:100A900008954F925F926F927F928F929F92AF9242
:100AA000BF92CF92DF92EF92FF920F931F932B0191
:100AB0003C01D601C5018C5C9C4CAC4CBC408836DA
:100AC0009646A646B640F8F02E0D3F1D401F511F1A
:100AD000A3E6B0E00E9473154B015C01C301B201B3
:100AE0000E94BC136B017C01C501B40124E630E017
:100AF00040E050E00E943015C701B601620F731F3D
:100B0000841F951F24C02E0D3F1D401F511FAFE5B0
:100B1000B0E00E9473154B015C0120E030E040EA38
:100B200050E4C301B2010E94AF140E94BC136B01D8
:100B30007C01C501B40124E630E040E050E00E94B1
:100B40003015C701B601620F731F841F951F1F91D7
:100B50000F91FF90EF90DF90CF90BF90AF909F905C
:100B60008F907F906F905F904F9008952F923F925B
:100B70004F925F926F927F928F929F92AF92BF92AD
:100B8000CF92DF92EF92FF920F931F93CF93DF9359
:100B9000CDB7DEB760970FB6F894DEBF0FBECDBFFE
:100BA0003C017A836983FB0144805580B2018281D4
:100BB00093810E94D0046D837E838F839887B201D6
:100BC000E981FA81808191810E94D0041B012C016E
:100BD00089819A810E941A0569837A838B839C8319
:100BE000F301A081B18124E630E00E946C15698791
:100BF0007A878B879C87A281B3810E946C156D8751
:100C00007E878F87988BE0905002F0905102009180
:100C10005202109153020F2EF2EB6F2EFCE07F2E4A
:100C2000812C912CF02D69857A858B859C85A4017A
:100C300093010E943015A980BA80CB80DC806D8141
:100C40007E818F8198850E94490560935002709340
:100C500051028093520290935302E0904402F0902C
:100C6000450200914602109147026D857E858F8571
:100C70009889A40193010E943015C201B1019058D6
:100C80000E94490560934402709345028093460296
:100C90009093470260960FB6F894DEBF0FBECDBFAB
:100CA000DF91CF911F910F91FF90EF90DF90CF9048
:100CB000BF90AF909F908F907F906F905F904F907C
:100CC0003F902F9008952F923F924F925F926F9294
:100CD0007F928F929F92AF92BF92CF92DF92EF92CC
:100CE000FF920F931F93CF93DF93CDB7DEB7A497F7
:100CF0000FB6F894DEBF0FBECDBF9AA389A37CA325
:100D00006BA340E86BE688E60E9434042FEF31EED7
:100D100044E0215030404040E1F700C0000041E095
:100D20006BE688E60E94340440E06CE688E60E94A8
:100D300034045FEF63EC79E0515060407040E1F7BC
:100D400000C0000040E068E388E60E94340440E010
:100D500063E288E60E94340440E06BE688E60E9485
:100D6000340440E064E288E60E94340440E06AE62D
:100D700088E60E9434044CE06AE688E60E94340467
:100D80008FE59AEE0197F1F700C0000041E06AE1BB
:100D900088E60E94340440E069E188E60E94340459
:100DA00040E06BE188E60E94340440E06CE188E6B4
:100DB0000E94340440E46AE688E60E94340448E76E
:100DC00063E288E60E943404AFE1BEE41197F1F7D4
:100DD00000C00000BFEFEFE8F1E0B150E040F040AC
:100DE000E1F700C00000198E1A8E1B8E1C8E412C5C
:100DF000512C3201812C912C54011D8A1E8A1F8A8C
:100E0000188E198A1A8A1B8A1C8A1D861E861F86BE
:100E1000188AC12CD12C212C312C12C02FEF3FE885
:100E200041E0215030404040E1F700C0000053E174
:100E30002516310429F440E063E288E60E94340478
:100E40009E012F5F3F4F42E062E788E60E944C041C
:100E5000298130E0322F22278A81282BABEABAEA97
:100E60000E945D157C01F694E794F694E794F6945D
:100E7000E794E114F10409F48CC000E010E09E0155
:100E80002F5F3F4F4CE064E788E60E944C04C1149A
:100E900064E0D60608F077C07FEFC71AD70A8981C9
:100EA00090E0982F88272A81822B092E000CAA0B0C
:100EB000BB0B2D893E894F89588D280F391F4A1F3A
:100EC0005B1F2D8B3E8B4F8B588F8B8190E0982F23
:100ED00088272C81822B092E000CAA0BBB0B498979
:100EE0005A896B897C89480F591F6A1F7B1F498B60
:100EF0005A8B6B8B7C8B8D8190E0982F88272E816D
:100F0000822B092E000CAA0BBB0B2D853E854F852D
:100F10005889280F391F4A1F5B1F2D873E874F872F
:100F2000588B8F8190E0982F88272885822B092E57
:100F3000000CAA0BBB0B498D5A8D6B8D7C8D480F15
:100F4000591F6A1F7B1F498F5A8F6B8F7C8F898532
:100F500090E0982F88272A85822B092E000CAA0B57
:100F6000BB0B480E591E6A1E7B1E8B8590E0982F86
:100F700088272C85822B092E000CAA0BBB0B880E10
:100F8000991EAA1EBB1E0F5F1F4FE016F10609F047
:100F900076CF5FEF251A350A64E12616310409F091
:100FA0003DCFC601A0E0B0E08D8F9E8FAF8FB8A37C
:100FB0006D897E898F89988D2D8D3E8D4F8D58A19D
:100FC0000E9430152D8B3E8B4F8B588F69897A8903
:100FD0008B899C892D8D3E8D4F8D58A10E94301597
:100FE000298B3A8B4B8B5C8B6D857E858F859889A1
:100FF0002D8D3E8D4F8D58A10E94301569017A01CB
:10100000698D7A8D8B8D9C8D2D8D3E8D4F8D58A148
:101010000E9430152D873E874F87588BC301B20140
:101020002D8D3E8D4F8D58A10E94301529013A011A
:10103000C501B4012D8D3E8D4F8D58A10E943015F4
:101040001C141D041E041F0434F4D701C60190545F
:10105000A109B10905C0D701C601905CAF4FBF4FD0
:101060006D857E85E9A1FAA17183608353824282F6
:10107000358324832D893E89EBA1FCA13183208314
:1010800049895A895383428395838483A4960FB6F2
:10109000F894DEBF0FBECDBFDF91CF911F910F91AE
:1010A000FF90EF90DF90CF90BF90AF909F908F9088
:1010B0007F906F905F904F903F902F90089540E801
:1010C0006BE688E60E9434042FEF81EE94E0215015
:1010D00080409040E1F700C0000041E06BE688E608
:1010E0000E94340440E06CE688E60E9434042FEF4E
:1010F00083EC99E0215080409040E1F700C000006F
:1011000040E068E388E60E94340440E063E288E659
:101110000E94340440E06BE688E60E94340440E01C
:1011200064E288E60E94340440E06AE688E60E94B1
:1011300034044CE06AE688E60E9434048FE59AEEB7
:101140000197F1F700C0000043E06AE188E60E94E1
:10115000340444E069E188E60E94340448E06BE12D
:1011600088E60E94340440E06CE188E60E94340482
:1011700040E46AE688E60E94340448E763E288E6D1
:101180000E94340408956F927F929F92AF92BF9213
:10119000CF92DF92EF92FF920F931F93CF93DF9343
:1011A000CDB7DEB768970FB6F894DEBF0FBECDBFE0
:1011B0009E012F5F3F4F42E062E788E60E944C04A9
:1011C0008A819BEA899FC12C1124C694C694C69437
:1011D00009F46CC0D12C0F2EFEE3EF2EF2E0FF2EAF
:1011E000F02D08E412E09E012F5F3F4F4CE064E7D2
:1011F00088E60E944C04EB81F0E0FE2FEE278C8104
:101200003F01682A6D8170E0762F66278E81682BFA
:101210004F8150E0542F44278885482B298530E0A2
:10122000322F22278A85282B8B8590E0982F8827BC
:10123000AC858A2BD701AD90BC90A981B0E0BA2FC4
:10124000AA279A80A929AA19BB09BC8BAB8BF701E5
:10125000A281B381F301EA1BFB0BFE8BED8BD7015F
:101260001496ED91FC9115976E1B7F0B788F6F8B09
:10127000F80160817181461B570B5E874D87428163
:101280005381241B350B388B2F8724813581821B9A
:10129000930B9A8B898BCE010D960E94BA00CE01DA
:1012A00043960E94EE00D394CD109DCF68960FB662
:1012B000F894DEBF0FBECDBFDF91CF911F910F918C
:1012C000FF90EF90DF90CF90BF90AF909F907F9076
:1012D0006F9008958091CB028F3009F013C18091F7
:1012E000E30281110FC18091CA02883109F00AC15D
:1012F000EBECF2E08181228190E0922B9770A8EADA
:10130000B2E013969C938E93129722818381269547
:101310002695269530E2839FC0011124822B977079
:1013200015969C938E931497938124818581929531
:1013300096959695937030E0220F331F220F331F3E
:10134000292B90E0982F8827990F990F822B932BA8
:10135000977017969C938E93169725818681269574
:1013600030E8839FC0011124822B977019969C93BB
:101370008E9318972681878122952F7030E1839F65
:10138000C0011124822B97701B969C938E931A9701
:10139000978120858185991F9927991F30E0220F19
:1013A000331F292B90E0982F8827990F822B932B9E
:1013B00097701D969C938E931C9721858285269508
:1013C000269530E4839FC0011124822B97701F96CD
:1013D0009C938E931E972285838522952695277050
:1013E00090E0880F991F880F991F880F991F822BF3
:1013F00051969C938E9350978485258590E0922BEF
:10140000977053969C938E93529725858685269543
:101410002695269530E2839FC0011124822B977078
:1014200055969C938E93549796852785808992959F
:1014300096959695937030E0220F331F220F331F3D
:10144000292B90E0982F8827990F990F822B932BA7
:10145000977057969C938E935697208981892695ED
:1014600030E8839FC0011124822B977059969C937A
:101470008E9358972189828922952F7030E1839F1E
:10148000C0011124822B97705B969C938E935A9780
:10149000928923898489991F9927991F30E0220F07
:1014A000331F292B90E0982F8827990F822B932B9D
:1014B00097705D969C938E935C9724898589269579
:1014C000269530E4839FC0011124822B97705F968C
:1014D0009C938E935E972589868922952695277001
:1014E00090E0880F991F880F991F880F991F822BF2
:1014F00091969C938E939097878990E011969C93F8
:101500008E932DC08091CB028F3021F088E191E045
:101510000E9448108091E302882321F089E291E043
:101520000E9448108091CA028831C9F06091CA02B5
:1015300070E08AE391E00E94001211C0FC01E553C3
:10154000FD4F208301968A319105C1F78FEF9FEF00
:1015500090930301809302018093CA02089580E072
:1015600090E02FEFEBCFEAECF0E0808188618083A0
:1015700089E090E09093CD008093CC0080E9809347
:10158000C90008951F920F920FB60F9211248F93E6
:101590009F93EF93FF938091CE008F30A9F49091A9
:1015A0000001943088F01092CA02E091CA02F0E083
:1015B000E553FD4F808384E090E090930301809396
:1015C0000201109201011FC09091CA02983161F48A
:1015D000E091CA02F0E0E553FD4F8FEF8083109257
:1015E0000301109202010FC09091CA029F3F59F06F
:1015F0009091CA029F5F9093CA02E091CA02F0E004
:10160000E553FD4F808310920001FF91EF919F9170
:101610008F910F900FBE0F901F901895CF93DF936F
:10162000CDB7DEB72C970FB6F894DEBF0FBECDBF97
:1016300084E190E090934F0280934E020E94CC018F
:10164000882321F0CE0101960E94E4020E94D50178
:10165000882321F0CE0107960E94DE03BE01695F58
:101660007F4FCE0101960E94B605409150025091E5
:101670005102609152027091530282E491E00E9403
:101680003E11409144025091450260914602709192
:10169000470287E491E00E943E112C960FB6F89421
:1016A000DEBF0FBECDBFDF91CF910895EEE6F0E033
:1016B00080818160808385B5836085BD08950E94A7
:1016C000C20B0E94540C0895E0910401F0910501B1
:1016D00080819181892B29F4E0910601F091070125
:1016E0000995E0910801F091090180819181892B90
:1016F00029F4E0910A01F0910B01099508951F92D8
:101700000F920FB60F9211242F938F939F93EF9305
:10171000FF93E0910401F09105018081918101978F
:101720008E3F2FEF920710F491838083E0910801A0
:10173000F09109018081918101978E3F2FEF9207EF
:1017400010F491838083809101018F3F19F08F5FA6
:10175000809301018091F4028F3F19F08F5F809395
:10176000F402809100018F3F19F08F5F8093000198
:10177000FF91EF919F918F912F910F900FBE0F903E
:101780001F901895E1E9F0E080818860808380E413
:101790009CE99093990080939800C19AA1E7B0E0EA
:1017A0008C9182608C93C29A8C9184608C9380819E
:1017B0008260808308951F920F920FB60F921124BA
:1017C0000F900FBE0F901F9018951F920F920FB69B
:1017D0000F9211242F933F934F935F936F937F93B7
:1017E0008F939F93AF93BF93EF93FF9360911D03EC
:1017F000862F90E0FC01EE0FFF1FE80FF91FE25E5D
:10180000FC4F2181328121304DE7340760F0FC012B
:10181000EE0FFF1FE80FF91FE25EFC4F20E03DE7EF
:10182000328321830EC02836324458F4FC01EE0F77
:10183000FF1FE80FF91FE25EFC4F28E632E4328317
:101840002183FC01EE0FFF1F8E0F9F1FFC01E25E44
:10185000FC4F818192810E94600C80911D038F5FFB
:1018600080931D03833078F490E0019648E853E1BB
:10187000849F9001859F300D949F300D11243093EB
:101880009B0020939A00FF91EF91BF91AF919F91A0
:101890008F917F916F915F914F913F912F910F9019
:1018A0000FBE0F901F901895E1EAF0E080818860EC
:1018B0008083C99AE2E7F0E08081826080830895A6
:1018C0000097D9F0609329031092A5001092A4000C
:1018D0009093A9008093A80028B181E090E0009047
:1018E000290302C0880F991F0A94E2F7822B88B956
:1018F000E1EAF0E080818160808308951F920F9279
:101900000FB60F9211242F938F939F93EF93FF9312
:1019100028B181E090E00090290302C0880F991F50
:101920000A94E2F78095822388B9E1EAF0E08081A9
:101930008E7F8083FF91EF919F918F912F910F90D8
:101940000FBE0F901F9018951F920F920FB60F9217
:1019500011242F933F934F935F938F939F93AF9354
:10196000BF93EF93FF93E0912D03E695E695E695FF
:10197000E7704E2F50E084E1E89FF0011124E25D12
:10198000FC4F8081282F2E7FE3898E2F90E0FC0171
:101990003497E930F10508F0E4C1E65AFF4F0C94A2
:1019A0004F152093BB0085E88093BC00E0912D0388
:1019B000E695E695E695E77084E1E89FF00111244D
:1019C000E25DFC4F85E0838BCCC184E1849FF00114
:1019D000859FF00D1124E25DFC4F91819093BB0037
:1019E00095E89093BC00E0912D03E695E695E69589
:1019F000E7708E9FF0011124E25DFC4F86E0838B3F
:101A0000B0C184E1849FF001859FF00D1124E25D57
:101A1000FC4F808180FF12C085EA8093BC00E0917A
:101A20002D03E695E695E695E77084E1E89FF001E1
:101A30001124E25DFC4F87E0838B93C184E1849F96
:101A4000F001859FF00D1124E25DFC4F8785823007
:101A5000E8F084E1849FF001859FF00D1124E25DA0
:101A6000FC4F92819093BB0095E89093BC00E0916D
:101A70002D03E695E695E695E7708E9FF00111241B
:101A8000E25DFC4F8BE0838B14861BC084E1849F56
:101A9000F001859FF00D1124E25DFC4F928190933F
:101AA000BB0095E89093BC00E0912D03E695E69588
:101AB000E695E7708E9FF0011124E25DFC4F8CE00B
:101AC000838BE0912D03E695E695E695E77084E13A
:101AD000E89FF0011124E25DFC4F878581508787E4
:101AE00040C181E0820F8093BB0085E88093BC00F9
:101AF000E0912D03E695E695E695E77084E1E89F91
:101B0000F0011124E25DFC4F88E0838B2AC184E15F
:101B1000849FF001859FF00D1124E25DFC4F8785C5
:101B2000823090F085EC8093BC00E0912D03E69527
:101B3000E695E695E77084E1E89FF0011124E25D07
:101B4000FC4F89E0838B11C085E88093BC00E09155
:101B50002D03E695E695E695E77084E1E89FF001B0
:101B60001124E25DFC4F8AE0838BE0912D03E69522
:101B7000E695E695E77084E1E89FF0011124E25DC7
:101B8000FC4F878581508787ECC084E1849FF001FA
:101B9000859FF00D1124E25DFC4FA585B6859D0162
:101BA0002F5F3F4F368725879091BB009C93E09134
:101BB0002D03E695E695E695E7708E9FF0011124DA
:101BC000E25DFC4F8785823090F085EC8093BC000D
:101BD000E0912D03E695E695E695E77084E1E89FB0
:101BE000F0011124E25DFC4F89E0838B11C085E890
:101BF0008093BC00E0912D03E695E695E695E770AD
:101C000084E1E89FF0011124E25DFC4F8AE0838BC0
:101C1000E0912D03E695E695E695E77084E1E89F6F
:101C2000F0011124E25DFC4F87858150878799C0C0
:101C300084E1849FF001859FF00D1124E25DFC4F4B
:101C4000A585B6859D012F5F3F4F368725879091EB
:101C5000BB009C93E0912D03E695E695E695E77031
:101C60008E9FF0011124E25DFC4FA089B189928919
:101C70009C9395E99093BC00E0912D03E695E69541
:101C8000E695E7708E9FF0011124E25DFC4F81E044
:101C9000838B67C084E1849FF001859FF00D112440
:101CA000E25DFC4F87858230E8F084E1849FF0019B
:101CB000859FF00D1124E25DFC4F92819093BB0053
:101CC00095E89093BC00E0912D03E695E695E695A6
:101CD000E7708E9FF0011124E25DFC4F8BE0838B57
:101CE00014861BC084E1849FF001859FF00D1124B0
:101CF000E25DFC4F92819093BB0095E89093BC000D
:101D0000E0912D03E695E695E695E7708E9FF0014C
:101D10001124E25DFC4F8CE0838BE0912D03E6956E
:101D2000E695E695E77084E1E89FF0011124E25D15
:101D3000FC4F87858150878714C085E98093BC005C
:101D4000E0912D03E695E695E695E77084E1E89F3E
:101D5000F0011124E25DFC4F81E0838B8FEF8093D3
:101D60002A03FF91EF91BF91AF919F918F915F9166
:101D70004F913F912F910F900FBE0F901F9018958C
:101D80008CE491E00E94481080E00895CF93DF93A7
:101D9000CDB7DEB72C970FB6F894DEBF0FBECDBF20
:101DA000CE0101960E947E01CE0107960E94A501F8
:101DB00049815A81052E000C660B770B8CE591E06A
:101DC0000E943E114B815C81052E000C660B770B47
:101DD00081E691E00E943E114D815E81052E000C4E
:101DE000660B770B86E691E00E943E114F81588585
:101DF000052E000C660B770B8BE691E00E943E11DE
:101E000049855A85052E000C660B770B80E791E01B
:101E10000E943E114B855C85052E000C660B770BEE
:101E200085E791E00E943E1180E02C960FB6F89471
:101E3000DEBF0FBECDBFDF91CF910895CF93DF936B
:101E400000D000D000D0CDB7DEB70E94CC018823EF
:101E5000C1F0CE0101960E94E40249815A81052E0B
:101E6000000C660B770B8CE591E00E943E114B81D4
:101E70005C81052E000C660B770B81E691E00E94D9
:101E80003E110E94D501882311F1CE0101960E94D6
:101E9000DE0349815A81052E000C660B770B8BE619
:101EA00091E00E943E114B815C81052E000C660B77
:101EB000770B80E791E00E943E114D815E81052EF7
:101EC000000C660B770B85E791E00E943E110E94A3
:101ED000D501482F50E060E070E08AE791E00E9471
:101EE0003E1180E026960FB6F894DEBF0FBECDBF40
:101EF000DF91CF9108954F925F926F928F929F9250
:101F0000AF92BF92CF92DF92EF92FF920F931F9307
:101F1000CF93DF93CDB7DEB7A2970FB6F894DEBFAD
:101F20000FBECDBFFE0131969E012F5D3F4F119236
:101F30002E173F07E1F7861799F010E0A1E0B0E017
:101F4000AC0FBD1FA10FB11DE82FF0E0E253FC4F15
:101F500090819C938F5F8F711F5F6813EFCF01C0DB
:101F600010E0AE014F5D5F4F6BE871E0CE0101966E
:101F70000E94C9155C01FC0101900020E9F731972E
:101F80006E2E681A0F2EF4EFEF2EF0E0FF2EF02DDC
:101F9000C12CD12C00E0812E912CC7010E94A815E4
:101FA000681218C0A401B701C5010E94B115892BA0
:101FB00089F486E18C9DF0018D9DF00D1124E85F80
:101FC000FE4F2591349189A19AA1F9010995033019
:101FD000A1F409C00F5FFFEFCF1ADF0A86E1E80E18
:101FE000F11C0330D1F68DE791E00E942B10CE0159
:101FF00001960E942B100E944110A2960FB6F894F1
:10200000DEBF0FBECDBFDF91CF911F910F91FF902B
:10201000EF90DF90CF90BF90AF909F908F906F9098
:102020005F904F9008950E943B120895882391F08D
:102030008A3081F0E0919401F0E0E253FC4F80831C
:10204000809194018F5F8F718093940180919401AE
:102050008091950108950F931F93CF93FC01808188
:10206000882359F08F01C0E00E944512CF5FF8012C
:10207000EC0FF11D80818111F7CFCF911F910F914E
:1020800008958DE00E9445128AE00E94451208954D
:102090000E942B100E94411008954F925F926F9200
:1020A0007F928F929F92AF92BF92CF92DF92EF92E8
:1020B000FF920F931F93CF93DF93CDB7DEB7A8970F
:1020C0000FB6F894DEBF0FBECDBF6B017C01FE01E1
:1020D00075968E010F5F1F4FCE014D96D80111925C
:1020E0001D92E817F907D9F7FF200CF05DC081C0F9
:1020F0005E0126E1A20EB11C992493940F2EFAE002
:102100004F2E512C612C712CF02D01C0982EC7013F
:10211000B601A30192010E94301520E3260FD501DC
:102120002D935D01A7019601261B370B480B590B18
:10213000CA01B901A30192010E94301569017A0117
:10214000232B242B252B21F081E0890D8431F1F6FE
:1021500021E0290D882054F402C021E0912CFE01D9
:10216000E20FF11D8DE2858B22E0290D211102C0C5
:102170000FC021E0E5E1F0E0EC0FFD1FE20FF11DE3
:1021800080E09291D8019D938D018F5F8217C8F3F3
:10219000E1E0F0E0EC0FFD1FE20FF11D1082CE0137
:1021A00001960E942B1053C00F2EFAE08F2E912C17
:1021B000A12CB12CF02DC701B601A50194010E94FC
:1021C000301520E3260F2D8BA7019601261B370B18
:1021D000480B590BCA01B901A50194010E943015A1
:1021E00069017A01232B242B252B19F2882483944F
:1021F0007FCFF094E094D094C094C11CD11CE11C1A
:10220000F11C0F2EFAE08F2E912CA12CB12CF02D69
:10221000C701B601A50194010E94301520E3260FE5
:102220002D8BA7019601261B370B480B590BCA01B2
:10223000B901A50194010E94301569017A01232B8F
:10224000242B252B09F489CF88248A9451CFA89672
:102250000FB6F894DEBF0FBECDBFDF91CF911F91B7
:102260000F91FF90EF90DF90CF90BF90AF909F9035
:102270008F907F906F905F904F900895CF92DF92F4
:10228000EF92FF926A017B010E942B10C701B601F9
:102290000E944D100E944110FF90EF90DF90CF9070
:1022A0000895EF92FF920F931F93CF93DF93CDB7D3
:1022B000DEB760970FB6F894DEBF0FBECDBFAC019E
:1022C000FE0139968E010F5F1F4FCE014196D80156
:1022D00011921D92E817F907D9F79A01ADECBCEC01
:1022E0000E945D1596958795969587959695879505
:1022F0009C01220F331F880F991F880F991F880F89
:10230000991F820F931F9A01281B390BC90120E3E3
:10231000280F29879A01281B390B0E945D15AC01F3
:1023200056954795569547955695479541155105AC
:1023300009F43FC07E013AE0E30EF11CE1E001C088
:10234000E82F9A01ADECBCEC0E945D15969587953F
:1023500096958795969587959C01220F331F880F38
:10236000991F880F991F880F991F820F931FDA01F9
:10237000A81BB90BCD0120E32A0FD7012D937D01B6
:102380009A01281B390BADECBCEC0E945D15AC0129
:10239000569547955695479556954795411551053C
:1023A00021F081E08E0F883059F691E09E0F11F4F4
:1023B0000FC091E0E9E0F0E0EC0FFD1FE90FF11D27
:1023C00080E02291D8012D938D018F5F8917C8F38A
:1023D000E1E0F0E0EC0FFD1FE90FF11D1082CE01EE
:1023E00001960E942B1060960FB6F894DEBF0FBEC8
:1023F000CDBFDF91CF911F910F91FF90EF90089586
:10240000CF93DF93EB010E942B10CE010E9451115C
:102410000E944110DF91CF910895CF939091940144
:1024200080919501981729F1C091950180919401AF
:10243000C817F9F0EC2FF0E0E253FC4F80818D30AB
:1024400091F407C0EC2FF0E0E253FC4F80818D3017
:1024500051F4809195016C2F0E947B0FCF5FCF715B
:10246000C093950106C0CF5FCF71809194018C130A
:10247000E9CFCF91089583E090E09093C5008093D9
:10248000C40088ED8093C10008959091C00095FF2D
:1024900009C02091920190919301291303C0809368
:1024A000C6000895E0919201F0E0E251FC4F808374
:1024B000809192018F5F8F778093920108951F9290
:1024C0000F920FB60F9211248F939F93EF93FF9368
:1024D0009091930180919201981303C08091C6005E
:1024E0000EC0E0919301F0E0E251FC4F80818093B7
:1024F000C600809193018F5F8F7780939301FF9146
:10250000EF919F918F910F900FBE0F901F90189594
:102510001F920F920FB60F9211242F933F934F9358
:102520005F936F937F938F939F93AF93BF93EF933B
:10253000FF938091C6000E941610FF91EF91BF910A
:10254000AF919F918F917F916F915F914F913F914B
:102550002F910F900FBE0F901F9018955058BB27CA
:10256000AA270E94C6120C946D140E945F1438F0C2
:102570000E94661420F039F49F3F19F426F40C945D
:1025800035140EF4E095E7FB0C942F14E92F0E940C
:102590007E1458F3BA17620773078407950720F073
:1025A00079F4A6F50C94A0140EF4E0950B2EBA2F36
:1025B000A02D0B01B90190010C01CA01A001112449
:1025C000FF27591B99F0593F50F4503E68F11A16F5
:1025D000F040A22F232F342F4427585FF3CF469586
:1025E00037952795A795F0405395C9F77EF41F16A8
:1025F000BA0B620B730B840BBAF09150A1F0FF0F72
:10260000BB1F661F771F881FC2F70EC0BA0F621F5D
:10261000731F841F48F4879577956795B795F7954D
:102620009E3F08F0B0CF9395880F08F09927EE0FE2
:10263000979587950895DF93DD27B92FBF7740E8F9
:102640005FE31616170648075B0718F4D92F0E9498
:10265000A7149F938F937F936F930E941C15E6ECB2
:10266000F0E00E9438140E946D142F913F914F9119
:102670005F910E94C214DD2351F09058A2EA2AED26
:102680003FE049EC5FE3D0785D270E94C612DF91FE
:102690000C946D140E945E130C946D140E946614C9
:1026A00058F00E945F1440F029F45F3F29F00C9429
:1026B0002F1451110C94A1140C9435140E947E1403
:1026C00068F39923B1F3552391F3951B550BBB2761
:1026D000AA2762177307840738F09F5F5F4F220FA6
:1026E000331F441FAA1FA9F335D00E2E3AF0E0E89D
:1026F00032D091505040E695001CCAF72BD0FE2FE7
:1027000029D0660F771F881FBB1F2617370748077A
:10271000AB07B0E809F0BB0B802DBF01FF27935832
:102720005F4F3AF09E3F510578F00C942F140C94B3
:10273000A1145F3FE4F3983ED4F3869577956795AF
:10274000B795F7959F5FC9F7880F911D9695879567
:1027500097F90895E1E0660F771F881FBB1F621786
:1027600073078407BA0720F0621B730B840BBA0B44
:10277000EE1F88F7E09508950E94C3136894B11185
:102780000C94A11408950E94861488F09F5798F025
:10279000B92F9927B751B0F0E1F0660F771F881F66
:1027A000991F1AF0BA95C9F714C0B13091F00E9480
:1027B000A014B1E008950C94A014672F782F8827F7
:1027C000B85F39F0B93FCCF3869577956795B395A7
:1027D000D9F73EF490958095709561957F4F8F4F16
:1027E0009F4F0895E89409C097FB3EF4909580951B
:1027F000709561957F4F8F4F9F4F9923A9F0F92FC7
:1028000096E9BB279395F695879577956795B79544
:10281000F111F8CFFAF4BB0F11F460FF1BC06F5F2A
:102820007F4F8F4F9F4F16C0882311F096E911C03C
:10283000772321F09EE8872F762F05C0662371F05D
:1028400096E8862F70E060E02AF09A95660F771F71
:10285000881FDAF7880F9695879597F9089597F965
:102860009F6780E870E060E008959FEF80EC089536
:10287000DF93CF931F930F93FF92EF92DF927B0131
:102880008C01689406C0DA2EEF010E94C214FE018A
:10289000E894A5912591359145915591A6F3EF01C5
:1028A0000E94C612FE019701A801DA9469F7DF9031
:1028B000EF90FF900F911F91CF91DF910895002429
:1028C0000A941616170618060906089500240A9495
:1028D00012161306140605060895092E0394000C1B
:1028E00011F4882352F0BB0F40F4BF2B11F460FFAA
:1028F00004C06F5F7F4F8F4F9F4F089557FD9058D3
:10290000440F551F59F05F3F71F04795880F97FBB3
:10291000991F61F09F3F79F087950895121613066D
:102920001406551FF2CF4695F1DF08C0161617069C
:102930001806991FF1CF86957105610508940895D1
:10294000E894BB2766277727CB0197F908959B0169
:10295000AC0160E070E080E89FE30C944A130E94B1
:10296000C2140C946D140E945F1438F00E94661417
:1029700020F0952311F00C942F140C94351411248D
:102980000C94A1140E947E1470F3959FC1F3950FCF
:1029900050E0551F629FF001729FBB27F00DB11DE3
:1029A000639FAA27F00DB11DAA1F649F6627B00D73
:1029B000A11D661F829F2227B00DA11D621F739F5C
:1029C000B00DA11D621F839FA00D611D221F749F6A
:1029D0003327A00D611D231F849F600D211D822FB1
:1029E000762F6A2F11249F5750409AF0F1F08823D8
:1029F0004AF0EE0FFF1FBB1F661F771F881F915005
:102A00005040A9F79E3F510580F00C942F140C9470
:102A1000A1145F3FE4F3983ED4F3869577956795CC
:102A2000B795F795E7959F5FC1F7FE2B880F911D2E
:102A30009695879597F908959B01AC010C94AF1476
:102A4000DB018F939F930E947315BF91AF91A29F5B
:102A5000800D911DA39F900DB29F900D112408959C
:102A6000052E97FB1EF400940E94471557FD07D0D2
:102A70000E94861507FC03D04EF40C944715509520
:102A80004095309521953F4F4F4F5F4F089590955A
:102A90008095709561957F4F8F4F9F4F0895EE0FF2
:102AA000FF1F0590F491E02D09940E945D153323DA
:102AB00012F48A1B9B0B0C946E15A29FB001B39F5E
:102AC000C001A39F700D811D1124911DB29F700D37
:102AD000811D1124911D08950E945D15B7FF089571
:102AE000821B930B08950E945D15A59F900DB49FC6
:102AF000900DA49F800D911D11240895B7FF0C9493
:102B000073150E947315821B930B0895A1E21A2E70
:102B1000AA1BBB1BFD010DC0AA1FBB1FEE1FFF1F81
:102B2000A217B307E407F50720F0A21BB30BE40BD1
:102B3000F50B661F771F881F991F1A9469F7609518
:102B40007095809590959B01AC01BD01CF010895D2
:102B5000FC0105900020E9F7809590958E0F9F1F4E
:102B60000895FB01DC014150504088F08D91813483
:102B70001CF08B350CF4805E659161341CF06B3574
:102B80000CF4605E861B611171F3990B0895881B2C
:102B9000FCCFFA01A191B081009719F41097E1F0F0
:102BA000CD01DC01CD010D90002011F4C00113C056
:102BB000FB012191222319F02015D9F7F3CFFB0156
:102BC0002191201519F41E92119606C02223C1F7F7
:102BD0000D900020A1F7D001FA01A193B0830895D0
:102BE000ABE0B0E0E6EFF5E10C9481186C017B01FD
:102BF0008A01FC0117821682838181FFCCC1CE013C
:102C000001963C01F6019381F70193FD859193FFB5
:102C100081917F01882309F4BAC1853239F493FD8B
:102C2000859193FF81917F01853229F4B60190E06F
:102C30000E94E717E7CF912C212C312CFFE1F315EF
:102C4000D8F08B3279F038F4803279F08332A1F405
:102C5000232D20611DC08D3261F0803369F4232D56
:102C6000216016C0832D8260382EE32DE4603E2E55
:102C70002AC0F32DF8601DC037FC2DC020ED280FB1
:102C80002A3040F08E32B9F436FC81C1232D206405
:102C9000322E19C036FE06C08AE0989E200D1124FF
:102CA000922E11C0EAE02E9E200D1124222EF32D2B
:102CB000F0623F2E08C08C3621F4832D8068382EB8
:102CC00002C0883641F4F70193FD859193FF81910D
:102CD0007F018111B3CF982F9F7D9554933028F4B5
:102CE0000C5F1F4F9FE399830DC0833631F083370C
:102CF00071F0833509F059C021C0F80180818983C2
:102D00000E5F1F4F88248394912C530113C0280118
:102D1000F2E04F0E511CF801A080B18036FE03C0D6
:102D2000692D70E002C06FEF7FEFC5010E94DC17D4
:102D30004C018201F32DFF773F2E16C0280122E0BF
:102D4000420E511CF801A080B18036FE03C0692DEF
:102D500070E002C06FEF7FEFC5010E94D1174C01F8
:102D6000F32DF0683F2E820133FC1BC0822D90E0D2
:102D700088169906B0F4B60180E290E00E94E71749
:102D80002A94F4CFF50137FC859137FE81915F01DC
:102D9000B60190E00E94E71721102A9421E0821AE0
:102DA00091088114910471F7E8C0843611F08936D6
:102DB00041F5F80137FE07C06081718182819381FE
:102DC0000C5F1F4F08C060817181072E000C880BBB
:102DD000990B0E5F1F4FF32DFF763F2E97FF09C013
:102DE00090958095709561957F4F8F4F9F4FF068BC
:102DF0003F2E2AE030E0A3010E942318882E861877
:102E000045C0853731F4232D2F7EB22E2AE030E0E5
:102E100025C0932D997FB92E8F36C1F018F48835CF
:102E200079F0B5C0803719F0883721F0B0C0E92FAC
:102E3000E061BE2EB4FE0DC0FB2DF460BF2E09C0B4
:102E400034FE0AC0292F2660B22E06C028E030E0EA
:102E500005C020E130E002C020E132E0F801B7FE19
:102E600007C060817181828193810C5F1F4F06C012
:102E70006081718180E090E00E5F1F4FA3010E948E
:102E80002318882E8618FB2DFF773F2E36FE0DC0A7
:102E9000232D2E7FA22E891458F434FE0BC032FC51
:102EA00009C0832D8E7EA82E05C0B82CA32C03C08C
:102EB000B82C01C0B92CA4FE0FC0FE01E80DF11D15
:102EC0008081803321F49A2D997EA92E09C0A2FE1B
:102ED00006C0B394B39404C08A2D867809F0B394E5
:102EE000A3FC11C0A0FE06C0B21488F4280C922CDA
:102EF0009B180EC0B21460F4B60180E290E00E940C
:102F0000E717B394F7CFB21418F42B1802C0982C1B
:102F1000212CA4FE10C0B60180E390E00E94E717C8
:102F2000A2FE17C0A1FC03C088E790E002C088E5BC
:102F300090E0B6010CC08A2D867859F0A1FE02C03F
:102F40008BE201C080E2A7FC8DE2B60190E00E9416
:102F5000E717891438F4B60180E390E00E94E71780
:102F60009A94F7CF8A94F301E80DF11D8081B601A0
:102F700090E00E94E7178110F5CF222009F442CE9D
:102F8000B60180E290E00E94E7172A94F6CFF6019E
:102F90008681978102C08FEF9FEF2B96E2E10C9420
:102FA0009D18FC010590615070400110D8F7809584
:102FB00090958E0F9F1F0895FC0161507040019005
:102FC0000110D8F7809590958E0F9F1F08950F934D
:102FD0001F93CF93DF93FB01238121FD03C08FEF6C
:102FE0009FEF2CC022FF16C0468157812481358176
:102FF0004217530744F4A081B1819D012F5F3F4FD9
:10300000318320838C93268137812F5F3F4F378315
:10301000268314C08B01EC01FB010084F185E02DB7
:103020000995892BE1F6D80116968D919C911797F9
:10303000019617969C938E931697CE01DF91CF91B0
:103040001F910F910895FA01AA27283051F12031DC
:1030500081F1E8946F936E7F6E5F7F4F8F4F9F4F2C
:10306000AF4FB1E03ED0B4E03CD0670F781F891F6E
:103070009A1FA11D680F791F8A1F911DA11D6A0F3C
:10308000711D811D911DA11D20D009F468943F91EF
:103090002AE0269F11243019305D3193DEF6CF01EE
:1030A0000895462F4770405D4193B3E00FD0C9F7B4
:1030B000F6CF462F4F70405D4A3318F0495D31FD21
:1030C0004052419302D0A9F7EACFB4E0A695979574
:1030D000879577956795BA95C9F70097610571054A
:1030E00008959B01AC010A2E069457954795379594
:1030F0002795BA95C9F7620F731F841F951FA01DEE
:1031000008952F923F924F925F926F927F928F928B
:103110009F92AF92BF92CF92DF92EF92FF920F9366
:103120001F93CF93DF93CDB7DEB7CA1BDB0B0FB670
:10313000F894DEBF0FBECDBF09942A88398848882D
:103140005F846E847D848C849B84AA84B984C884C3
:10315000DF80EE80FD800C811B81AA81B981CE0FBA
:10316000D11D0FB6F894DEBF0FBECDBFED0108959F
:04317000F894FFCF01
:10317400FFFFFFFF4E020E0B02016A0955617274D4
:1031840020647A69616C610057726F6E67205362C4
:103194007573206672616D650057726F6E67206C7F
:1031A400617374206672616D650073627573203D8E
:1031B400200042205820004220592000556172749A
:1031C40020697320776F726B696E670047205820FF
:1031D40000472059200047205A2000412058200051
:1031E400412059200041205A200053200057726F7B
:0E31F4006E6720636F6D6D616E643A2000009F
:00000001FF
